:0A04D20078007441F278167464F2A9
:2004E700AF828F06BE0802801BBE0D028005BE7F30801175820A12490C7812E22401F8E4A7
:20050700F2D201227812E2606475820812490C75822012490C75820812490C7812E214F201
:20052700227812E2B41000503E8F82C007C006127068E582D006D00760338F82C007C00607
:20054700127036E582D006D00760055306DF80028F068E077812E2FE781204F2EE2401F88A
:20056700EFF28F8202490CC2007812E4F222AF82BF2B0280047815E4F27815C3E2F5F07458
:200587000495F0402C7815E275F003A4900597730205BC0205A60205A60205AD0205BC7839
:2005A70015E22401F22278157404F278167464F2227815E4F278167464F2227816E26038AE
:2005C7007816E214F27816E2702E7815E260087815E2B40423800678157401F222D2007889
:2005E70015E4F278017441F278027454F27803E4F278127402F2D20122AF82BF3000400D10
:20060700EF24C640088F06EE24D0F58222BF4100400DEF24B940088F0674C92EF58222BFE9
:200627006100400BEF2499400674A92FF582227861E2C0E008E2C0E074E6C0E07472C0E0CB
:200647007480C0E01234D0E58124FBF58175820022AD82AE83AFF0127243F582C007C0060B
:20066700C005120600AC82D005D006D007ECC454F0FC0DBD00010E8D828E838FF0127243B7
:20068700F582C004120600AF82D004EF2CF58222E5812404F5817C007D007E007F007813C2
:2006A700E22401F9E3FBF582C007C006C005C004C003126BB3E582D003D004D005D006D04C
:2006C70007606D900606ECF0EDA3F0EEA3F0EFA3F090000AE4F5F0C003126D34AF82AE8309
:2006E700ADF0FCD0038B027B00EA24D0FAEB34FFFBE58124FDF8A60208A603EB3395E0081B
:20070700F608F6E58124FDF8E62FF608E63EF608E63DF608E63CF6E58124FDF8860408865A
:20072700050886060886077813E22401F20206A58C828D838EF0EFC8E58124FCF581C8221A
:20074700200101227812E2B40200E433FF70637801E2FEBE525C7802E2FEBE5455781374BE
:2007670003F278127913C3E2F5F0E395F050157813E22401F9E3FEBE2C0280087813E2249F
:2007870001F280DE7813E22401F9E3FEBE2C167813E2FE781304F2EE2401F8E4F212069719
:2007A700125259800690FFFF1252597812E4F2C20122EF70667801E2FFBF415F7802E2FF86
:2007C700BF54587803E2FF6023BF26028023BF2B028023BF49028023BF4F028028BF500239
:2007E700801EBF53028027BF5A2E8027120829802A120A708025120CAB8020120867801B08
:20080700120B4A801678167464F2C200800D1209E5800843EF1080FE1208487812E4F2C261
:2008270001227861E2C0E008E2C0E0741EC0E07473C0E07480C0E01234D0E58124FBF5814B
:20084700227861E2C0E008E2C0E07427C0E07473C0E07480C0E01234D0E58124FBF5812201
:200867007804E2FF6037BF30028032BF31028058BF32030208FABF3303020920BF34030200
:200887000949BF3503020972BF3603020984BF3703020987BF380302098A0209E274B4C015
:2008A700E07475C0E07480C0E07861E2C0E008E2C0E07433C0E07473C0E07480C0E01234A7
:2008C700D0E58124F8F5812274CAC0E07475C0E07480C0E07861E2C0E008E2C0E07433C0E0
:2008E700E07473C0E07480C0E01234D0E58124F8F581227481C0E0E4C0E07861E2C0E0084A
:20090700E2C0E0743CC0E07473C0E07480C0E01234D0E58124F9F58122781AE2FE7F00C001
:2009270006C0077861E2C0E008E2C0E0743CC0E07473C0E07480C0E01234D0E58124F9F505
:200947008122781BE2FE7F00C006C0077861E2C0E008E2C0E0743CC0E07473C0E07480C0FE
:20096700E01234D0E58124F9F581227F008F82C007122B09D0070FBF130040F1220263232F
:200987000249B57861E2F5F008E245F070207861E2C0E008E2C0E07445C0E07473C0E074C8
:2009A70080C0E01234D0E58124FBF581802C125F159202E433FE7F00C006C0077861E2C09D
:2009C700E008E2C0E07456C0E07473C0E07480C0E01234D0E58124F9F58122020848781313
:2009E7007403F2120697AC82AD83AEF0FFBC130040030208487813E22401F9E3FFBF3D020E
:200A07008036BF3F618C821226E1AB82AD83AEF0FFC003C005C006C0077861E2C0E008E23F
:200A2700C0E07465C0E07473C0E07480C0E01234D0E58124F7F58122EC602B7813E2240143
:200A4700F2C004120697AB82AD83AEF0FFD004784EEBF208EDF208EEF208EFF28C821224BD
:200A6700EF50030208290208487804E2FFBF46028012BF54028053BF55028014BF57028088
:200A870009020B471229D70208291229800208299005FC746FF07473A3F07480A3F09000CA
:200AA7000575F060126C37E5828583F045F0701775B7A575B7F1758F0390F7FE74FFF07543
:200AC7008F0043EF1080FE0208489005FC7475F07473A3F07480A3F090000575F060126C2B
:200AE70037E5828583F045F070057814E4F2229005FC7476F07473A3F07480A3F09000052A
:200B070075F060126C37E5828583F045F070077814E26401F2229005FC747CF07473A3F077
:200B27007480A3F090000575F060126C37E5828583F045F070077814E26402F222020848D3
:200B47000208487804E2FFBF50028003020BF47F008F057E00C007C005C0067861E2C0E00C
:200B670008E2C0E07481C0E07473C0E07480C0E01234D0E58124F9F581D0078F82C0071264
:200B87002F19D007501BC007748EC0E07473C0E07480C0E01234D0158115811581D0078011
:200BA70019C0077496C0E07473C0E07480C0E01234D0158115811581D0078F82C0071230C0
:200BC700D19203E433FD7E00C005C006749EC0E07473C0E07480C0E01234D0E58124FBF52E
:200BE70081D0070FBF02005003020B58227805E2FFBF3D0C7806E2F582126BB3E5827003A5
:200C07000208487806E224D0FF7804E2FEBE4302805EBE49028016BE4F028008BE52028023
:200C270015020CA5D2118F82122C588074C2118F82122C58806B8F82C007122F19D00740B9
:200C47002C8F821230F0AE827D00C006C0057861E2C0E008E2C0E074A7C0E07473C0E0744B
:200C670080C0E01234D0E58124F9F581220208487808E2F582C007126BB3E582D007601B41
:200C87007808E2FE3395E0FDEE24D0FEED34FF4E24FF92138F82122F374006020848020807
:070CA7004802082902084879
:2072E6005B25755D20726561645F6865785F6E6962626C653A204572726F722063686172E9
:20730600206E6F7420696E20737570706F727465642072616E6765005B25755D204F4B0AB6
:20732600005B25755D204552524F520A005B25755D2025730A005B25755D2025750A005BBC
:2073460025755D2053796E633A20426173650A005B25755D2053796E633A2025750A005B2C
:2073660025755D20256C750A00504441544500003D52535349003D54444D005B25755D2060
:2073860050696E3A256420004F75747075742000496E70757420200056616C3A2025640ACC
:0E73A600005B25755D2076616C3A25750A0046
:200CAE00AF827E007D00AB08AC098F021FEA603B8B828C83E0FAA3AB82AC83ED2DF9ED3038
:200CCE00E714890009E89074B4936EFDE99074B493F86AFE80D4890009E89073B493F86EC9
:1B0CEE00FDE99073B493F96AFE80BF8D07E4FDFCEE4205EC42078D828F8322FD
:2073B4000000102120423063408450A560C670E781089129A14AB16BC18CD1ADE1CEF1EFB9
:2073D400123102103273225252B5429472F762D693398318B37BA35AD3BDC39CF3FFE3DE79
:2073F400246234430420140164E674C744A45485A56AB54B85289509E5EEF5CFC5ACD58D39
:20741400365326721611063076D766F6569546B4B75BA77A97198738F7DFE7FED79DC7BCF8
:2074340048C458E5688678A70840186128023823C9CCD9EDE98EF9AF89489969A90AB92BB8
:207454005AF54AD47AB76A961A710A503A332A12DBFDCBDCFBBFEB9E9B798B58BB3BAB1A78
:207474006CA67C874CE45CC52C223C030C601C41EDAEFD8FCDECDDCDAD2ABD0B8D689D4938
:207494007E976EB65ED54EF43E132E321E510E70FF9FEFBEDFDDCFFCBF1BAF3A9F598F78F8
:2074B400918881A9B1CAA1EBD10CC12DF14EE16F108000A130C220E35004402570466067B8
:2074D40083B99398A3FBB3DAC33DD31CE37FF35E02B1129022F332D2423552146277725678
:2074F400B5EAA5CB95A88589F56EE54FD52CC50D34E224C314A00481746664475424440538
:20751400A7DBB7FA879997B8E75FF77EC71DD73C26D336F2069116B06657767646155634F7
:20753400D94CC96DF90EE92F99C889E9B98AA9AB584448657806682718C008E1388228A3B7
:20755400CB7DDB5CEB3FFB1E8BF99BD8ABBBBB9A4A755A546A377A160AF11AD02AB33A9277
:20757400FD2EED0FDD6CCD4DBDAAAD8B9DE88DC97C266C075C644C453CA22C831CE00CC137
:20759400EF1FFF3ECF5DDF7CAF9BBFBA8FD99FF86E177E364E555E742E933EB20ED11EF0F7
:200D090075B7A575B7F122D310AF01C3C0D0AF8474035F4430F584C007120D09D007758F14
:200D29000390F80074FFF0758F008F84D0D092AF22D310AF01C3C0D0AE82AF83AD847403B2
:200D49005D4430F584758F004307F88E828F83E493FF758F008D848F82D0D092AF22D31056
:200D6900AF01C3C0D0AE82AF83AD8474035D4430F584C007C006C005120D09D005D006D01E
:190D890007758F054307F88E828F837817E2F08D84758F00D0D092AF2264
:02F7FE003DC20A
:200DA200AF83E58290010FF0EFA3F090010FE0FEA3E0FF90010EE0FD7C008D027B001ABAB0
:200DC200FF011B8C007900C3E89AE964808BF063F08095F05046C007C006C005C0041269E5
:200DE2002CAA82D004D005D006D0078DF0EA84E5F02EFAE43FFB8A828B83E0F50AC005EC93
:200E02002EF8E43FFD88828D83E0F98A828B83F088828D83E50AF00CD005809E22AF83E55C
:200E220082900111F0EFA3F07F007818C3E2F5F0EF95F0500FEF24DCF582E43400F583EFC9
:200E4200F00F80E6900111E0FEA3E0FF8E828F831269867818E2FF7E008F047D001CBCFF30
:200E6200011D8E027B00C3EA9CEB64808DF063F08095F05042C007C00612692CAC82D00690
:200E8200D0078FF0EC84E5F024DCFCE43400FD8C828D83E0F50BC007EE24DCFAE43400FFE0
:200EA2008A828F83E0FB8C828D83F08A828F83E50BF00ED00780A2227819E224DCF582E434
:200EC2003400F583E0F582227818E2F5F0E484E5F024DCF582E43400F583E0F58222781946
:200EE200E2F58222E582900115F07819F2227819E2FE7F000EBE00010F7818900602E2F00D
:200F0200E4A3F08E828F83126CCBAE82AF837819EEF220040C78187919E2F5F0E484E5F0C4
:070F2200F322A20592042254
:06040000020479024167CD
:01040B0032BE
:0104130032B6
:01041B0032AE
:030423000242ADE5
:03042B0002643533
:010433003296
:01043B00328E
:010443003286
:01044B00327E
:010453003276
:01045B00326E
:010463003266
:01046B00325E
:030473000263AB76
:0304E40002047699
:03047600020F2949
:200F2900758433AFC4781AEFF2AFC3781BEFF212288C40031229D77582061226E1AC8290C1
:200F49000136ECF07582071226E1AC82AD83AEF0FFEC4D4E4F24FF92077582051226E1AC10
:200F690082AD83AEF0FFEC4D4E4F24FF920675820E1226E1AC82AD83AEF0FFEC4D4E4F2475
:200F8900FF9208120FEC12108C123884401574CEC0E07475C0E07480C0E0120FB215811554
:200FA900811581122C0902533E9075E875F080127081E58124FCFFC007E58124FBF8868291
:200FC9000886830886F012324815819075F375F080127081D2AFD2AC9003E812642C43EF29
:200FE9001080FE75A700AFD974BF5FF5D943B28075A90075B64075FF807E5E7F011EBEFF2D
:20100900011FEE4F70F775EF0675D4CF75D5FF75D62875A41075A70F75A41075A70075E1D6
:201029000143E24143A6FD75A70F43A5F575A6FD43B1C043A1C043A50143A50143FA204370
:20104900A32075A70275A14075F80075A20043F801D2A375A700C2891264DB758201122633
:20106900E1AC828C8212440475B800D2AFD2B7C2B6D2EF75BCF975BA0075BB1B75D107751A
:20108900E340221238C3401574F4C0E07475C0E07480C0E0120FB2158115811581781AE272
:2010A900B44302801C781AE2B447028043781AE2B48602806A781AE2B4910302115502118D
:2010C9008278287490F20874D1F20874CFF2087419F2782C7470F208745EF20874EAF20846
:2010E9007419F27834740AF27818740AF20211B978287480F20874A1F2087403F208741CE2
:20110900F2782C74C0F20874E3F2087412F208741CF27834740AF27818740AF20211B9784F
:2011290028E4F20874A1F20874BCF2087433F2782C7440F20874E3F20874CBF2087433F259
:201149007834740AF27818740AF28064782874C0F20874CAF2087489F2087436F2782CE465
:20116900F2087428F2087450F2087437F27834741BF278187432F280377828E4F208F208F7
:20118900F208F2782CE4F208F208F208F27834E4F2781AE2FA7B00C002C003740CC0E0746E
:2011A90076C0E07480C0E0120FB2E58124FBF58175820A1226E1AA82AB83AEF0FFEA4B4E1A
:2011C9004F601175820A1226E1AC82AD83AEF0FF7818ECF27582081226E1AC82AD83AEF0AF
:2011E900FFEC4D4E4F60377582081226E1AC82AD83AEF0FF900606ECF0EDA3F0EEA3F0EFFF
:20120900A3F09003E8E4F5F0126D347828C0E0E582F208E583F208E5F0F2D0E008F27582D0
:20122900091226E1AC82AD83AEF0FFEC4D4E4F60377582091226E1AC82AD83AEF0FF900671
:2012490006ECF0EDA3F0EEA3F0EFA3F09003E8E4F5F0126D34782CC0E0E582F208E583F22A
:2012690008E5F0F2D0E008F27582041226E1AC82AD83AEF0FFEC4D4E4F6011758204122663
:20128900E1AC82AD83AEF0FF7834ECF27834E2FB7D007E007F007852E4F208F208F208F24E
:2012A90078567414F208E4F208F208F28B828D838EF0EF122BB0AC827834ECF27818E2FC6E
:2012C9007D007E007F0078527401F208E4F208F208F278567432F208E4F208F208F28C8242
:2012E9008D838EF0EF122BB0AC82AD83AEF0FF7818ECF2781AE2B44302801E781AE2B44798
:20130900030213B1781AE2B48603021442781AE2B491030214D302156178527480F20874A9
:2013290023F20874ADF2087418F27856E4F208740BF208746BF208741BF27828E2F582086E
:20134900E2F58308E2F5F008E2122BB07828C0E0E582F208E583F208E5F0F2D0E008F27898
:20136900527480F2087423F20874ADF2087418F27856E4F208740BF208746BF208741BF27B
:20138900782CE2F58208E2F58308E2F5F008E2122BB0782CC0E0E582F208E583F208E5F063
:2013A900F2D0E008F202158078527480F2087474F20874D2F208741AF278567480F2087467
:2013C900CEF2087434F208741DF27828E2F58208E2F58308E2F5F008E2122BB07828C0E0D6
:2013E900E582F208E583F208E5F0F2D0E008F278527480F2087474F20874D2F208741AF256
:2014090078567480F20874CEF2087434F208741DF2782CE2F58208E2F58308E2F5F008E28E
:20142900122BB0782CC0E0E582F208E583F208E5F0F2D0E008F202158078527440F20874BB
:20144900B6F208749AF2087432F278567440F2087410F20874FDF2087434F27828E2F5823B
:2014690008E2F58308E2F5F008E2122BB07828C0E0E582F208E583F208E5F0F2D0E008F2E7
:2014890078527440F20874B6F208749AF2087432F278567440F2087410F20874FDF208742E
:2014A90034F2782CE2F58208E2F58308E2F5F008E2122BB0782CC0E0E582F208E583F208F1
:2014C900E5F0F2D0E008F20215807852E4F20874A1F20874BCF2087433F2785674C0F20885
:2014E90074F7F20874BAF2087437F27828E2F58208E2F58308E2F5F008E2122BB07828C058
:20150900E0E582F208E583F208E5F0F2D0E008F27852E4F20874A1F20874BCF2087433F234
:20152900785674C0F20874F7F20874BAF2087437F2782CE2F58208E2F58308E2F5F008E264
:20154900122BB0782CC0E0E582F208E583F208E5F0F2D0E008F2801F781AE2FE7F00C006C7
:20156900C007740CC0E07476C0E07480C0E0120FB2E58124FBF581782C7928E2F5F0E3B5EB
:20158900F01D08E2F5F009E3B5F01408E2F5F009E3B5F00B08E2F5F009E3B5F002800280F2
:2015A9001A7828792CE22440F308E2344209F308E2340F09F308E2340009F375820B1226B1
:2015C900E1AC8278ACECF27F007E007D007852E4F208F208F208F278567464F208E4F2086B
:2015E900F208F28C828F838EF0ED122BB0AC8278ACECF2784EECF208E4F208F208F27582E1
:201609000B1224EF75820C1226E1AC82AD83AEF0FF78B0ECF2EC60337F007E007D007852B1
:201629007419F208E4F208F208F2785674DCF208E4F208F208F28C828F838EF0ED122BB0F6
:20164900AC82AD83AEF0FF78B0ECF278B0794EE2F309E4F309F309F375820C1224EF900527
:20166900E174E8F07403A3F0E4A3F0E4A3F07828E2F58208E2F58308E2F5F008E21269D6D7
:20168900AC82AD83AEF0FF784EECF208EDF208EEF208EFF27582081224EF9005E174E8F004
:2016A9007403A3F0E4A3F0E4A3F0782CE2F58208E2F58308E2F5F008E21269D6AC82AD8362
:2016C900AEF0FF784EECF208EDF208EEF208EFF27582091224EF7818794EE2F309E4F309CE
:2016E900F309F375820A1224EF782C7928E3F5F0C3E295F0FC09E3F5F008E295F0FD09E370
:20170900F5F008E295F0FE09E3F5F008E295F0FF7818E2FA7B0074022AFAE43BFB9005E11E
:20172900EAF0EBA3F0EB3395E0A3F0A3F08C828D838EF0EF1269D67830C0E0E582F208E525
:2017490083F208E5F0F2D0E008F27833E2C313FF18E213FE18E213FB18E213FA7828E22A6A
:20176900F208E23BF208E23EF208E23FF27582031226E11269867818C3E2F5F0740595F0F6
:20178900505412692CAE82AF839005FAEEF0EFA3F0900271126C17AE82E583FF3395E0FDD0
:2017A900FC78309005D6E2F008E2A3F008E2A3F008E2A3F08E828F838DF0EC126748AC824E
:2017C900AD83AEF0FF7828E22CF208E23DF208E23EF208E23FF27828E2F58208E2F58308E2
:2017E900E2F5F008E21238FA7830E2F58208E2F58308E2F5F008E21239367582031226E13B
:20180900AC82AD83AEF0FF78189005D6E2F0E4A3F0E4A3F0E4A3F08C828D838EF0EF12678E
:2018290048AC828C821239857582021226E1AC828C821239AF40337582021226E1AC828CC4
:20184900821239AF40247582021226E1AC828C821239AF40157423C0E07476C0E07480C08D
:20186900E0120FB21581158115811235EDAF82784EEFF208E4F208F208F27582021224EFEE
:201889007582031226E1123CB175820F1226E1123D087582121226E1125F187582101226CD
:2018A900E1125F277582111226E1AC828C82125F337834E2F582123C6B123CABAF82784EF7
:1B18C900EFF208E4F208F208F27582041224EF7582031226E1120E1F025F3A44
:2075B4004D502053694B20322E34206F6E205246443930305500322E34006661696C65645F
:2075D40020746F20656E61626C65207265636569766572000A2A2A50414E49432A2A00007B
:2075F400726164696F5F696E697469616C697365206661696C65640062616420626F61726E
:2076140064206672657175656E637920256400726164696F5F636F6E6669677572652066A1
:0676340061696C65640051
:2018E400AF829004A2E0F5787CFF7DFF74062578FBFA24A1F582E43404F583EFF00A7836C6
:201904007401F27836C3E29A5065C0027836E224A1F582E43404F583E0FB8C7A757B00E5E2
:201924007AF57C6BF579C454F0F57D62798D7E757F00AB797E008B077A00E57E6202E57FB2
:201944006207EEC40354F8CBC403CB6BCB54F8CB6BFEEB6202EE6207E579C4540FFE7B0062
:201964006AFCEB6FFD7836E22401F2D00280947406257824A1F582E43404F5838C06EEF0C2
:201984007407257824A1F582E43404F5838D04ECF022AF828F788F047D007837E27B002C4C
:2019A400FCEB3DFDAA787B00C3EA9CEB64808DF063F08095F05032E57824A1FCE43404FDBF
:2019C4008C828D83E0F579E5780424A1FAE43404FB8A828B83E0FE8C828D83F08A828B8340
:2019E400E579F00578057880AD227EA77F047D009004A174FEF09004A27409F07835E2FC62
:201A0400783504F29004A3ECF09004A47433F09004A57444F09004A674A6F0781CE2FB089F
:201A2400E2FC8E828F838DF0EB126BCCA3EC126BCC74022EF50CE43FF50D8D0E7826E2FB39
:201A440008E2FC850C82850D83850EF0EB126BCCA3EC126BCC74062EFEE43FFFC007C00690
:201A6400C0051248D1AC82D005D006D0078E828F838DF0EC126BCC7582151218E412461666
:201A8400AE82AF83C3EE9411EF9400500122788F7411F29004A11244F79004A6746DF07514
:201AA40082B91218E4124616AE82AF83C3EE9411EF9400500122788F7411F29004A10244C4
:011AC400F72A
:201AC500AE82AF83E0FDBDFE1A8E828F83A3E0FDBD091074052EFEE43FFF8E828F83E0703C
:201AE50002D20E22E5827842F21248797843E582F208E583F27B007C00784574FFF20874EC
:201B0500FFF27843C3E2940808E294005003021BE28B828C83C004C003124729858229D0DE
:201B250003D00474FEB529028003021BE274012BFEE43CFF8E828F83C004C0031247298588
:201B45008229D003D004740925295003021BE2C003C004AD297E0074082DFAE43EFC7842BB
:201B6500E2F52A752B007838E2FB7F00E52AC39BFBE52B9FFFC3EB9AEF64808CF063F08033
:201B850095F0D004D003405574082DFDE43EFE7843C3E29D08E29E404474062BFEE43CFFEE
:201BA5008E828F83C004C003124729AF82D003D004BF460C7412B529077845EBF208ECF221
:201BC50074082529F529AA297F007843E2C39AF208E29FF2EA2BFBEF3CFC021B077845E265
:201BE500F58208E2F58322E58290032FF0E4F52EF52F783C7990E2F3900233124761783CDC
:201C0500E2FD7838F27847E2FA08E2FB7C009005F07433F07402A3F0E4A3F09005F3EDF041
:201C2500E4A3F08A828B838CF0126B3F783CE4F27847E2F58208E2F583121AC5900136E03A
:201C4500FDBD020F90032FE0F582121AE9AC82AD8380047CFF7DFF8C308D31124879858259
:201C65002C85832D90032FE0F53574FFB5300974FFB5310474018001E4FCC3E52C9408E549
:201C85002D94005003021DBFC0041246D2858232D00474FEB5320280067838E2F58222C086
:201CA500041246EE858232D004740925325003021DBFC00485323375340074082533FBE4B9
:201CC5003534FEAA357F007838E2FC7D00EAC39CFAEF9DFFC3EA9BEF64808EF063F0809560
:201CE500F0D0045003021DBF74082533FEE43534FFC3E52C9EE52D9F5003021DBFEC7028F4
:201D0500E52EB53007E52FB53102801C900006C004124729AF82D004BF460D7412B53208BF
:201D250074082532F532807074082532F5327838E22433FEE43402FF7890E532F28E828F0A
:201D450083C00412476178477938E3C5F0E225F0FE08E23400FF7D007838E22433FAE434EB
:201D650002FB9005F0EAF0EBA3F0E4A3F09005F3E532F0E4A3F08E828F838DF0126B3F7834
:201D8500477938E3C5F0E225F0FE08E23400FF8E828F83121AC5D0047838E22532F2AE32FA
:201DA5007F00E52CC39EF52CE52D9FF52DEE252EF52EEF352FF52F021C7F7838E2F5822296
:201DC500858236124879858237858338200C163007652009627838E2605DC3E5379420E540
:201DE50038940050527838C3E2F5F0E53695F050087838E4F275820022D209C20C7849E253
:201E0500FA08E2FB7C009005F07433F07402A3F0E4A3F078389005F3E2F0E4A3F08A828BAE
:201E2500838CF0126B3F7838E2F5377538007838E4F2AB378B8222C209200D03021EF57858
:201E450038E2FB7C008B378C38853639753A00C3E5399537E53A953850657849E2FA08E2EE
:201E6500FE7F009005F07433F07402A3F0E4A3F09005F3E539F0E53AA3F08A828E838FF060
:201E8500126B3FE5362433FEE43402FF9005F0EEF0EFA3F0E4A3F0AE367F009005F3E53795
:201EA500C39EF0E5389FA3F090023375F000126B3FE537C395367838F2D20A853682227898
:201EC50049E2FD08E2FE7F009005F07433F07402A3F0E4A3F09005F3EBF0ECA3F08D828E53
:201EE500838FF0126B3FC20DD20A7838E2F58222C20AAE367F00C3EE9537EF953850048EFF
:201F0500378F387838E4F2E53745387003F58222900136E0FF7053E53745386043AD377892
:201F250090EDF27849E2F58208E2F583C005124761D005502B78499005F0E2F008E2A3F04D
:201F4500E4A3F09005F3E537F0E538A3F090023375F000C005126B3FD0057838EDF280042E
:201F65007838E4F27838E2F58222783CE2B4010280030220047401B53706E4B538028002F9
:201F8500807912649DAE82AF83783DD3E29EF4B3FEB308E29FF4FF783FC3E29E08E29F501F
:201FA500567838E2FF783804F2EF2433FFE43402FEC007C006124673AD82D006D0078F82ED
:201FC5008E83EDF07849E2FD08E2FE7F009005F07433F07402A3F0E4A3F078389005F3E251
:201FE500F0E4A3F08D828E838FF0126B3F783CE4F27838E2F5822275820022783CE4F2784A
:202005003CE27003022093783CE2FE7F00C3E5379EE5389F506812649DAE82AF83783DD374
:20202500E29EF4B3FEB308E29FF4FF783FC3E29E08E29F5045AD377890EDF2900233C005DA
:20204500124761D0057838EDF27849E2FC08E2FE7F009005F07433F07402A3F0E4A3F0902B
:2020650005F3EDF0E4A3F08C828E838FF0126B3F783CE4F27838E2F5822275820022784926
:202085007947E2F308E209F3853682021BECE537453870030222341246D2AF82BFFE02807C
:2020A500030222057401B53706E4B538028002802E7838E26003022234783C7401F21264A7
:2020C5009DE5828583F0783DF208E5F0F2783AE2FE08E2FF783FEEF208EFF2758200221263
:2020E50046EEAF82783CEFF2BFF70050208F057E0074082DFDE43EFE7841E2FB7C00C3EB23
:202105009DEC64808EF063F08095F05033783CE4F27838E2FE783804F2EE2433FEE43402D7
:20212500FDC006C005124673AC82D005D0068E828D83ECF0153774FFB537021538022093C3
:2021450074082FFF783CF27838E260627849E2FC08E2FD7E009005F07433F07402A3F0E4C9
:20216500A3F078389005F3E2F0E4A3F08C828D838EF0126B3F12649DE5828583F0783DF2D5
:2021850008E5F0F2783CE2FD7E00783A9005FAE2F008E2A3F08D828E83126C17E5828583A6
:2021A500F0783FF208E5F0F27838E2F582227E00C3E5379FE5389E503712649DE5828583C7
:2021C500F0783DF208E5F0F2783CE2FE7F00783A9005FAE2F008E2A3F08E828F83126C173A
:2021E500E5828583F0783FF208E5F0F27582002278497947E2F308E209F3853682021BEC68
:202205007838E2FF783804F2EF2433FFE43402FEC007C006124673AD82D006D0078F828E52
:2022250083EDF0153774FFB5370215380220937849E2FD08E2FE7F009005F07433F07402F1
:20224500A3F0E4A3F078389005F3E2F0E4A3F08D828E838FF0126B3F7838E2F58222A209BD
:2022650022A20A22D20C22E582900330F07841F222AF83E582900331F0EFA3F0900331E00F
:20228500FEA3E0FF9005E1EEF0EFA3F0E4A3F0E4A3F090000075F001E41269D6AC82AD836C
:2022A500AEF0FF0CBC00090DBD00050EBE00010F783AECF208EDF222E582900333F0200F1B
:2022C50039784BE2FD08E2FE7F00900333E0FCFA7B009005F0EDF0EEA3F0EFA3F09005F3B3
:2022E500EAF0EBA3F090013775F000C004126B3FD0047839ECF2C20BC322200B3790033397
:20230500E0FF7839E2B5072C784B90060FE2F008E2A3F0E4A3F0900612EFF0E4A3F09001A1
:202325003775F000126E4DE5828583F045F07004C20BD322D20BC322AF82BF13005025909B
:20234500039274FCF0900233C007123217D0078F82122B09123240AF827838EFF2EF6004D5
:20236500C209D20D22D20190039274FCF0900233123217120747123240AF827838EFF2EF7F
:202385006004C209D20D22AE82AF83784DC3E2F5F074FC95F05005784D74FCF29005F0EE73
:2023A500F0EFA3F0E4A3F0784D9005F3E2F0E4A3F090023375F000126B3F784DE27838F26A
:0523C500C209D20D2247
:2023CA00AF82BF1300400122EF24ED50030224EDEF240A83F582EF241783F583E4730E1076
:2023EA001A2F31465D48EDEDEDEDEDEDEDAA7248C8242424242424242424242424242424AB
:20240A0024242424C322AF3B8F82124920921022C3E4953B7401953CE4953DE4953E400396
:20242A000224EDC322D322C37414953BE4953CE4953DE4953E40030224EDC322C322C37411
:20244A0001953BE4953CE4953DE4953E40030224EDC322C37402953BE4953CE4953DE49557
:20246A003E40030224EDC32274FFB53B0F74FFB53C0AE4B53D06E4B53E0280028002D3224B
:20248A00900370E0FCA3E0FDA3E0FEA3E0FFECB53B0EEDB53C0AEEB53D06EFB53E02C3224F
:2024AA0090037CE0FCA3E0FDA3E0FEA3E0FFC3E53B9CE53C9DE53D9EE53E9F402622C3E5B5
:2024CA003B9402E53C9400E53D9400E53E94005012C3E4953B7480953CE4953DE4953E50A4
:2024EA0002C322D322AF82784EE2F53B08E2F53C08E2F53D08E2F53E8F82C0071223CAD0F2
:20250A0007400122EF24ED50030226C0EF240A83F582EF241783F583E473C0C0C0C04AC06F
:20252A000E24C0C0C069B0C04E78A0B48C26262626252626262626262525262626262626D1
:20254A00784EE2F582C007123C6B123CABAE82D007784EEEF208E4F208F208F20226C078FA
:20256A0052E4F208F208F208F278567464F208E4F208F208F2784EE2F58208E2F58308E266
:20258A00F5F008E2C007122BB0AB82AC83ADF0FED007784EEBF208ECF208EDF208EEF27810
:2025AA00ACEBF20226C0784EE2F5F008E242F008E242F008E245F0604278527419F208E4E5
:2025CA00F208F208F2785674DCF208E4F208F208F2784EE2F58208E2F58308E2F5F008E2EF
:2025EA00C007122BB0AB82AC83ADF0FED007784EEBF208ECF208EDF208EEF2784E79B0E226
:20260A00F30226C0784EE2FE900136F0784EEEF208E4F208F208F20226C0784EE2F5F00883
:20262A00E242F008E242F008E245F024FF920750047E0180027E00784EEEF208E4F208F234
:20264A0008F28072784EE2F5F008E242F008E242F008E245F024FF920850047E0180027E10
:20266A0000784EEEF208E4F208F208F28048784EE2FD08E2FE8D828E83C007123D08D0076E
:20268A008034784EE2FD08E2FE8D828E83C007125F18D0078020784EE2FD08E2FE8D828EDE
:2026AA0083C007125F27D007800C784EE2F582C007125F33D007EF75F004A42434F582742B
:2026CA000335F0F583784EE2F008E2A3F008E2A3F008E2A3F0D322AF82BF13004007900072
:2026EA0000E4F5F022EF75F004A42434F582740335F0F583E0FCA3E0FDA3E0FEA3E08C8298
:20270A008D838EF02285823F85834090038CE0FD90038DE0FC8D038D017A008C007F00E8EE
:20272A0029F8EF3AFF8B41754200C3E54198E54264808FF063F08095F0503BE541C399F95A
:20274A00E5429AFAE9253FF9EA3540FA8B067F008E828F83C005C004C003C002C001120DF5
:20276A003AAF82D001D002D003D004D00589828A83EFF00B80A1853F088540098C82C00337
:20278A00120CAEAE82AF83D00374012541FCE43542FD8C828D83C007C006C003120D3AAD8B
:2027AA0082D0038D047D007A008B828A83C005C004120D3AAB82D004D005D006D0077A0039
:2027CA00EB4205EA4204EEB50506EFB504028002C322D32285824385834490038EE0FD90B5
:2027EA00038FE0FC8D038D457546008C027F00EA2545FAEF3546FF8B47754800C3E5479A68
:20280A00E54864808FF063F08095F05037C0048B067F00E547C39545FAE5489546FCEA2595
:20282A0043F582EC3544F5837817E0F28E828F83C005C004C003120D67D003D004D0050B1B
:20284A00D00480A28543088544098C82C003120CAEAE82AF83D0037D008E027817EAF28B01
:20286A00828D83C007C006120D67D006D00774012547FCE43548FD7817EFF28C828D830231
:20288A000D67D310AF01C3C0D0900000120D3AAE827F00C3744C9EE49F4008EE9430EF941B
:2028AA00005004C30229797C347D0390038C7401F090038DEEF08C828D83C00612270FD0A5
:2028CA000640030229797D807F0390038C74032EF090038D740CF08D828F8312270F400392
:2028EA000229797582001226E1AC82AD83AEF0FFBC1B0BBD0008BE0005BF00028003C3802E
:20290A006E7F00EF75F004A42434FD740335F0FE8D828E83E0F53BA3E0F53CA3E0F53DA399
:20292A00E0F53E8F82C007C006C0051223CAD005D006D0074032EF75F007A4243AFB7476E2
:20294A0035F0FC8B828C83A3A3A3E493F9A3E493FAA3E493FBA3E493FC8D828E83E9F0EAB5
:20296A00A3F0EBA3F0ECA3F00FBF4C004095D333D0D092AF1322D310AF01C3C0D090033405
:20298A00741BF0E4A3F0E4A3F0E4A3F0120D107817744CF2900000120D677E347F039003FC
:2029AA008E7401F090038F744CF08E828F831227DE7E807F0390038E744FF090038F740C19
:2029CA00F08E828F831227DED0D092AF227F00EF75F004A42434FD740335F0FEEF75F007FC
:2029EA00A4243AFB747635F0FC8B828C83A3A3A3E493F9A3E493FAA3E493FBA3E493FC8D84
:202A0A00828E83E9F0EAA3F0EBA3F0ECA3F00FBF130040BB7F00EF75F006A4FDAEF024802E
:202A2A00FBEE3403FC9076BFE493F578A3E493F579A3E493F57AA3E493F57B8B828C83E52B
:202A4A0078F0E579A3F0E57AA3F0E57BA3F0ED2480FDEE3403FE74042DFBE43EFC9076C3F6
:202A6A00E493540F8B828C83540FF5F0E054F045F0F074042DFBE43EFC9076C3E493C454AF
:202A8A000FFA8B828C83C454F0F5F0E0540F45F0F074052DFDE43EFE9076C4E493FC8D82A3
:202AAA008E83F00FBF02005003022A2022AF827E008F037C007D40EE75F007A4243AF5822D
:202ACA00747635F0F583E493F8A3E493F9A3E493FA9005FCE8F0E9A3F0EAA3F08B828C8351
:202AEA008DF0C007C006126C37E5828583F0D006D00745F060060EBE130040B58E822285DB
:202B0A00824974ED2549406EE54975F004A42434F582740335F0F583E0F54AA3E0F54BA3C0
:202B2A00E0F54CA3E0F54DE54975F007A4243AF582747635F0F583E493FAA3E493FEA3E4FB
:202B4A0093FFAC497D00C04AC04BC04CC04DC002C006C007C004C0057861E2C0E008E2C05C
:202B6A00E074C5C0E07476C0E07480C0E01234D0E58124F2F58122AF82BF13005021EF7572
:202B8A00F007A4243AF582747635F0F583E493FDA3E493FEA3E493FF8D828E838FF022903E
:202BAA00000075F00022AC82AD83AEF0FF7852C3E2F5F0EC95F008E2F5F0ED95F008E2F5A4
:202BCA00F0EE95F008E2F5F0EF95F0500D7852E2FC08E2FD08E2FE08E2FF7856C3E29C0871
:1F2BEA00E29D08E29E08E29F500D7856E2FC08E2FD08E2FE08E2FF8C828D838EF0EF22CE
:20763A00D776801B000000DE768039000000EB768040000000F5768019000000FB76800025
:20765A0000000003778000000000077780000000000F7780000000001977800000000022E0
:20767A007780000000002B77800000000038778064000000437780000000004C77800000C7
:20769A000000577780000000005E778001000000657780FFFF0000757780000000007D7772
:2076BA008002000000FFFFFFFF01FF5B25755D205325753A2025733D256C750A00464F52AD
:2076DA004D41540053455249414C5F5350454544004149525F5350454544004E45544944FE
:2076FA00005458504F57455200454343004D41564C494E4B004F5050524553454E44004D5D
:20771A00494E5F46524551004D41585F46524551004E554D5F4348414E4E454C5300445584
:20773A0054595F4359434C45004C42545F52535349004D414E43484553544552005254534E
:20775A00435453004E4F44454944004E4F444544455354494E4154494F4E0053594E43418C
:0D777A004E59004E4F4445434F554E5400AC
:202C09007F00EF75F006A42480FD740335F0FE8D828E83A3A3A3A3E0540F24FF92118F822D
:202C2900C007C006C005122C58D005D006D0078D828E83A3A3A3A3E0C4540F24FF92138F17
:202C490082C007122F37D0070FBF020040B422AF82BF02004003022F17EF75F006A42480CE
:202C6900FD740335F0FE8D828E83A3A3A3A3A211E433FC540FF5F0E054F045F0F08D828E14
:202C890083A3A3A3A3A374FFF075A700EF75F002A4FEAFF02487F582EF3477F583E493FDBB
:202CA90024FC5003022F0DED2D2D902CB773022CC3022D56022DE9022E7C301122EE2487F7
:202CC900FCEF3477FD8C828D83A3E493FD8DF005F07401800225E0D5F0FBFD42A48021EE83
:202CE9002487FCEF3477FD8C828D83A3E493FD8DF005F07401800225E0D5F0FBF4FD52A443
:202D090075A70F301123EE2487FCEF3477FD8C828D83A3E493FD8DF005F07401800225E04C
:202D2900D5F0FBFD42A4022F12EE2487FCEF3477FD8C828D83A3E493FD8DF005F0740180DC
:202D49000225E0D5F0FBF4FD52A4022F12301122EE2487FCEF3477FD8C828D83A3E493FDB5
:202D69008DF005F07401800225E0D5F0FBFD42A58021EE2487FCEF3477FD8C828D83A3E4C6
:202D890093FD8DF005F07401800225E0D5F0FBF4FD52A575A70F301123EE2487FCEF3477C6
:202DA900FD8C828D83A3E493FD8DF005F07401800225E0D5F0FBFD42A5022F12EE2487FCEE
:202DC900EF3477FD8C828D83A3E493FD8DF005F07401800225E0D5F0FBF4FD52A5022F12C5
:202DE900301122EE2487FCEF3477FD8C828D83A3E493FD8DF005F07401800225E0D5F0FBD8
:202E0900FD42A68021EE2487FCEF3477FD8C828D83A3E493FD8DF005F07401800225E0D57F
:202E2900F0FBF4FD52A675A70F301123EE2487FCEF3477FD8C828D83A3E493FD8DF005F053
:202E49007401800225E0D5F0FBFD42A6022F12EE2487FCEF3477FD8C828D83A3E493FD8D97
:202E6900F005F07401800225E0D5F0FBF4FD52A6022F12301122EE2487FCEF3477FD8C82DF
:202E89008D83A3E493FD8DF005F07401800225E0D5F0FBFD42B18021EE2487FCEF3477FD17
:202EA9008C828D83A3E493FD8DF005F07401800225E0D5F0FBF4FD52B175A70F301122EE36
:202EC9002487FCEF3477FD8C828D83A3E493FD8DF005F07401800225E0D5F0FBFD42A180E8
:202EE90028EE2487FEEF3477FF8E828F83A3E493FF8FF005F07401800225E0D5F0FBF4FF13
:202F090052A1800575A700C32275A700D322C322E58275F006A42480FE740335F0FF8E8276
:202F29008F83A3A3A3A3E0540F24FF921222E582FF75F006A42480FD740335F0FE8D828E71
:202F490083A3A3A3A3A213E433FCC454F0F5F0E0540F45F0F0BF020040030230CF8D828E9A
:202F690083A3A3A3A3A3E0FEBEFF0280030230CFEF75F002A4FEAFF02487F582EF3477F52D
:202F890083E493FD24FC50030230CBED2D2D902F9B73022FA7022FF102303B02308330134E
:202FA90023EE2487FCEF3477FD8C828D83A3E493FD8DF005F07401800225E0D5F0FBFD4217
:202FC900800230CDEE2487FCEF3477FD8C828D83A3E493FD8DF005F07401800225E0D5F0D5
:202FE900FBF4FD52800230CD301323EE2487FCEF3477FD8C828D83A3E493FD8DF005F0745E
:2030090001800225E0D5F0FBFD42900230CDEE2487FCEF3477FD8C828D83A3E493FD8DF0B3
:2030290005F07401800225E0D5F0FBF4FD52900230CD301322EE2487FCEF3477FD8C828DD8
:2030490083A3E493FD8DF005F07401800225E0D5F0FBFD42A0806DEE2487FCEF3477FD8C1B
:20306900828D83A3E493FD8DF005F07401800225E0D5F0FBF4FD52A0804A301322EE2487C5
:20308900FCEF3477FD8C828D83A3E493FD8DF005F07401800225E0D5F0FBFD42B08025EEAF
:2030A9002487FEEF3477FF8E828F83A3E493FF8FF005F07401800225E0D5F0FBF4FF52B065
:2030C9008002C322D322C322E58275F006A42480FE740335F0FF8E828F83A3A3A3A3E0C4A1
:2030E900540F24FF921422AF82BF020040030231E0EF75F006A42480FD740335F0FE740480
:203109002DFDE43EFE8D828E83E0540F60030231E0EF75F002A4FEAFF02487F582EF347730
:20312900F583E493FD24FC50030231DCED2D2D90313C7302314802316D0231920231B7EEA9
:203149002487FCEF3477FD8C828D83A3E493FD8DF005F07401800225E0D5F0FBFDE5805211
:20316900058D8222EE2487FCEF3477FD8C828D83A3E493FD8DF005F07401800225E0D5F07C
:20318900FBFDE59052058D8222EE2487FCEF3477FD8C828D83A3E493FD8DF005F074018069
:2031A9000225E0D5F0FBFDE5A052058D8222EE2487FEEF3477FF8E828F83A3E493FF8FF04B
:1C31C90005F07401800225E0D5F0FBFFE5B052078F822275827F2275827F2222C7
:0477870001000101FB
:0804DC00C215C216C217C218B6
:2031E500AF822019058F8202490C785B795AC3E3F5F0E295F0501A785BE2FE785B04F290E5
:203205000390E0FCA3E0FDEE2CF582E43DF583EFF022AF83E582900393F0EFA3F090039338
:20322500E0FEA3E0FF900390EEF0EFA3F0785BE4F2900392E0785AF2D21922C219785BE297
:20324500F58222AD82AE83AFF08D828E838FF0127243FC700122BC250280030234B7C218AF
:20326500C217C216C2150DBD00010E8D828E838FF0127243FBBB6802800CBB6C10D2150DAB
:20328500BD000A0E8007D2170DBD00010E8D828E838FF0127243FBBB63028030BB64028039
:2032A50018BB6F02802BBB7302800ABB7502800EBB78238010D216801D750F0A8018750F8B
:2032C5000AD2188011750F10D218800A750F008005750F08D218301671A8811818E624FDC6
:2032E500FBA8811818A6038B0187100987110987121919C005C006C007AA10AB11AF128A21
:20330500828B838FF0127243D007D006D00570030234C8C005C006C007AA10AB11AF128ACC
:20332500828B838FF0127243FA0510E4B5100205118A82C007C006C0051231E5D005D006B1
:20334500D007D007D006D00580A9301866301521A8811818E624FCFBA8811818A6038B01EA
:20336500871309871409871509871619191902341E30171DA8811818E614F9A8811818A671
:203385000187038B1375140075150075160002341EA8811818E624FEFBA8811818A6038B24
:2033A500018702098703198A138B147515007516008066301520A8811818E624FCFBA881B3
:2033C5001818A6038B018713098714098715098716191919804330171EA8811818E614FB39
:2033E500A8811818A6038B01E7FBF5133395E0F514F515F5168022A8811818E624FEFBA8E4
:20340500811818A6038B018702098703198A13EBF5143395E0F515F516E50F70030234A2FF
:2034250030182F9005A57480F0E4A3F07440A3F09005A8E50FF08513828514838515F0E56E
:2034450016C007C006C005126595D005D006D007802D9005CE7480F0E4A3F07440A3F0902F
:2034650005D1E50FF08513828514838515F0E516C007C006C0051266ABD005D006D0077962
:2034850080E7FB603E8B82C007C006C005C0011231E5D001D005D006D0070980E4AB138BD6
:2034A50082C007C006C0051231E5D005D006D00780118C82C007C006C0051231E5D005D0CB
:2034C50006D0070DBD00010E02324EE58124FCFFC007E58124FBF886820886830886F0123D
:0534E5003248158122B0
:2034EA00AFF0AE83E582900491F0EEA3F0EFA3F0201A02C322785CC3E2F5F074FC95F050AF
:20350A00051238848045900491E0FDA3E0FEA3E0FF8D828E838FF0785CE2126BCC786FE29D
:20352A00FD08E2FE7F009005F07495F07403A3F0E4A3F0785C9005F3E2F0E4A3F08D828EDC
:20354A00838FF0126B3F123884D322781CE2FE08E2FFBEFF05BFFF02800C0EBE00010F7821
:20356A001CEEF208EFF2C322AF8275A702C2A3C2FF75A3FF7871E2FD08E2FE8F041FEC603D
:20358A001130F9FD8D828E83E0F5A3A3AD82AE8380E930F9FD748055A1FFBF800280F6C25E
:2035AA00FFD2A375A70022201A05785DE26002D322758231123D79E58230E402D322C322BB
:2035CA00A2A8921CC2A8101B028006A21C92A8D322A21C92A8C322785EE2F5822275822694
:2035EA00023D79786BE2F58222758208123D79AF8274014FFEC007C006758208123D4315BE
:20360A0081D0075307FEC007758208123D43158122758208123D79AF8274024FFEC007C09E
:20362A0006758208123D431581D0075307FDC007758208123D43158122E582FF240350191F
:20364A00C007748BC0E07477C0E07480C0E0120FB2158115811581D007C0071235F3D00797
:20366A00C007C00775823E123D431581D007EFFE24DF50027E2078737971E2F308E209F30E
:20368A008E82C007C006123572D006D007EFC39EFF7873E22EF208E23400F2C007E4C0E086
:2036AA00758205123D431581E4C0E0758206123D431581C21BC21D7409C0E0758207123D0D
:2036CA0043158112649DAC82AD83D007C007C005C00412649DAA82AB83D004D005D007EA98
:2036EA00C39CFAEB9DFB7875C3E2F5F0EA95F008E2F5F0EB95F0400302380F758203C00772
:20370A00C005C004123D79AB82D004D005D007301D40EF603DEB30E5397E04BF04005002B8
:20372A008F0678737971E2F308E209F38E82C007C006C005C004123572D004D005D006D02C
:20374A0007EFC39EFF7873E22EF208E23400F20236D6301D40EF603DEB20E6397E04BF0476
:20376A000050028F0678737971E2F308E209F38E82C007C006C005C004123572D004D00540
:20378A00D006D007EFC39EFF7873E22EF208E23400F20236D6EB30E7201235F3781EE2FA4A
:2037AA0008E2FEBAFF05BEFF02800C0ABA00010E781EEAF208EEF2C322758202C007C00577
:2037CA00C004123D79AB82D004D005D007EB30E105D21D0236D6201D030236D6EB30E1035B
:2037EA000236D6EF601D781EE2FE08E2FFBEFF05BFFF02800C0EBE00010F781EEEF208EF8F
:20380A00F2C322D322781EE2FE08E2FFBEFF05BFFF02800C0EBE00010F781EEEF208EFF22A
:20382A00C322E582900496F0A2A8921FC2A8900494E0FEA3E0FFFDC007C006C00575823AAB
:20384A00123D431581D006D007C00675823B123D431581900496E0FF78777973E2F308E2C6
:20386A0009F378797975E2F308E209F38F82123643921EA21F92A8A21E22C2A8C21A785C65
:20388A00E4F2C21B785DE4F27413C0E0758205123D4315817440C0E0758206123D431581FC
:2038AA00123DED1235F312361B7405C0E0758207123D431581D2A8D32290003212642C759E
:2038CA008201123D79AF82BFFF028005BF05005002C322123E4D758201123D79E582FF203F
:2038EA00E006123E4D922022EF30E102D322C322AC82AD83AEF0FFC3ED941CEE944EEF94DD
:20390A000E400E74C09C74F79D74BA9E74379F5002C3227863ECF208EDF208EEF208EFF2AB
:20392A008C828D838EF0EF123EB9D322AC82AD83AEF0FFC374F09C74E89D74269EE49F5032
:20394A0002C322787B7410F2087427F208E4F208F28C828D838EF0EF123DF9AC82AD83AEC1
:20396A00F0FF7867ECF208EDF208EEF208EFF2C00475827A123D431581D322E582900497F5
:20398A00F0786CE2FF900497E0FEB5070122786CEEF2C006758279123D431581C21B2278E7
:2039AA006CE2F58222AF82C007E4C0E0758205123D431581E4C0E0758206123D43158112BB
:2039CA003DED7415C0E075820B123D4315817412C0E075820C123D431581D2211241117444
:2039EA00B6C0E0758209123D431581D007EF249B5010C00774C0C0E0758258123D43158148
:203A0A00D0077863E2FB08E2FC08E2FD08E28B828C838DF0C007123EB97867E2FB08E2083F
:203A2A00E208E2C00375827A123D431581748DC0E0758230123D4315817442C0E0758233E4
:203A4A00123D43158174CFC0E0758232123D43158174FFC0E0758245123D43158174FFC056
:203A6A00E0758246123D43158174FFC0E0758243123D43158174FFC0E0758244123D43158D
:203A8A0081743CC0E075827C123D4315817420C0E075827D123D4315817432C0E075827E25
:203AAA00123D431581786E7410F2786EE2FEC006758234123D4315817428C0E0758235121F
:203ACA003D431581758200123C6BD0077E00EE9077A893FDC39F50060EBE0C0040F0EEFFE7
:203AEA009077A893FE786BF2BE200040047E0D80027E2D75820DC007C0061226E1AA82AB4C
:203B0A0083ACF0FDD006D007EA4B4C4D600B786BE2FD247F4003430602C007C006758270B2
:203B2A00123D4315817423C0E0758271123D4315817444C0E075821D123D431581D00778A9
:203B4A006BE2FEBEC8005012C007740AC0E075821E123D431581D0078010C0077402C0E0C2
:203B6A0075821E123D431581D007781AE2B4433A7E00EE75F00DA424B5FC747735F0FDEF2F
:203B8A002CF582E43DF583E493FDEE90779C93FCC007C006C0058C82123D431581D006D01D
:203BAA00070EBE0C0040CB023C69781AE2B447397E00EE75F00DA42451FC747835F0FDEFD2
:203BCA002CF582E43DF583E493FDEE90779C93FCC007C006C0058C82123D431581D006D0DD
:203BEA00070EBE0C0040CB8076781AE2B486397E00EE75F00DA424EDFC747835F0FDEF2C3C
:203C0A00F582E43DF583E493FDEE90779C93FCC007C006C0058C82123D431581D006D007C1
:203C2A000EBE0C0040CB80377E00EE75F00DA42489FC747935F0FDEF2CF582E43DF583E497
:203C4A0093FDEE90779C93FCC007C006C0058C82123D431581D006D0070EBE0C0040CBD3BF
:203C6A0022E582900498F0FF7E00EE907A2593FDC39F50060EBE080040F0900499EEF0BEE6
:203C8A0008069004997407F0900499E0FF907A2593FE786DEEF2C00775826D123D43158190
:203CAA0022786DE2F58222AF83E58290049AF0EFA3F090049AE0FEA3E0FF8E04785FECF26A
:203CCA008F057860EDF2200634C007C006C005C00575823C123D431581D005D006D007C081
:203CEA0006C005C00675823D123D431581758241123D431581758242123D43158122AF83B8
:203D0A00E58290049CF0EFA3F090049CE0FEA3E0FF7861EEF208EFF28F06C00675823F12BB
:203D2A003D4315817861E254FFFE08E25400C006758240123D43158122AF82A2A89240C2C3
:203D4A00A875A702C2A3C2FF74804FF5A330F9FDA881181886A330F9FD748055A1FFBF809C
:203D6A000280F6C2FFD2A375A700A24092A822AF82A2A89240C2A875A702C2A3C2FF8FA304
:203D8A0030F9FD75A30030F9FD748055A1FFBF800280F6AFA3C2FFD2A375A700A24092A855
:203DAA008F8222AF8275A702C2A3C2FF75A37F30FFFD85A3E0E58124FDF886050886068F59
:203DCA00041FEC6016C2FF75A30030FFFD8D828E83E5A3F0A3AD82AE8380E4C2FFD2A375A5
:203DEA00A70022758203123D79758204023D79AF82AE83ADF0FC787FEFF208EEF208EDF2D9
:203E0A0008ECF2787EE2C313FF18E213FE18E213FB18E213FA787FE22AFA08E23BFB08E2E4
:203E2A003EFE08E23FFF787B9005E1E2F008E2A3F008E2A3F008E2A3F08A828B838EF0EFDB
:203E4A000269D6E4C0E0758205123D431581E4C0E0758206123D431581123DED7481C0E0F5
:203E6A00758207123D4315819000021263F330810712642450F8C322E4C0E0758205123DCA
:203E8A004315817402C0E0758206123D4315819000141263F31264244013758203123D7949
:203EAA00758204123D79E58230E1EAD322C322AF82AE83ADF0FC7883EFF208EEF208EDF253
:203ECA0008ECF27883C3E2F5F0E495F008E2F5F0743895F008E2F5F0749C95F008E2F5F0D1
:203EEA00741C95F04003023FAF7884E224C8F208E23463F208E234E3F29005E1E4F0742D63
:203F0A00A3F07431A3F07401A3F07883E2F58208E2F58308E2F5F008E21269D6AA82900444
:203F2A009EEAF0900606EAF0E4A3F0E4A3F0E4A3F0902D0075F0317401126D34AC82AD834B
:203F4A00AEF0FF7883E2C39CF208E29DF208E29EF208E29FF2787B7471F2087402F208E4F8
:203F6A00F208F27883E2F58208E2F58308E2F5F008E2123DF97883C0E0E582F208E583F23E
:203F8A0008E5F0F2D0E008F27883E225E0F208E233F208E233F208E233F290049EE0FF4448
:203FAA0020F00240727884E224E4F208E234B1F208E234F1F29005E17480F07496A3F0742E
:203FCA0098A3F0E4A3F07883E2F58208E2F58308E2F5F008E21269D6AC8290049EECF090A9
:203FEA000606ECF0E4A3F0E4A3F0E4A3F090968075F098E4126D34AC82AD83AEF0FF78833A
:20400A00E2C39CF208E29DF208E29EF208E29FF2787B7471F2087402F208E4F208F27883E8
:20402A00E2F58208E2F58308E2F5F008E2123DF97883C0E0E582F208E583F208E5F0F2D0C5
:20404A00E008F27883E225E0F208E233F208E233F208E233F2181818E225E0F208E233F24B
:20406A0008E233F208E233F290049EE04440F07883E2FC08E2FDC005C00490049EE0C0E097
:20408A00758275123D431581D004D0058D07C005C004C007758276123D431581D004D005B7
:2040AA00C004758277123D4315812275A70FAEBEE4CE25E0CE33CE25E0CE33FFE5BD232370
:2040CA005403FD7C004206EC420775A700D2EC20ECFDADBE7C00AABD7B00EA4204EB42057B
:2040EA00ECC39EFEED9FFF9006177402F0E4A3F08E828F83126F7CE5828583F0242DFCE4A7
:20410A0035F08C82F583223021257418C0E075820D123D431581758208123D79AF82741F6F
:20412A005F4480FFC007758208123D43158122758208123D79AF8253071FC00775820812FA
:20414A003D431581740AC0E075820D123D4315817404C0E075820E123D43158122C028C0E6
:20416A00E0C0F0C082C083C007C006C005C004C003C002C001C000C0D075D0007582041222
:20418A003D79AF82758203C007123D79AE82D007EE30E449785DE2FC7D0074322CFCE43D34
:2041AA00FDC374FC9CE49D5003024272785DE22495FCE43403FDC007C006C004C00575820E
:2041CA0032123DAD15811581785DE22432F2758226123D79E582D006D007785EF2EF30E6B6
:2041EA0011D21B758226C006123D79E582D006785EF2200604EE20E06FEE30E16975824BD6
:20420A00123D79E582FF2403405E785DC3E2F5F0EF95F04053785DC3E29F5022785DE224D5
:20422A0095FDE43403FE785DD3E29FF4FCC007C005C0068C82123DAD15811581D007785C7D
:20424A00EFF2D21AE4C0E0758205123D431581E4C0E0758206123D4315817402C0E0758229
:20426A0007123D431581801E781CE2FE08E2FFBEFF05BFFF02800C0EBE00010F781CEEF2AC
:20428A0008EFF2123884D0D0D000D001D002D003D004D005D006D007D083D082D0F0D0E00C
:0342AA00D02832E7
:20778B006F76657273697A6564207061636B6574001C1F2021222324252A6E6F72020408DA
:2077AB001013182030406080C0FA2727272E1601050B9A888A8C8D030303030303030303AF
:2077CB0003030303F4FA7D3F69A77D535E7D5E3F302000010201000101010101020241836F
:2077EB00060C37C406895D065D0CAA8912254A4C9C25378625864AAB0001020402010203E9
:20780B00020202040785080E12728A0E18BB0EBBEAFF1D1D1D1E1E1E20304150505050107E
:20782B002041839BC4080C101820314062C58912A69C314A6293C5270003060D1A1E263326
:20784B004D669ACDFEFE2B2B2B2E1601050B9A888A8C8D0303030303030303030303030345
:20786B00F4FA7D3F69A77D535E7D5E3F30200001020100010101010102024183060C37C4CD
:20788B0006895D065D0CAA8912254A4C9C25378625864AAB0001020402010203020202044B
:2078AB000785080E12728A0E18BB0EBBEAFF1E1E1E21212121304150505050102041839B5C
:2078CB00C4080C101820314062C58912A69C314A6293C5270003060D1A1E26334D669ACDEB
:2078EB00FEFE010101010101050B9A888A8C8D03030303030303030303030303D0E8F4FAD9
:20790B00D3A77D535E7D5E3F30E0602000000001010101010202102041839BC406895D06BC
:20792B005D0CAA62C58912A69C25378625864AAB000000010101020302020204072344859E
:20794B0008398A0E18BB0EBBEAFF1C1C1C1C1C1E20304150505050102041839BC4080C10CC
:20796B001820314062C58912A69C314A6293C5270003060D1A1E26334D669ACDFEFE010134
:20798B0001010101050B9A888A8C8D03030303030303030303030303D0E8F4FAD3A77D53EC
:2079AB005E7D5E3F30E0602000000001010101010202102041839BC406895D065D0CAA62F1
:2079CB00C58912A69C25378625864AAB0000000101010203020202040723448508398A0E9A
:2079EB0018BB0EBBEAFF1E1E1E1E1E1E20304150505050102041839BC4080C101820314052
:207A0B0062C58912A69C314A6293C5270003060D1A1E26334D669ACDFEFE010205080B0E15
:027A2B00111434
:2042AD00C028C0E0C0F0C082C083C007C006C005C004C003C002C001C000C0D075D0001033
:2042CD009803024372AF9930000E3001030243728F821204E70243728F82C007120575D015
:2042ED00077887E22401FD08E23400FEBD0009BE04067D007E00800B7887E22401FD08E28A
:20430D003400FE7889E2B5050708E2B50602803A7887E22420F58208E23406F583EFF078CA
:20432D0087E22401FD08E23400FEBD0009BE04067D007E00800B7887E22401FD08E2340094
:20434D00FE7887EDF208EEF2801B7822E2FD08E2FEBDFF05BEFF02800C0DBD00010E782211
:20436D00EDF208EEF21099028054788B798DE2F5F0E3B5F00B08E2F5F009E3B5F002803C69
:20438D00788DE22420F58208E2340AF583E0FF788DE22401FD08E23400FEBD0009BE02063E
:2043AD007D007E00800B788DE22401FD08E23400FE788DEDF208EEF28F998002D222D0D03B
:2043CD00D000D001D002D003D004D005D006D007D083D082D0F0D0E0D02832788B798DE20A
:2043ED00F5F0E3B5F00A08E2F5F009E3B5F0012230220302466E22AF8275A700C2AC7887CF
:20440D00E4F208F2788DE4F208F2788BE4F208F2788DE4F208F2D222C28EAE89740F5E44A2
:20442D0020F5898F82124946D28E759810D2AC22AF82C007124616AD82AE83D007C3ED9421
:20444D0001EE94005002C3228F8212445CD322AF82A2AC9240C2AC788BE22401FD08E234F9
:20446D0000FEBD0009BE02067D007E00800B788BE22401FD08E23400FE788DE2B50507084C
:20448D00E2B506028044788BE22420F58208E2340AF583EFF0788BE22401FE08E23400FF68
:2044AD00BE0009BF02067E007F00800B788BE22401FE08E23400FF788BEEF208EFF2302296
:2044CD0024C02812466ED028801B7820E2FE08E2FFBEFF05BFFF02800C0EBE00010F782087
:2044ED00EEF208EFF2A24092AC22858217858318788FE2700122124616AC82AD83788FE235
:20450D00FA7B00C3EC9AED9B501F788FECF27820E2FC08E2FDBCFF05BDFF02800C0CBC00C5
:20452D00010D7820ECF208EDF2788FE2FD788BD3E29400F4B3FBB308E29402F4FC8D027FFE
:20454D0000C3EB9AEC9F5008788BE2FFC3E49FFD788BE22420FE08E2340AFF7C009005F0AD
:20456D00E517F0E518A3F0E4A3F09005F3EDF0E4A3F08E828F838CF0C005126B3FD005ED7E
:20458D002517F517E43518F518788FE2C39DF2D22310AF02C2237F00788BE22DF208E23F06
:2045AD00F2788BC308E294024006788CE224FEF2A22392AF788FE2603E9005F0E517F0E593
:2045CD0018A3F0E4A3F0788FE2FE7F009005F3EEF0EFA3F0900A2075F000C007C006126B35
:2045ED003FD006D007D22310AF02C223788BEEF208EFF2A22392AFD22310AF02C223302268
:20460D000312466EA22392AF22A2AC9224C2AC788B798DC3E3F5F0E295F009E3F5F008E274
:20462D0095F0B3E433FF601B788DE22400FE08E23402FF788BD3E29EF4B3FEB308E29FF451
:20464D00FF8015788D798BE3F5F0C3E295F0FE09E3F5F008E295F0FFA22492AC8E828F835B
:20466D0022C222D29922A2AC9225C2AC78877989E2F5F0E3B5F00B08E2F5F009E3B5F0026A
:20468D00803A7889E22420F58208E23406F583E0FF7889E22401FD08E23400FEBD0009BE95
:2046AD0004067D007E00800B7889E22401FD08E23400FE7889EDF208EEF280027F00A225AC
:2046CD0092AC8F8222A2AC9226C2AC7889E22420F58208E23406F583E0FFA22692AC8F82B8
:2046ED0022A2AC9227C2AC7889E22401FE08E23400FFBE0009BF04067E007F00800B7889DA
:20470D00E22401FE08E23400FFEE2420F582EF3406F583E0FFA22792AC8F8222AF83E5826E
:20472D0090049FF0EFA3F0A2AC9228C2AC90049FE0FEA3E0FF7889E22EFE08E23FFF53072D
:20474D0003EE2420F582EF3406F583E0FFA22892AC8F822285821985831A124879AC82ADF5
:20476D00837890E2FA7B00C3EC9AED9B5002C3227891EAF208EBF27889D3E29400F4B3FA8D
:20478D00B308E29404F4FB7891C3E2F5F0EA95F008E2F5F0EB95F0501378897991D3E294F0
:2047AD0000F4B3F3B308E29404F409F3AA19AB1A7F007889E22420FD08E23406FE9005F05B
:2047CD00EDF0EEA3F0E4A3F078919005F3E2F008E2A3F08A828B838FF0126B3F7891E2FCDB
:2047ED007890E2C39CF27891E22519F51908E2351AF51AD22910AF02C22978897991E3C598
:20480D00F0E225F0F209E3C5F008E235F0F27889C308E294044006788AE224FCF2A2299231
:20482D00AF7890E26044AD19AE1A7F009005F07420F07406A3F0E4A3F07890E2FB7C0090A3
:20484D0005F3EBF0ECA3F08D828E838FF0C004C003126B3FD003D004D22910AF02C2297851
:20486D0089EBF208ECF2A22992AFD322A2AC922AC2AC78877989C3E3F5F0E295F009E3F592
:20488D00F008E295F0B3E433FF601778877989E3F5F0C3E295F0FE09E3F5F008E295F0FF3C
:2048AD0080197889D3E29400F4B3FCB308E29404F4FD7887E22CFE08E23DFFA22A92AC8E76
:2048CD00828F8322124879AE82AF83E4C39EFE74049FC423CEC423541F6ECE541FCE6ECEBE
:2048ED00FF9005FAEEF0EFA3F0900064126C17AE82E583A2E7CE33CE33CE54018E8222AF0D
:20490D0082BF0A0A75820DC00712445CD0078F8202445CAF827E00BE0900501BEE75F003F7
:20492D00A4242DF582747A35F0F583E493FDEFB50502D3220E80E0C322AF82C00712492099
:20494D00D00740027F397E00BE0900501BEE75F003A4242DF582747A35F0F583E493FDEF19
:20496D00B5050280030E80E0EE75F003A4242DFD747A35F0FE8D828E83A3E493F58DAC8E2E
:20498D005304F48D828E83A3A3E4934CF58E900606EFF0E4A3F0E4A3F0E4A3F090007DE442
:0849AD00F5F0126D34022276D0
:1B7A2D00012C02029602042C0009960013600126B001392B08739608E6CB0825
:207B5500000000000000000000000000000000000000000000000000000000000000000010
:207B75000000000000000000000000000000000000000000000000000000000000000000F0
:207B95000000000000000000000000000000000000000000000000000000000000000000D0
:207BB5000000000000000000000000000000000000000000000000000000000000000000B0
:2049B5007F0078D4E224FFFD08E234FFFE8F037C00C3EB9DEC9E4003024A73BF080040030B
:2049D500024A737861E2B5030808E2B50403024A6FEF75F002A4FDAEF0C007ED2426F5524D
:2049F500EE3401F553855282855383A3E0FF8F547555007861E2FA08E2CA25E0CA33FFEA00
:204A15002416FAEF3401FF8A828F83A3E0FF8F56755700855282855383E0FF7A00ED2416A5
:204A3500F582EE3401F583E0FE7D00C007C054C055C056C057C007C002C006C005C003C040
:204A5500047448C0E0747AC0E07480C0E01234D0E58124F3F581D007D0070F0249B778ADD2
:204A7500E2FE7F00C007C0061240B5AC82AD83D006D0077826E2F55608E2F5577824E2F5AF
:204A95005408E2F5557822E2F55208E2F5537820E2F55808E2F559781CE2F55A08E2F55B86
:204AB500781EE2FA08E2FBC006C007C004C005C056C057C054C055C052C053C058C059C008
:204AD5005AC05BC002C00378B8E2C0E008E2C0E07861E2C0E008E2C0E07470C0E0747AC074
:204AF500E07480C0E01234D0E58124E9F58178B8E4F208F22278B7E2540160030249B52221
:204B1500AF827E0078A89005FAE2F008E2A3F08F828E83126C17AE82AF8378A6E22EFE0886
:204B3500E23F8E82F58322AE82AF8378AAC3E29E08E29F500878AAE4F208F2800A78AAE26D
:204B5500C39EF208E29FF2789AC3E2F5F0EE95F008E2F5F0EF95F05003024E3E7894C30868
:204B7500E29480400B7861E2F5F008E245F0706F7894E2FC08E2FD789474012CF2E43D08A8
:204B9500F278D490060AE2F008E2A3F08C828D83C007C006126DA0AC82AD83D006D0077886
:204BB50061E2B5040708E2B50502800280317893E4F278D490060AE2F008E2A3F07894E2FA
:204BD500F58208E2F583C007C006126DA0E5828583F0D006D0077894F208E5F0F2804F781B
:204BF50094C308E29480504178D490060AE2F008E2A3F0900001C007C006126DA0AC82AD67
:204C150083D006D0077894E2C39CFC08E29DFD78D4E224FFFA08E234FFFBECB5020BEDB5CF
:204C3500030778937402F2800578937401F2789AD3E29EF4B3FEB308E29FF4FF7893E2B411
:204C55000210789EE2FC08E2FD789AECF208EDF28019789CE2FC08E2FD789AECF208EDF232
:204C7500C007C006120EF0D006D007C007C006123884D006D0077818C3E2F5F0740195F0B9
:204C9500500C78B1E4F208F278B5E4F208F27893E26003024E35C006C00778ACE2FC7D00CC
:204CB50078ADE2F55C755D00ECC3955CFEED955DFFBE640ABF0007D007D006024E35D0073E
:204CD500D006C006C007C007C006C005C004C04EC04FC050C05190333375F073743F12680D
:204CF5008985825E85835F85F060F561E58124FCF581D004D005D006D00778AEE2F5820846
:204D1500E2F583C005C00412705CAA82AB83AEF0FFD004D005C007C006C005C004C002C085
:204D350003C006C00790000075F0A0744012688985826285836385F064F565E58124FCF500
:204D550081D004D005D006D00778A1799CE3C5F0E225F0FE09E3C5F008E235F0CE25E0CE5B
:204D750033FF8E828F83C005C00412705CAA82AB83AEF0FFC002C003C006C007856282856C
:204D950063838564F0E565127180AA82AB83AEF0FFE58124FCF581D004D005C007C006C009
:204DB50005C004C002C003C006C007855E82855F838560F0E561126F2385824E85834F8547
:204DD500F050F551E58124FCF581D004D005D006D00778AEE4F208F2ECC3955CFCED955D75
:204DF500FD8C828D8312704FAC82AD83AEF0FFC007C006C004C005C006C007854E82854FEB
:204E1500838550F0E551126BE7E58124FCF581D006D007E58224FF9234B39232D007D0067E
:204E350078AAE4F208F2024B5C7893E2B40210C007C006120ECA123985D006D007800EC0CD
:204E550007C006120EBA123985D006D007789AE2C39EF208E29FF222AF827893E2B402243D
:204E7500EF70217861E2F5F008E245F0700475820122786179A3E24400F308E2448009F398
:204E9500758200227893E27003025097102C00EF6003024F2C7894E2F5F008E245F06046F8
:204EB50078A3E254FFFE08E2547FFF7894E224FFFC08E234FFFD78D4E224FFFA08E234FF44
:204ED500FB90060AEAF0EBA3F08C828D83C007C006126DA0AC82AD83D006D007EEB5040648
:204EF500EFB5050280297894E2F5F008E245F0702278A3E254FFFE08E2547FFF78D4E22469
:204F1500FEFC08E234FFFDEEB50408EFB50504758201227582002278D6E2700302508578E7
:204F3500A3E254FFFE08E2547FFF78BFE2FC08E2FDEEB50406EFB505028002D22E78A3C316
:204F550008E29480507978A3E22401FE08E23400FF78D4E224FFFA08E234FFFB90060AEA4B
:204F7500F0EBA3F08E828F83C005C004126DA0AE82AF83D004D005ECB50644EDB50740788D
:204F9500A3ECF208EDF212692CAE82AF8378A6E2FA08E2CA25E0CA33FB90060AEAF0EBA3D8
:204FB500F08E828F83126DA0AE82AF8378A6E22EFE08E23FFF78AAEEF208EFF202505278EE
:204FD500A3ECF274804D08F278619005FAE22401F008E23400A3F078A6E2F58208E2F58317
:204FF500126C17AE82AF83C007C00612692CAC82AD8378619005FAE22402F008E23400A3F2
:20501500F078A6E2F58208E2F583C005C004126C17AA82AB83D004D00590060AEAF0EBA389
:20503500F08C828D83126DA0AC82AD83D006D007EC2EFEED3FFF78AAEEF208EFF278A6E2F5
:20505500FE08E2CE25E0CE33CE25E0CE33FF90060AEEF0EFA3F078AAE2F58208E2F58312BD
:205075006DA0E5828583F078AAF208E5F0F2800E786179A3E24400F308E2448009F375828F
:2050950000227893E2705A302C0C78A3E4F2087480F275820022302D10786179A3E244003A
:2050B500F308E2448009F3800E7861E2FE08E2FF78A3EEF208EFF2102E02802178A6900596
:2050D500FAE2F008E2A3F0900006126C17E5828583F078AAF208E5F0F275820022758201F4
:2050F5002275820122123CABE582FF24EB400578ADE4F2221240B5E5828583F0249CFEE586
:20511500F034FFFFC3E49EE464808FF063F08095F0E433FD700C78ADE2600778ADE214F269
:205135008039C3740A9EE464808FF063F08095F0500878ADE2240AF28021C374059EE464E1
:20515500808FF063F08095F0500878ADE22405F28009ED600678ADE22401F278ACE2FE7FEC
:205175000078ADE2FC7D00EEC39CFEEF9DFFC3EE9414EF64809480500878AC79ADE224ECF0
:20519500F3227861E2F5F008E245F0600330300E90059DE4F0C230D205120F248007900525
:2051B5009DE02401F090059DE0FFBF06005004D2B7804778A5E4F2A22F92B7B22F78947460
:2051D500FFF20874FFF29005EDE4F09005EE7410F0E4A3F090012675F000126B179005ED66
:2051F500E4F09005EE7410F0E4A3F090011675F000126B1778B8E4F208F290059DE075F041
:205215000584AFF0BF0413303105120EF0800BC205120F24120ECA12398578BAE4F208F2B2
:20523500302B077814E2FF78B7F2B22B90059EE02401F090059EE0FFBF04081250FA900596
:205255009EE4F022AE82AF8390000175F060C007C006127168E5828583F02401FCE435F0EC
:20527500FD9005F07401F07400A3F07460A3F09005F3ECF0EDA3F09000C375F060126B3F0C
:20529500D006D00778C1EEF208EFF2D23322AF82BF02004017EF24EF40129004A1E0FEBEB5
:2052B500520A9004A2E0FEBE540280237E00C3EE9F501BEE24A1F582E43404F583E0F58264
:2052D500C007C00612490CD006D0070E80E02278BF79C1E2F308E209F39005F074A1F0745E
:2052F50004A3F0E4A3F09005F3EFF0E4A3F090000175F060C007126B3FD007EF2401F8E40D
:20531500F278017441F27812EFF2BF04197803E2FFBF49127804E2FFBF350B78BC7401F2B2
:2053350075820002233D02236A12649DAE82AF8378D7EEF208EFF278FF762A78FFB62A0273
:20535500801DC007C00674B4C0E0747AC0E07480C0E0120FB2158115811581D006D007786A
:2053750000E2B44102801DC007C00674C1C0E0747AC0E07480C0E0120FB215811581158189
:20539500D006D007C007C006120747D006D00778B7E2600FC007C006124B0AD006D0077818
:2053B500B7E4F2300E17900136E0FB601020000DC20EC007C0061219EED006D007C007C00D
:2053D5000612649D78DAE582F208E583F2786F74A1F2087404F29000D975F0601234EAD004
:2053F50006D007400302570F78AAE4F208F278D9E2B40400502A78D9E2FC7D00C007C00680
:20541500C004C00574D7C0E0747AC0E07480C0E01234D0E58124FBF581D006D0070253507E
:205435007893E2700AD22C78A3E4F2087480F278D9E224A1FCE43404FDEC24FCFCED34FFDE
:20545500FD9005F0ECF0EDA3F0E4A3F09005F37404F0E4A3F09000BD75F060C007C00612CA
:205475006B3FD006D00778D9E214141414F278BFE2F56608E2F56730E73B78A5E2B4FF008D
:2054950050117894E2F5F008E245F0700678A5E22401F27894E4F208F278BFE2FC08E2FD40
:2054B50053057F8C82C007C006120EE6D006D007D23002535030313F78BEE220E63978A5F7
:2054D500E2B4FF00501E74012566FCE43567FD7894E2B5040708E2B505028002800678A5C2
:2054F500E22401F278BFE2FC08E2FD789474012CF2E43D08F2D23078BFE2FC08E2FDC3EC3B
:205515009408ED9400507CC006C007EDCC25E0CC33FDEC2416FCED3401FDC006C005C004B6
:205535001235E1AF82D004D005D0067E0078BFE2FA08E2CA25E0CA33FBEA2416F582EB3482
:2055550001F583E09005FAF0E4A3F0900007C007C006C005C004126C17AA82AB83D004D0A7
:2055750005D006D007EA2FFAEB3EC423CAC423541F6ACA541FCA6ACAFB8C828D83EAF0D0B5
:2055950007D00678B8E22401F208E23400F278BDE2FC08E2541FFD4C600302565878D9E2E1
:2055B500700302565878D9E2B40402800302564A78BFE2FC08E2FDC3EC9408ED9400507514
:2055D500C006C00778D9E21414F278D9E224A1FAE43404FB7F008A828B838FF0127243FAFA
:2055F500A3127243FB7861E2B5020708E2B503028006D007D006803DD007D006EDCC25E0B9
:20561500CC33FDEC2426FCED3401FD7B009005F074A1F07404A3F0E4A3F078D99005F3E2E6
:20563500F0E4A3F08C828D838BF0C007C006126B3FD006D00778B8E224FFF208E234FFF229
:2056550002535078BDE2FC08E2541FFD4C700302535078BDE2FC08E2541FFD789AECF2085A
:20567500EDF278D979D6E2700474018001E4F3758201124E6D78DAE2FE08E2FF78BEE2C4B7
:20569500035401FDBD012278D9C3E2F5F0740195F0400302535078D9E2F582C007C00612BA
:2056B50052A3D006D00702535078D9E2700302535078BEE223540124FF920F784B74A1F225
:2056D500087404F278D9E2F582C007C0061222BDD006D0075003025350300003025350D2CC
:2056F500B678D9798FE2F39004A1C007C0061244F7D006D007C2B6025350C007C0061264D5
:205715009D78DAE582F208E583F2D006D00778DAE2C39EFC08E29FFD8C828D83C005C0045F
:20573500124B3CD004D00578DAE2FE08E2FF789C79A1E3F5F0C3E295F0FA09E3F5F008E222
:2057550095F0FB789AC3E2F5F0EA95F008E2F5F0EB95F050030253507893E2B4022A789E8F
:2057750079A1E3F5F0C3E295F0FA09E3F5F008E295F0FB789AC3E2F5F0EA95F008E2F5F0F9
:20579500EB95F05003025350C006C00778DA79D7E3F5F0C3E295F0FA09E3F5F008E295F031
:2057B500FB7E007F00C3E49A74809BE49EE464808FF063F08095F0D007D006501DC007C04A
:2057D50006C005C004125197D004D005D006D00778DA79D7E2F308E209F378B0E2700302F9
:2057F5005881C007C006C005C0041235E7AB82D004D005D006D00778B0C3E2F5F0EB95F0D2
:20581500500B78B1E22CF208E23DF2803E78B1E4F208F278B5E2F5F008E245F0702DC007A8
:20583500C00612692CAC82AD8378B390060AE2F008E2A3F08C828D83126DA0E5828583F0D2
:20585500D006D00778B5F208E5F0F278B379B5E3C5F0E225F0FC09E3C5F008E235F0FD788F
:20587500B1C3E29C08E29D500302535078D6E4F2758200C007C006124E6DE582D006D00719
:20589500700302535078AAE2F5F008E245F06003025350C007C0061235CAD006D007400D33
:2058B500C007C0061235B1D006D007502378A6E2FC08E2FD78AAECF208EDF27893E2600314
:2058D500025350D22C78A3E4F2087480F20253507861E2F5F008E245F0600B78A5E2B4149B
:2058F500005003025350C006C0077861E2FC08E2CC25E0CC33FDEC2416FCED3401FD0CBC97
:2059150000010DC007C006C005C0041235E7AB82D004D005D006D0077A007861E2FE08E280
:20593500CE25E0CE33FFEE2416FEEF3401FF8E828F83A3E09005FAF0E4A3F0900003C00543
:20595500C004C003C002126C17AE82AF83D002D003D004D005EE2BFEEF3AC313CE13CEC31C
:2059750013CE13CE8C828D83EEF0D007D006303203025350789A79A6C3E3F5F0E295F00971
:20599500E3F5F008E295F05003025350789AE2FC08E2FD78A6E2FA08E2CA25E0CA33FBEC55
:2059B500C39AFCED9BFD30E7047D00803678A6E2FB08E2CB25E0CB33FC789AE2C39BFB08A2
:2059D500E29CFC78A890059FE2F008E2A3F08B828C83C007C0061264FAAB82AC83D006D07A
:2059F500078B05BD05005003025350ED24FBFD78A0C3E29D500478A0E2FDC007C006C00541
:205A1500124879E5828583F0D005D006D00745F06044302E417893E2B4013B789CE2FB086F
:205A3500E2C313CB13CBC313CB13CBFC789AC3E29B08E29C50030253509004A174FFF07895
:205A5500D97401F278BEE24420F2789874FFF20874FFF2025B587893E2B40203025B542075
:205A75003303025AF7C006C0079000C375F060C007C006C005127168AB82AC83D005D0069F
:205A9500D0078D027F00C3EA9BEF9CD007D00640519000C375F060C007C006C005127168A6
:205AB500AB8278D9EBF29005F074C3F0E4A3F07460A3F09005F3EBF0E4A3F09004A175F078
:205AD50000126B3FD005D006D00778BEE24420F278C1E2FB08E2FC7898EBF208ECF2C23341
:205AF5008061784974A1F2087404F28D82C007C006C005121DC5E58278D9F2122266D00508
:205B1500D006D0079235E433FC78BE13E292E5F278BEE230E52D78C1E2FB08E2FC7898EB04
:205B3500F208ECF278BCE2FC78BC04F28C82C007C006C00512233DD005D006D007800478EC
:205B5500D9E4F278D979A0C3E2F5F0E395F05021C007C006C00574ECC0E0747AC0E07480E0
:205B7500C0E0120FB2158115811581D005D006D0077893E2B40103D38001C39235E4337847
:205B9500BE13E292E6F2C007C006C005122263D005D006D0079235E433FC78BE13E292E7EA
:205BB500F27893E26003025D1A78D9E26003025D1ABD12005003025D1A78D4E224FFFC0816
:205BD500E234FFFD78BAC3E29C08E29D4003025D1A7861C3E2940808E294004003025D1A94
:205BF50078A6E2FC08E2CC25E0CC33FD789CE2C39CFC08E29DFD789AC3E29C08E29D4003EB
:205C1500025D1A78BA7961E2F5F0E3B5F00B08E2F5F009E3B5F0028002800B78BAE22401E8
:205C3500F208E23400F278D97402F278BAE2FC08E2CC25E0CC33FDEC2416FCED3401FD0C80
:205C5500BC00010D7861E2FA08E2CA25E0CA33FBEA2416FAEB3401FB8A828B83A3E08C821B
:205C75008D83F078BAE2FC08E2CC25E0CC33FDEC2416FCED3401FD9005F0ECF0EDA3F0E442
:205C9500A3F09005F37402F0E4A3F09004A175F000C007C006126B3F9005F074BAF0E4A3EA
:205CB500F07460A3F09005F37402F0E4A3F09004A375F000126B3FD006D00778D97404F253
:205CD50078BAE22401F208E23400F278BA7961E2F5F0E3B5F00B08E2F5F009E3B5F002802C
:205CF50002800B78BAE22401F208E23400F278BDE4F208E254E0F278BEE2547FF278BEE2B7
:205D150054DFF280537893E2601E78D9E270197893E2B4020280030253507861E2F5F008DA
:205D3500E245F0600302535078D9E22404F582C007C006124B15AC82AD83D006D007789A41
:205D5500E2C39CFC08E29DFD78BDECF208ED541FF5F0E254E045F0F27893E2B4022678612E
:205D7500E2F5F008E245F0701BC007C006120EE0AD82D006D0077C0043048078BFEDF208D3
:205D9500ECF2800A78BF7961E3F20809E3F278D9E224A1FCE43404FD7B009005F074BDF08C
:205DB500E4A3F07460A3F09005F37404F0E4A3F08C828D838BF0C007C006126B3FD006D001
:205DD5000778BEE220E52C78D9E2601E78BDE2FC08E2541FFD4C6012D2B67896E2FC08E224
:205DF500FD7898ECF208EDF28009789874FFF20874FFF27893E2700F78D9E27006D22ED26A
:205E15002D8010C22D800C7893E2B4010678A4E2547FF2302E217893E2B4011BC22E78A680
:205E350079AAE2F308E2F5F0E325E0C5F033C5F0F309E5F0F3800E78A6E2FC08E2FD78AAAA
:205E5500ECF208EDF278ACE2FC7D0078ADE2FA7B00ECC39AFCED9BFDBC6405BD0002801F20
:205E750078D9E22404F582C007C006124B15AC82AD83D006D00778AEE22CF208E23DF2787A
:205E9500D9E22404FD787774A1F2087404F27898900494E2F008E2A3F0789A7979E2F3083D
:205EB500E209F38D82C007C00612382CD006D007401078D9E2600BC007C006122269D00642
:205ED500D00778B0E2600C78B1E4F208F278B5E4F208F2C007C006120EBA12398512388465
:205EF500D006D00778D9E2700302535078BDE2FC08E2541FFD4C7003025350C2B6025350A7
:205F1500A23022AE82AF8378D474012EF2E43F08F222AE82AF837896EEF208EFF222E58234
:205F350024FF9231221235EDAF82900606EFF0E4A3F0E4A3F0E4A3F09003E8E4F5F0126D3C
:205F550034AC82AD83AEF0FF9005E1ECF0EDA3F0EEA3F0EFA3F090120075F07AE41269D672
:205F7500AC82AD83AEF0FF74082CF568E43DF569E43EF56AE43FF56BAA68E569C4CAC45483
:205F95000F6ACA540FCA6ACAFBE56AC454F04BFBAE6AE56BC4CEC4540F6ECE540FCE6ECEE6
:205FB50078A8EAF208EBF2900606EAF0EBA3F0E4A3F0E4A3F0902710E4F5F0C003C00212E2
:205FD5006D3485826C85836D85F06EF56F900606E568F0E569A3F0E56AA3F0E56BA3F090CD
:205FF5000271E4F5F0126D34AC82AD83AEF0FFD002D003C3E56C9CE56D9DE56E9EE56F9F7A
:20601500500A78A874012AF2E43B08F278A89005FAE2F008E2A3F090000D126C17E582852B
:2060350083F078A6240DF2E435F008F230063478A07474F278A9E2F5F018E225E0C5F03369
:20605500C5F0F208E5F0F278A8E2FE08E2CE25E0CE33CE25E0CE33FF78A6E22EF208E23FDB
:20607500F2800578A074F8F278A6E2F56808E2C56825E0C56833F56978A1E568F208E56939
:20609500F278A8900606E2F008E2A3F0E4A3F0E4A3F078A0E2FA7B007C007D008A828B837E
:2060B5008CF0ED126D3485826C85836D85F06EF56F78A6E2F57008E2F571E4F572F573E533
:2060D50070256CFCE571356DFDE572356EFEE573356FFFEC2CF56CED33F56DEE33F56EEF58
:2060F50033F56FAA68AB69E4FEFFEA256CFAEB356DFBEE356EFEEF356FFFE5702AFCE571FE
:206115003BFDE5723EFEE5733FFF78B0E2603578B37438F2087401F2785274A8F2087403DB
:20613500F208E4F208F27856ECF208EDF208EEF208EFF28C828D838EF0EF122BB0AC82ADC9
:2061550083AEF0FFC374FF9C741F9DE49EE49F50087CFF7D1F7E007F00C3EC94A8ED9461CA
:20617500EE9400EF940040087CA87D617E007F00789CECF208EDF278A8E2F57008E2F5712E
:20619500E4F572F573E5702570F570E57133F571E57233F572E57333F573E5702570F570C6
:2061B500E57133F571E57233F572E57333F57378A6E2F56C08E2F56DE4F56EF56FE56C2529
:2061D50070F570E56D3571F571E56E3572F572E56F3573F573E5702570F570E57133F57174
:2061F500E57233F572E57333F573E5702570F570E57133F571E57233F572E57333F573780C
:20621500A1E2F56808E2F569E4F56AF56BE5682570F570E5693571F571E56A3572F572E5BB
:206235006B3573F573E56C2570FCE56D3571FDE56E3572E56F3573789EECF208EDF2786E40
:20625500E27E0024F6FFEE34FFFE9006177402F0E4A3F08F828E83126F7CAE82AF8378A866
:206275009005FAE2F008E2A3F08E828F83126C17AE82AF8378A6E22EF208E23FF2789C794A
:20629500A6E3F5F0C3E295F0FE09E3F5F008E295F0FF78A890059FE2F008E2A3F08E828FD2
:2062B500831264FAAE82AF8378A0E2FC7D00C3EC9EED9F50048C068D078E8212226C78BFC7
:2062D50074FFF20874FFF2789474FFF20874FFF29005EDE4F09005EE7410F0E4A3F09001A4
:2062F5002675F000126B179005EDE4F09005EE7410F0E4A3F090011675F000126B1778BCD2
:206315007413F290059D7406F0C2B7C22C2278A1E2C0E008E2C0E07861E2C0E008E2C0E0C0
:206335007401C0E0747BC0E07480C0E01234D0E58124F9F58190000112642C789CE2C0E038
:2063550008E2C0E07861E2C0E008E2C0E0741AC0E0747BC0E07480C0E01234D0E58124F9CF
:20637500F58190000112642C78A0E2FE7F00C006C0077861E2C0E008E2C0E07434C0E074BA
:166395007BC0E07480C0E01234D0E58124F9F58190000102642C11
:207A48005B25755D204C2F5220525353493A2025752F257520204C2F52206E6F6973653A3C
:207A68002025752F25750A005B25755D20706B74733A202575207478653D25752072786592
:207A88003D2575207374783D2575207372783D2575206563633D25752F25752074656D709C
:207AA8003D25642064636F3D25750A00737461636B20626C6F776E0A0070646174612063D2
:207AC800616E617279206368616E6765640A00496E76616C6964206C656E6774682E2E20AA
:207AE80025750A006F76657273697A65642074646D207061636B6574005B25755D207369B4
:207B08006C656E63655F706572696F643A2025750A005B25755D2074785F77696E646F7721
:207B28005F77696474683A2025750A005B25755D206D61785F646174615F7061636B657438
:0D7B48005F6C656E6774683A2025750A0051
:2063AB00C028C0E0C0F0C082C083C007C006C005C004C003C002C001C000C0D075D00075AF
:2063CB0091041205C2E51B6002151BD0D0D000D001D002D003D004D005D006D007D083D053
:2063EB0082D0F0D0E0D02832AE82AF83C3EE94F6EF94094004751BFF2274092EFEE43FFF8D
:20640B0090059F740AF0E4A3F08E828F831264FAAE828E1B2285821B22E51BB4010092360A
:20642B00221263F312642450FB22C028C0E0C0F0C082C083C007C006C005C004C003C00268
:20644B00C001C000C0D075D00075C8047401251CF51CE4351DF51D3008031243E8D0D0D0A3
