:0A04D20078007441F278057464F2BA
:2004E700AF828F06BE08028021BE0D028005BE7F36801775820A124CD37801E224BEF58284
:20050700E43400F583E4F0D201227801E2606A758208124CD3758220124CD3758208124C81
:20052700D37801E214F2227801E2B4450050448F82C007C006127437E582D006D00760396E
:200547008F82C007C006127405E582D006D00760055306DF80028F068E077801E2FE78013C
:2005670004F2EE24BEF582E43400F583EFF08F82024CD3C2007801E4F222AF82BF2B0280C6
:20058700047804E4F27804C3E2F5F0740495F0402C7804E275F003A49005A3730205C802A9
:2005A70005B20205B20205B90205C87804E22401F22278047404F278057464F2227804E4EF
:2005C700F278057464F2227805E2603B7805E214F27805E270317804E260087804E2B4047E
:2005E70026800678047401F222D2007804E4F29000BE7441F09000BF7454F09000C0E4F001
:2006070078017402F2D20122E5812404F5817C007D007E007F007802E224BEF582E4340036
:20062700F583E0FBF582C007C006C005C004C003126F82E582D003D004D005D006D007601D
:200647006D90068EECF0EDA3F0EEA3F0EFA3F090000AE4F5F0C003127103AF82AE83ADF0F8
:20066700FCD0038B027B00EA24D0FAEB34FFFBE58124FDF8A60208A603EB3395E008F6083A
:20068700F6E58124FDF8E62FF608E63EF608E63DF608E63CF6E58124FDF8860408860508CC
:2006A70086060886077802E22401F202061D8C828D838EF0EFC8E58124FCF581C822200120
:2006C70001227801E2B40200E433FF600302074E9000BEE0FEBE526F9000BFE0FEBE5467BE
:2006E70078027403F278017902C3E2F5F0E395F0501B7802E224BEF582E43400F583E0FE9C
:20070700BE2C0280087802E22401F280D87802E224BEF582E43400F583E0FEBE2C1C7802F0
:20072700E2FE780204F2EE24BEF582E43400F583E4F012060F125620800690FFFF1256206C
:200747007801E4F2C20122EF70699000BEE0FFBF41619000BFE0FFBF54599000C0E0FF60DF
:2007670023BF26028023BF2B028023BF49028023BF4F028028BF5002801EBF53028027BFA8
:200787005A2E80271207C1802A120A0F8025120C5280201207FF801B120AEA80167805747F
:2007A70064F2C200800D12097E800843EF1080FE1207E07801E4F2C201227854E2C0E00829
:2007C700E2C0E074B5C0E07476C0E07480C0E012372BE58124FBF581227854E2C0E008E2E0
:2007E700C0E074BEC0E07476C0E07480C0E012372BE58124FBF581229000C1E0FF6037BF4B
:2008070030028032BF31028058BF3203020893BF33030208B9BF34030208E2BF35030209F6
:200827000BBF360302091DBF3703020920BF380302092302097B7450C0E07479C0E07480CF
:20084700C0E07854E2C0E008E2C0E074CAC0E07476C0E07480C0E012372BE58124F8F581B1
:20086700227466C0E07479C0E07480C0E07854E2C0E008E2C0E074CAC0E07476C0E0748080
:20088700C0E012372BE58124F8F581227482C0E0E4C0E07854E2C0E008E2C0E074D3C0E04A
:2008A7007476C0E07480C0E012372BE58124F9F58122780DE2FE7F00C006C0077854E2C0A5
:2008C700E008E2C0E074D3C0E07476C0E07480C0E012372BE58124F9F58122780EE2FE7F2E
:2008E70000C006C0077854E2C0E008E2C0E074D3C0E07476C0E07480C0E012372BE5812489
:20090700F9F581227F008F82C007122C1CD0070FBF130040F1220266F2024D7C7854E2F5BB
:20092700F008E245F070207854E2C0E008E2C0E074DCC0E07476C0E07480C0E012372BE5D2
:200947008124FBF581802C1262E49202E433FE7F00C006C0077854E2C0E008E2C0E074ED88
:20096700C0E07476C0E07480C0E012372BE58124F9F581220207E078027403F212060FAC84
:2009870082AD83AEF0FFBC130040030207E07802E224BEF582E43400F583E0FFBF3D028064
:2009A70036BF3F618C821227FDAB82AD83AEF0FFC003C005C006C0077854E2C0E008E2C050
:2009C700E074FCC0E07476C0E07480C0E012372BE58124F7F58122EC602B7802E22401F28B
:2009E700C00412060FAB82AD83AEF0FFD0047841EBF208EDF208EEF208EFF28C8212260B98
:200A070050030207C10207E09000C1E0FFBF46028012BF54028053BF55028014BF570280D6
:200A270009020AE7122AEA0207C1122A810207C19006847406F07477A3F07480A3F0900023
:200A4700C275F000127006E5828583F045F0701775B7A575B7F1758F0390F7FE74FFF07573
:200A67008F0043EF1080FE0207E0900684740CF07477A3F07480A3F09000C275F00012706F
:200A870006E5828583F045F070057803E4F222900684740DF07477A3F07480A3F09000C2EB
:200AA70075F000127006E5828583F045F070077803E26401F2229006847413F07477A3F052
:200AC7007480A3F09000C275F000127006E5828583F045F070077803E26402F2220207E07E
:200AE7000207E09000C1E0FFBF50028003020B957F008F057E00C007C005C0067854E2C04F
:200B0700E008E2C0E07418C0E07477C0E07480C0E012372BE58124F9F581D0078F82C007FD
:200B2700123174D007501BC0077425C0E07477C0E07480C0E012372B158115811581D00789
:200B47008019C007742DC0E07477C0E07480C0E012372B158115811581D0078F82C00712D7
:200B6700332C9203E433FD7E00C005C0067435C0E07477C0E07480C0E012372BE58124FBFC
:200B8700F581D0070FBF06005003020AF9229000C2E0FFBF3D0D9000C3E0F582126F82E5E7
:200BA7008270030207E09000C3E024D0FF9000C1E0FEBE4302805EBE49028016BE4F0280EC
:200BC70008BE52028015020C4CD2128F82122EB38076C2128F82122EB3806D8F82C0071278
:200BE7003174D007402C8F8212334BAE827D00C006C0057854E2C0E008E2C0E0743EC0E003
:200C07007477C0E07480C0E012372BE58124F9F581220207E09000C5E0F582C007126F82C0
:200C2700E582D007601C9000C5E0FE3395E0FDEE24D0FEED34FF4E24FF92148F821231921E
:200C470040060207E00207E00207C178027404F212060FAC82AD83AEF09000C1E0FFBF4174
:200C670003020D6DBF43028053BF4C03020D5FBF50028003020DB59000C2E0FFBF3D028094
:200C870003020DB578027405F212060F7806C0E0E582F208E583F208E5F0F2D0E008F278B0
:200CA70006E254FFFA08E2540008E2540008E254008AFC7582011243710207C17802E224B0
:200CC700BEF582E43400F583E0FFBF3D028041BF3F028003020DB58C82122D95AF827806D2
:200CE700EFF208E4F208F208F27806E2C0E008E2C0E008E2C0E008E2C0E0744BC0E0747752
:200D0700C0E07480C0E012372BE58124F9F581227802E22401F2C00412060F7806C0E0E5A8
:200D270082F208E583F208E5F0F2D0E008F2D0047806E254FFFB08E2540008E2540008E275
:200D47005400C0038C82122D481581920450051207C180030207E022122DE450051207C1A5
:200D670080030207E0229000C2E0FFBF3D4078027405F212060F7806C0E0E582F208E5837E
:200D8700F208E5F0F2D0E008F27806E2B4010C08E2700808E2700408E26002800875820233
:110DA70012437180067582031243710207C10207E07C
:2076B5005B25755D204F4B0A005B25755D204552524F520A005B25755D2025730A005B2505
:2076D500755D2025750A005B25755D2053796E633A20426173650A005B25755D2053796E65
:2076F500633A2025750A005B25755D20256C750A00504441544500003D52535349003D5415
:20771500444D005B25755D2050696E3A256420004F75747075742000496E70757420200046
:1B77350056616C3A2025750A005B25755D2076616C3A25750A00256C750A0075
:200DB800AF827E007D00AB08AC098F021FEA603B8B828C83E0FAA3AB82AC83ED2DF9ED302D
:200DD800E714890009E8907850936EFDE990785093F86AFE80D4890009E890775093F86EDE
:1B0DF800FDE990775093F96AFE80BF8D07E4FDFCEE4205EC42078D828F832252
:207750000000102120423063408450A560C670E781089129A14AB16BC18CD1ADE1CEF1EF19
:20777000123102103273225252B5429472F762D693398318B37BA35AD3BDC39CF3FFE3DED9
:20779000246234430420140164E674C744A45485A56AB54B85289509E5EEF5CFC5ACD58D99
:2077B000365326721611063076D766F6569546B4B75BA77A97198738F7DFE7FED79DC7BC59
:2077D00048C458E5688678A70840186128023823C9CCD9EDE98EF9AF89489969A90AB92B19
:2077F0005AF54AD47AB76A961A710A503A332A12DBFDCBDCFBBFEB9E9B798B58BB3BAB1AD9
:207810006CA67C874CE45CC52C223C030C601C41EDAEFD8FCDECDDCDAD2ABD0B8D689D4998
:207830007E976EB65ED54EF43E132E321E510E70FF9FEFBEDFDDCFFCBF1BAF3A9F598F7858
:20785000918881A9B1CAA1EBD10CC12DF14EE16F108000A130C220E3500440257046606718
:2078700083B99398A3FBB3DAC33DD31CE37FF35E02B1129022F332D24235521462777256D8
:20789000B5EAA5CB95A88589F56EE54FD52CC50D34E224C314A00481746664475424440598
:2078B000A7DBB7FA879997B8E75FF77EC71DD73C26D336F2069116B0665776764615563458
:2078D000D94CC96DF90EE92F99C889E9B98AA9AB584448657806682718C008E1388228A318
:2078F000CB7DDB5CEB3FFB1E8BF99BD8ABBBBB9A4A755A546A377A160AF11AD02AB33A92D8
:20791000FD2EED0FDD6CCD4DBDAAAD8B9DE88DC97C266C075C644C453CA22C831CE00CC197
:20793000EF1FFF3ECF5DDF7CAF9BBFBA8FD99FF86E177E364E555E742E933EB20ED11EF057
:200E130075B7A575B7F122D310AF01C3C0D0AF8474035F4430F584C007120E13D007758FFE
:200E33000390F80074FFF0758F008F84D0D092AF22D310AF01C3C0D0AE82AF83AD847403A7
:200E53005D4430F584758F004307F88E828F83E493FF758F008D848F82D0D092AF22D3104B
:200E7300AF01C3C0D0AE82AF83AD8474035D4430F584C007C006C005120E13D005D006D008
:190E930007758F054307F88E828F83780AE2F08D84758F00D0D092AF2266
:02F7FE003DC20A
:200EAC00AF83E582900137F0EFA3F0900137E0FEA3E0FF900136E0FD7C008D027B001ABA2D
:200ECC00FF011B8C007900C3E89AE964808BF063F08095F05046C007C006C005C004126CD7
:200EEC00FBAA82D004D005D006D0078DF0EA84E5F02EFAE43FFB8A828B83E0F50AC005ECB9
:200F0C002EF8E43FFD88828D83E0F98A828B83F088828D83E50AF00CD005809E22AF83E551
:200F2C0082900139F0EFA3F07F00780BC3E2F5F0EF95F0500FEF2404F582E43401F583EF7A
:200F4C00F00F80E6900139E0FEA3E0FF8E828F83126D55780BE2FF7E008F047D001CBCFF37
:200F6C00011D8E027B00C3EA9CEB64808DF063F08095F05042C007C006126CFBAC82D006B3
:200F8C00D0078FF0EC84E5F02404FCE43401FD8C828D83E0F50BC007EE2404FAE43401FF83
:200FAC008A828F83E0FB8C828D83F08A828F83E50BF00ED00780A222780CE22404F582E40E
:200FCC003401F583E0F58222780BE2F5F0E484E5F02404F582E43401F583E0F58222780C2B
:200FEC00E2F58222E58290013DF0780CF222780CE2FE7F000EBE00010F780B90068AE2F079
:20100C00E4A3F08E828F8312709AAE82AF83780CEEF220050C780B790CE2F5F0E484E5F00C
:07102C00F322A20692052247
:060400000204790244121F
:01040B0032BE
:0104130032B6
:01041B0032AE
:0304230002455837
:03042B0002680460
:010433003296
:01043B00328E
:010443003286
:01044B00327E
:010453003276
:01045B00326E
:010463003266
:01046B00325E
:0304730002677AA3
:0304E40002047699
:030476000210333E
:20103300758433AFC4780DEFF2AFC3780EEFF21211031229904003122AEA7582011227FD37
:20105300AC828C821247131211A87582061227FDAC8290015EECF07582071227FDAC82ADCF
:2010730083AEF0FFEC4D4E4F24FF92087582051227FDAC82AD83AEF0FFEC4D4E4F24FF92F2
:201093000775820E1227FDAC82AD83AEF0FFEC4D4E4F24FF9209123AE34015746AC0E074F6
:2010B30079C0E07480C0E01210C9158115811581122E6402570D90798475F080127450E58C
:2010D3008124FCFFC007E58124FBF886820886830886F01234A3158190798F75F080127400
:2010F30050D2AFD2AC9003E81267FB43EF1080FE75A700AFD974BF5FF5D943B28075A90048
:2011130075B64075FF807E5E7F011EBEFF011FEE4F70F775EF0675D4CF75D5FF75D62875AF
:20113300A41075A70F75A41075A70075E10143E24143A6FD75A70F43A5F575A6FD43B1C001
:2011530043A1C043A50143A50143FA2043A32075A70275A14075F80075A20043F801D2A3FA
:2011730075A700C2891268AA75B800D2AFD2B7C2B6D2EF75BCF975BA0075BB1B75D10775FB
:20119300D2FF43D98875DF0075FC8075DA4275D84075E34022123B2240157490C0E0747955
:2011B300C0E07480C0E01210C9158115811581780DE2B44302801C780DE2B44702804378A0
:2011D3000DE2B48602806A780DE2B4910302127102129E781B7490F20874D1F20874CFF2FC
:2011F300087419F2781F7470F208745EF20874EAF2087419F27827740AF2780B740AF20239
:2012130012D5781B7480F20874A1F2087403F208741CF2781F74C0F20874E3F2087412F2C3
:2012330008741CF27827740AF2780B740AF20212D5781BE4F20874A1F20874BCF2087433D5
:20125300F2781F7440F20874E3F20874CBF2087433F27827740AF2780B740AF28064781BA8
:2012730074C0F20874CAF2087489F2087436F2781FE4F2087428F2087450F2087437F27884
:20129300277414F2780B7432F28037781BE4F208F208F208F2781FE4F208F208F208F2789E
:2012B30027E4F2780DE2FA7B00C002C00374A8C0E07479C0E07480C0E01210C9E58124FB70
:2012D300F58175820A1227FDAA82AB83AEF0FFEA4B4E4F601175820A1227FDAC82AD83AED1
:2012F300F0FF780BECF27582081227FDAC82AD83AEF0FFEC4D4E4F60377582081227FDAC0D
:2013130082AD83AEF0FF90068EECF0EDA3F0EEA3F0EFA3F09003E8E4F5F0127103781BC0CB
:20133300E0E582F208E583F208E5F0F2D0E008F27582091227FDAC82AD83AEF0FFEC4D4ECE
:201353004F60377582091227FDAC82AD83AEF0FF90068EECF0EDA3F0EEA3F0EFA3F090034D
:20137300E8E4F5F0127103781FC0E0E582F208E583F208E5F0F2D0E008F27582041227FD87
:20139300AC82AD83AEF0FFEC4D4E4F60117582041227FDAC82AD83AEF0FF7827ECF27827B0
:2013B300E2FB7D007E007F007845E4F208F208F208F27849741EF208E4F208F208F28B821E
:2013D3008D838EF0EF122CC3AC827827ECF2780BE2FC7D007E007F0078457401F208E4F2F4
:2013F30008F208F278497432F208E4F208F208F28C828D838EF0EF122CC3AC82AD83AEF033
:20141300FF780BECF2780DE2B44302801E780DE2B447030214CD780DE2B4860302155E7882
:201433000DE2B491030215EF02167D78457480F2087423F20874ADF2087418F27849E4F25B
:2014530008740BF208746BF208741BF2781BE2F58208E2F58308E2F5F008E2122CC3781B03
:20147300C0E0E582F208E583F208E5F0F2D0E008F278457480F2087423F20874ADF20874BA
:2014930018F27849E4F208740BF208746BF208741BF2781FE2F58208E2F58308E2F5F00894
:2014B300E2122CC3781FC0E0E582F208E583F208E5F0F2D0E008F202169C78457480F2086C
:2014D3007474F20874D2F208741AF278497480F20874CEF2087434F208741DF2781BE2F5DD
:2014F3008208E2F58308E2F5F008E2122CC3781BC0E0E582F208E583F208E5F0F2D0E008C6
:20151300F278457480F2087474F20874D2F208741AF278497480F20874CEF2087434F208EC
:20153300741DF2781FE2F58208E2F58308E2F5F008E2122CC3781FC0E0E582F208E583F217
:2015530008E5F0F2D0E008F202169C78457440F20874B6F208749AF2087432F278497440A7
:20157300F2087410F20874FDF2087434F2781BE2F58208E2F58308E2F5F008E2122CC3785B
:201593001BC0E0E582F208E583F208E5F0F2D0E008F278457440F20874B6F208749AF208B2
:2015B3007432F278497440F2087410F20874FDF2087434F2781FE2F58208E2F58308E2F55D
:2015D300F008E2122CC3781FC0E0E582F208E583F208E5F0F2D0E008F202169C7845E4F26B
:2015F3000874A1F20874BCF2087433F2784974C0F20874F7F20874BAF2087437F2781BE270
:20161300F58208E2F58308E2F5F008E2122CC3781BC0E0E582F208E583F208E5F0F2D0E0B7
:2016330008F27845E4F20874A1F20874BCF2087433F2784974C0F20874F7F20874BAF208B4
:201653007437F2781FE2F58208E2F58308E2F5F008E2122CC3781FC0E0E582F208E583F2DC
:2016730008E5F0F2D0E008F2801F780DE2FE7F00C006C00774A8C0E07479C0E07480C0E0F1
:201693001210C9E58124FBF581781F791BE2F5F0E3B5F01D08E2F5F009E3B5F01408E2F567
:2016B300F009E3B5F00B08E2F5F009E3B5F0028002801A781B791FE22440F308E234420940
:2016D300F308E2340F09F308E2340009F375820B1227FDAC82789FECF27F007E007D007874
:2016F30045E4F208F208F208F278497464F208E4F208F208F28C828F838EF0ED122CC3AC39
:2017130082789FECF27841ECF208E4F208F208F275820B12260B75820C1227FDAC82AD83FA
:20173300AEF0FF78A3ECF2EC60337F007E007D0078457419F208E4F208F208F2784974DCE8
:20175300F208E4F208F208F28C828F838EF0ED122CC3AC82AD83AEF0FF78A3ECF278A3799E
:2017730041E2F309E4F309F309F375820C12260B90066974E8F07403A3F0E4A3F0E4A3F0DF
:20179300781BE2F58208E2F58308E2F5F008E2126DA5AC82AD83AEF0FF7841ECF208EDF292
:2017B30008EEF208EFF275820812260B90066974E8F07403A3F0E4A3F0E4A3F0781FE2F552
:2017D3008208E2F58308E2F5F008E2126DA5AC82AD83AEF0FF7841ECF208EDF208EEF208CC
:2017F300EFF275820912260B780B7941E2F309E4F309F309F375820A12260B781F791BE376
:20181300F5F0C3E295F0FC09E3F5F008E295F0FD09E3F5F008E295F0FE09E3F5F008E295DF
:20183300F0FF780BE2FA7B0074022AFAE43BFB900669EAF0EBA3F0EB3395E0A3F0A3F08C7C
:20185300828D838EF0EF126DA57823C0E0E582F208E583F208E5F0F2D0E008F27826E2C3A0
:2018730013FF18E213FE18E213FB18E213FA781BE22AF208E23BF208E23EF208E23FF275D7
:2018930082031227FD126D55780BC3E2F5F0740595F05054126CFBAE82AF83900682EEF026
:2018B300EFA3F0900271126FE6AE82E583FF3395E0FDFC782390065EE2F008E2A3F008E229
:2018D300A3F008E2A3F08E828F838DF0EC126B17AC82AD83AEF0FF781BE22CF208E23DF21F
:2018F30008E23EF208E23FF2781BE2F58208E2F58308E2F5F008E2123B597823E2F58208F7
:20191300E2F58308E2F5F008E2123B957582031227FDAC82AD83AEF0FF780B90065EE2F04B
:20193300E4A3F0E4A3F0E4A3F08C828D838EF0EF126B17AC828C82123BE47582021227FD74
:20195300AC828C82123C0E40337582021227FDAC828C82123C0E40247582021227FDAC82E1
:201973008C82123C0E401574BFC0E07479C0E07480C0E01210C9158115811581123848AFB3
:20199300827841EFF208E4F208F208F275820212260B7582031227FD123F1175820F122739
:2019B300FD123F687582121227FD1262E77582101227FD1262F67582111227FDAC828C82A3
:2019D3001263027827E2F582123ECB123F0BAF827841EFF208E4F208F208F275820412263E
:0D19F3000B7582031227FD120F29026309F4
:207950004D502053694B20322E35206F6E205246443930305000322E35006661696C6564C2
:2079700020746F20656E61626C65207265636569766572000A2A2A50414E49432A2A0000DB
:20799000726164696F5F696E697469616C697365206661696C65640062616420626F6172CE
:2079B00064206672657175656E637920256400726164696F5F636F6E666967757265206602
:0679D00061696C656400B2
:201A0000AF829004E4E0F5747CFF7DFF74062574FBFA24E3F582E43404F583EFF00A782939
:201A20007401F27829C3E29A5065C0027829E224E3F582E43404F583E0FB8C76757700E5A5
:201A400076F5786BF575C454F0F57962758D7A757B00AB757E008B077A00E57A6202E57BBD
:201A60006207EEC40354F8CBC403CB6BCB54F8CB6BFEEB6202EE6207E575C4540FFE7B0049
:201A80006AFCEB6FFD7829E22401F2D00280947406257424E3F582E43404F5838C06EEF074
:201AA0007407257424E3F582E43404F5838D04ECF022AF828F748F047D00782AE27B002C02
:201AC000FCEB3DFDAA747B00C3EA9CEB64808DF063F08095F05032E57424E3FCE43404FD68
:201AE0008C828D83E0F575E5740424E3FAE43404FB8A828B83E0FE8C828D83F08A828B83E9
:201B0000E575F00574057480AD227EE97F047D009004E374FEF09004E47409F07828E2FC97
:201B2000782804F29004E5ECF09004E67433F09004E77444F09004E874A6F0780FE2FB0894
:201B4000E2FC8E828F838DF0EB126F9BA3EC126F9B74022EF50CE43FF50D8D0E7819E2FB83
:201B600008E2FC850C82850D83850EF0EB126F9BA3EC126F9B74062EFEE43FFFC007C006CD
:201B8000C005124CA3AC82D005D006D0078E828F838DF0EC126F9B758215121A001249276E
:201BA000AE82AF83C3EE9411EF940050012278827411F29004E31248089004E8746DF0756B
:201BC00082B9121A00124927AE82AF83C3EE9411EF940050012278827411F29004E302483C
:011BE00008FC
:201BE100AE82AF83E0FDBDFE1A8E828F83A3E0FDBD091074052EFEE43FFF8E828F83E0701F
:201C010002D20F22E5827835F2124C4B7836E582F208E583F27B007C00783874FFF208741E
:201C2100FFF27836C3E2940808E294005003021CFE8B828C83C004C003124A9A858229D03D
:201C410003D00474FEB529028003021CFE74012BFEE43CFF8E828F83C004C003124A9A85DA
:201C61008229D003D004740925295003021CFEC003C004AD297E0074082DFAE43EFC78358E
:201C8100E2F52A752B00782BE2FB7F00E52AC39BFBE52B9FFFC3EB9AEF64808CF063F08023
:201CA10095F0D004D003405574082DFDE43EFE7836C3E29D08E29E404474062BFEE43CFFDE
:201CC1008E828F83C004C003124A9AAF82D003D004BF460C7412B529077838EBF208ECF29D
:201CE10074082529F529AA297F007836E2C39AF208E29FF2EA2BFBEF3CFC021C237838E245
:201D0100F58208E2F58322E582900357F0E4F52EF52F782F7983E2F390025B124AD2782F21
:201D2100E2FD782BF2783AE2FA08E2FB7C00900678745BF07402A3F0E4A3F090067BEDF004
:201D4100E4A3F08A828B838CF0126F0E782FE4F2783AE2F58208E2F583121BE190015EE01F
:201D6100FDBD020F900357E0F582121C05AC82AD8380047CFF7DFF8C308D31124C4B858220
:201D81002C85832D900357E0F53574FFB5300974FFB5310474018001E4FCC3E52C9408E504
:201DA1002D94005003021EDBC004124A43858232D00474FEB532028006782BE2F58222C0E4
:201DC10004124A5F858232D004740925325003021EDBC00485323375340074082533FBE40A
:201DE1003534FEAA357F00782BE2FC7D00EAC39CFAEF9DFFC3EA9BEF64808EF063F0809550
:201E0100F0D0045003021EDB74082533FEE43534FFC3E52C9EE52D9F5003021EDBEC70289C
:201E2100E52EB53007E52FB53102801C900006C004124A9AAF82D004BF460D7412B532082E
:201E410074082532F532807074082532F532782BE2245BFEE43402FF7883E532F28E828FDF
:201E610083C004124AD2783A792BE3C5F0E225F0FE08E23400FF7D00782BE2245BFAE43459
:201E810002FB900678EAF0EBA3F0E4A3F090067BE532F0E4A3F08E828F838DF0126F0E7832
:201EA1003A792BE3C5F0E225F0FE08E23400FF8E828F83121BE1D004782BE22532F2AE32E7
:201EC1007F00E52CC39EF52CE52D9FF52DEE252EF52EEF352FF52F021D9B782BE2F5822269
:201EE100858236124C4B858237858338200D16300865200A62782BE2605DC3E5379420E557
:201F01003894005052782BC3E2F5F0E53695F05008782BE4F275820022D20AC20D783CE25A
:201F2100FA08E2FB7C00900678745BF07402A3F0E4A3F0782B90067BE2F0E4A3F08A828B64
:201F4100838CF0126F0E782BE2F537753800782BE4F2AB378B8222C20A200E030220117862
:201F61002BE2FB7C008B378C38853639753A00C3E5399537E53A95385065783CE2FA08E2EB
:201F8100FE7F00900678745BF07402A3F0E4A3F090067BE539F0E53AA3F08A828E838FF009
:201FA100126F0EE536245BFEE43402FF900678EEF0EFA3F0E4A3F0AE367F0090067BE5376B
:201FC100C39EF0E5389FA3F090025B75F000126F0EE537C39536782BF2D20B85368222788C
:201FE1003CE2FD08E2FE7F00900678745BF07402A3F0E4A3F090067BEBF0ECA3F08D828E09
:20200100838FF0126F0EC20ED20B782BE2F58222C20BAE367F00C3EE9537EF953850048E18
:20202100378F38782BE4F2E53745387003F5822290015EE0FF7053E53745386043AD37785A
:2020410083EDF2783CE2F58208E2F583C005124AD2D005502B783C900678E2F008E2A3F05A
:20206100E4A3F090067BE537F0E538A3F090025B75F000C005126F0ED005782BEDF280049A
:20208100782BE4F2782BE2F58222782FE2B4010280030221207401B53706E4B538028002E6
:2020A100807912686CAE82AF837830D3E29EF4B3FEB308E29FF4FF7832C3E29E08E29F5049
:2020C10056782BE2FF782B04F2EF245BFFE43402FEC007C00612498EAD82D006D0078F82A4
:2020E1008E83EDF0783CE2FD08E2FE7F00900678745BF07402A3F0E4A3F0782B90067BE214
:20210100F0E4A3F08D828E838FF0126F0E782FE4F2782BE2F5822275820022782FE4F27880
:202121002FE270030221AF782FE2FE7F00C3E5379EE5389F506812686CAE82AF837830D38E
:20214100E29EF4B3FEB308E29FF4FF7832C3E29E08E29F5045AD377883EDF290025BC005AF
:20216100124AD2D005782BEDF2783CE2FC08E2FE7F00900678745BF07402A3F0E4A3F09003
:20218100067BEDF0E4A3F08C828E838FF0126F0E782FE4F2782BE2F5822275820022783CD4
:2021A100793AE2F308E209F3853682021D08E53745387003022350124A43AF82BFFE0280BC
:2021C100030223217401B53706E4B538028002802E782BE26003022350782F7401F2126866
:2021E1006CE5828583F07830F208E5F0F2782DE2FE08E2FF7832EEF208EFF275820022129E
:202201004A5FAF82782FEFF2BFF70050208F057E0074082DFDE43EFE7834E2FB7C00C3EBAA
:202221009DEC64808EF063F08095F05033782FE4F2782BE2FE782B04F2EE245BFEE43402B9
:20224100FDC006C00512498EAC82D005D0068E828D83ECF0153774FFB5370215380221AF6B
:2022610074082FFF782FF2782BE26062783CE2FC08E2FD7E00900678745BF07402A3F0E422
:20228100A3F0782B90067BE2F0E4A3F08C828D838EF0126F0E12686CE5828583F07830F2A3
:2022A10008E5F0F2782FE2FD7E00782D900682E2F008E2A3F08D828E83126FE6E582858348
:2022C100F07832F208E5F0F2782BE2F582227E00C3E5379FE5389E503712686CE5828583F1
:2022E100F07830F208E5F0F2782FE2FE7F00782D900682E2F008E2A3F08E828F83126FE6E9
:20230100E5828583F07832F208E5F0F275820022783C793AE2F308E209F3853682021D0853
:20232100782BE2FF782B04F2EF245BFFE43402FEC007C00612498EAD82D006D0078F828E09
:2023410083EDF0153774FFB5370215380221AF783CE2FD08E2FE7F00900678745BF0740213
:20236100A3F0E4A3F0782B90067BE2F0E4A3F08D828E838FF0126F0E782BE2F58222A20A5D
:2023810022A20B22D20D22E582900358F07834F222AF83E582900359F0EFA3F0900359E085
:2023A100FEA3E0FF900669EEF0EFA3F0E4A3F0E4A3F090000075F001E4126DA5AC82AD83F3
:2023C100AEF0FF0CBC00090DBD00050EBE00010F782DECF208EDF222E58290035BF02010E2
:2023E10039783EE2FD08E2FE7F0090035BE0FCFA7B00900678EDF0EEA3F0EFA3F090067B69
:20240100EAF0EBA3F090015F75F000C004126F0ED004782CECF2C20CC322200C3790035B61
:20242100E0FF782CE2B5072C783E900697E2F008E2A3F0E4A3F090069AEFF0E4A3F090018E
:202441005F75F00012721CE5828583F045F07004C20CD322D20CC322AF82BF130050259081
:2024610003D474FCF090025BC007123472D0078F82122C1C12349BAF82782BEFF2EF60048D
:20248100C20AD20E22D2019003D474FCF090025B1234721206C512349BAF82782BEFF2EFCC
:2024A1006004C20AD20E22AE82AF837840C3E2F5F074FC95F05005784074FCF2900678EEE5
:2024C100F0EFA3F0E4A3F0784090067BE2F0E4A3F090025B75F000126F0E7840E2782BF2F0
:0524E100C20AD20E2228
:2024E600AF82BF1300400122EF24ED5003022609EF240A83F582EF241783F583E4732A2C03
:20250600364B4D62796409090909090909C68E64E42525252525252525262626262626269B
:2025260025252525C322AF0F8F82124CE7921122C3E4950F74019510E49511E49512400386
:20254600022609C322D322C3741E950FE49510E49511E495124003022609C322C322C3745E
:2025660001950FE49510E49511E495124003022609C322C37402950FE49510E49511E49550
:20258600124003022609C32274FFB50F0F74FFB5100AE4B51106E4B5120280028002D322EC
:2025A600900398E0FCA3E0FDA3E0FEA3E0FFECB50F0EEDB5100AEEB51106EFB51202C322BA
:2025C6009003A4E0FCA3E0FDA3E0FEA3E0FFC3E50F9CE5109DE5119EE5129F402622C3E520
:2025E6000F9402E5109400E5119400E51294005012C3E4950F74809510E49511E4951250E7
:2026060002C322D322AF827841E2F50F08E2F51008E2F51108E2F5128F82C0071224E6D074
:2026260007400122EF24ED50030227DCEF240A83F582EF241783F583E473DCDCDCDC66DC8D
:202646002A40DCDCDC85CCDC6A94BCD0A82727272726272727272727262627272727272735
:202666007841E2F582C007123ECB123F0BAE82D0077841EEF208E4F208F208F20227DC7815
:2026860045E4F208F208F208F278497464F208E4F208F208F27841E2F58208E2F58308E270
:2026A600F5F008E2C007122CC3AB82AC83ADF0FED0077841EBF208ECF208EDF208EEF278EC
:2026C6009FEBF20227DC7841E2F5F008E242F008E242F008E245F0604278457419F208E4D2
:2026E600F208F208F2784974DCF208E4F208F208F27841E2F58208E2F58308E2F5F008E2EC
:20270600C007122CC3AB82AC83ADF0FED0077841EBF208ECF208EDF208EEF2784179A3E21B
:20272600F30227DC7841E2FE90015EF07841EEF208E4F208F208F20227DC7841E2F5F0082B
:20274600E242F008E242F008E245F024FF920850047E0180027E007841EEF208E4F208F223
:2027660008F280727841E2F5F008E242F008E242F008E245F024FF920950047E0180027EFF
:20278600007841EEF208E4F208F208F280487841E2FD08E2FE8D828E83C007123F68D00709
:2027A60080347841E2FD08E2FE8D828E83C0071262E7D00780207841E2FD08E2FE8D828E09
:2027C60083C0071262F6D007800C7841E2F582C007126302D007EF75F004A4245CF582744E
:2027E6000335F0F5837841E2F008E2A3F008E2A3F008E2A3F0D322AF82BF13004007900062
:2028060000E4F5F022EF75F004A4245CF582740335F0F583E0FCA3E0FDA3E0FEA3E08C8252
:202826008D838EF0228582138583149003CCE0FCA3E0FD9003CEE0FB8C018D028B007F008F
:20284600E82CF8EF3DFFC3E998EA9F5041E9C39CFEEA9DFFEE2513FEEF3514FF89828A839E
:20286600C007C006C005C004C003C002C001120E44A882D001D002D003D004D005D006D0A3
:20288600078E828F83E8F009B900B10A80AE8513088514098B82C002C001120DB8AE82AFFE
:2028A60083D001D002740129FCE43AFD8C828D83C007C006C002C001120E44AD82D001D0D5
:2028C600028D047D0089828A83C005C004120E44AB82D004D005D006D0077A00EB4205EAC4
:2028E6004204EEB50506EFB504028002C322D3228582158583169003CFE0FCA3E0FD90034D
:20290600D1E0FB8C178D188B027F00EA2CFAEF3DFFC3E5179AE5189F5036E517C39CFEE5BD
:20292600189DFFEE2515F582EF3516F583780AE0F2851782851883C005C004C003120E711D
:20294600D003D004D0050517E4B517BB051880B78515088516098B82120DB8AE82AF838E00
:2029660004780AECF2851782851883C007C006120E71D006D00774012517FCE43518FD7891
:202986000AEFF28C828D83020E71D310AF01C3C0D0122AEA900000120E44E582FF24B3402A
:2029A60005BF30005004C3022A7A7D5C7E039003CC7401F0E4A3F09003CEEFF08D828E836B
:2029C60012282B4003022A7A7582001227FDAC82AD83AEF0FFBC1B0BBD0008BE0005BF0052
:2029E600028004C3022A7A7F00EF75F004A4245CFD740335F0FE8D828E83E0F50FA3E0F5D4
:202A060010A3E0F511A3E0F5128F82C007C006C0051224E6D005D006D0074032EF75F007BF
:202A2600A424D6FB747935F0FC8B828C83A3A3A3E493F9A3E493FAA3E493FBA3E493FC8DA8
:202A4600828E83E9F0EAA3F0EBA3F0ECA3F00FBF4C0040957EA87F039003CC7401F07401BA
:202A6600A3F09003CE7424F08E828F8312282B40028001D333D0D092AF1322D310AF01C318
:202A8600C0D090035C741BF0E4A3F0E4A3F0E4A3F0120E1A780A744CF2900000120E717EC0
:202AA6005C7F039003CF7401F0E4A3F09003D1744CF08E828F831228F6780A7424F29001F1
:202AC60000120E717EA87F039003CF7401F07401A3F09003D17424F08E828F831228F6D0DA
:202AE600D092AF227F00EF75F004A4245CFD740335F0FEEF75F007A424D6FB747935F0FC09
:202B06008B828C83A3A3A3E493F9A3E493FAA3E493FBA3E493FC8D828E83E9F0EAA3F0EB9A
:202B2600A3F0ECA3F00FBF130040BB7F00EF75F006A4FDAEF024A8FBEE3403FC907A5BE458
:202B460093F574A3E493F575A3E493F576A3E493F5778B828C83E574F0E575A3F0E576A394
:202B6600F0E577A3F0ED24A8FDEE3403FE74042DFBE43EFC907A5FE493540F8B828C835426
:202B86000FF5F0E054F045F0F074042DFBE43EFC907A5FE493C4540FFA8B828C83C454F00F
:202BA600F5F0E0540F45F0F074052DFDE43EFE907A60E493FC8D828E83F00FBF06005003EB
:202BC600022B3322AF827E008F037C007D40EE75F007A424D6F582747935F0F583E493F88B
:202BE600A3E493F9A3E493FA900684E8F0E9A3F0EAA3F08B828C838DF0C007C0061270060F
:202C0600E5828583F0D006D00745F060060EBE130040B58E822285821974ED2519406EE5AF
:202C26001975F004A4245CF582740335F0F583E0F51AA3E0F51BA3E0F51CA3E0F51DE519B4
:202C460075F007A424D6F582747935F0F583E493FAA3E493FEA3E493FFAC197D00C01AC0E5
:202C66001BC01CC01DC002C006C007C004C0057854E2C0E008E2C0E07461C0E0747AC0E0C7
:202C86007480C0E012372BE58124F2F58122AF82BF13005021EF75F007A424D6F582747941
:202CA60035F0F583E493FDA3E493FEA3E493FF8D828E838FF02290000075F00022AC82AD19
:202CC60083AEF0FF7845C3E2F5F0EC95F008E2F5F0ED95F008E2F5F0EE95F008E2F5F0EFD5
:202CE60095F0500D7845E2FC08E2FD08E2FE08E2FF7849C3E29C08E29D08E29E08E29F50AF
:202D06000D7849E2FC08E2FD08E2FE08E2FF8C828D838EF0EF22D310AF01C3C0D0AE82AFD7
:202D260083758F0175B7A575B7F18E828F83E58124FDF8E6F0758F00D0D092AF22E493F52D
:202D46008222AF82758433EF24E14041A8811818B6FF0280387E0074DE2FFC74FF3EFD8CFA
:202D6600828D83C007C006122D43AD82D006D007BDFF1A74DE2FFF74FF3EFEA8811818E68C
:202D8600C0E08F828E83122D1C1581D322C322AF827E007584337D00ED90F7DE93FC6206FF
:202DA6000DBD1F0040F290F7FDE493FDBDFF02801690F7FDE493FDB5060DEF24E14008EFBB
:202DC60090F7DE93F582227582FF22AF827E0074DE2FFF74FF3EFE8F828E83022D437F0053
:202DE60075843390FFFDC007122D43AE82D007BEFF6A7E008E047D008C028D0374DE2AFA7D
:202E060074FF3BFB8A828B83C007C006C005C004122D43AB82D004D005D006D007EB62077A
:202E2600BBFF1BC004C0057473C0E0747AC0E07480C0E012372BE58124FBF581C3220EBE65
:1E2E46001F0040B0C00790FFFD122D1C158174FEC0E090FFFF122D1C1581D322C322B0
:2079D600907A801B000000977A8039000000A47A8040000000AE7A8019000000B47A8000D5
:2079F600000000BC7A8000000000C07A8000000000C87A8000000000D27A8000000000DB98
:207A16007A8000000000E47A8000000000F17A8064000000FC7A8000000000057B80000033
:207A36000000107B8000000000177B80010000001E7B80FFFF00002E7B8000000000367B21
:207A56008002000000FFFFFFFF01FF5B25755D205325753A2025733D256C750A0064426DE1
:207A7600206C6576656C202575206E6F742063616C696272617465640A00464F524D41548F
:207A96000053455249414C5F5350454544004149525F5350454544004E4554494400545874
:207AB600504F57455200454343004D41564C494E4B004F5050524553454E44004D494E5F53
:207AD60046524551004D41585F46524551004E554D5F4348414E4E454C5300445554595FAF
:207AF6004359434C45004C42545F52535349004D414E4348455354455200525453435453B1
:207B1600004E4F44454944004E4F444544455354494E4154494F4E0053594E43414E59000F
:0A7B36004E4F4445434F554E540096
:202E64007F00EF75F006A424A8FD740335F0FE8D828E83A3A3A3A3E0540F24FF92128F82A7
:202E8400C007C006C005122EB3D005D006D0078D828E83A3A3A3A3E0C4540F24FF92148F5C
:202EA40082C007123192D0070FBF060040B422AF82BF06004003023172EF75F006A424A887
:202EC400FD740335F0FE8D828E83A3A3A3A3A212E433FC540FF5F0E054F045F0F08D828EB6
:202EE40083A3A3A3A3A374FFF075A700EF75F002A4FEAFF02440F582EF347BF583E493FDA1
:202F040024FC5003023168ED2D2D902F1273022F1E022FB10230440230D7301222EE2440AE
:202F2400FCEF347BFD8C828D83A3E493FD8DF005F07401800225E0D5F0FBFD42A48021EE21
:202F44002440FCEF347BFD8C828D83A3E493FD8DF005F07401800225E0D5F0FBF4FD52A428
:202F640075A70F301223EE2440FCEF347BFD8C828D83A3E493FD8DF005F07401800225E031
:202F8400D5F0FBFD42A402316DEE2440FCEF347BFD8C828D83A3E493FD8DF005F074018065
:202FA4000225E0D5F0FBF4FD52A402316D301222EE2440FCEF347BFD8C828D83A3E493FD3D
:202FC4008DF005F07401800225E0D5F0FBFD42A58021EE2440FCEF347BFD8C828D83A3E4AC
:202FE40093FD8DF005F07401800225E0D5F0FBF4FD52A575A70F301223EE2440FCEF347BAB
:20300400FD8C828D83A3E493FD8DF005F07401800225E0D5F0FBFD42A502316DEE2440FC7A
:20302400EF347BFD8C828D83A3E493FD8DF005F07401800225E0D5F0FBF4FD52A502316D06
:20304400301222EE2440FCEF347BFD8C828D83A3E493FD8DF005F07401800225E0D5F0FBBC
:20306400FD42A68021EE2440FCEF347BFD8C828D83A3E493FD8DF005F07401800225E0D565
:20308400F0FBF4FD52A675A70F301223EE2440FCEF347BFD8C828D83A3E493FD8DF005F038
:2030A4007401800225E0D5F0FBFD42A602316DEE2440FCEF347BFD8C828D83A3E493FD8D20
:2030C400F005F07401800225E0D5F0FBF4FD52A602316D301222EE2440FCEF347BFD8C8267
:2030E4008D83A3E493FD8DF005F07401800225E0D5F0FBFD42B18021EE2440FCEF347BFDFD
:203104008C828D83A3E493FD8DF005F07401800225E0D5F0FBF4FD52B175A70F301222EED7
:203124002440FCEF347BFD8C828D83A3E493FD8DF005F07401800225E0D5F0FBFD42A180CD
:2031440028EE2440FEEF347BFF8E828F83A3E493FF8FF005F07401800225E0D5F0FBF4FFF8
:2031640052A1800575A700C32275A700D322C322E58275F006A424A8FE740335F0FF8E82F1
:203184008F83A3A3A3A3E0540F24FF921322E582FF75F006A424A8FD740335F0FE8D828EEB
:2031A40083A3A3A3A3A214E433FCC454F0F5F0E0540F45F0F0BF0600400302332A8D828EDA
:2031C40083A3A3A3A3A3E0FEBEFF02800302332AEF75F002A4FEAFF02440F582EF347BF5B5
:2031E40083E493FD24FC5003023326ED2D2D9031F67302320202324C0232960232DE3014BF
:2032040023EE2440FCEF347BFD8C828D83A3E493FD8DF005F07401800225E0D5F0FBFD42FC
:2032240080023328EE2440FCEF347BFD8C828D83A3E493FD8DF005F07401800225E0D5F05C
:20324400FBF4FD5280023328301423EE2440FCEF347BFD8C828D83A3E493FD8DF005F074E4
:2032640001800225E0D5F0FBFD4290023328EE2440FCEF347BFD8C828D83A3E493FD8DF03B
:2032840005F07401800225E0D5F0FBF4FD5290023328301422EE2440FCEF347BFD8C828D5F
:2032A40083A3E493FD8DF005F07401800225E0D5F0FBFD42A0806DEE2440FCEF347BFD8C01
:2032C400828D83A3E493FD8DF005F07401800225E0D5F0FBF4FD52A0804A301422EE2440AE
:2032E400FCEF347BFD8C828D83A3E493FD8DF005F07401800225E0D5F0FBFD42B08025EE4E
:203304002440FEEF347BFF8E828F83A3E493FF8FF005F07401800225E0D5F0FBF4FF52B04A
:203324008002C322D322C322E58275F006A424A8FE740335F0FF8E828F83A3A3A3A3E0C41B
:20334400540F24FF921522AF82BF0600400302343BEF75F006A424A8FD740335F0FE740497
:203364002DFDE43EFE8D828E83E0540F600302343BEF75F002A4FEAFF02440F582EF347BB8
:20338400F583E493FD24FC5003023437ED2D2D903397730233A30233C80233ED023412EE1C
:2033A4002440FCEF347BFD8C828D83A3E493FD8DF005F07401800225E0D5F0FBFDE58052F7
:2033C400058D8222EE2440FCEF347BFD8C828D83A3E493FD8DF005F07401800225E0D5F062
:2033E400FBFDE59052058D8222EE2440FCEF347BFD8C828D83A3E493FD8DF005F07401804F
:203404000225E0D5F0FBFDE5A052058D8222EE2440FEEF347BFF8E828F83A3E493FF8FF030
:1C34240005F07401800225E0D5F0FBFFE5B052078F822275827F2275827F222269
:0C7B400003040303010201030101010022
:0804DC00C216C217C218C219B2
:20344000AF82201A058F82024CD3784E794DC3E3F5F0E295F0501A784EE2FE784E04F290F0
:2034600003D2E0FCA3E0FDEE2CF582E43DF583EFF022AF83E5829003D5F0EFA3F09003D515
:20348000E0FEA3E0FF9003D2EEF0EFA3F0784EE4F29003D4E0784DF2D21A22C21A784EE2DB
:2034A000F58222AD82AE83AFF08D828E838FF0127612FC700122BC25028003023712C21920
:2034C000C218C217C2160DBD00010E8D828E838FF0127612FBBB6802800CBB6C10D2160D77
:2034E000BD000A0E8007D2180DBD00010E8D828E838FF0127612FBBB63028030BB64028008
:2035000018BB6F02802BBB7302800ABB7502800EBB78238010D217801D753B0A8018753BD4
:203520000AD2198011753B10D219800A753B008005753B08D219301771A8811818E624FDE0
:20354000FBA8811818A6038B01873C09873D09873E1919C005C006C007AA3CAB3DAF3E8ABB
:20356000828B838FF0127612D007D006D0057003023723C005C006C007AA3CAB3DAF3E8ABA
:20358000828B838FF0127612FA053CE4B53C02053D8A82C007C006C005123440D005D0069F
:2035A000D007D007D006D00580A9301966301621A8811818E624FCFBA8811818A6038B018B
:2035C000873F09874009874109874219191902367930181DA8811818E614F9A8811818A606
:2035E0000187038B3F754000754100754200023679A8811818E624FEFBA8811818A6038BBA
:20360000018702098703198A3F8B407541007542008066301620A8811818E624FCFBA881A4
:203620001818A6038B01873F098740098741098742191919804330181EA8811818E614FB2A
:20364000A8811818A6038B01E7FBF53F3395E0F540F541F5428022A8811818E624FEFBA8D6
:20366000811818A6038B018702098703198A3FEBF5403395E0F541F542E53B70030236FD69
:2036800030192F90062D747CF0E4A3F07440A3F0900630E53BF0853F828540838541F0E552
:2036A00042C007C006C005126964D005D006D007802D900656747CF0E4A3F07440A3F0904E
:2036C0000659E53BF0853F828540838541F0E542C007C006C005126A7AD005D006D00779CD
:2036E0007CE7FB603E8B82C007C006C005C001123440D001D005D006D0070980E4AB3F8BF3
:2037000082C007C006C005123440D005D006D00780118C82C007C006C005123440D005D0B1
:2037200006D0070DBD00010E0234A9E58124FCFFC007E58124FBF886820886830886F01282
:0537400034A3158122F5
:20374500AFF0AE83E5829004D3F0EEA3F0EFA3F0201B02C322784FC3E2F5F074FC95F0501B
:2037650005123AE380459004D3E0FDA3E0FEA3E0FF8D828E838FF0784FE2126F9B7862E2E4
:20378500FD08E2FE7F0090067874D7F07403A3F0E4A3F0784F90067BE2F0E4A3F08D828E38
:2037A500838FF0126F0E123AE3D322780FE2FE08E2FFBEFF05BFFF02800C0EBE00010F789D
:2037C5000FEEF208EFF2C322AF8275A702C2A3C2FF75A3FF7864E2FD08E2FE8F041FEC60FA
:2037E5001130F9FD8D828E83E0F5A3A3AD82AE8380E930F9FD748055A1FFBF800280F6C201
:20380500FFD2A375A70022201B057850E26002D322758231123FD9E58230E402D322C32207
:20382500A2A8921DC2A8101C028006A21D92A8D322A21D92A8C3227851E2F582227582263F
:20384500023FD9785EE2F58222758208123FD9AF8274014FFEC007C006758208123FA31547
:2038650081D0075307FEC007758208123FA3158122758208123FD9AF8274024FFEC007C07D
:2038850006758208123FA31581D0075307FDC007758208123FA3158122E582FF24035019FE
:2038A500C007744CC0E0747BC0E07480C0E01210C9158115811581D007C00712384ED007FF
:2038C500C007C00775823E123FA31581D007EFFE24DF50027E2078667964E2F308E209F369
:2038E5008E82C007C0061237CDD006D007EFC39EFF7866E22EF208E23400F2C007E4C0E0D9
:20390500758205123FA31581E4C0E0758206123FA31581C21CC21E7409C0E0758207123FE7
:20392500A3158112686CAC82AD83D007C007C005C00412686CAA82AB83D004D005D007EA34
:20394500C39CFAEB9DFB7868C3E2F5F0EA95F008E2F5F0EB95F04003023A6A758203C007C4
:20396500C005C004123FD9AB82D004D005D007301E40EF603DEB30E5397E04BF04005002F8
:203985008F0678667964E2F308E209F38E82C007C006C005C0041237CDD004D005D006D08C
:2039A50007EFC39EFF7866E22EF208E23400F2023931301E40EF603DEB20E6397E04BF04C7
:2039C5000050028F0678667964E2F308E209F38E82C007C006C005C0041237CDD004D005A0
:2039E500D006D007EFC39EFF7866E22EF208E23400F2023931EB30E72012384E7811E2FA4B
:203A050008E2FEBAFF05BEFF02800C0ABA00010E7811EAF208EEF2C322758202C007C00526
:203A2500C004123FD9AB82D004D005D007EB30E105D21E023931201E03023931EB30E103DD
:203A4500023931EF601D7811E2FE08E2FFBEFF05BFFF02800C0EBE00010F7811EEF208EFED
:203A6500F2C322D3227811E2FE08E2FFBEFF05BFFF02800C0EBE00010F7811EEF208EFF2E7
:203A8500C322E5829004D8F0A2A89220C2A8D2A59004D6E0FEA3E0FFFDC007C006C005750E
:203AA500823A123FA31581D006D007C00675823B123FA315819004D8E0FF786A7966E2F3AB
:203AC50008E209F3786C7968E2F308E209F38F8212389E921FC2A5A22092A8A21F22C2A821
:203AE500C21B784FE4F2C21C7850E4F27413C0E0758205123FA315817440C0E075820612BB
:203B05003FA3158112404D12384E1238767405C0E0758207123FA31581D2A8D3229000325F
:203B25001267FB758201123FD9AF82BFFF028005BF05005002C3221240AD758201123FD958
:203B4500E582FF20E0061240AD922122EF30E102D322C322AC82AD83AEF0FFC3ED941CEEFB
:203B6500944EEF940E400E74C09C74F79D74BA9E74379F5002C3227856ECF208EDF208EED1
:203B8500F208EFF28C828D838EF0EF124119D322AC82AD83AEF0FFC374F09C74E89D742608
:203BA5009EE49F5002C322786E7410F2087427F208E4F208F28C828D838EF0EF124059ACFD
:203BC50082AD83AEF0FF785AECF208EDF208EEF208EFF2C00475827A123FA31581D322E590
:203BE500829004D9F0785FE2FF9004D9E0FEB5070122785FEEF2C006758279123FA3158188
:203C0500C21C22785FE2F58222AF82C007E4C0E0758205123FA31581E4C0E0758206123F79
:203C2500A3158112404D7415C0E075820B123FA315817412C0E075820C123FA31581758248
:203C45000012437174B6C0E0758209123FA31581D007EF249B5010C00774C0C0E075825876
:203C6500123FA31581D0077856E2FB08E2FC08E2FD08E28B828C838DF0C007124119785ADE
:203C8500E2FB08E208E208E2C00375827A123FA31581748DC0E0758230123FA315817442BE
:203CA500C0E0758233123FA3158174CFC0E0758232123FA3158174FFC0E0758245123FA3D2
:203CC500158174FFC0E0758246123FA3158174FFC0E0758243123FA3158174FFC0E075828E
:203CE50044123FA31581743CC0E075827C123FA315817420C0E075827D123FA315817432CC
:203D0500C0E075827E123FA3158178617410F27861E2FEC006758234123FA315817428C020
:203D2500E0758235123FA31581758200123ECBD0077E00EE907B6993FDC39F50060EBE0CFF
:203D45000040F0EEFF907B6993FE785EF2BE200040047E0D80027E2D75820DC007C00612F7
:203D650027FDAA82AB83ACF0FDD006D007EA4B4C4D600B785EE2FD247F4003430602C00794
:203D8500C006758270123FA315817423C0E0758271123FA315817444C0E075821D123FA3DE
:203DA5001581D007785EE2FEBEC8005012C007740AC0E075821E123FA31581D0078010C048
:203DC500077402C0E075821E123FA31581D007780DE2B4433A7E00EE75F00DA42476FC7427
:203DE5007B35F0FDEF2CF582E43DF583E493FDEE907B5D93FCC007C006C0058C82123FA349
:203E05001581D006D0070EBE0C0040CB023EC9780DE2B447397E00EE75F00DA42412FC74AB
:203E25007C35F0FDEF2CF582E43DF583E493FDEE907B5D93FCC007C006C0058C82123FA307
:203E45001581D006D0070EBE0C0040CB8076780DE2B486397E00EE75F00DA424AEFC747C27
:203E650035F0FDEF2CF582E43DF583E493FDEE907B5D93FCC007C006C0058C82123FA3152E
:203E850081D006D0070EBE0C0040CB80377E00EE75F00DA4244AFC747D35F0FDEF2CF582C4
:203EA500E43DF583E493FDEE907B5D93FCC007C006C0058C82123FA31581D006D0070EBEA8
:203EC5000C0040CBD322E5829004DAF07404C0E075826D123FA315819004DAE0FFF582C082
:203EE50007122D95AE82D007BEFF0280078EFC7860EFF222EFC313FF907DE693F5FCEF2FD7
:203F0500FF7860EFF2227860E2F58222AF83E5829004DBF0EFA3F09004DBE0FEA3E0FF8E98
:203F2500047852ECF28F057853EDF2200734C007C006C005C00575823C123FA31581D0058E
:203F4500D006D007C006C005C00675823D123FA31581758241123FA31581758242123FA3B1
:203F6500158122AF83E5829004DDF0EFA3F09004DDE0FEA3E0FF7854EEF208EFF28F06C04D
:203F85000675823F123FA315817854E254FFFE08E25400C006758240123FA3158122AF823F
:203FA500A2A89240C2A875A702C2A3C2FF74804FF5A330F9FDA881181886A330F9FD748095
:203FC50055A1FFBF800280F6C2FFD2A375A700A24092A822AF82A2A89240C2A875A702C209
:203FE500A3C2FF8FA330F9FD75A30030F9FD748055A1FFBF800280F6AFA3C2FFD2A375A77E
:2040050000A24092A88F8222AF8275A702C2A3C2FF75A37F30FFFD85A3E0E58124FDF88607
:20402500050886068F041FEC6016C2FF75A30030FFFD8D828E83E5A3F0A3AD82AE8380E4CA
:20404500C2FFD2A375A70022758203123FD9758204023FD9AF82AE83ADF0FC7872EFF208E0
:20406500EEF208EDF208ECF27871E2C313FF18E213FE18E213FB18E213FA7872E22AFA08DC
:20408500E23BFB08E23EFE08E23FFF786E900669E2F008E2A3F008E2A3F008E2A3F08A827B
:2040A5008B838EF0EF026DA5E4C0E0758205123FA31581E4C0E0758206123FA31581124005
:2040C5004D7481C0E0758207123FA315819000021267C23081071267F350F8C322E4C0E0CF
:2040E500758205123FA315817402C0E0758206123FA315819000141267C21267F340137585
:204105008203123FD9758204123FD9E58230E1EAD322C322AF82AE83ADF0FC7876EFF208B8
:20412500EEF208EDF208ECF27876C3E2F5F0E495F008E2F5F0743895F008E2F5F0749C9578
:20414500F008E2F5F0741C95F0400302420F7877E224C8F208E23463F208E234E3F2900645
:2041650069E4F0742DA3F07431A3F07401A3F07876E2F58208E2F58308E2F5F008E2126DA8
:20418500A5AA829004DFEAF090068EEAF0E4A3F0E4A3F0E4A3F0902D0075F031740112714E
:2041A50003AC82AD83AEF0FF7876E2C39CF208E29DF208E29EF208E29FF2786E7471F208A8
:2041C5007402F208E4F208F27876E2F58208E2F58308E2F5F008E21240597876C0E0E58298
:2041E500F208E583F208E5F0F2D0E008F27876E225E0F208E233F208E233F208E233F29069
:2042050004DFE0FF4420F00242D27877E224E4F208E234B1F208E234F1F29006697480F0FD
:204225007496A3F07498A3F0E4A3F07876E2F58208E2F58308E2F5F008E2126DA5AC829082
:2042450004DFECF090068EECF0E4A3F0E4A3F0E4A3F090968075F098E4127103AC82AD83CA
:20426500AEF0FF7876E2C39CF208E29DF208E29EF208E29FF2786E7471F2087402F208E4F4
:20428500F208F27876E2F58208E2F58308E2F5F008E21240597876C0E0E582F208E583F2D7
:2042A50008E5F0F2D0E008F27876E225E0F208E233F208E233F208E233F2181818E225E05D
:2042C500F208E233F208E233F208E233F29004DFE04440F07876E2FC08E2FDC005C0049027
:2042E50004DFE0C0E0758275123FA31581D004D0058D07C005C004C007758276123FA3155D
:2043050081D004D005C004758277123FA315812275A70FAEBEE4CE25E0CE33CE25E0CE336D
:20432500FFE5BD23235403FD7C004206EC420775A700D2EC20ECFDADBE7C00AABD7B00EAAE
:204345004204EB4205ECC39EFEED9FFF90069F7402F0E4A3F08E828F8312734BE582858397
:20436500F0242DFCE435F08C82F58322E5829004E0F0FF24FC4068EF2F2F9043837302435D
:204385008F0243E40243E40243B47418C0E075820D123FA31581758208123FD9AF82741F97
:2043A5005F4480FFC007758208123FA3158122758208123FD9AF82741F5F4420FFC0077579
:2043C5008208123FA31581740AC0E075820D123FA31581E4C0E075820E123FA3158122756E
:2043E5008208123FD9AF8253071FC007758208123FA31581740AC0E075820D123FA315815E
:204405007404C0E075820E123FA3158122C028C0E0C0F0C082C083C007C006C005C004C03B
:2044250003C002C001C000C0D075D000758204123FD9AF82758203C007123FD9AE82D00714
:20444500EE30E4497850E2FC7D0074322CFCE43DFDC374FC9CE49D500302451D7850E22428
:20446500D7FCE43403FDC007C006C004C00575823212400D158115817850E22432F2758299
:2044850026123FD9E582D006D0077851F2EF30E611D21C758226C006123FD9E582D0067832
:2044A50051F2200704EE20E06FEE30E16975824B123FD9E582FF2403405E7850C3E2F5F0DB
:2044C500EF95F040537850C3E29F50227850E224D7FDE43403FE7850D3E29FF4FCC007C004
:2044E50005C0068C8212400D15811581D007784FEFF2D21BE4C0E0758205123FA31581E4F9
:20450500C0E0758206123FA315817402C0E0758207123FA31581801E780FE2FE08E2FFBE25
:20452500FF05BFFF02800C0EBE00010F780FEEF208EFF2123AE3D0D0D000D001D002D003E5
:13454500D004D005D006D007D083D082D0F0D0E0D02832CE
:207B4C006F76657273697A6564207061636B6574001C1F2021222324252A6E6F7202040815
:207B6C001013182030406080C0FA2727272E1601050B9A888A8C8D030303030303030303EA
:207B8C0003030303F4FA7D3F69A77D535E7D5E3F30200001020100010101010102024183AA
:207BAC00060C37C406895D065D0CAA8912254A4C9C25378625864AAB000102040201020324
:207BCC00020202040785080E12728A0E18BB0EBBEAFF1D1D1D1E1E1E2030415050505010BA
:207BEC002041839BC4080C101820314062C58912A69C314A6293C5270003060D1A1E263362
:207C0C004D669ACDFEFE2B2B2B2E1601050B9A888A8C8D0303030303030303030303030380
:207C2C00F4FA7D3F69A77D535E7D5E3F30200001020100010101010102024183060C37C408
:207C4C0006895D065D0CAA8912254A4C9C25378625864AAB00010204020102030202020486
:207C6C000785080E12728A0E18BB0EBBEAFF1E1E1E21212121304150505050102041839B97
:207C8C00C4080C101820314062C58912A69C314A6293C5270003060D1A1E26334D669ACD26
:207CAC00FEFE010101010101050B9A888A8C8D03030303030303030303030303D0E8F4FA14
:207CCC00D3A77D535E7D5E3F30E0602000000001010101010202102041839BC406895D06F8
:207CEC005D0CAA62C58912A69C25378625864AAB00000001010102030202020407234485DA
:207D0C0008398A0E18BB0EBBEAFF1C1C1C1C1C1E20304150505050102041839BC4080C1007
:207D2C001820314062C58912A69C314A6293C5270003060D1A1E26334D669ACDFEFE01016F
:207D4C0001010101050B9A888A8C8D03030303030303030303030303D0E8F4FAD3A77D5327
:207D6C005E7D5E3F30E0602000000001010101010202102041839BC406895D065D0CAA622C
:207D8C00C58912A69C25378625864AAB0000000101010203020202040723448508398A0ED5
:207DAC0018BB0EBBEAFF1E1E1E1E1E1E20304150505050102041839BC4080C10182031408D
:207DCC0062C58912A69C314A6293C5270003060D1A1E26334D669ACDFEFEEBE6E0DAD3CE4E
:0A7DEC00C9C4BEB8B2ABA49688501B
:20455800C028C0E0C0F0C082C083C007C006C005C004C003C002C001C000C0D075D0001085
:204578009803024674AF9930000E3001030246748F821204E70246748F82C007120581D04C
:2045980007787AE22401FD08E23400FEBD0009BE08067D007E00800B787AE22401FD08E2F2
:2045B8003400FE787CE2B5050708E2B50602803A787AE224A8F58208E23406F583EFF078AF
:2045D8007AE22401FD08E23400FEBD0009BE08067D007E00800B787AE22401FD08E23400FD
:2045F800FE787AEDF208EEF2801B7815E2FD08E2FEBDFF05BEFF02800C0DBD00010E78158B
:20461800EDF208EEF2300954787A797CC3E3F5F0E295F009E3F5F008E295F0B3E433FE60ED
:204638001B787CE22400FD08E23408FE787AD3E29DF4B3FDB308E29EF4FE8015787C797A9B
:20465800E3F5F0C3E295F0FD09E3F5F008E295F0FEC3ED9440EE94005002D282109902803E
:2046780061787E7980E2F5F0E3B5F00B08E2F5F009E3B5F002804930090A3083072000042C
:20469800D222803E7880E224A8F58208E2340EF583E0FF7880E22401FD08E23400FEBD00DB
:2046B80009BE04067D007E00800B7880E22401FD08E23400FE7880EDF208EEF28F9980020A
:2046D800D222D0D0D000D001D002D003D004D005D006D007D083D082D0F0D0E0D0283278DB
:2046F8007E7980E2F5F0E3B5F00A08E2F5F009E3B5F0012230220302497F22AF8275A700C1
:20471800C2AC787AE4F208F27880E4F208F2787EE4F208F27880E4F208F2D222C28EAE8980
:20473800740F5E4420F5898F82124D0DD28E759810C282D2AC22AF82C007124927AD82AE69
:2047580083D007C3ED9401EE94005002C3228F8212476DD322AF82A2AC9240C2AC787EE286
:204778002401FD08E23400FEBD0009BE04067D007E00800B787EE22401FD08E23400FE7841
:2047980080E2B5050708E2B506028044787EE224A8F58208E2340EF583EFF0787EE22401D8
:2047B800FE08E23400FFBE0009BF04067E007F00800B787EE22401FE08E23400FF787EEEB2
:2047D800F208EFF2302224C02812497FD028801B7813E2FE08E2FFBEFF05BFFF02800C0EAB
:2047F800BE00010F7813EEF208EFF2A24092AC228582438583447882E2700122124927AC0A
:2048180082AD837882E2FA7B00C3EC9AED9B501F7882ECF27813E2FC08E2FDBCFF05BDFF99
:2048380002800C0CBC00010D7813ECF208EDF27882E2FD787ED3E29400F4B3FBB308E294C1
:2048580004F4FC8D027F00C3EB9AEC9F5008787EE2FFC3E49FFD787EE224A8FE08E2340E2B
:20487800FF7C00900678E543F0E544A3F0E4A3F090067BEDF0E4A3F08E828F838CF0C00584
:20489800126F0ED005ED2543F543E43544F5447882E2C39DF2D22310AF02C2237F00787E3B
:2048B800E22DF208E23FF2787EC308E294044006787FE224FCF2A22392AF7882E2603E9048
:2048D8000678E543F0E544A3F0E4A3F07882E2FE7F0090067BEEF0EFA3F0900EA875F00082
:2048F800C007C006126F0ED006D007D22310AF02C223787EEEF208EFF2A22392AFD2231072
:20491800AF02C22330220312497FA22392AF22A2AC9224C2AC787E7980C3E3F5F0E295F03F
:2049380009E3F5F008E295F0B3E433FF601B7880E22400FE08E23404FF787ED3E29EF4B3CE
:20495800FEB308E29FF4FF80157880797EE3F5F0C3E295F0FE09E3F5F008E295F0FFA22499
:2049780092AC8E828F832230090730830420000122C222D29922A2AC9225C2AC787A797C98
:20499800E2F5F0E3B5F00B08E2F5F009E3B5F002803A787CE224A8F58208E23406F583E0F4
:2049B800FF787CE22401FD08E23400FEBD0009BE08067D007E00800B787CE22401FD08E2D2
:2049D8003400FE787CEDF208EEF280027F00300953787A797CC3E3F5F0E295F009E3F5F09B
:2049F80008E295F0B3E433FE601B787CE22400FD08E23408FE787AD3E29DF4B3FDB308E24D
:204A18009EF4FE8015787C797AE3F5F0C3E295F0FD09E3F5F008E295F0FEC3E49D74049EEB
:204A38005002C282A22592AC8F8222A2AC9226C2AC787CE224A8F58208E23406F583E0FF88
:204A5800A22692AC8F8222A2AC9227C2AC787CE22401FE08E23400FFBE0009BF08067E0068
:204A78007F00800B787CE22401FE08E23400FFEE24A8F582EF3406F583E0FFA22792AC8FB7
:204A98008222AF83E5829004E1F0EFA3F0A2AC9228C2AC9004E1E0FEA3E0FF787CE22EFE8D
:204AB80008E23FFF530707EE24A8F582EF3406F583E0FFA22892AC8F8222858245858346CF
:204AD800124C4BAC82AD837883E2FA7B00C3EC9AED9B5002C3227884EAF208EBF2787CD3D9
:204AF800E29400F4B3FAB308E29408F4FB7884C3E2F5F0EA95F008E2F5F0EB95F050137850
:204B18007C7984D3E29400F4B3F3B308E29408F409F3AA45AB467F00787CE224A8FD08E210
:204B38003406FE900678EDF0EEA3F0E4A3F0788490067BE2F008E2A3F08A828B838FF0123B
:204B58006F0E7884E2FC7883E2C39CF27884E22545F54508E23546F546D22910AF02C229EF
:204B7800787C7984E3C5F0E225F0F209E3C5F008E235F0F2787CC308E294084006787DE2AF
:204B980024F8F2A22992AF7883E26044AD45AE467F0090067874A8F07406A3F0E4A3F078E7
:204BB80083E2FB7C0090067BEBF0ECA3F08D828E838FF0C004C003126F0ED003D004D2293F
:204BD80010AF02C229787CEBF208ECF2A22992AFD22910AF02C229300953787A797CC3E38E
:204BF800F5F0E295F009E3F5F008E295F0B3E433FF601B787CE22400FE08E23408FF787ABE
:204C1800D3E29EF4B3FEB308E29FF4FF8015787C797AE3F5F0C3E295F0FE09E3F5F008E22E
:204C380095F0FFC3E49E74049F5002C282A22992AFD322A2AC922AC2AC787A797CC3E3F5EB
:204C5800F0E295F009E3F5F008E295F0B3E433FF6017787A797CE3F5F0C3E295F0FE09E3A2
:204C7800F5F008E295F0FF8019787CD3E29400F4B3FCB308E29408F4FD787AE22CFE08E23E
:204C98003DFFA22A92AC8E828F8322124C4BAE82AF83E4C39EFE74089FC423CEC423541FFA
:204CB8006ECE541FCE6ECEFF900682EEF0EFA3F0900064126FE6AE838E8222AF82BF0A0AEA
:204CD80075820DC00712476DD0078F8202476DAF827E00BE0900501BEE75F003A424F6F5A3
:204CF80082747D35F0F583E493FDEFB50502D3220E80E0C322AF82C007124CE7D0074002CF
:204D18007F397E00BE0900501BEE75F003A424F6F582747D35F0F583E493FDEFB50502805B
:204D3800030E80E0EE75F003A424F6FD747D35F0FE8D828E83A3E493F58DAC8E5304F48DF7
:204D5800828E83A3A3E4934CF58E90068EEFF0E4A3F0E4A3F0E4A3F090007DE4F5F012715B
:044D7800030223927D
:1B7DF600012C02029602042C0009960013600126B001392B08739608E6CB0859
:207F1E00000000000000000000000000000000000000000000000000000000000000000043
:207F3E00000000000000000000000000000000000000000000000000000000000000000023
:207F5E00000000000000000000000000000000000000000000000000000000000000000003
:207F7E000000000000000000000000000000000000000000000000000000000000000000E3
:204D7C007F0078B6E224FFFD08E234FFFE8F037C00C3EB9DEC9E4003024E3ABF0800400393
:204D9C00024E3A7854E2B5030808E2B50403024E36EF75F002A4FDAEF0C007ED244EF54BD8
:204DBC00EE3401F54C854B82854C83A3E0FF8F4D754E007854E2FA08E2CA25E0CA33FFEA65
:204DDC00243EFAEF3401FF8A828F83A3E0FF8F4F755000854B82854C83E0FF7A00ED243EA7
:204DFC00F582EE3401F583E0FE7D00C007C04DC04EC04FC050C007C002C006C005C003C092
:204E1C00047411C0E0747EC0E07480C0E012372BE58124F3F581D007D0070F024D7E78A01E
:204E3C00E2FE7F00C007C006124315AC82AD83D006D0077819E2F54F08E2F5507817E2F5A9
:204E5C004D08E2F54E7815E2F54B08E2F54C7813E2F55108E2F552780FE2F55308E2F5541A
:204E7C007811E2FA08E2FBC006C007C004C005C04FC050C04DC04EC04BC04CC051C052C082
:204E9C0053C054C002C00378ABE2C0E008E2C0E07854E2C0E008E2C0E07439C0E0747EC004
:204EBC00E07480C0E012372BE58124E9F58178ABE4F208F22278AAE254016003024D7C2247
:204EDC00AF827E00789B900682E2F008E2A3F08F828E83126FE6AE82AF837899E22EFE087B
:204EFC00E23F8E82F58322AE82AF83789DC3E29E08E29F5008789DE4F208F2800A789DE2CA
:204F1C00C39EF208E29FF2788DC3E2F5F0EE95F008E2F5F0EF95F050030252057887C308EC
:204F3C00E29480400B7854E2F5F008E245F0706F7887E2FC08E2FD788774012CF2E43D0804
:204F5C00F278B6900692E2F008E2A3F08C828D83C007C00612716FAC82AD83D006D007787E
:204F7C0054E2B5040708E2B50502800280317886E4F278B6900692E2F008E2A3F07887E2EC
:204F9C00F58208E2F583C007C00612716FE5828583F0D006D0077887F208E5F0F2804F788A
:204FBC0087C308E29480504178B6900692E2F008E2A3F0900001C007C00612716FAC82AD6C
:204FDC0083D006D0077887E2C39CFC08E29DFD78B6E224FFFA08E234FFFBECB5020BEDB530
:204FFC00030778867402F2800578867401F2788DD3E29EF4B3FEB308E29FF4FF7886E2B47B
:20501C0002107891E2FC08E2FD788DECF208EDF28019788FE2FC08E2FD788DECF208EDF29B
:20503C00C007C006120FFAD006D007C007C006123AE3D006D007780BC3E2F5F0740195F08F
:20505C00500C78A4E4F208F278A8E4F208F27886E260030251FCC006C007789FE2FC7D006B
:20507C0078A0E2F555755600ECC39555FEED9556FFBE640ABF0007D007D0060251FCD007D2
:20509C00D006C006C007C007C006C005C004C047C048C049C04A90333375F073743F126C5A
:2050BC005885825785835885F059F55AE58124FCF581D004D005D006D00778A1E2F58208D5
:2050DC00E2F583C005C00412742BAA82AB83AEF0FFD004D005C007C006C005C004C002C0E8
:2050FC0003C006C00790000075F0A07440126C5885825B85835C85F05DF55EE58124FCF57F
:20511C0081D004D005D006D0077894798FE3C5F0E225F0FE09E3C5F008E235F0CE25E0CEAA
:20513C0033FF8E828F83C005C00412742BAA82AB83AEF0FFC002C003C006C007855B8285D5
:20515C005C83855DF0E55E12754FAA82AB83AEF0FFE58124FCF581D004D005C007C006C080
:20517C0005C004C002C003C006C0078557828558838559F0E55A1272F285824785834885D4
:20519C00F049F54AE58124FCF581D004D005D006D00778A1E4F208F2ECC39555FCED9556D3
:2051BC00FD8C828D8312741EAC82AD83AEF0FFC007C006C004C005C006C00785478285485B
:2051DC00838549F0E54A126FB6E58124FCF581D006D007E58224FF9234B39232D007D006EF
:2051FC00789DE4F208F2024F237886E2B40210C007C006120FD4123BE4D006D007800EC0E6
:20521C0007C006120FC4123BE4D006D007788DE2C39EF208E29FF222AF827886E2B4022420
:20523C00EF70217854E2F5F008E245F070047582012278547996E24400F308E2448009F3F4
:20525C00758200227886E2700302545E102C00EF60030252F37887E2F5F008E245F06046B2
:20527C007896E254FFFE08E2547FFF7887E224FFFC08E234FFFD78B6E224FFFA08E234FFB1
:20529C00FB900692EAF0EBA3F08C828D83C007C00612716FAC82AD83D006D007EEB5040622
:2052BC00EFB5050280297887E2F5F008E245F070227896E254FFFE08E2547FFF78B6E224D6
:2052DC00FEFC08E234FFFDEEB50408EFB50504758201227582002278B8E2700302544C7870
:2052FC0096E254FFFE08E2547FFF78B2E2FC08E2FDEEB50406EFB505028002D22E7896C373
:20531C0008E2948050797896E22401FE08E23400FF78B6E224FFFA08E234FFFB900692EA23
:20533C00F0EBA3F08E828F83C005C00412716FAE82AF83D004D005ECB50644EDB5074078EF
:20535C0096ECF208EDF2126CFBAE82AF837899E2FA08E2CA25E0CA33FB900692EAF0EBA3CD
:20537C00F08E828F8312716FAE82AF837899E22EFE08E23FFF789DEEF208EFF2025419789F
:20539C0096ECF274804D08F27854900682E22401F008E23400A3F07899E2F58208E2F583EA
:2053BC00126FE6AE82AF83C007C006126CFBAC82AD837854900682E22402F008E23400A307
:2053DC00F07899E2F58208E2F583C005C004126FE6AA82AB83D004D005900692EAF0EBA372
:2053FC00F08C828D8312716FAC82AD83D006D007EC2EFEED3FFF789DEEF208EFF27899E272
:20541C00FE08E2CE25E0CE33CE25E0CE33FF900692EEF0EFA3F0789DE2F58208E2F5831277
:20543C00716FE5828583F0789DF208E5F0F2800E78547996E24400F308E2448009F3758218
:20545C0000227886E2705A302C0C7896E4F2087480F275820022302D1078547996E24400A3
:20547C00F308E2448009F3800E7854E2FE08E2FF7896EEF208EFF2102E02802178999006F1
:20549C0082E2F008E2A3F0900006126FE6E5828583F0789DF208E5F0F275820022758201DC
:2054BC002275820122123F0BE582FF24EB400578A0E4F222124315E5828583F0249CFEE502
:2054DC00F034FFFFC3E49EE464808FF063F08095F0E433FD700C78A0E2600778A0E214F2B9
:2054FC008039C3740A9EE464808FF063F08095F0500878A0E2240AF28021C374059EE46424
:20551C00808FF063F08095F0500878A0E22405F28009ED600678A0E22401F2789FE2FE7F48
:20553C000078A0E2FC7D00EEC39CFEEF9DFFC3EE9414EF648094805008789F79A0E224EC4C
:20555C00F3227854E2F5F008E245F0600330300E900625E4F0C230D20612102E80079006D1
:20557C0025E02401F0900625E0FFBF02005004D2B780477898E4F2A22F92B7B22F788774A2
:20559C00FFF20874FFF2900675E4F09006767410F0E4A3F090014E75F000126EE690067506
:2055BC00E4F09006767410F0E4A3F090013E75F000126EE678ABE4F208F2900625E075F077
:2055DC000584AFF0BF0413303105120FFA800BC20612102E120FD4123BE478ADE4F208F272
:2055FC00302B077803E2FF78AAF2B22B900626E02401F0900626E0FFBF04081254C190060C
:20561C0026E4F022AE82AF839000BE75F000C007C006127537E5828583F02401FCE435F069
:20563C00FD90067874BEF07400A3F0E4A3F090067BECF0EDA3F09005DF75F000126F0ED0FE
:20565C0006D00778B4EEF208EFF2D23322AF82BF02004017EF24BA40129004E3E0FEBE5268
:20567C000A9004E4E0FEBE540280237E00C3EE9F501BEE24E3F582E43404F583E0F582C0A7
:20569C0007C006124CD3D006D0070E80E02278B279B4E2F308E209F390067874E3F07404D4
:2056BC00A3F0E4A3F090067BEFF0E4A3F09000BE75F000C007126F0ED007EF24BEF582E451
:2056DC003400F583E4F09000BE7441F07801EFF2BF041B9000C0E0FFBF49139000C1E0FF89
:2056FC00BF350B78AF7401F275820002245902248612686CAE82AF8378B9EEF208EFF27825
:20571C00FF762A78FFB62A02801DC007C006747DC0E0747EC0E07480C0E01210C9158115FE
:20573C00811581D006D0077800E2B44102801DC007C006748AC0E0747EC0E07480C0E01238
:20575C0010C9158115811581D006D007C007C0061206C5D006D00778AAE2600FC007C006CE
:20577C00124ED1D006D00778AAE4F2300F1790015EE0FB601020000DC20FC007C006121BEF
:20579C000AD006D007C007C00612686C78BCE582F208E583F2786274E3F2087404F29000AF
:2057BC00BB75F060123745D006D0074003025ADE789DE4F208F278BBE2B40400502A78BB36
:2057DC00E2FC7D00C007C006C004C00574A0C0E0747EC0E07480C0E012372BE58124FBF574
:2057FC0081D006D00702571F7886E2700AD22C7896E4F2087480F278BBE224E3FCE4340489
:20581C00FDEC24FCFCED34FFFD900678ECF0EDA3F0E4A3F090067B7404F0E4A3F09000B039
:20583C0075F060C007C006126F0ED006D00778BBE214141414F278B2E2F55F08E2F5603098
:20585C00E73B7898E2B4FF0050117887E2F5F008E245F070067898E22401F27887E4F208C3
:20587C00F278B2E2FC08E2FD53057F8C82C007C006120FF0D006D007D23002571F30313FE1
:20589C0078B1E220E6397898E2B4FF00501E7401255FFCE43560FD7887E2B5040708E2B5E4
:2058BC000502800280067898E22401F278B2E2FC08E2FD788774012CF2E43D08F2D230789E
:2058DC00B2E2FC08E2FDC3EC9408ED9400507CC006C007EDCC25E0CC33FDEC243EFCED34EB
:2058FC0001FDC006C005C00412383CAF82D004D005D0067E0078B2E2FA08E2CA25E0CA33CF
:20591C00FBEA243EF582EB3401F583E0900682F0E4A3F0900007C007C006C005C004126F88
:20593C00E6AA82AB83D004D005D006D007EA2FFAEB3EC423CAC423541F6ACA541FCA6ACAC9
:20595C00FB8C828D83EAF0D007D00678ABE22401F208E23400F278B0E2FC08E2541FFD4CB3
:20597C006003025A2778BBE27003025A2778BBE2B404028003025A1978B2E2FC08E2FDC3A1
:20599C00EC9408ED94005075C006C00778BBE21414F278BBE224E3FAE43404FB7F008A82A9
:2059BC008B838FF0127612FAA3127612FB7854E2B5020708E2B503028006D007D006803D72
:2059DC00D007D006EDCC25E0CC33FDEC244EFCED3401FD7B0090067874E3F07404A3F0E40C
:2059FC00A3F078BB90067BE2F0E4A3F08C828D838BF0C007C006126F0ED006D00778ABE204
:205A1C0024FFF208E234FFF202571F78B0E2FC08E2541FFD4C700302571F78B0E2FC08E247
:205A3C00541FFD788DECF208EDF278BB79B8E2700474018001E4F375820112523478BCE2E3
:205A5C00FE08E2FF78B1E2C4035401FDBD012278BBC3E2F5F0740195F0400302571F78BB9A
:205A7C00E2F582C007C006125669D006D00702571F78BBE2700302571F78B1E22354012487
:205A9C00FF9210783E74E3F2087404F278BBE2F582C007C0061223D9D006D0075003025758
:205ABC001F30000302571FD2B678BB7982E2F39004E3C007C006124808D006D007C2B602E8
:205ADC00571FC007C00612686C78BCE582F208E583F2D006D00778BCE2C39EFC08E29FFD2C
:205AFC008C828D83C005C004124F03D004D00578BCE2FE08E2FF788F7994E3F5F0C3E295C3
:205B1C00F0FA09E3F5F008E295F0FB788DC3E2F5F0EA95F008E2F5F0EB95F0500302571F3C
:205B3C007886E2B4022A78917994E3F5F0C3E295F0FA09E3F5F008E295F0FB788DC3E2F5AD
:205B5C00F0EA95F008E2F5F0EB95F0500302571FC006C00778BC79B9E3F5F0C3E295F0FAE1
:205B7C0009E3F5F008E295F0FB7E007F00C3E49A74809BE49EE464808FF063F08095F0D010
:205B9C0007D006501DC007C006C005C00412555ED004D005D006D00778BC79B9E2F308E249
:205BBC0009F378A3E27003025C50C007C006C005C004123842AB82D004D005D006D0077812
:205BDC00A3C3E2F5F0EB95F0500B78A4E22CF208E23DF2803E78A4E4F208F278A8E2F5F0EB
:205BFC0008E245F0702DC007C006126CFBAC82AD8378A6900692E2F008E2A3F08C828D83B6
:205C1C0012716FE5828583F0D006D00778A8F208E5F0F278A679A8E3C5F0E225F0FC09E3D3
:205C3C00C5F008E235F0FD78A4C3E29C08E29D500302571F78B8E4F2758200C007C006123C
:205C5C005234E582D006D007700302571F789DE2F5F008E245F0600302571FC007C006122E
:205C7C003825D006D007400DC007C00612380CD006D00750237899E2FC08E2FD789DECF2E5
:205C9C0008EDF27886E2600302571FD22C7896E4F2087480F202571F7854E2F5F008E2453C
:205CBC00F0600B7898E2B41400500302571FC006C0077854E2FC08E2CC25E0CC33FDEC24EA
:205CDC003EFCED3401FD0CBC00010DC007C006C005C004123842AB82D004D005D006D00754
:205CFC007A007854E2FE08E2CE25E0CE33FFEE243EFEEF3401FF8E828F83A3E0900682F087
:205D1C00E4A3F0900003C005C004C003C002126FE6AE82AF83D002D003D004D005EE2BFE21
:205D3C00EF3AC313CE13CEC313CE13CE8C828D83EEF0D007D00630320302571F788D799977
:205D5C00C3E3F5F0E295F009E3F5F008E295F0500302571F788DE2FC08E2FD7899E2FA086B
:205D7C00E2CA25E0CA33FBECC39AFCED9BFD30E7047D0080367899E2FB08E2CB25E0CB33A0
:205D9C00FC788DE2C39BFB08E29CFC789B900627E2F008E2A3F08B828C83C007C0061268E7
:205DBC00C9AB82AC83D006D0078B05BD0500500302571FED24FBFD7893C3E29D5004789323
:205DDC00E2FDC007C006C005124C4BE5828583F0D005D006D00745F06044302E417886E294
:205DFC00B4013B788FE2FB08E2C313CB13CBC313CB13CBFC788DC3E29B08E29C5003025758
:205E1C001F9004E374FFF078BB7401F278B1E24420F2788B74FFF20874FFF2025F27788617
:205E3C00E2B40203025F23203303025EC6C006C0079005DF75F000C007C006C00512753735
:205E5C00AB82AC83D005D006D0078D027F00C3EA9BEF9CD007D00640519005DF75F000C090
:205E7C0007C006C005127537AB8278BBEBF290067874DFF07405A3F0E4A3F090067BEBF0B9
:205E9C00E4A3F09004E375F000126F0ED005D006D00778B1E24420F278B4E2FB08E2FC78BA
:205EBC008BEBF208ECF2C2338061783C74E3F2087404F28D82C007C006C005121EE1E5825A
:205EDC0078BBF2122382D005D006D0079235E433FC78B113E292E5F278B1E230E52D78B46E
:205EFC00E2FB08E2FC788BEBF208ECF278AFE2FC78AF04F28C82C007C006C005122459D01C
:205F1C0005D006D007800478BBE4F278BB7993C3E2F5F0E395F05021C007C006C00574B509
:205F3C00C0E0747EC0E07480C0E01210C9158115811581D005D006D0077886E2B40103D3E5
:205F5C008001C39235E43378B113E292E6F2C007C006C00512237FD005D006D0079235E448
:205F7C0033FC78B113E292E7F27886E260030260E978BBE260030260E9BD12005003026078
:205F9C00E978B6E224FFFC08E234FFFD78ADC3E29C08E29D40030260E97854C3E294080823
:205FBC00E2940040030260E97899E2FC08E2CC25E0CC33FD788FE2C39CFC08E29DFD788D4E
:205FDC00C3E29C08E29D40030260E978AD7954E2F5F0E3B5F00B08E2F5F009E3B5F0028021
:205FFC0002800B78ADE22401F208E23400F278BB7402F278ADE2FC08E2CC25E0CC33FDEC89
:20601C00243EFCED3401FD0CBC00010D7854E2FA08E2CA25E0CA33FBEA243EFAEB3401FB57
:20603C008A828B83A3E08C828D83F078ADE2FC08E2CC25E0CC33FDEC243EFCED3401FD90E6
:20605C000678ECF0EDA3F0E4A3F090067B7402F0E4A3F09004E375F000C007C006126F0EED
:20607C0090067874ADF0E4A3F07460A3F090067B7402F0E4A3F09004E575F000126F0ED0DC
:20609C0006D00778BB7404F278ADE22401F208E23400F278AD7954E2F5F0E3B5F00B08E206
:2060BC00F5F009E3B5F0028002800B78ADE22401F208E23400F278B0E4F208E254E0F2788B
:2060DC00B1E2547FF278B1E254DFF280537886E2601E78BBE270197886E2B4020280030230
:2060FC00571F7854E2F5F008E245F0600302571F78BBE22404F582C007C006124EDCAC82D6
:20611C00AD83D006D007788DE2C39CFC08E29DFD78B0ECF208ED541FF5F0E254E045F0F230
:20613C007886E2B402267854E2F5F008E245F0701BC007C006120FEAAD82D006D0077C005A
:20615C0043048078B2EDF208ECF2800A78B27954E3F20809E3F278BBE224E3FCE43404FD00
:20617C007B0090067874B0F0E4A3F07460A3F090067B7404F0E4A3F08C828D838BF0C00738
:20619C00C006126F0ED006D00778B1E220E52C78BBE2601E78B0E2FC08E2541FFD4C6012F4
:2061BC00D2B67889E2FC08E2FD788BECF208EDF28009788B74FFF20874FFF27886E2700FF0
:2061DC0078BBE27006D22ED22D8010C22D800C7886E2B401067897E2547FF2302E21788640
:2061FC00E2B4011BC22E7899799DE2F308E2F5F0E325E0C5F033C5F0F309E5F0F3800E78C7
:20621C0099E2FC08E2FD789DECF208EDF2789FE2FC7D0078A0E2FA7B00ECC39AFCED9BFD7F
:20623C00BC6405BD0002801F78BBE22404F582C007C006124EDCAC82AD83D006D00778A11E
:20625C00E22CF208E23DF278BBE22404FD786A74E3F2087404F2788B9004D6E2F008E2A366
:20627C00F0788D796CE2F308E209F38D82C007C006123A87D006D007401078BBE2600BC0C1
:20629C0007C006122385D006D00778A3E2600C78A4E4F208F278A8E4F208F2C007C00612CA
:2062BC000FC4123BE4123AE3D006D00778BBE2700302571F78B0E2FC08E2541FFD4C7003C3
:2062DC0002571FC2B602571FA23022AE82AF8378B674012EF2E43F08F222AE82AF8378897F
:2062FC00EEF208EFF222E58224FF923122123848AF8290068EEFF0E4A3F0E4A3F0E4A3F0FD
:20631C009003E8E4F5F0127103AC82AD83AEF0FF900669ECF0EDA3F0EEA3F0EFA3F090129C
:20633C000075F07AE4126DA5AC82AD83AEF0FF74082CF561E43DF562E43EF563E43FF564F3
:20635C00AA61E562C4CAC4540F6ACA540FCA6ACAFBE563C454F04BFBAE63E564C4CEC454F0
:20637C000F6ECE540FCE6ECE789BEAF208EBF290068EEAF0EBA3F0E4A3F0E4A3F090271044
:20639C00E4F5F0C003C00212710385826585836685F067F56890068EE561F0E562A3F0E5E1
:2063BC0063A3F0E564A3F0900271E4F5F0127103AC82AD83AEF0FFD002D003C3E5659CE56F
:2063DC00669DE5679EE5689F500A789B74012AF2E43B08F2789B900682E2F008E2A3F090A7
:2063FC00000D126FE6E5828583F07899240DF2E435F008F230073478937474F2789CE2F53C
:20641C00F018E225E0C5F033C5F0F208E5F0F2789BE2FE08E2CE25E0CE33CE25E0CE33FF8F
:20643C007899E22EF208E23FF28005789374F8F27899E2F56108E2C56125E0C56133F56216
:20645C007894E561F208E562F2789B90068EE2F008E2A3F0E4A3F0E4A3F07893E2FA7B00C5
:20647C007C007D008A828B838CF0ED12710385826585836685F067F5687899E2F56908E2B0
:20649C00F56AE4F56BF56CE5692565FCE56A3566FDE56B3567FEE56C3568FFEC2CF565EDEB
:2064BC0033F566EE33F567EF33F568AA61AB62E4FEFFEA2565FAEB3566FBEE3567FEEF35A2
:2064DC0068FFE5692AFCE56A3BFDE56B3EFEE56C3FFF78A3E2603578A67438F2087401F266
:2064FC00784574A8F2087403F208E4F208F27849ECF208EDF208EEF208EFF28C828D838E69
:20651C00F0EF122CC3AC82AD83AEF0FFC374FF9C741F9DE49EE49F50087CFF7D1F7E007F11
:20653C0000C3EC94A8ED9461EE9400EF940040087CA87D617E007F00788FECF208EDF278E2
:20655C009BE2F56908E2F56AE4F56BF56CE5692569F569E56A33F56AE56B33F56BE56C33D4
