:0A04D20078007441F278167464F2A9
:2004E700AF828F06BE0802801BBE0D028005BE7F30801175820A124B217812E22401F8E490
:20050700F2D201227812E26064758208124B21758220124B21758208124B217812E214F2BC
:20052700227812E2B41000503E8F82C007C00612727DE582D006D00760338F82C007C006F0
:2005470012724BE582D006D00760055306DF80028F068E077812E2FE781204F2EE2401F873
:20056700EFF28F82024B21C2007812E4F222AF82BF2B0280047815E4F27815C3E2F5F07441
:200587000495F0402C7815E275F003A4900597730205BC0205A60205A60205AD0205BC7839
:2005A70015E22401F22278157404F278167464F2227815E4F278167464F2227816E26038AE
:2005C7007816E214F27816E2702E7815E260087815E2B40423800678157401F222D2007889
:2005E70015E4F278017441F278027454F27803E4F278127402F2D20122AF82BF3000400D10
:20060700EF24C640088F06EE24D0F58222BF4100400DEF24B940088F0674C92EF58222BFE9
:200627006100400BEF2499400674A92FF582227865E2C0E008E2C0E074FBC0E07474C0E0B0
:200647007480C0E01235BAE58124FBF58175820022AD82AE83AFF0127458F582C007C00609
:20066700C005120600AC82D005D006D007ECC454F0FC0DBD00010E8D828E838FF0127458A0
:20068700F582C004120600AF82D004EF2CF58222E5812404F5817C007D007E007F007813C2
:2006A700E22401F9E3FBF582C007C006C005C004C003126DC8E582D003D004D005D006D035
:2006C70007606D900621ECF0EDA3F0EEA3F0EFA3F090000AE4F5F0C003126F49AF82AE83D7
:2006E700ADF0FCD0038B027B00EA24D0FAEB34FFFBE58124FDF8A60208A603EB3395E0081B
:20070700F608F6E58124FDF8E62FF608E63EF608E63DF608E63CF6E58124FDF8860408865A
:20072700050886060886077813E22401F20206A58C828D838EF0EFC8E58124FCF581C8221A
:20074700200101227812E2B40200E433FF70637801E2FEBE525C7802E2FEBE5455781374BE
:2007670003F278127913C3E2F5F0E395F050157813E22401F9E3FEBE2C0280087813E2249F
:2007870001F280DE7813E22401F9E3FEBE2C167813E2FE781304F2EE2401F8E4F212069719
:2007A70012546E800690FFFF12546E7812E4F2C20122EF70667801E2FFBF415F7802E2FF58
:2007C700BF54587803E2FF6023BF26028023BF2B028023BF49028023BF4F028028BF500239
:2007E700801EBF53028027BF5A2E8027120829802A120A708025120CAB8020120867801B08
:20080700120B4A801678167464F2C200800D1209E5800843EF1080FE1208487812E4F2C261
:2008270001227865E2C0E008E2C0E07433C0E07475C0E07480C0E01235BAE58124FBF58145
:20084700227865E2C0E008E2C0E0743CC0E07475C0E07480C0E01235BAE58124FBF58122FB
:200867007804E2FF6037BF30028032BF31028058BF32030208FABF3303020920BF34030200
:200887000949BF3503020972BF3603020984BF3703020987BF380302098A0209E274CEC0FB
:2008A700E07477C0E07480C0E07865E2C0E008E2C0E07448C0E07475C0E07480C0E0123589
:2008C700BAE58124F8F5812274E4C0E07477C0E07480C0E07865E2C0E008E2C0E07448C0C1
:2008E700E07475C0E07480C0E01235BAE58124F8F581227443C0E0E4C0E07865E2C0E00897
:20090700E2C0E07451C0E07475C0E07480C0E01235BAE58124F9F58122781EE2FE7F00C0FB
:2009270006C0077865E2C0E008E2C0E07451C0E07475C0E07480C0E01235BAE58124F9F5FF
:200947008122781FE2FE7F00C006C0077865E2C0E008E2C0E07451C0E07475C0E07480C0DF
:20096700E01235BAE58124F9F581227F008F82C007122BEAD0070FBF130040F1220265384C
:20098700024BCA7865E2F5F008E245F070207865E2C0E008E2C0E0745AC0E07475C0E07492
:2009A70080C0E01235BAE58124FBF581802C12612A9202E433FE7F00C006C0077865E2C097
:2009C700E008E2C0E0746BC0E07475C0E07480C0E01235BAE58124F9F58122020848781311
:2009E7007403F2120697AC82AD83AEF0FFBC130040030208487813E22401F9E3FFBF3D020E
:200A07008036BF3F618C821227C2AB82AD83AEF0FFC003C005C006C0077865E2C0E008E259
:200A2700C0E0747AC0E07475C0E07480C0E01235BAE58124F7F58122EC602B7813E2240141
:200A4700F2C004120697AB82AD83AEF0FFD0047852EBF208EDF208EEF208EFF28C821225B8
:200A6700D050030208290208487804E2FFBF46028012BF54028053BF55028014BF570280A7
:200A870009020B47122AB8020829122A610208299006177484F07475A3F07480A3F09000D3
:200AA7000575F060126E4CE5828583F045F0701775B7A575B7F1758F0390F7FE74FFF0752C
:200AC7008F0043EF1080FE020848900617748AF07475A3F07480A3F090000575F060126EF6
:200AE7004CE5828583F045F070057814E4F222900617748BF07475A3F07480A3F0900005E2
:200B070075F060126E4CE5828583F045F070077814E26401F2229006177491F07475A3F02D
:200B27007480A3F090000575F060126E4CE5828583F045F070077814E26402F222020848BC
:200B47000208487804E2FFBF50028003020BF47F008F057E00C007C005C0067865E2C0E008
:200B670008E2C0E07496C0E07475C0E07480C0E01235BAE58124F9F581D0078F82C0071262
:200B8700308AD007501BC00774A3C0E07475C0E07480C0E01235BA158115811581D007809D
:200BA70019C00774ABC0E07475C0E07480C0E01235BA158115811581D0078F82C0071231BD
:200BC700EE9203E433FD7E00C005C00674B3C0E07475C0E07480C0E01235BAE58124FBF50F
:200BE70081D0070FBF06005003020B58227805E2FFBF3D0C7806E2F582126DC8E58270038A
:200C07000208487806E224D0FF7804E2FEBE4302805EBE49028016BE4F028008BE52028023
:200C270015020CA5D2128F82122E658074C2128F82122E65806B8F82C00712308AD0074027
:200C47002C8F8212320DAE827D00C006C0057865E2C0E008E2C0E074BCC0E07475C0E07411
:200C670080C0E01235BAE58124F9F581220208487808E2F582C007126DC8E582D007601B3F
:200C87007808E2FE3395E0FDEE24D0FEED34FF4E24FF92148F821230A84006020848020894
:200CA7004802082978137404F2120697AC82AD83AEF07804E2FFBF43028051BF4C03020DC3
:200CC700A9BF50028003020DB77805E2FFBF3D028003020DB778137405F21206977817C071
:200CE700E0E582F208E583F208E5F0F2D0E008F27817E254FFFA08E2540008E2540008E2B5
:200D070054008AFCC2221241FF0208297813E22401F9E3FFBF3D028041BF3F028003020DCB
:200D2700B78C82122D60AF827817EFF208E4F208F208F27817E2C0E008E2C0E008E2C0E0B0
:200D470008E2C0E074C9C0E07475C0E07480C0E01235BAE58124F9F581227813E22401F268
:200D6700C0041206977817C0E0E582F208E583F208E5F0F2D0E008F2D0047817E254FFFB03
:200D870008E2540008E2540008E25400C0038C82122D16158192045005120829800302081B
:130DA7004822122D99500512082980030208482202084816
:2074FB005B25755D20726561645F6865785F6E6962626C653A204572726F722063686172D2
:20751B00206E6F7420696E20737570706F727465642072616E6765005B25755D204F4B0A9F
:20753B00005B25755D204552524F520A005B25755D2025730A005B25755D2025750A005BA5
:20755B0025755D2053796E633A20426173650A005B25755D2053796E633A2025750A005B15
:20757B0025755D20256C750A00504441544500003D52535349003D54444D005B25755D2049
:20759B0050696E3A256420004F75747075742000496E70757420200056616C3A2025640AB5
:1375BB00005B25755D2076616C3A25750A00256C750A001A
:200DBA00AF827E007D00AB08AC098F021FEA603B8B828C83E0FAA3AB82AC83ED2DF9ED302B
:200DDA00E714890009E89076CE936EFDE99076CE93F86AFE80D4890009E89075CE93F86E68
:1B0DFA00FDE99075CE93F96AFE80BF8D07E4FDFCEE4205EC42078D828F8322D4
:2075CE000000102120423063408450A560C670E781089129A14AB16BC18CD1ADE1CEF1EF9D
:2075EE00123102103273225252B5429472F762D693398318B37BA35AD3BDC39CF3FFE3DE5D
:20760E00246234430420140164E674C744A45485A56AB54B85289509E5EEF5CFC5ACD58D1C
:20762E00365326721611063076D766F6569546B4B75BA77A97198738F7DFE7FED79DC7BCDC
:20764E0048C458E5688678A70840186128023823C9CCD9EDE98EF9AF89489969A90AB92B9C
:20766E005AF54AD47AB76A961A710A503A332A12DBFDCBDCFBBFEB9E9B798B58BB3BAB1A5C
:20768E006CA67C874CE45CC52C223C030C601C41EDAEFD8FCDECDDCDAD2ABD0B8D689D491C
:2076AE007E976EB65ED54EF43E132E321E510E70FF9FEFBEDFDDCFFCBF1BAF3A9F598F78DC
:2076CE00918881A9B1CAA1EBD10CC12DF14EE16F108000A130C220E350044025704660679C
:2076EE0083B99398A3FBB3DAC33DD31CE37FF35E02B1129022F332D242355214627772565C
:20770E00B5EAA5CB95A88589F56EE54FD52CC50D34E224C314A0048174666447542444051B
:20772E00A7DBB7FA879997B8E75FF77EC71DD73C26D336F2069116B06657767646155634DB
:20774E00D94CC96DF90EE92F99C889E9B98AA9AB584448657806682718C008E1388228A39B
:20776E00CB7DDB5CEB3FFB1E8BF99BD8ABBBBB9A4A755A546A377A160AF11AD02AB33A925B
:20778E00FD2EED0FDD6CCD4DBDAAAD8B9DE88DC97C266C075C644C453CA22C831CE00CC11B
:2077AE00EF1FFF3ECF5DDF7CAF9BBFBA8FD99FF86E177E364E555E742E933EB20ED11EF0DB
:200E150075B7A575B7F122D310AF01C3C0D0120E15758F0790000074FFF0758F00D0D0925E
:200E3500AF22D310AF01C3C0D0AE82AF83758F048E828F83E493FF758F008F82D0D092AFEE
:200E550022D310AF01C3C0D0AE82AF83C007C006120E15D006D007758F058E828F83781BE6
:0A0E7500E2F0758F00D0D092AF229A
:02F7FE003DC20A
:200E7F00AF83E582900113F0EFA3F0900113E0FEA3E0FF900112E0FD7C008D027B001ABAC6
:200E9F00FF011B8C007900C3E89AE964808BF063F08095F05046C007C006C005C004126B05
:200EBF0041AA82D004D005D006D0078DF0EA84E5F02EFAE43FFB8A828B83E0F50AC005ECA0
:200EDF002EF8E43FFD88828D83E0F98A828B83F088828D83E50AF00CD005809E22AF83E57F
:200EFF0082900115F0EFA3F07F00781CC3E2F5F0EF95F0500FEF24E0F582E43400F583EFE0
:200F1F00F00F80E6900115E0FEA3E0FF8E828F83126B9B781CE2FF7E008F047D001CBCFF33
:200F3F00011D8E027B00C3EA9CEB64808DF063F08095F05042C007C006126B41AC82D0069B
:200F5F00D0078FF0EC84E5F024E0FCE43400FD8C828D83E0F50BC007EE24E0FAE43400FFFA
:200F7F008A828F83E0FB8C828D83F08A828F83E50BF00ED00780A222781DE224E0F582E44E
:200F9F003400F583E0F58222781CE2F5F0E484E5F024E0F582E43400F583E0F58222781D5C
:200FBF00E2F58222E582900119F0781DF222781DE2FE7F000EBE00010F781C90061DE2F004
:200FDF00E4A3F08E828F83126EE0AE82AF83781DEEF220050C781C791DE2F5F0E484E5F0C3
:070FFF00F322A20692052275
:06040000020479024255DE
:01040B0032BE
:0104130032B6
:01041B0032AE
:0304230002439BF6
:03042B0002664A1C
:010433003296
:01043B00328E
:010443003286
:01044B00327E
:010453003276
:01045B00326E
:010463003266
:01046B00325E
:030473000265C05F
:0304E40002047699
:030476000210066B
:20100600AFC4781EEFF2AFC3781FEFF212296D4003122AB87582061227C2AC8290013AEC3A
:20102600F07582071227C2AC82AD83AEF0FFEC4D4E4F24FF92087582051227C2AC82AD83DE
:20104600AEF0FFEC4D4E4F24FF920775820E1227C2AC82AD83AEF0FFEC4D4E4F24FF9209CC
:201066001210C612116D123972401574E8C0E07477C0E07480C0E012108C15811581158155
:20108600122E1602555390780275F080127296E58124FCFFC007E58124FBF886820886835F
:2010A6000886F0123332158190780D75F080127296D2AFD2AC9003E812664143EF1080FE98
:2010C60075A700AFD974BF5FF5D975B28F75A90075B64075FF807E5E7F011EBEFF011FEE8E
:2010E6004F70F775EF0675D4CF75D5F875D6CF75A41075A70F75A41075A70075E10143E241
:201106004143A5F5E5A675A6FF75A70F43A5F5E5A675A6FF75A70075844075B000758500E5
:2011260043B001D29475A700C2891266F07582011227C2AC828C8212455675B800D2AFD224
:2011460095C296D2EF75BCF975BA0075BB1B75D10775D2FF43D98875DF0075FC8075DA422A
:2011660075D84075E340221239B14015740EC0E07478C0E07480C0E012108C1581158115A0
:2011860081781EE2B44302801C781EE2B447028043781EE2B48602806A781EE2B491030223
:2011A6001236021263782C7490F20874D1F20874CFF2087419F278307470F208745EF2087B
:2011C60074EAF2087419F27838740AF2781C740AF202129A782C7480F20874A1F208740348
:2011E600F208741CF2783074C0F20874E3F2087412F208741CF27838740AF2781C740AF220
:2012060002129A782CE4F20874A1F20874BCF2087433F278307440F20874E3F20874CBF2EE
:20122600087433F27838740AF2781C740AF28064782C74C0F20874CAF2087489F208743654
:20124600F27830E4F2087428F2087450F2087437F27838741BF2781C7432F28037782CE483
:20126600F208F208F208F27830E4F208F208F208F27838E4F2781EE2FA7B00C002C00374B0
:2012860026C0E07478C0E07480C0E012108CE58124FBF58175820A1227C2AA82AB83AEF0C5
:2012A600FFEA4B4E4F601175820A1227C2AC82AD83AEF0FF781CECF27582081227C2AC8255
:2012C600AD83AEF0FFEC4D4E4F60377582081227C2AC82AD83AEF0FF900621ECF0EDA3F0C6
:2012E600EEA3F0EFA3F09003E8E4F5F0126F49782CC0E0E582F208E583F208E5F0F2D0E059
:2013060008F27582091227C2AC82AD83AEF0FFEC4D4E4F60377582091227C2AC82AD83AE63
:20132600F0FF900621ECF0EDA3F0EEA3F0EFA3F09003E8E4F5F0126F497830C0E0E582F2F3
:2013460008E583F208E5F0F2D0E008F27582041227C2AC82AD83AEF0FFEC4D4E4F601175FF
:2013660082041227C2AC82AD83AEF0FF7838ECF27838E2FB7D007E007F007856E4F208F2B8
:2013860008F208F2785A741EF208E4F208F208F28B828D838EF0EF122C91AC827838ECF216
:2013A600781CE2FC7D007E007F0078567401F208E4F208F208F2785A7432F208E4F208F2F2
:2013C60008F28C828D838EF0EF122C91AC82AD83AEF0FF781CECF2781EE2B44302801E78BF
:2013E6001EE2B44703021492781EE2B48603021523781EE2B491030215B40216427856742B
:2014060080F2087423F20874ADF2087418F2785AE4F208740BF208746BF208741BF2782CFB
:20142600E2F58208E2F58308E2F5F008E2122C91782CC0E0E582F208E583F208E5F0F2D0C5
:20144600E008F278567480F2087423F20874ADF2087418F2785AE4F208740BF208746BF2CC
:2014660008741BF27830E2F58208E2F58308E2F5F008E2122C917830C0E0E582F208E583E1
:20148600F208E5F0F2D0E008F202166178567480F2087474F20874D2F208741AF2785A74BE
:2014A60080F20874CEF2087434F208741DF2782CE2F58208E2F58308E2F5F008E2122C9164
:2014C600782CC0E0E582F208E583F208E5F0F2D0E008F278567480F2087474F20874D2F2B8
:2014E60008741AF2785A7480F20874CEF2087434F208741DF27830E2F58208E2F58308E2F0
:20150600F5F008E2122C917830C0E0E582F208E583F208E5F0F2D0E008F2021661785674F0
:2015260040F20874B6F208749AF2087432F2785A7440F2087410F20874FDF2087434F2782C
:201546002CE2F58208E2F58308E2F5F008E2122C91782CC0E0E582F208E583F208E5F0F248
:20156600D0E008F278567440F20874B6F208749AF2087432F2785A7440F2087410F2087409
:20158600FDF2087434F27830E2F58208E2F58308E2F5F008E2122C917830C0E0E582F20820
:2015A600E583F208E5F0F2D0E008F20216617856E4F20874A1F20874BCF2087433F2785A89
:2015C60074C0F20874F7F20874BAF2087437F2782CE2F58208E2F58308E2F5F008E2122C57
:2015E60091782CC0E0E582F208E583F208E5F0F2D0E008F27856E4F20874A1F20874BCF2FF
:20160600087433F2785A74C0F20874F7F20874BAF2087437F27830E2F58208E2F58308E2AC
:20162600F5F008E2122C917830C0E0E582F208E583F208E5F0F2D0E008F2801F781EE2FE75
:201646007F00C006C0077426C0E07478C0E07480C0E012108CE58124FBF5817830792CE246
:20166600F5F0E3B5F01D08E2F5F009E3B5F01408E2F5F009E3B5F00B08E2F5F009E3B5F09B
:20168600028002801A782C7930E22440F308E2344209F308E2340F09F308E2340009F3758C
:2016A600820B1227C2AC8278B0ECF27F007E007D007856E4F208F208F208F2785A7464F2C0
:2016C60008E4F208F208F28C828F838EF0ED122C91AC8278B0ECF27852ECF208E4F208F224
:2016E60008F275820B1225D075820C1227C2AC82AD83AEF0FF78B4ECF2EC60337F007E0062
:201706007D0078567419F208E4F208F208F2785A74DCF208E4F208F208F28C828F838EF0A3
:20172600ED122C91AC82AD83AEF0FF78B4ECF278B47952E2F309E4F309F309F375820C1229
:2017460025D09005FC74E8F07403A3F0E4A3F0E4A3F0782CE2F58208E2F58308E2F5F00883
:20176600E2126BEBAC82AD83AEF0FF7852ECF208EDF208EEF208EFF27582081225D0900523
:20178600FC74E8F07403A3F0E4A3F0E4A3F07830E2F58208E2F58308E2F5F008E2126BEB7F
:2017A600AC82AD83AEF0FF7852ECF208EDF208EEF208EFF27582091225D0781C7952E2F38D
:2017C60009E4F309F309F375820A1225D07830792CE3F5F0C3E295F0FC09E3F5F008E29598
:2017E600F0FD09E3F5F008E295F0FE09E3F5F008E295F0FF781CE2FA7B0074022AFAE43BD5
:20180600FB9005FCEAF0EBA3F0EB3395E0A3F0A3F08C828D838EF0EF126BEB7834C0E0E501
:2018260082F208E583F208E5F0F2D0E008F27837E2C313FF18E213FE18E213FB18E213FAD3
:20184600782CE22AF208E23BF208E23EF208E23FF27582031227C2126B9B781CC3E2F5F069
:20186600740595F05054126B41AE82AF83900615EEF0EFA3F0900271126E2CAE82E583FF4F
:201886003395E0FDFC78349005F1E2F008E2A3F008E2A3F008E2A3F08E828F838DF0EC1289
:2018A600695DAC82AD83AEF0FF782CE22CF208E23DF208E23EF208E23FF2782CE2F582086A
:2018C600E2F58308E2F5F008E21239E87834E2F58208E2F58308E2F5F008E2123A24758235
:2018E600031227C2AC82AD83AEF0FF781C9005F1E2F0E4A3F0E4A3F0E4A3F08C828D838EEC
:20190600F0EF12695DAC828C82123A737582021227C2AC828C82123A9D4033758202122751
:20192600C2AC828C82123A9D40247582021227C2AC828C82123A9D4015743DC0E07478C0EB
:20194600E07480C0E012108C1581158115811236D7AF827852EFF208E4F208F208F27582D9
:20196600021225D07582031227C2123D9F75820F1227C2123DF67582121227C212612D7516
:2019860082101227C212613C7582111227C2AC828C821261487838E2F582123D59123D9972
:1F19A600AF827852EFF208E4F208F208F27582041225D07582031227C2120EFC02614FAF
:2077CE004D502053694B20322E34206F6E205246443930304100322E34006661696C656457
:2077EE0020746F20656E61626C65207265636569766572000A2A2A50414E49432A2A00005F
:20780E00726164696F5F696E697469616C697365206661696C65640062616420626F617251
:20782E0064206672657175656E637920256400726164696F5F636F6E666967757265206685
:06784E0061696C65640035
:2019C500AF829004BDE0F5787CFF7DFF74062578FBFA24BCF582E43404F583EFF00A783AAA
:2019E5007401F2783AC3E29A5065C002783AE224BCF582E43404F583E0FB8C7A757B00E5DE
:201A05007AF57C6BF579C454F0F57D62798D7E757F00AB797E008B077A00E57E6202E57FD0
:201A25006207EEC40354F8CBC403CB6BCB54F8CB6BFEEB6202EE6207E579C4540FFE7B0080
:201A45006AFCEB6FFD783AE22401F2D00280947406257824BCF582E43404F5838C06EEF0C1
:201A65007407257824BCF582E43404F5838D04ECF022AF828F788F047D00783BE27B002C4B
:201A8500FCEB3DFDAA787B00C3EA9CEB64808DF063F08095F05032E57824BCFCE43404FDC2
:201AA5008C828D83E0F579E5780424BCFAE43404FB8A828B83E0FE8C828D83F08A828B8343
:201AC500E579F00578057880AD227EC27F047D009004BC74FEF09004BD7409F07839E2FC2B
:201AE500783904F29004BEECF09004BF7433F09004C07444F09004C174A6F07820E2FB084A
:201B0500E2FC8E828F838DF0EB126DE1A3EC126DE174022EF50CE43FF50D8D0E782AE2FB25
:201B250008E2FC850C82850D83850EF0EB126DE1A3EC126DE174062EFEE43FFFC007C00680
:201B4500C005124AE6AC82D005D006D0078E828F838DF0EC126DE17582151219C512476A1F
:201B6500AE82AF83C3EE9411EF940050012278937411F29004BC12464B9004C1746DF075A2
:201B850082B91219C512476AAE82AF83C3EE9411EF940050012278937411F29004BC02468A
:011BA5004BF4
:201BA600AE82AF83E0FDBDFE1A8E828F83A3E0FDBD091074052EFEE43FFF8E828F83E0705A
:201BC60002D20F22E5827846F2124A8E7847E582F208E583F27B007C00784974FFF20874E6
:201BE600FFF27847C3E2940808E294005003021CC38B828C83C004C0031248DD858229D062
:201C060003D00474FEB529028003021CC374012BFEE43CFF8E828F83C004C0031248DD850F
:201C26008229D003D004740925295003021CC3C003C004AD297E0074082DFAE43EFC7846F3
:201C4600E2F52A752B00783CE2FB7F00E52AC39BFBE52B9FFFC3EB9AEF64808CF063F0804D
:201C660095F0D004D003405574082DFDE43EFE7847C3E29D08E29E404474062BFEE43CFF08
:201C86008E828F83C004C0031248DDAF82D003D004BF460C7412B529077849EBF208ECF286
:201CA60074082529F529AA297F007847E2C39AF208E29FF2EA2BFBEF3CFC021BE87849E29A
:201CC600F58208E2F58322E582900333F0E4F52EF52F78407994E2F3900237124915784030
:201CE600E2FD783CF2784BE2FA08E2FB7C0090060B7437F07402A3F0E4A3F090060EEDF01C
:201D0600E4A3F08A828B838CF0126D547840E4F2784BE2F58208E2F583121BA690013AE053
:201D2600FDBD020F900333E0F582121BCAAC82AD8380047CFF7DFF8C308D31124A8E85827A
:201D46002C85832D900333E0F53574FFB5300974FFB5310474018001E4FCC3E52C9408E563
:201D66002D94005003021EA0C004124886858232D00474FEB532028006783CE2F58222C008
:201D8600041248A2858232D004740925325003021EA0C00485323375340074082533FBE43F
:201DA6003534FEAA357F00783CE2FC7D00EAC39CFAEF9DFFC3EA9BEF64808EF063F080957A
:201DC600F0D0045003021EA074082533FEE43534FFC3E52C9EE52D9F5003021EA0EC70284E
:201DE600E52EB53007E52FB53102801C900006C0041248DDAF82D004BF460D7412B5320829
:201E060074082532F532807074082532F532783CE22437FEE43402FF7894E532F28E828F1C
:201E260083C004124915784B793CE3C5F0E225F0FE08E23400FF7D00783CE22437FAE43443
:201E460002FB90060BEAF0EBA3F0E4A3F090060EE532F0E4A3F08E828F838DF0126D547803
:201E66004B793CE3C5F0E225F0FE08E23400FF8E828F83121BA6D004783CE22532F2AE322A
:201E86007F00E52CC39EF52CE52D9FF52DEE252EF52EEF352FF52F021D60783CE2F58222CE
:201EA600858236124A8E858237858338200D16300865200A62783CE2605DC3E5379420E540
:201EC6003894005052783CC3E2F5F0E53695F05008783CE4F275820022D20AC20D784DE263
:201EE600FA08E2FB7C0090060B7437F07402A3F0E4A3F0783C90060EE2F0E4A3F08A828B8D
:201F0600838CF0126D54783CE2F537753800783CE4F2AB378B8222C20A200E03021FD67873
:201F26003CE2FB7C008B378C38853639753A00C3E5399537E53A95385065784DE2FA08E204
:201F4600FE7F0090060B7437F07402A3F0E4A3F090060EE539F0E53AA3F08A828E838FF042
:201F6600126D54E5362437FEE43402FF90060BEEF0EFA3F0E4A3F0AE367F0090060EE53760
:201F8600C39EF0E5389FA3F090023775F000126D54E537C39536783CF2D20B853682227896
:201FA6004DE2FD08E2FE7F0090060B7437F07402A3F0E4A3F090060EEBF0ECA3F08D828E31
:201FC600838FF0126D54C20ED20B783CE2F58222C20BAE367F00C3EE9537EF953850048EFF
:201FE600378F38783CE4F2E53745387003F5822290013AE0FF7053E53745386043AD3778A9
:2020060094EDF2784DE2F58208E2F583C005124915D005502B784D90060BE2F008E2A3F08D
:20202600E4A3F090060EE537F0E538A3F090023775F000C005126D54D005783CEDF2800411
:20204600783CE4F2783CE2F582227840E2B4010280030220E57401B53706E4B5380280022A
:2020660080791266B2AE82AF837841D3E29EF4B3FEB308E29FF4FF7843C3E29E08E29F501E
:2020860056783CE2FF783C04F2EF2437FFE43402FEC007C0061247D1AD82D006D0078F82A0
:2020A6008E83EDF0784DE2FD08E2FE7F0090060B7437F07402A3F0E4A3F0783C90060EE22B
:2020C600F0E4A3F08D828E838FF0126D547840E4F2783CE2F58222758200227840E4F27845
:2020E60040E270030221747840E2FE7F00C3E5379EE5389F50681266B2AE82AF837841D38E
:20210600E29EF4B3FEB308E29FF4FF7843C3E29E08E29F5045AD377894EDF2900237C005EC
:20212600124915D005783CEDF2784DE2FC08E2FE7F0090060B7437F07402A3F0E4A3F0906B
:20214600060EEDF0E4A3F08C828E838FF0126D547840E4F2783CE2F5822275820022784D05
:20216600794BE2F308E209F3853682021CCDE53745387003022315124886AF82BFFE02801C
:20218600030222E67401B53706E4B538028002802E783CE2600302231578407401F21266F8
:2021A600B2E5828583F07841F208E5F0F2783EE2FE08E2FF7843EEF208EFF2758200221260
:2021C60048A2AF827840EFF2BFF70050208F057E0074082DFDE43EFE7845E2FB7C00C3EB83
:2021E6009DEC64808EF063F08095F050337840E4F2783CE2FE783C04F2EE2437FEE43402E6
:20220600FDC006C0051247D1AC82D005D0068E828D83ECF0153774FFB537021538022174A0
:2022260074082FFF7840F2783CE26062784DE2FC08E2FD7E0090060B7437F07402A3F0E4BB
:20224600A3F0783C90060EE2F0E4A3F08C828D838EF0126D541266B2E5828583F07841F2A1
:2022660008E5F0F27840E2FD7E00783E900615E2F008E2A3F08D828E83126E2CE582858389
:20228600F07843F208E5F0F2783CE2F582227E00C3E5379FE5389E50371266B2E5828583C6
:2022A600F07841F208E5F0F27840E2FE7F00783E900615E2F008E2A3F08E828F83126E2C19
:2022C600E5828583F07843F208E5F0F275820022784D794BE2F308E209F3853682021CCD98
:2022E600783CE2FF783C04F2EF2437FFE43402FEC007C0061247D1AD82D006D0078F828E06
:2023060083EDF0153774FFB537021538022174784DE2FD08E2FE7F0090060B7437F0740209
:20232600A3F0E4A3F0783C90060EE2F0E4A3F08D828E838FF0126D54783CE2F58222A20A9F
:2023460022A20B22D20D22E582900334F07845F222AF83E582900335F0EFA3F0900335E01B
:20236600FEA3E0FF9005FCEEF0EFA3F0E4A3F0E4A3F090000075F001E4126BEBAC82AD8358
:20238600AEF0FF0CBC00090DBD00050EBE00010F783EECF208EDF222E582900337F0201030
:2023A60039784FE2FD08E2FE7F00900337E0FCFA7B0090060BEDF0EEA3F0EFA3F090060E91
:2023C600EAF0EBA3F090013B75F000C004126D54D004783DECF2C20CC322200C3790033790
:2023E600E0FF783DE2B5072C784F90062AE2F008E2A3F0E4A3F090062DEFF0E4A3F0900182
:202406003B75F000127062E5828583F045F07004C20CD322D20CC322AF82BF13005025909C
:2024260003AE74FCF0900237C007123301D0078F82122BEA12332AAF82783CEFF2EF600418
:20244600C20AD20E22D2019003AE74FCF090023712330112074712332AAF82783CEFF2EFA1
:202466006004C20AD20E22AE82AF837851C3E2F5F074FC95F05005785174FCF290060BEE6B
:20248600F0EFA3F0E4A3F0785190060EE2F0E4A3F090023775F000126D547851E2783CF245
:0524A600C20AD20E2263
:2024AB00AF82BF1300400122EF24ED50030225CEEF240A83F582EF241783F583E473EFF1F0
:2024CB00FB1012273E29CECECECECECECE8B5329A9242424252525252525252525252525CC
:2024EB0025252525C322AF3B8F82124B35921122C3E4953B7401953CE4953DE4953E400399
:20250B000225CEC322D322C3741E953BE4953CE4953DE4953E40030225CEC322C322C37461
:20252B0001953BE4953CE4953DE4953E40030225CEC322C37402953BE4953CE4953DE49593
:20254B003E40030225CEC32274FFB53B0F74FFB53C0AE4B53D06E4B53E0280028002D32287
:20256B00900374E0FCA3E0FDA3E0FEA3E0FFECB53B0EEDB53C0AEEB53D06EFB53E02C32269
:20258B00900380E0FCA3E0FDA3E0FEA3E0FFC3E53B9CE53C9DE53D9EE53E9F402622C3E5CF
:2025AB003B9402E53C9400E53D9400E53E94005012C3E4953B7480953CE4953DE4953E50C2
:2025CB0002C322D322AF827852E2F53B08E2F53C08E2F53D08E2F53E8F82C0071224ABD02A
:2025EB0007400122EF24ED50030227A1EF240A83F582EF241783F583E473A1A1A1A12BA166
:20260B00EF05A1A1A14A91A12F5981956D2727272726272627272727262627272727272770
:20262B007852E2F582C007123D59123D99AE82D0077852EEF208E4F208F208F20227A17850
:20264B0056E4F208F208F208F2785A7464F208E4F208F208F27852E2F58208E2F58308E278
:20266B00F5F008E2C007122C91AB82AC83ADF0FED0077852EBF208ECF208EDF208EEF27848
:20268B00B0EBF20227A17852E2F5F008E242F008E242F008E245F0604278567419F208E415
:2026AB00F208F208F2785A74DCF208E4F208F208F27852E2F58208E2F58308E2F5F008E205
:2026CB00C007122C91AB82AC83ADF0FED0077852EBF208ECF208EDF208EEF2785279B4E256
:2026EB00F30227A17852E2FE90013AF07852EEF208E4F208F208F20227A17852E2F5F008CE
:20270B00E242F008E242F008E245F024FF920850047E0180027E007852EEF208E4F208F24D
:20272B0008F280727852E2F5F008E242F008E242F008E245F024FF920950047E0180027E29
:20274B00007852EEF208E4F208F208F280487852E2FD08E2FE8D828E83C007123DF6D00796
:20276B0080347852E2FD08E2FE8D828E83C00712612DD00780207852E2FD08E2FE8D828EDD
:20278B0083C00712613CD007800C7852E2F582C007126148D007EF75F004A42438F5827413
:2027AB000335F0F5837852E2F008E2A3F008E2A3F008E2A3F0D322AF82BF1300400790008C
:2027CB0000E4F5F022EF75F004A42438F582740335F0F583E0FCA3E0FDA3E0FEA3E08C82B2
:2027EB008D838EF02285823F8583409003A8E0FD9003A9E0FC8D038D017A008C007F00E8D5
:20280B0029F8EF3AFF8B41754200C3E54198E54264808FF063F08095F0503BE541C399F978
:20282B00E5429AFAE9253FF9EA3540FA8B067F008E828F83C005C004C003C002C001120E12
:20284B0037AF82D001D002D003D004D00589828A83EFF00B80A1853F088540098C82C00358
:20286B00120DBAAE82AF83D00374012541FCE43542FD8C828D83C007C006C003120E37AD9E
:20288B0082D0038D047D007A008B828A83C005C004120E37AB82D004D005D006D0077A0059
:2028AB00EB4205EA4204EEB50506EFB504028002C322D3228582438583449003AAE0FD90B7
:2028CB0003ABE0FC8D038D457546008C027F00EA2545FAEF3546FF8B47754800C3E5479A6A
:2028EB00E54864808FF063F08095F05037C0048B067F00E547C39545FAE5489546FCEA25B4
:20290B0043F582EC3544F583781BE0F28E828F83C005C004C003120E56D003D004D0050B45
:20292B00D00480A28543088544098C82C003120DBAAE82AF83D0037D008E02781BEAF28B0E
:20294B00828D83C007C006120E56D006D00774012547FCE43548FD781BEFF28C828D83025B
:20296B000E56D310AF01C3C0D0900000120E37AE827F00C3744C9EE49F4008EE9430EF944B
:20298B00005004C3022A5A7C387D039003A87401F09003A9EEF08C828D83C0061227F0D0C4
:2029AB00064003022A5A7D847F039003A874032EF09003A97424F08D828F831227F0400399
:2029CB00022A5A7582001227C2AC82AD83AEF0FFBC1B0BBD0008BE0005BF00028003C38088
:2029EB006E7F00EF75F004A42438FD740335F0FE8D828E83E0F53BA3E0F53CA3E0F53DA3B4
:202A0B00E0F53E8F82C007C006C0051224ABD005D006D0074032EF75F007A42454FB747802
:202A2B0035F0FC8B828C83A3A3A3E493F9A3E493FAA3E493FBA3E493FC8D828E83E9F0EAD3
:202A4B00A3F0EBA3F0ECA3F00FBF4C004095D333D0D092AF1322D310AF01C3C0D09003381F
:202A6B00741BF0E4A3F0E4A3F0E4A3F0120E1C781B744CF2900000120E567E387F03900315
:202A8B00AA7401F09003AB744CF08E828F831228BF7E847F039003AA744FF09003AB7424C9
:202AAB00F08E828F831228BFD0D092AF227F00EF75F004A42438FD740335F0FEEF75F00734
:202ACB00A42454FB747835F0FC8B828C83A3A3A3E493F9A3E493FAA3E493FBA3E493FC8D86
:202AEB00828E83E9F0EAA3F0EBA3F0ECA3F00FBF130040BB7F00EF75F006A4FDAEF0248449
:202B0B00FBEE3403FC9078D9E493F578A3E493F579A3E493F57AA3E493F57B8B828C83E52D
:202B2B0078F0E579A3F0E57AA3F0E57BA3F0ED2484FDEE3403FE74042DFBE43EFC9078DDF4
:202B4B00E493540F8B828C83540FF5F0E054F045F0F074042DFBE43EFC9078DDE493C454B1
:202B6B000FFA8B828C83C454F0F5F0E0540F45F0F074052DFDE43EFE9078DEE493FC8D82A5
:202B8B008E83F00FBF06005003022B0122AF827E008F037C007D40EE75F007A42454F5824B
:202BAB00747835F0F583E493F8A3E493F9A3E493FA900617E8F0E9A3F0EAA3F08B828C8351
:202BCB008DF0C007C006126E4CE5828583F0D006D00745F060060EBE130040B58E822285E2
:202BEB00824974ED2549406EE54975F004A42438F582740335F0F583E0F54AA3E0F54BA3DB
:202C0B00E0F54CA3E0F54DE54975F007A42454F582747835F0F583E493FAA3E493FEA3E4FD
:202C2B0093FFAC497D00C04AC04BC04CC04DC002C006C007C004C0057865E2C0E008E2C076
:202C4B00E074DFC0E07478C0E07480C0E01235BAE58124F2F58122AF82BF13005021EF7589
:202C6B00F007A42454F582747835F0F583E493FDA3E493FEA3E493FF8D828E838FF0229040
:202C8B00000075F00022AC82AD83AEF0FF7856C3E2F5F0EC95F008E2F5F0ED95F008E2F5BE
:202CAB00F0EE95F008E2F5F0EF95F0500D7856E2FC08E2FD08E2FE08E2FF785AC3E29C0887
:202CCB00E29D08E29E08E29F500D785AE2FC08E2FD08E2FE08E2FF8C828D838EF0EF22D314
:202CEB0010AF01C3C0D0AE82AF83758F0175B7A575B7F18E828F83E58124FDF8E6F0758FE6
:202D0B0000D0D092AF22E493F58222E582FF24E14041A8811818B6FF0280387E0074DE2FE2
:202D2B00FC74FB3EFD8C828D83C007C006122D11AD82D006D007BDFF1A74DE2FFF74FB3E08
:202D4B00FEA8811818E6C0E08F828E83122CEA1581D322C322AF827E007D00ED90F7DE93C0
:202D6B00FC62060DBD1F0040F290F7FDE493FDBDFF02801690F7FDE493FDB5060DEF24E1C9
:202D8B004008EF90F7DE93F582227582FF227F0090FBFDC007122D11AE82D007BEFF6A7E7E
:202DAB00008E047D008C028D0374DE2AFA74FB3BFB8A828B83C007C006C005C004122D1140
:202DCB00AB82D004D005D006D007EB6207BBFF1BC004C00574F1C0E07478C0E07480C0E08E
:202DEB001235BAE58124FBF581C3220EBE1F0040B0C00790FBFD122CEA158174FEC0E0905D
:0B2E0B00FBFF122CEA1581D322C3222A
:207854000E79801B00000015798039000000227980400000002C79801900000032798000E7
:207874000000003A7980000000003E798000000000467980000000005079800000000059A9
:20789400798000000000627980000000006F7980640000007A7980000000008379800000C5
:2078B40000008E798000000000957980010000009C7980FFFF0000AC798000000000B47939
:2078D4008002000000FFFFFFFF01FF5B25755D205325753A2025733D256C750A0064426D65
:2078F400206C6576656C202575206E6F742063616C696272617465640A00464F524D415413
:207914000053455249414C5F5350454544004149525F5350454544004E45544944005458F7
:20793400504F57455200454343004D41564C494E4B004F5050524553454E44004D494E5FD6
:2079540046524551004D41585F46524551004E554D5F4348414E4E454C5300445554595F32
:207974004359434C45004C42545F52535349004D414E434845535445520052545343545334
:20799400004E4F44454944004E4F444544455354494E4154494F4E0053594E43414E590093
:0A79B4004E4F4445434F554E54001A
:202E16007F00EF75F006A42484FD740335F0FE8D828E83A3A3A3A3E0540F24FF92128F8219
:202E3600C007C006C005122E65D005D006D0078D828E83A3A3A3A3E0C4540F24FF92148FF8
:202E560082C0071230A8D0070FBF060040B422AF82BF06004003023088EF75F006A42484CF
:202E7600FD740335F0FE8D828E83A3A3A3A3A212E433FC540FF5F0E054F045F0F08D828E04
:202E960083A3A3A3A3A374FFF075A700EF75F002A4FEAFF024BEF582EF3479F583E493FD73
:202EB600600FBD0103022F5ABD0203022FED02307E301222EE24BEFCEF3479FD8C828D83CA
:202ED600A3E493FD8DF005F07401800225E0D5F0FBFD42A48021EE24BEFCEF3479FD8C82A0
:202EF6008D83A3E493FD8DF005F07401800225E0D5F0FBF4FD52A475A70F301223EE24BE20
:202F1600FCEF3479FD8C828D83A3E493FD8DF005F07401800225E0D5F0FBFD42A40230830B
:202F3600EE24BEFCEF3479FD8C828D83A3E493FD8DF005F07401800225E0D5F0FBF4FD5270
:202F5600A4023083301222EE24BEFCEF3479FD8C828D83A3E493FD8DF005F0740180022576
:202F7600E0D5F0FBFD42A58021EE24BEFCEF3479FD8C828D83A3E493FD8DF005F074018015
:202F96000225E0D5F0FBF4FD52A575A70F301223EE24BEFCEF3479FD8C828D83A3E493FD42
:202FB6008DF005F07401800225E0D5F0FBFD42A5023083EE24BEFCEF3479FD8C828D83A30E
:202FD600E493FD8DF005F07401800225E0D5F0FBF4FD52A5023083301222EE24BEFCEF3449
:202FF60079FD8C828D83A3E493FD8DF005F07401800225E0D5F0FBFD42A68021EE24BEFC90
:20301600EF3479FD8C828D83A3E493FD8DF005F07401800225E0D5F0FBF4FD52A675A70F8A
:20303600301222EE24BEFCEF3479FD8C828D83A3E493FD8DF005F07401800225E0D5F0FB4E
:20305600FD42A68028EE24BEFEEF3479FF8E828F83A3E493FF8FF005F07401800225E0D5E4
:20307600F0FBF4FF52A6800575A700C32275A700D322C322E58275F006A42484FE74033520
:20309600F0FF8E828F83A3A3A3A3E0540F24FF921322E582FF75F006A42484FD740335F09A
:2030B600FE8D828E83A3A3A3A3A214E433FCC454F0F5F0E0540F45F0F0BF060040030231F7
:2030D600EC8D828E83A3A3A3A3A3E0FEBEFF0280030231ECEF75F002A4FEAFF024BEF58270
:2030F600EF3479F583E493FD600EBD01028053BD02030231A00231E8301423EE24BEFCEF5F
:203116003479FD8C828D83A3E493FD8DF005F07401800225E0D5F0FBFD42800231EAEE249E
:20313600BEFCEF3479FD8C828D83A3E493FD8DF005F07401800225E0D5F0FBF4FD528002FE
:2031560031EA301422EE24BEFCEF3479FD8C828D83A3E493FD8DF005F07401800225E0D5FB
:20317600F0FBFD4290806DEE24BEFCEF3479FD8C828D83A3E493FD8DF005F074018002256A
:20319600E0D5F0FBF4FD5290804A301422EE24BEFCEF3479FD8C828D83A3E493FD8DF0055A
:2031B600F07401800225E0D5F0FBFD42A08025EE24BEFEEF3479FF8E828F83A3E493FF8F96
:2031D600F005F07401800225E0D5F0FBF4FF52A08002C322D322C322E58275F006A42484F4
:2031F600FE740335F0FF8E828F83A3A3A3A3E0C4540F24FF921522AF82BF06004003023212
:20321600CAEF75F006A42484FD740335F0FE74042DFDE43EFE8D828E83E0540F60030232D5
:20323600CAEF75F002A4FEAFF024BEF582EF3479F583E493FD600ABD0102802ABD027180B2
:203256004AEE24BEFCEF3479FD8C828D83A3E493FD8DF005F07401800225E0D5F0FBFDE564
:203276008052058D8222EE24BEFCEF3479FD8C828D83A3E493FD8DF005F07401800225E028
:20329600D5F0FBFDE59052058D8222EE24BEFEEF3479FF8E828F83A3E493FF8FF005F074D2
:1932B60001800225E0D5F0FBFFE5A052078F822275827F2275827F222255
:0C79BE00020302020201020002060001A6
:0804DC00C216C217C218C219B2
:2032CF00AF82201A058F82024B21785F795EC3E3F5F0E295F0501A785FE2FE785F04F290D2
:2032EF0003ACE0FCA3E0FDEE2CF582E43DF583EFF022AF83E5829003AFF0EFA3F09003AFFA
:20330F00E0FEA3E0FF9003ACEEF0EFA3F0785FE4F29003AEE0785EF2D21A22C21A785FE266
:20332F00F58222AD82AE83AFF08D828E838FF0127458FC700122BC250280030235A1C219C1
:20334F00C218C217C2160DBD00010E8D828E838FF0127458FBBB6802800CBB6C10D2160DA5
:20336F00BD000A0E8007D2180DBD00010E8D828E838FF0127458FBBB63028030BB64028036
:20338F0018BB6F02802BBB7302800ABB7502800EBB78238010D217801D750F0A8018750F9F
:2033AF000AD2198011750F10D219800A750F008005750F08D219301771A8811818E624FDD7
:2033CF00FBA8811818A6038B0187100987110987121919C005C006C007AA10AB11AF128A36
:2033EF00828B838FF0127458D007D006D00570030235B2C005C006C007AA10AB11AF128AE0
:20340F00828B838FF0127458FA0510E4B5100205118A82C007C006C0051232CFD005D006C4
:20342F00D007D007D006D00580A9301966301621A8811818E624FCFBA8811818A6038B01FD
:20344F00871309871409871509871619191902350830181DA8811818E614F9A8811818A69A
:20346F000187038B13751400751500751600023508A8811818E624FEFBA8811818A6038B4E
:20348F00018702098703198A138B147515007516008066301620A8811818E624FCFBA881C7
:2034AF001818A6038B018713098714098715098716191919804330181EA8811818E614FB4D
:2034CF00A8811818A6038B01E7FBF5133395E0F514F515F5168022A8811818E624FEFBA8F9
:2034EF00811818A6038B018702098703198A13EBF5143395E0F515F516E50F700302358C2A
:20350F0030192F9005C07480F0E4A3F07440A3F09005C3E50FF08513828514838515F0E54C
:20352F0016C007C006C0051267AAD005D006D007802D9005E97480F0E4A3F07440A3F09012
:20354F0005ECE50FF08513828514838515F0E516C007C006C0051268C0D005D006D0077945
:20356F0080E7FB603E8B82C007C006C005C0011232CFD001D005D006D0070980E4AB138B00
:20358F0082C007C006C0051232CFD005D006D00780118C82C007C006C0051232CFD005D00A
:2035AF0006D0070DBD00010E023338E58124FCFFC007E58124FBF886820886830886F01267
:0535CF003332158122DA
:2035D400AFF0AE83E5829004ADF0EEA3F0EFA3F0201B02C3227860C3E2F5F074FC95F050A3
:2035F4000512397280459004ADE0FDA3E0FEA3E0FF8D828E838FF07860E2126DE17873E289
:20361400FD08E2FE7F0090060B74B1F07403A3F0E4A3F0786090060EE2F0E4A3F08D828E99
:20363400838FF0126D54123972D3227820E2FE08E2FFBEFF05BFFF02800C0EBE00010F782C
:2036540020EEF208EFF2C322AF8275A700C294C2B77586FF7875E2FD08E2FE8F041FEC60C0
:203674001130B1FD8D828E83E0F586A3AD82AE8380E930B1FD74805584FFBF800280F6C23D
:20369400B7D29475A70022201B057861E26002D322758231123E67E58230E402D322C32233
:2036B400A2A8921DC2A8101C028006A21D92A8D322A21D92A8C3227862E2F58222758226A1
:2036D400023E67786FE2F58222758208123E67AF8274014FFEC007C006758208123E311502
:2036F40081D0075307FEC007758208123E31158122758208123E67AF8274024FFEC007C0D6
:2037140006758208123E311581D0075307FDC007758208123E31158122E582FF2403501956
:20373400C00774CAC0E07479C0E07480C0E012108C158115811581D007C0071236DDD007A5
:20375400C007C00775823E123E311581D007EFFE24DF50027E2078777975E2F308E209F32C
:203774008E82C007C00612365CD006D007EFC39EFF7877E22EF208E23400F2C007E4C0E0AC
:20379400758205123E311581E4C0E0758206123E311581C21CC21E7409C0E0758207123E41
:2037B4003115811266B2AC82AD83D007C007C005C0041266B2AA82AB83D004D005D007EA91
:2037D400C39CFAEB9DFB7879C3E2F5F0EA95F008E2F5F0EB95F040030238F9758203C00799
:2037F400C005C004123E67AB82D004D005D007301E40EF603DEB30E5397E04BF04005002DE
:203814008F0678777975E2F308E209F38E82C007C006C005C00412365CD004D005D006D04E
:2038340007EFC39EFF7877E22EF208E23400F20237C0301E40EF603DEB20E6397E04BF049B
:203854000050028F0678777975E2F308E209F38E82C007C006C005C00412365CD004D00562
:20387400D006D007EFC39EFF7877E22EF208E23400F20237C0EB30E7201236DD7822E2FA81
:2038940008E2FEBAFF05BEFF02800C0ABA00010E7822EAF208EEF2C322758202C007C00588
:2038B400C004123E67AB82D004D005D007EB30E105D21E0237C0201E030237C0EB30E103A9
:2038D4000237C0EF601D7822E2FE08E2FFBEFF05BFFF02800C0EBE00010F7822EEF208EFB1
:2038F400F2C322D3227822E2FE08E2FFBEFF05BFFF02800C0EBE00010F7822EEF208EFF238
:20391400C322E5829004B2F0A2A89220C2A8D2A59004B0E0FEA3E0FFFDC007C006C00575CC
:20393400823A123E311581D006D007C00675823B123E3115819004B2E0FF787B7977E2F307
:2039540008E209F3787D7979E2F308E209F38F8212372D921FC2A5A22092A8A21F22C2A8E3
:20397400C21B7860E4F2C21C7861E4F27413C0E0758205123E3115817440C0E0758206127E
:203994003E311581123EDB1236DD1237057405C0E0758207123E311581D2A8D32290003211
:2039B400126641758201123E67AF82BFFF028005BF05005002C322123F3B758201123E67DF
:2039D400E582FF20E006123F3B922122EF30E102D322C322AC82AD83AEF0FFC3ED941CEEE1
:2039F400944EEF940E400E74C09C74F79D74BA9E74379F5002C3227867ECF208EDF208EE33
:203A1400F208EFF28C828D838EF0EF123FA7D322AC82AD83AEF0FFC374F09C74E89D7426EE
:203A34009EE49F5002C322787F7410F2087427F208E4F208F28C828D838EF0EF123EE7ACD2
:203A540082AD83AEF0FF786BECF208EDF208EEF208EFF2C00475827A123E311581D322E564
:203A7400829004B3F07870E2FF9004B3E0FEB50701227870EEF2C006758279123E31158197
:203A9400C21C227870E2F58222AF82C007E4C0E0758205123E311581E4C0E0758206123E4F
:203AB400311581123EDB7415C0E075820B123E3115817412C0E075820C123E311581D2228A
:203AD4001241FF74B6C0E0758209123E311581D007EF249B5010C00774C0C0E075825812BE
:203AF4003E311581D0077867E2FB08E2FC08E2FD08E28B828C838DF0C007123FA7786BE246
:203B1400FB08E208E208E2C00375827A123E311581748DC0E0758230123E3115817442C038
:203B3400E0758233123E31158174CFC0E0758232123E31158174FFC0E0758245123E311548
:203B54008174FFC0E0758246123E31158174FFC0E0758243123E31158174FFC0E0758244B7
:203B7400123E311581743CC0E075827C123E3115817420C0E075827D123E3115817432C01B
:203B9400E075827E123E31158178727410F27872E2FEC006758234123E3115817428C0E037
:203BB400758235123E311581758200123D59D0077E00EE9079E793FDC39F50060EBE0C00BC
:203BD40040F0EEFF9079E793FE786FF2BE200040047E0D80027E2D75820DC007C0061227B6
:203BF400C2AA82AB83ACF0FDD006D007EA4B4C4D600B786FE2FD247F4003430602C007C098
:203C140006758270123E3115817423C0E0758271123E3115817444C0E075821D123E311554
:203C340081D007786FE2FEBEC8005012C007740AC0E075821E123E311581D0078010C0072A
:203C54007402C0E075821E123E311581D007781EE2B4433A7E00EE75F00DA424F4FC74790B
:203C740035F0FDEF2CF582E43DF583E493FDEE9079DB93FCC007C006C0058C82123E311518
:203C940081D006D0070EBE0C0040CB023D57781EE2B447397E00EE75F00DA42490FC747A9D
:203CB40035F0FDEF2CF582E43DF583E493FDEE9079DB93FCC007C006C0058C82123E3115D8
:203CD40081D006D0070EBE0C0040CB8076781EE2B486397E00EE75F00DA4242CFC747B35EC
:203CF400F0FDEF2CF582E43DF583E493FDEE9079DB93FCC007C006C0058C82123E3115814C
:203D1400D006D0070EBE0C0040CB80377E00EE75F00DA424C8FC747B35F0FDEF2CF582E457
:203D34003DF583E493FDEE9079DB93FCC007C006C0058C82123E311581D006D0070EBE0CE9
:203D54000040CBD322E5829004B4F07406C0E075826D123E3115819004B4E0FFF582C007B6
:203D7400122D60AE82D007BEFF0280078EFC7871EFF222EFC313FF907C6493F5FCEF2FFFF8
:203D94007871EFF2227871E2F58222AF83E5829004B5F0EFA3F09004B5E0FEA3E0FF8E0430
:203DB4007863ECF28F057864EDF2200734C007C006C005C00575823C123E311581D005D086
:203DD40006D007C006C005C00675823D123E311581758241123E311581758242123E311538
:203DF4008122AF83E5829004B7F0EFA3F09004B7E0FEA3E0FF7865EEF208EFF28F06C0060A
:203E140075823F123E3115817865E254FFFE08E25400C006758240123E31158122AF82A2EA
:203E3400A89240C2A875A700C294C2B774804FF58630B1FDA8811818868630B1FD74805577
:203E540084FFBF800280F6C2B7D29475A700A24092A822AF82A2A89240C2A875A700C294B2
:203E7400C2B78F8630B1FD75860030B1FD74805584FFBF800280F6AF86C2B7D29475A70036
:203E9400A24092A88F8222AF8275A700C294C2B775867F30B7FD8586E0E58124FDF8860550
:203EB4000886068F041FEC6016C2B775860030B7FD8D828E83E586F0A3AD82AE8380E4C24A
:203ED400B7D29475A70022758203123E67758204023E67AF82AE83ADF0FC7883EFF208EE53
:203EF400F208EDF208ECF27882E2C313FF18E213FE18E213FB18E213FA7883E22AFA08E239
:203F14003BFB08E23EFE08E23FFF787F9005FCE2F008E2A3F008E2A3F008E2A3F08A828BA1
:203F3400838EF0EF026BEBE4C0E0758205123E311581E4C0E0758206123E311581123EDBCB
:203F54007481C0E0758207123E31158190000212660830870712663950F8C322E4C0E075FC
:203F74008205123E3115817402C0E0758206123E3115819000141266081266394013758246
:203F940003123E67758204123E67E58230E1EAD322C322AF82AE83ADF0FC7887EFF208EE94
:203FB400F208EDF208ECF27887C3E2F5F0E495F008E2F5F0743895F008E2F5F0749C95F0D8
:203FD40008E2F5F0741C95F0400302409D7888E224C8F208E23463F208E234E3F29005FC10
:203FF400E4F0742DA3F07431A3F07401A3F07887E2F58208E2F58308E2F5F008E2126BEB8A
:20401400AA829004B9EAF0900621EAF0E4A3F0E4A3F0E4A3F0902D0075F0317401126F49B1
:20403400AC82AD83AEF0FF7887E2C39CF208E29DF208E29EF208E29FF2787F7471F2087487
:2040540002F208E4F208F27887E2F58208E2F58308E2F5F008E2123EE77887C0E0E582F2DE
:2040740008E583F208E5F0F2D0E008F27887E225E0F208E233F208E233F208E233F29004B8
:20409400B9E0FF4420F00241607888E224E4F208E234B1F208E234F1F29005FC7480F074F6
:2040B40096A3F07498A3F0E4A3F07887E2F58208E2F58308E2F5F008E2126BEBAC82900410
:2040D400B9ECF0900621ECF0E4A3F0E4A3F0E4A3F090968075F098E4126F49AC82AD83AEE2
:2040F400F0FF7887E2C39CF208E29DF208E29EF208E29FF2787F7471F2087402F208E4F201
:2041140008F27887E2F58208E2F58308E2F5F008E2123EE77887C0E0E582F208E583F20885
:20413400E5F0F2D0E008F27887E225E0F208E233F208E233F208E233F2181818E225E0F2D4
:2041540008E233F208E233F208E233F29004B9E04440F07887E2FC08E2FDC005C00490049C
:20417400B9E0C0E0758275123E311581D004D0058D07C005C004C007758276123E3115815E
:20419400D004D005C004758277123E3115812275A70FAE86E4CE25E0CE33CE25E0CE33FF0D
:2041B400E58523235403FD7C004206EC420775A700D2EC20ECFDADBE7C00AABD7B00EA4216
:2041D40004EB4205ECC39EFEED9FFF9006327402F0E4A3F08E828F83127191E5828583F085
:2041F4002421FCE435F08C82F583223022257418C0E075820D123E311581758208123E6745
:20421400AF82741F5F4480FFC007758208123E31158122758208123E67AF8253071FC0077E
:20423400758208123E311581740AC0E075820D123E3115817404C0E075820E123E311581E7
:2042540022C028C0E0C0F0C082C083C007C006C005C004C003C002C001C000C0D075D0007A
:20427400758204123E67AF82758203C007123E67AE82D007EE30E4497861E2FC7D007432A3
:204294002CFCE43DFDC374FC9CE49D50030243607861E224B1FCE43403FDC007C006C00487
:2042B400C005758232123E9B158115817861E22432F2758226123E67E582D006D007786220
:2042D400F2EF30E611D21C758226C006123E67E582D0067862F2200704EE20E06FEE30E1AA
:2042F4006975824B123E67E582FF2403405E7861C3E2F5F0EF95F040537861C3E29F502224
:204314007861E224B1FDE43403FE7861D3E29FF4FCC007C005C0068C82123E9B158115814F
:20433400D0077860EFF2D21BE4C0E0758205123E311581E4C0E0758206123E311581740247
:20435400C0E0758207123E311581801E7820E2FE08E2FFBEFF05BFFF02800C0EBE00010FAB
:204374007820EEF208EFF2123972D0D0D000D001D002D003D004D005D006D007D083D0822A
:07439400D0F0D0E0D0283288
:2079CA006F76657273697A6564207061636B6574001C1F2021222324252A6E6F7202040899
:2079EA001013182030406080C0FA2727272E1601050B9A888A8C8D0303030303030303036E
:207A0A0003030303F4FA7D3F69A77D535E7D5E3F302000010201000101010101020241832D
:207A2A00060C37C406895D065D0CAA8912254A4C9C25378625864AAB0001020402010203A7
:207A4A00020202040785080E12728A0E18BB0EBBEAFF1D1D1D1E1E1E20304150505050103D
:207A6A002041839BC4080C101820314062C58912A69C314A6293C5270003060D1A1E2633E5
:207A8A004D669ACDFEFE2B2B2B2E1601050B9A888A8C8D0303030303030303030303030304
:207AAA00F4FA7D3F69A77D535E7D5E3F30200001020100010101010102024183060C37C48C
:207ACA0006895D065D0CAA8912254A4C9C25378625864AAB0001020402010203020202040A
:207AEA000785080E12728A0E18BB0EBBEAFF1E1E1E21212121304150505050102041839B1B
:207B0A00C4080C101820314062C58912A69C314A6293C5270003060D1A1E26334D669ACDA9
:207B2A00FEFE010101010101050B9A888A8C8D03030303030303030303030303D0E8F4FA97
:207B4A00D3A77D535E7D5E3F30E0602000000001010101010202102041839BC406895D067B
:207B6A005D0CAA62C58912A69C25378625864AAB000000010101020302020204072344855D
:207B8A0008398A0E18BB0EBBEAFF1C1C1C1C1C1E20304150505050102041839BC4080C108B
:207BAA001820314062C58912A69C314A6293C5270003060D1A1E26334D669ACDFEFE0101F3
:207BCA0001010101050B9A888A8C8D03030303030303030303030303D0E8F4FAD3A77D53AB
:207BEA005E7D5E3F30E0602000000001010101010202102041839BC406895D065D0CAA62B0
:207C0A00C58912A69C25378625864AAB0000000101010203020202040723448508398A0E58
:207C2A0018BB0EBBEAFF1E1E1E1E1E1E20304150505050102041839BC4080C101820314010
:207C4A0062C58912A69C314A6293C5270003060D1A1E26334D669ACDFEFEEBE6E0DAD3CED1
:0A7C6A00C9C4BEB8B2ABA49688509E
:20439B00C028C0E0C0F0C082C083C007C006C005C004C003C002C001C000C0D075D0001044
:2043BB0098030244B7AF9930000E3001030244B78F821204E70244B78F82C007120575D054
:2043DB0007788BE22401FD08E23400FEBD0009BE04067D007E00800B788BE22401FD08E293
:2043FB003400FE788DE2B5050708E2B50602803A788BE2243BF58208E23406F583EFF078B9
:20441B008BE22401FD08E23400FEBD0009BE04067D007E00800B788BE22401FD08E234009D
:20443B00FE788BEDF208EEF2801B7826E2FD08E2FEBDFF05BEFF02800C0DBD00010E782616
:20445B00EDF208EEF2300954788B798DC3E3F5F0E295F009E3F5F008E295F0B3E433FE608A
:20447B001B788DE22400FD08E23404FE788BD3E29DF4B3FDB308E29EF4FE8015788D798B1A
:20449B00E3F5F0C3E295F0FD09E3F5F008E295F0FEC3ED9420EE94005002D282109902801D
:2044BB0061788F7991E2F5F0E3B5F00B08E2F5F009E3B5F002804930090A308307200004C9
:2044DB00D223803E7891E2243BF58208E2340AF583E0FF7891E22401FD08E23400FEBD00E8
:2044FB0009BE02067D007E00800B7891E22401FD08E23400FE7891EDF208EEF28F998002A9
:20451B00D223D0D0D000D001D002D003D004D005D006D007D083D082D0F0D0E0D028327898
:20453B008F7991E2F5F0E3B5F00A08E2F5F009E3B5F001223023030247C222AF8275A7001B
:20455B00C2AC788BE4F208F27891E4F208F2788FE4F208F27891E4F208F2D223C28EAE89FA
:20457B00740F5E4420F5898F82124B5BD28E759810C282D2AC22AF82C00712476AAD82AE9B
:20459B0083D007C3ED9401EE94005002C3228F821245B0D322AF82A2AC9240C2AC788FE2F3
:2045BB002401FD08E23400FEBD0009BE02067D007E00800B788FE22401FD08E23400FE78F1
:2045DB0091E2B5050708E2B506028044788FE2243BF58208E2340AF583EFF0788FE22401D5
:2045FB00FE08E23400FFBE0009BF02067E007F00800B788FE22401FE08E23400FF788FEE51
:20461B00F208EFF2302324C0281247C2D028801B7824E2FE08E2FFBEFF05BFFF02800C0E16
:20463B00BE00010F7824EEF208EFF2A24092AC228582178583187893E270012212476AACBD
:20465B0082AD837893E2FA7B00C3EC9AED9B501F7893ECF27824E2FC08E2FDBCFF05BDFF25
:20467B0002800C0CBC00010D7824ECF208EDF27893E2FD788FD3E29400F4B3FBB308E2944D
:20469B0002F4FC8D027F00C3EB9AEC9F5008788FE2FFC3E49FFD788FE2243BFE08E2340A3B
:2046BB00FF7C0090060BE517F0E518A3F0E4A3F090060EEDF0E4A3F08E828F838CF0C00575
:2046DB00126D54D005ED2517F517E43518F5187893E2C39DF2D22410AF02C2247F00788F42
:2046FB00E22DF208E23FF2788FC308E2940240067890E224FEF2A22492AF7893E2603E90D3
:20471B00060BE517F0E518A3F0E4A3F07893E2FE7F0090060EEEF0EFA3F0900A3B75F000D2
:20473B00C007C006126D54D006D007D22410AF02C224788FEEF208EFF2A22492AFD22410D7
:20475B00AF02C2243023031247C2A22492AF22A2AC9225C2AC788F7991C3E3F5F0E295F097
:20477B0009E3F5F008E295F0B3E433FF601B7891E22400FE08E23402FF788FD3E29EF4B36D
:20479B00FEB308E29FF4FF80157891798FE3F5F0C3E295F0FE09E3F5F008E295F0FFA22535
:2047BB0092AC8E828F832230090730830420000122C223D29922A2AC9226C2AC788B798D33
:2047DB00E2F5F0E3B5F00B08E2F5F009E3B5F002803A788DE2243BF58208E23406F583E00F
:2047FB00FF788DE22401FD08E23400FEBD0009BE04067D007E00800B788DE22401FD08E273
:20481B003400FE788DEDF208EEF280027F00300953788B798DC3E3F5F0E295F009E3F5F026
:20483B0008E295F0B3E433FE601B788DE22400FD08E23404FE788BD3E29DF4B3FDB308E2ED
:20485B009EF4FE8015788D798BE3F5F0C3E295F0FD09E3F5F008E295F0FEC3E49D74029E8A
:20487B005002C282A22692AC8F8222A2AC9227C2AC788DE2243BF58208E23406F583E0FFA1
:20489B00A22792AC8F8222A2AC9228C2AC788DE22401FE08E23400FFBE0009BF04067E0018
:2048BB007F00800B788DE22401FE08E23400FFEE243BF582EF3406F583E0FFA22892AC8FD1
:2048DB008222AF83E5829004BAF0EFA3F0A2AC9229C2AC9004BAE0FEA3E0FF788DE22EFE88
:2048FB0008E23FFF530703EE243BF582EF3406F583E0FFA22992AC8F822285821985831A56
:20491B00124A8EAC82AD837894E2FA7B00C3EC9AED9B5002C3227895EAF208EBF2788DD323
:20493B00E29400F4B3FAB308E29404F4FB7895C3E2F5F0EA95F008E2F5F0EB95F050137801
:20495B008D7995D3E29400F4B3F3B308E29404F409F3AA19AB1A7F00788DE2243BFD08E265
:20497B003406FE90060BEDF0EEA3F0E4A3F0789590060EE2F008E2A3F08A828B838FF012C3
:20499B006D547895E2FC7894E2C39CF27895E22519F51908E2351AF51AD22A10AF02C22AE5
:2049BB00788D7995E3C5F0E225F0F209E3C5F008E235F0F2788DC308E294044006788EE22E
:2049DB0024FCF2A22A92AF7894E26044AD19AE1A7F0090060B743BF07406A3F0E4A3F078C2
:2049FB0094E2FB7C0090060EEBF0ECA3F08D828E838FF0C004C003126D54D003D004D22A15
:204A1B0010AF02C22A788DEBF208ECF2A22A92AFD22A10AF02C22A300953788B798DC3E315
:204A3B00F5F0E295F009E3F5F008E295F0B3E433FF601B788DE22400FE08E23404FF788B5E
:204A5B00D3E29EF4B3FEB308E29FF4FF8015788D798BE3F5F0C3E295F0FE09E3F5F008E2CB
:204A7B0095F0FFC3E49E74029F5002C282A22A92AFD322A2AC922BC2AC788B798DC3E3F588
:204A9B00F0E295F009E3F5F008E295F0B3E433FF6017788B798DE3F5F0C3E295F0FE09E33F
:204ABB00F5F008E295F0FF8019788DD3E29400F4B3FCB308E29404F4FD788BE22CFE08E2DF
:204ADB003DFFA22B92AC8E828F8322124A8EAE82AF83E4C39EFE74049FC423CEC423541F7B
:204AFB006ECE541FCE6ECEFF900615EEF0EFA3F0900064126E2CAE82E583A2E7CE33CE3315
:204B1B00CE54018E8222AF82BF0A0A75820DC0071245B0D0078F820245B0AF827E00BE09FA
:204B3B0000501BEE75F003A42474F582747C35F0F583E493FDEFB50502D3220E80E0C322F2
:204B5B00AF82C007124B35D00740027F397E00BE0900501BEE75F003A42474F582747C3501
:204B7B00F0F583E493FDEFB5050280030E80E0EE75F003A42474FD747C35F0FE8D828E83E0
:204B9B00A3E493F58DAC8E5304F48D828E83A3A3E4934CF58E900621EFF0E4A3F0E4A3F0A9
:0F4BBB00E4A3F090007DE4F5F0126F4902235758
:1B7C7400012C02029602042C0009960013600126B001392B08739608E6CB08DC
:207D9C000000000000000000000000000000000000000000000000000000000000000000C7
:207DBC000000000000000000000000000000000000000000000000000000000000000000A7
:207DDC00000000000000000000000000000000000000000000000000000000000000000087
:207DFC00000000000000000000000000000000000000000000000000000000000000000067
:204BCA007F0078D8E224FFFD08E234FFFE8F037C00C3EB9DEC9E4003024C88BF08004003D9
:204BEA00024C887865E2B5030808E2B50403024C84EF75F002A4FDAEF0C007ED242AF55200
:204C0A00EE3401F553855282855383A3E0FF8F547555007865E2FA08E2CA25E0CA33FFEAE4
:204C2A00241AFAEF3401FF8A828F83A3E0FF8F56755700855282855383E0FF7A00ED241A86
:204C4A00F582EE3401F583E0FE7D00C007C054C055C056C057C007C002C006C005C003C029
:204C6A0004748FC0E0747CC0E07480C0E01235BAE58124F3F581D007D0070F024BCC78B16C
:204C8A00E2FE7F00C007C0061241A3AC82AD83D006D007782AE2F55608E2F5577828E2F5A1
:204CAA005408E2F5557826E2F55208E2F5537824E2F55808E2F5597820E2F55A08E2F55B63
:204CCA007822E2FA08E2FBC006C007C004C005C056C057C054C055C052C053C058C059C0ED
:204CEA005AC05BC002C00378BCE2C0E008E2C0E07865E2C0E008E2C0E074B7C0E0747CC00C
:204D0A00E07480C0E01235BAE58124E9F58178BCE4F208F22278BBE254016003024BCA22FF
:204D2A00AF827E0078AC900615E2F008E2A3F08F828E83126E2CAE82AF8378AAE22EFE0834
:204D4A00E23F8E82F58322AE82AF8378AEC3E29E08E29F500878AEE4F208F2800A78AEE24A
:204D6A00C39EF208E29FF2789EC3E2F5F0EE95F008E2F5F0EF95F050030250537898C30832
:204D8A00E29480400B7865E2F5F008E245F0706F7898E2FC08E2FD789874012CF2E43D0885
:204DAA00F278D8900625E2F008E2A3F08C828D83C007C006126FB5AC82AD83D006D0077839
:204DCA0065E2B5040708E2B50502800280317897E4F278D8900625E2F008E2A3F07898E2B8
:204DEA00F58208E2F583C007C006126FB5E5828583F0D006D0077898F208E5F0F2804F78E9
:204E0A0098C308E29480504178D8900625E2F008E2A3F0900001C007C006126FB5AC82AD15
:204E2A0083D006D0077898E2C39CFC08E29DFD78D8E224FFFA08E234FFFBECB5020BEDB5B0
:204E4A00030778977402F2800578977401F2789ED3E29EF4B3FEB308E29FF4FF7897E2B4EA
:204E6A00021078A2E2FC08E2FD789EECF208EDF2801978A0E2FC08E2FD789EECF208EDF20B
:204E8A00C007C006120FCDD006D007C007C006123972D006D007781CC3E2F5F0740195F0D1
:204EAA00500C78B5E4F208F278B9E4F208F27897E2600302504AC006C00778B0E2FC7D008E
:204ECA0078B1E2F55C755D00ECC3955CFEED955DFFBE640ABF0007D007D00602504AD0070C
:204EEA00D006C006C007C007C006C005C004C04EC04FC050C05190333375F073743F126AF4
:204F0A009E85825E85835F85F060F561E58124FCF581D004D005D006D00778B2E2F5820815
:204F2A00E2F583C005C004127271AA82AB83AEF0FFD004D005C007C006C005C004C002C057
:204F4A0003C006C00790000075F0A07440126A9E85826285836385F064F565E58124FCF5D2
:204F6A0081D004D005D006D00778A579A0E3C5F0E225F0FE09E3C5F008E235F0CE25E0CE3C
:204F8A0033FF8E828F83C005C004127271AA82AB83AEF0FFC002C003C006C007856282853E
:204FAA0063838564F0E565127395AA82AB83AEF0FFE58124FCF581D004D005C007C006C0DB
:204FCA0005C004C002C003C006C007855E82855F838560F0E56112713885824E85834F8519
:204FEA00F050F551E58124FCF581D004D005D006D00778B2E4F208F2ECC3955CFCED955D5A
:20500A00FD8C828D83127264AC82AD83AEF0FFC007C006C004C005C006C007854E82854FBC
:20502A00838550F0E551126DFCE58124FCF581D006D007E58224FF9235B39233D007D0064E
:20504A0078AEE4F208F2024D717897E2B40210C007C006120FA7123A73D006D007800EC0CA
:20506A0007C006120F97123A73D006D007789EE2C39EF208E29FF222AF827897E2B4022451
:20508A00EF70217865E2F5F008E245F0700475820122786579A7E24400F308E2448009F375
:2050AA00758200227897E270030252AC102D00EF60030251417898E2F5F008E245F06046AA
:2050CA0078A7E254FFFE08E2547FFF7898E224FFFC08E234FFFD78D8E224FFFA08E234FF21
:2050EA00FB900625EAF0EBA3F08C828D83C007C006126FB5AC82AD83D006D007EEB50406FF
:20510A00EFB5050280297898E2F5F008E245F0702278A7E254FFFE08E2547FFF78D8E22445
:20512A00FEFC08E234FFFDEEB50408EFB50504758201227582002278DAE2700302529A78B5
:20514A00A7E254FFFE08E2547FFF78C3E2FC08E2FDEEB50406EFB505028002D22F78A7C3F2
:20516A0008E29480507978A7E22401FE08E23400FF78D8E224FFFA08E234FFFB900625EA11
:20518A00F0EBA3F08E828F83C005C004126FB5AE82AF83D004D005ECB50644EDB50740785F
:2051AA00A7ECF208EDF2126B41AE82AF8378AAE2FA08E2CA25E0CA33FB900625EAF0EBA387
:2051CA00F08E828F83126FB5AE82AF8378AAE22EFE08E23FFF78AEEEF208EFF202526778A1
:2051EA00A7ECF274804D08F27865900615E22401F008E23400A3F078AAE2F58208E2F583D8
:20520A00126E2CAE82AF83C007C006126B41AC82AD837865900615E22402F008E23400A38C
:20522A00F078AAE2F58208E2F583C005C004126E2CAA82AB83D004D005900625EAF0EBA33C
:20524A00F08C828D83126FB5AC82AD83D006D007EC2EFEED3FFF78AEEEF208EFF278AAE2BF
:20526A00FE08E2CE25E0CE33CE25E0CE33FF900625EEF0EFA3F078AEE2F58208E2F5831287
:20528A006FB5E5828583F078AEF208E5F0F2800E786579A7E24400F308E2448009F3758255
:2052AA0000227897E2705A302D0C78A7E4F2087480F275820022302E10786579A7E2440011
:2052CA00F308E2448009F3800E7865E2FE08E2FF78A7EEF208EFF2102F02802178AA900671
:2052EA0015E2F008E2A3F0900006126E2CE5828583F078AEF208E5F0F275820022758201A7
:20530A002275820122123D99E582FF24EB400578B1E4F2221241A3E5828583F0249CFEE58C
:20532A00F034FFFFC3E49EE464808FF063F08095F0E433FD700C78B1E2600778B1E214F24A
:20534A008039C3740A9EE464808FF063F08095F0500878B1E2240AF28021C374059EE464C6
:20536A00808FF063F08095F0500878B1E22405F28009ED600678B1E22401F278B0E2FE7FC9
:20538A000078B1E2FC7D00EEC39CFEEF9DFFC3EE9414EF64809480500878B079B1E224ECCD
:2053AA00F3227865E2F5F008E245F0600330310E9005B8E4F0C231D206121001800790050E
:2053CA00B8E02401F09005B8E0FFBF06005004D295804778A9E4F2A2309295B2307898744D
:2053EA00FFF20874FFF2900608E4F09006097410F0E4A3F090012A75F000126D2C900608E0
:20540A00E4F09006097410F0E4A3F090011A75F000126D2C78BCE4F208F29005B8E075F0D3
:20542A000584AFF0BF0413303205120FCD800BC206121001120FA7123A7378BEE4F208F20C
:20544A00302C077814E2FF78BBF2B22C9005B9E02401F09005B9E0FFBF040812530F90052B
:20546A00B9E4F022AE82AF8390000175F060C007C00612737DE5828583F02401FCE435F0A3
:20548A00FD90060B7401F07400A3F07460A3F090060EECF0EDA3F09000C775F060126D54A2
:2054AA00D006D00778C5EEF208EFF2D23422AF82BF02004017EF24EF40129004BCE0FEBE7E
:2054CA00520A9004BDE0FEBE540280237E00C3EE9F501BEE24BCF582E43404F583E0F58217
:2054EA00C007C006124B21D006D0070E80E02278C379C5E2F308E209F390060B74BCF074F1
:20550A0004A3F0E4A3F090060EEFF0E4A3F090000175F060C007126D54D007EF2401F8E4C2
:20552A00F278017441F27812EFF2BF04197803E2FFBF49127804E2FFBF350B78C07401F297
:20554A0075820002241E02244B1266B2AE82AF8378DBEEF208EFF278FF762A78FFB62A027D
:20556A00801DC007C00674FBC0E0747CC0E07480C0E012108C158115811581D006D007782F
:20558A0000E2B44102801DC007C0067408C0E0747DC0E07480C0E012108C1581158115814D
:2055AA00D006D007C007C006120747D006D00778BBE2600FC007C006124D1FD006D00778E6
:2055CA00BBE4F2300F1790013AE0FB601020000DC20FC007C006121ACFD006D007C007C00A
:2055EA00061266B278DEE582F208E583F2787374BCF2087404F29000DD75F0601235D4D0C4
:20560A0006D007400302592478AEE4F208F278DDE2B40400502A78DDE2FC7D00C007C00645
:20562A00C004C005741EC0E0747DC0E07480C0E01235BAE58124FBF581D006D0070255651B
:20564A007897E2700AD22D78A7E4F2087480F278DDE224BCFCE43404FDEC24FCFCED34FF9F
:20566A00FD90060BECF0EDA3F0E4A3F090060E7404F0E4A3F09000C175F060C007C0061277
:20568A006D54D006D00778DDE214141414F278C3E2F56608E2F56730E73B78A9E2B4FF0053
:2056AA0050117898E2F5F008E245F0700678A9E22401F27898E4F208F278C3E2FC08E2FD19
:2056CA0053057F8C82C007C006120FC3D006D007D23102556530323F78C2E220E63978A9E1
:2056EA00E2B4FF00501E74012566FCE43567FD7898E2B5040708E2B505028002800678A9A3
:20570A00E22401F278C3E2FC08E2FD789874012CF2E43D08F2D23178C3E2FC08E2FDC3EC16
:20572A009408ED9400507CC006C007EDCC25E0CC33FDEC241AFCED3401FDC006C005C0049B
:20574A001236CBAF82D004D005D0067E0078C3E2FA08E2CA25E0CA33FBEA241AF582EB3478
:20576A0001F583E0900615F0E4A3F0900007C007C006C005C004126E2CAA82AB83D004D05D
:20578A0005D006D007EA2FFAEB3EC423CAC423541F6ACA541FCA6ACAFB8C828D83EAF0D09E
:2057AA0007D00678BCE22401F208E23400F278C1E2FC08E2541FFD4C600302586D78DDE2A7
:2057CA00700302586D78DDE2B40402800302585F78C3E2FC08E2FDC3EC9408ED94005075C7
:2057EA00C006C00778DDE21414F278DDE224BCFAE43404FB7F008A828B838FF0127458FAA9
:20580A00A3127458FB7865E2B5020708E2B503028006D007D006803DD007D006EDCC25E086
:20582A00CC33FDEC242AFCED3401FD7B0090060B74BCF07404A3F0E4A3F078DD90060EE274
:20584A00F0E4A3F08C828D838BF0C007C006126D54D006D00778BCE224FFF208E234FFF2F7
:20586A0002556578C1E2FC08E2541FFD4C700302556578C1E2FC08E2541FFD789EECF20809
:20588A00EDF278DD79DAE2700474018001E4F375820112508278DEE2FE08E2FF78C2E2C479
:2058AA00035401FDBD012278DDC3E2F5F0740195F0400302556578DDE2F582C007C0061284
:2058CA0054B8D006D00702556578DDE2700302556578C2E223540124FF9210784F74BCF2A1
:2058EA00087404F278DDE2F582C007C00612239ED006D0075003025565300003025565D2A1
:20590A009678DD7993E2F39004BCC007C00612464BD006D007C296025565C007C00612666B
:20592A00B278DEE582F208E583F2D006D00778DEE2C39EFC08E29FFD8C828D83C005C0042B
:20594A00124D51D004D00578DEE2FE08E2FF78A079A5E3F5F0C3E295F0FA09E3F5F008E2E8
:20596A0095F0FB789EC3E2F5F0EA95F008E2F5F0EB95F050030255657897E2B4022A78A255
:20598A0079A5E3F5F0C3E295F0FA09E3F5F008E295F0FB789EC3E2F5F0EA95F008E2F5F0DA
:2059AA00EB95F05003025565C006C00778DE79DBE3F5F0C3E295F0FA09E3F5F008E295F0FB
:2059CA00FB7E007F00C3E49A74809BE49EE464808FF063F08095F0D007D006501DC007C033
:2059EA0006C005C0041253ACD004D005D006D00778DE79DBE2F308E209F378B4E2700302BF
:205A0A005A96C007C006C005C0041236D1AB82D004D005D006D00778B4C3E2F5F0EB95F0B4
:205A2A00500B78B5E22CF208E23DF2803E78B5E4F208F278B9E2F5F008E245F0702DC00785
:205A4A00C006126B41AC82AD8378B7900625E2F008E2A3F08C828D83126FB5E5828583F06E
:205A6A00D006D00778B9F208E5F0F278B779B9E3C5F0E225F0FC09E3C5F008E235F0FD786C
:205A8A00B5C3E29C08E29D500302556578DAE4F2758200C007C006125082E582D006D007CC
:205AAA00700302556578AEE2F5F008E245F06003025565C007C0061236B4D006D007400DFF
:205ACA00C007C00612369BD006D007502378AAE2FC08E2FD78AEECF208EDF27897E2600306
:205AEA00025565D22D78A7E4F2087480F20255657865E2F5F008E245F0600B78A9E2B41449
:205B0A00005003025565C006C0077865E2FC08E2CC25E0CC33FDEC241AFCED3401FD0CBC60
:205B2A0000010DC007C006C005C0041236D1AB82D004D005D006D0077A007865E2FE08E27A
:205B4A00CE25E0CE33FFEE241AFEEF3401FF8E828F83A3E0900615F0E4A3F0900003C0050C
:205B6A00C004C003C002126E2CAE82AF83D002D003D004D005EE2BFEEF3AC313CE13CEC3EE
:205B8A0013CE13CE8C828D83EEF0D007D006303303025565789E79AAC3E3F5F0E295F0093A
:205BAA00E3F5F008E295F05003025565789EE2FC08E2FD78AAE2FA08E2CA25E0CA33FBEC1F
:205BCA00C39AFCED9BFD30E7047D00803678AAE2FB08E2CB25E0CB33FC789EE2C39BFB0883
:205BEA00E29CFC78AC9005BAE2F008E2A3F08B828C83C007C00612670FAB82AC83D006D02C
:205C0A00078B05BD05005003025565ED24FBFD78A4C3E29D500478A4E2FDC007C006C0050A
:205C2A00124A8EE5828583F0D005D006D00745F06044302F417897E2B4013B78A0E2FB0838
:205C4A00E2C313CB13CBC313CB13CBFC789EC3E29B08E29C50030255659004BC74FFF07848
:205C6A00DD7401F278C2E24420F2789C74FFF20874FFF2025D6D7897E2B40203025D692020
:205C8A003403025D0CC006C0079000C775F060C007C006C00512737DAB82AC83D005D00654
:205CAA00D0078D027F00C3EA9BEF9CD007D00640519000C775F060C007C006C00512737D74
:205CCA00AB8278DDEBF290060B74C7F0E4A3F07460A3F090060EEBF0E4A3F09004BC75F006
:205CEA0000126D54D005D006D00778C2E24420F278C5E2FB08E2FC789CEBF208ECF2C23406
:205D0A008061784D74BCF2087404F28D82C007C006C005121EA6E58278DDF2122347D00509
:205D2A00D006D0079236E433FC78C213E292E5F278C2E230E52D78C5E2FB08E2FC789CEBDC
:205D4A00F208ECF278C0E2FC78C004F28C82C007C006C00512241ED005D006D007800478EB
:205D6A00DDE4F278DD79A4C3E2F5F0E395F05021C007C006C0057433C0E0747DC0E0748073
:205D8A00C0E012108C158115811581D005D006D0077897E2B40103D38001C39236E4337850
:205DAA00C213E292E6F2C007C006C005122344D005D006D0079236E433FC78C213E292E7E8
:205DCA00F27897E26003025F2F78DDE26003025F2FBD12005003025F2F78D8E224FFFC08AE
:205DEA00E234FFFD78BEC3E29C08E29D4003025F2F7865C3E2940808E294004003025F2F47
:205E0A0078AAE2FC08E2CC25E0CC33FD78A0E2C39CFC08E29DFD789EC3E29C08E29D4003C7
:205E2A00025F2F78BE7965E2F5F0E3B5F00B08E2F5F009E3B5F0028002800B78BEE22401AE
:205E4A00F208E23400F278DD7402F278BEE2FC08E2CC25E0CC33FDEC241AFCED3401FD0C5D
:205E6A00BC00010D7865E2FA08E2CA25E0CA33FBEA241AFAEB3401FB8A828B83A3E08C82FC
:205E8A008D83F078BEE2FC08E2CC25E0CC33FDEC241AFCED3401FD90060BECF0EDA3F0E407
:205EAA00A3F090060E7402F0E4A3F09004BC75F000C007C006126D5490060B74BEF0E4A365
:205ECA00F07460A3F090060E7402F0E4A3F09004BE75F000126D54D006D00778DD7404F2EA
:205EEA0078BEE22401F208E23400F278BE7965E2F5F0E3B5F00B08E2F5F009E3B5F0028009
:205F0A0002800B78BEE22401F208E23400F278C1E4F208E254E0F278C2E2547FF278C2E28F
:205F2A0054DFF280537897E2601E78DDE270197897E2B4020280030255657865E2F5F0089C
:205F4A00E245F0600302556578DDE22404F582C007C006124D2AAC82AD83D006D007789EF4
:205F6A00E2C39CFC08E29DFD78C1ECF208ED541FF5F0E254E045F0F27897E2B4022678650B
:205F8A00E2F5F008E245F0701BC007C006120FBDAD82D006D0077C0043048078C3EDF208DA
:205FAA00ECF2800A78C37965E3F20809E3F278DDE224BCFCE43404FD7B0090060B74C1F02E
:205FCA00E4A3F07460A3F090060E7404F0E4A3F08C828D838BF0C007C006126D54D006D0B7
:205FEA000778C2E220E52C78DDE2601E78C1E2FC08E2541FFD4C6012D296789AE2FC08E21D
:20600A00FD789CECF208EDF28009789C74FFF20874FFF27897E2700F78DDE27006D22FD241
:20602A002E8010C22E800C7897E2B4010678A8E2547FF2302F217897E2B4011BC22F78AA55
:20604A0079AEE2F308E2F5F0E325E0C5F033C5F0F309E5F0F3800E78AAE2FC08E2FD78AE87
:20606A00ECF208EDF278B0E2FC7D0078B1E2FA7B00ECC39AFCED9BFDBC6405BD0002801F01
:20608A0078DDE22404F582C007C006124D2AAC82AD83D006D00778B2E22CF208E23DF27844
:2060AA00DDE22404FD787B74BCF2087404F2789C9004B0E2F008E2A3F0789E797DE2F308DB
:2060CA00E209F38D82C007C006123916D006D007401078DDE2600BC007C00612234AD0065A
:2060EA00D00778B4E2600C78B5E4F208F278B9E4F208F2C007C006120F97123A7312397286
:20610A00D006D00778DDE2700302556578C1E2FC08E2541FFD4C7003025565C29602556562
:20612A00A23122AE82AF8378D874012EF2E43F08F222AE82AF83789AEEF208EFF222E58214
:20614A0024FF9232221236D7AF82900621EFF0E4A3F0E4A3F0E4A3F09003E8E4F5F0126F1C
:20616A0049AC82AD83AEF0FF9005FCECF0EDA3F0EEA3F0EFA3F090120075F07AE4126BEB14
:20618A00AC82AD83AEF0FF74082CF568E43DF569E43EF56AE43FF56BAA68E569C4CAC4546C
:2061AA000F6ACA540FCA6ACAFBE56AC454F04BFBAE6AE56BC4CEC4540F6ECE540FCE6ECECF
:2061CA0078ACEAF208EBF2900621EAF0EBA3F0E4A3F0E4A3F0902710E4F5F0C003C00212AC
:2061EA006F4985826C85836D85F06EF56F900621E568F0E569A3F0E56AA3F0E56BA3F09084
:20620A000271E4F5F0126F49AC82AD83AEF0FFD002D003C3E56C9CE56D9DE56E9EE56F9F4B
:20622A00500A78AC74012AF2E43B08F278AC900615E2F008E2A3F090000D126E2CE58285D9
:20624A0083F078AA240DF2E435F008F230073478A47474F278ADE2F5F018E225E0C5F03345
:20626A00C5F0F208E5F0F278ACE2FE08E2CE25E0CE33CE25E0CE33FF78AAE22EF208E23FBC
:20628A00F2800578A474F8F278AAE2F56808E2C56825E0C56833F56978A5E568F208E56916
:2062AA00F278AC900621E2F008E2A3F0E4A3F0E4A3F078A4E2FA7B007C007D008A828B8344
:2062CA008CF0ED126F4985826C85836D85F06EF56F78AAE2F57008E2F571E4F572F573E501
:2062EA0070256CFCE571356DFDE572356EFEE573356FFFEC2CF56CED33F56DEE33F56EEF41
:20630A0033F56FAA68AB69E4FEFFEA256CFAEB356DFBEE356EFEEF356FFFE5702AFCE571E6
:20632A003BFDE5723EFEE5733FFF78B4E2603578B77438F2087401F2785674A8F2087403B8
:20634A00F208E4F208F2785AECF208EDF208EEF208EFF28C828D838EF0EF122C91AC82ADCC
:20636A0083AEF0FFC374FF9C741F9DE49EE49F50087CFF7D1F7E007F00C3EC94A8ED9461B3
:20638A00EE9400EF940040087CA87D617E007F0078A0ECF208EDF278ACE2F57008E2F5710F
:2063AA00E4F572F573E5702570F570E57133F571E57233F572E57333F573E5702570F570AF
:2063CA00E57133F571E57233F572E57333F57378AAE2F56C08E2F56DE4F56EF56FE56C250E
:2063EA0070F570E56D3571F571E56E3572F572E56F3573F573E5702570F570E57133F5715D
:20640A00E57233F572E57333F573E5702570F570E57133F571E57233F572E57333F57378F4
:20642A00A5E2F56808E2F569E4F56AF56BE5682570F570E5693571F571E56A3572F572E5A0
:20644A006B3573F573E56C2570FCE56D3571FDE56E3572E56F357378A2ECF208EDF2787221
:20646A00E27E0024F6FFEE34FFFE9006327402F0E4A3F08F828E83127191AE82AF8378AC19
:20648A00900615E2F008E2A3F08E828F83126E2CAE82AF8378AAE22EF208E23FF278A079F8
:2064AA00AAE3F5F0C3E295F0FE09E3F5F008E295F0FF78AC9005BAE2F008E2A3F08E828F98
:2064CA008312670FAE82AF8378A4E2FC7D00C3EC9EED9F50048C068D078E8212234D78C3AE
:2064EA0074FFF20874FFF2789874FFF20874FFF2900608E4F09006097410F0E4A3F0900151
:20650A002A75F000126D2C900608E4F09006097410F0E4A3F090011A75F000126D2C78C048
:20652A007413F29005B87406F0C295C22D2278A5E2C0E008E2C0E07865E2C0E008E2C0E0A7
