:0A04D20078007441F278057464F2BA
:2004E700AF828F06BE08028021BE0D028005BE7F36801775820A124B757801E224BEF582E3
:20050700E43400F583E4F0D201227801E2606A758208124B75758220124B75758208124B40
:20052700757801E214F2227801E2B4100050448F82C007C0061272D9E582D006D007603961
:200547008F82C007C0061272A7E582D006D00760055306DF80028F068E077801E2FE78019C
:2005670004F2EE24BEF582E43400F583EFF08F82024B75C2007801E4F222AF82BF2B028025
:20058700047804E4F27804C3E2F5F0740495F0402C7804E275F003A49005A3730205C802A9
:2005A70005B20205B20205B90205C87804E22401F22278047404F278057464F2227804E4EF
:2005C700F278057464F2227805E2603B7805E214F27805E270317804E260087804E2B4047E
:2005E70026800678047401F222D2007804E4F29000BE7441F09000BF7454F09000C0E4F001
:2006070078017402F2D20122E5812404F5817C007D007E007F007802E224BEF582E4340036
:20062700F583E0FBF582C007C006C005C004C003126E24E582D003D004D005D006D007607C
:200647006D900624ECF0EDA3F0EEA3F0EFA3F090000AE4F5F0C003126FA5AF82AE83ADF0C2
:20066700FCD0038B027B00EA24D0FAEB34FFFBE58124FDF8A60208A603EB3395E008F6083A
:20068700F6E58124FDF8E62FF608E63EF608E63DF608E63CF6E58124FDF8860408860508CC
:2006A70086060886077802E22401F202061D8C828D838EF0EFC8E58124FCF581C822200120
:2006C70001227801E2B40200E433FF600302074E9000BEE0FEBE526F9000BFE0FEBE5467BE
:2006E70078027403F278017902C3E2F5F0E395F0501B7802E224BEF582E43400F583E0FE9C
:20070700BE2C0280087802E22401F280D87802E224BEF582E43400F583E0FEBE2C1C7802F0
:20072700E2FE780204F2EE24BEF582E43400F583E4F012060F1254C2800690FFFF1254C22C
:200747007801E4F2C20122EF70699000BEE0FFBF41619000BFE0FFBF54599000C0E0FF60DF
:2007670023BF26028023BF2B028023BF49028023BF4F028028BF5002801EBF53028027BFA8
:200787005A2E80271207C1802A120A0F8025120C5280201207FF801B120AEA80167805747F
:2007A70064F2C200800D12097E800843EF1080FE1207E07801E4F2C201227854E2C0E00829
:2007C700E2C0E07457C0E07475C0E07480C0E01235C2E58124FBF581227854E2C0E008E2AA
:2007E700C0E07460C0E07475C0E07480C0E01235C2E58124FBF581229000C1E0FF6037BF15
:2008070030028032BF31028058BF3203020893BF33030208B9BF34030208E2BF35030209F6
:200827000BBF360302091DBF3703020920BF380302092302097B74F2C0E07477C0E074802F
:20084700C0E07854E2C0E008E2C0E0746CC0E07475C0E07480C0E01235C2E58124F8F5817B
:20086700227408C0E07478C0E07480C0E07854E2C0E008E2C0E0746CC0E07475C0E074803E
:20088700C0E01235C2E58124F8F581227443C0E0E4C0E07854E2C0E008E2C0E07475C0E052
:2008A7007475C0E07480C0E01235C2E58124F9F58122780DE2FE7F00C006C0077854E2C011
:2008C700E008E2C0E07475C0E07475C0E07480C0E01235C2E58124F9F58122780EE2FE7FF8
:2008E70000C006C0077854E2C0E008E2C0E07475C0E07475C0E07480C0E01235C2E5812453
:20090700F9F581227F008F82C007122BDFD0070FBF130040F122026594024C1E7854E2F5B7
:20092700F008E245F070207854E2C0E008E2C0E0747EC0E07475C0E07480C0E01235C2E59C
:200947008124FBF581802C1261869202E433FE7F00C006C0077854E2C0E008E2C0E0748F45
:20096700C0E07475C0E07480C0E01235C2E58124F9F581220207E078027403F212060FACF0
:2009870082AD83AEF0FFBC130040030207E07802E224BEF582E43400F583E0FFBF3D028064
:2009A70036BF3F618C821227C0AB82AD83AEF0FFC003C005C006C0077854E2C0E008E2C08D
:2009C700E0749EC0E07475C0E07480C0E01235C2E58124F7F58122EC602B7802E22401F255
:2009E700C00412060FAB82AD83AEF0FFD0047841EBF208EDF208EEF208EFF28C821225CED6
:200A070050030207C10207E09000C1E0FFBF46028012BF54028053BF55028014BF570280D6
:200A270009020AE7122AAD0207C1122A440207C190061A74A8F07475A3F07480A3F0900067
:200A4700C275F000126EA8E5828583F045F0701775B7A575B7F1758F0390F7FE74FFF075D3
:200A67008F0043EF1080FE0207E090061A74AEF07475A3F07480A3F09000C275F000126E3B
:200A8700A8E5828583F045F070057803E4F22290061A74AFF07475A3F07480A3F09000C213
:200AA70075F000126EA8E5828583F045F070077803E26401F22290061A74B5F07475A3F07C
:200AC7007480A3F09000C275F000126EA8E5828583F045F070077803E26402F2220207E0DE
:200AE7000207E09000C1E0FFBF50028003020B957F008F057E00C007C005C0067854E2C04F
:200B0700E008E2C0E074BAC0E07475C0E07480C0E01235C2E58124F9F581D0078F82C007C8
:200B2700123092D007501BC00774C7C0E07475C0E07480C0E01235C2158115811581D00737
:200B47008019C00774CFC0E07475C0E07480C0E01235C2158115811581D0078F82C00712A2
:200B670031F69203E433FD7E00C005C00674D7C0E07475C0E07480C0E01235C2E58124FBFF
:200B8700F581D0070FBF06005003020AF9229000C2E0FFBF3D0D9000C3E0F582126E24E546
:200BA7008270030207E09000C3E024D0FF9000C1E0FEBE4302805EBE49028016BE4F0280EC
:200BC70008BE52028015020C4CD2128F82122E6D8076C2128F82122E6D806D8F82C0071204
:200BE7003092D007402C8F82123215AE827D00C006C0057854E2C0E008E2C0E074E0C0E07B
:200C07007475C0E07480C0E01235C2E58124F9F581220207E09000C5E0F582C007126E248C
:200C2700E582D007601C9000C5E0FE3395E0FDEE24D0FEED34FF4E24FF92148F821230B001
:200C470040060207E00207E00207C178027404F212060FAC82AD83AEF09000C1E0FFBF4174
:200C670003020D6DBF43028053BF4C03020D5FBF50028003020DB59000C2E0FFBF3D028094
:200C870003020DB578027405F212060F7806C0E0E582F208E583F208E5F0F2D0E008F278B0
:200CA70006E254FFFA08E2540008E2540008E254008AFC7582011242080207C17802E2241A
:200CC700BEF582E43400F583E0FFBF3D028041BF3F028003020DB58C82122D55AF82780612
:200CE700EFF208E4F208F208F27806E2C0E008E2C0E008E2C0E008E2C0E074EDC0E07475B2
:200D0700C0E07480C0E01235C2E58124F9F581227802E22401F2C00412060F7806C0E0E513
:200D270082F208E583F208E5F0F2D0E008F2D0047806E254FFFB08E2540008E2540008E275
:200D47005400C0038C82122D0B1581920450051207C180030207E022122DA150051207C125
:200D670080030207E0229000C2E0FFBF3D4078027405F212060F7806C0E0E582F208E5837E
:200D8700F208E5F0F2D0E008F27806E2B4010C08E2700808E2700408E26002800875820233
:110DA70012420880067582031242080207C10207E050
:207557005B25755D204F4B0A005B25755D204552524F520A005B25755D2025730A005B2564
:20757700755D2025750A005B25755D2053796E633A20426173650A005B25755D2053796EC4
:20759700633A2025750A005B25755D20256C750A00504441544500003D52535349003D5474
:2075B700444D005B25755D2050696E3A256420004F75747075742000496E707574202000A6
:1B75D70056616C3A2025750A005B25755D2076616C3A25750A00256C750A00D5
:200DB800AF827E007D00AB08AC098F021FEA603B8B828C83E0FAA3AB82AC83ED2DF9ED302D
:200DD800E714890009E89076F2936EFDE99076F293F86AFE80D4890009E89075F293F86EFE
:1B0DF800FDE99075F293F96AFE80BF8D07E4FDFCEE4205EC42078D828F8322B2
:2075F2000000102120423063408450A560C670E781089129A14AB16BC18CD1ADE1CEF1EF79
:20761200123102103273225252B5429472F762D693398318B37BA35AD3BDC39CF3FFE3DE38
:20763200246234430420140164E674C744A45485A56AB54B85289509E5EEF5CFC5ACD58DF8
:20765200365326721611063076D766F6569546B4B75BA77A97198738F7DFE7FED79DC7BCB8
:2076720048C458E5688678A70840186128023823C9CCD9EDE98EF9AF89489969A90AB92B78
:207692005AF54AD47AB76A961A710A503A332A12DBFDCBDCFBBFEB9E9B798B58BB3BAB1A38
:2076B2006CA67C874CE45CC52C223C030C601C41EDAEFD8FCDECDDCDAD2ABD0B8D689D49F8
:2076D2007E976EB65ED54EF43E132E321E510E70FF9FEFBEDFDDCFFCBF1BAF3A9F598F78B8
:2076F200918881A9B1CAA1EBD10CC12DF14EE16F108000A130C220E3500440257046606778
:2077120083B99398A3FBB3DAC33DD31CE37FF35E02B1129022F332D2423552146277725637
:20773200B5EAA5CB95A88589F56EE54FD52CC50D34E224C314A004817466644754244405F7
:20775200A7DBB7FA879997B8E75FF77EC71DD73C26D336F2069116B06657767646155634B7
:20777200D94CC96DF90EE92F99C889E9B98AA9AB584448657806682718C008E1388228A377
:20779200CB7DDB5CEB3FFB1E8BF99BD8ABBBBB9A4A755A546A377A160AF11AD02AB33A9237
:2077B200FD2EED0FDD6CCD4DBDAAAD8B9DE88DC97C266C075C644C453CA22C831CE00CC1F7
:2077D200EF1FFF3ECF5DDF7CAF9BBFBA8FD99FF86E177E364E555E742E933EB20ED11EF0B7
:200E130075B7A575B7F122D310AF01C3C0D0120E13758F0790000074FFF0758F00D0D09262
:200E3300AF22D310AF01C3C0D0AE82AF83758F048E828F83E493FF758F008F82D0D092AFF0
:200E530022D310AF01C3C0D0AE82AF83C007C006120E13D006D007758F058E828F83780AFB
:0A0E7300E2F0758F00D0D092AF229C
:02F7FE003DC20A
:200E7D00AF83E582900102F0EFA3F0900102E0FEA3E0FF900101E0FD7C008D027B001ABAFB
:200E9D00FF011B8C007900C3E89AE964808BF063F08095F05046C007C006C005C004126B07
:200EBD009DAA82D004D005D006D0078DF0EA84E5F02EFAE43FFB8A828B83E0F50AC005EC46
:200EDD002EF8E43FFD88828D83E0F98A828B83F088828D83E50AF00CD005809E22AF83E581
:200EFD0082900104F0EFA3F07F00780BC3E2F5F0EF95F0500FEF24CFF582E43400F583EF15
:200F1D00F00F80E6900104E0FEA3E0FF8E828F83126BF7780BE2FF7E008F047D001CBCFFFB
:200F3D00011D8E027B00C3EA9CEB64808DF063F08095F05042C007C006126B9DAC82D00641
:200F5D00D0078FF0EC84E5F024CFFCE43400FD8C828D83E0F50BC007EE24CFFAE43400FF1E
:200F7D008A828F83E0FB8C828D83F08A828F83E50BF00ED00780A222780CE224CFF582E472
:200F9D003400F583E0F58222780BE2F5F0E484E5F024CFF582E43400F583E0F58222780C91
:200FBD00E2F58222E582900108F0780CF222780CE2FE7F000EBE00010F780B900620E2F047
:200FDD00E4A3F08E828F83126F3CAE82AF83780CEEF220050C780B790CE2F5F0E484E5F09B
:070FFD00F322A20692052277
:060400000204790242A98A
:01040B0032BE
:0104130032B6
:01041B0032AE
:030423000243EFA2
:03042B000266A6C0
:010433003296
:01043B00328E
:010443003286
:01044B00327E
:010453003276
:01045B00326E
:010463003266
:01046B00325E
:0304730002661C02
:0304E40002047699
:030476000210046D
:20100400AFC4780DEFF2AFC3780EEFF21210D11229534003122AAD7582011227C0AC828CC2
:20102400821245AA12116B7582061227C0AC82900129ECF07582071227C0AC82AD83AEF0EE
:20104400FFEC4D4E4F24FF92087582051227C0AC82AD83AEF0FFEC4D4E4F24FF9207758281
:201064000E1227C0AC82AD83AEF0FFEC4D4E4F24FF920912397A4015740CC0E07478C0E010
:201084007480C0E0121097158115811581122E1E0255AF90782675F0801272F2E58124FCCA
:2010A400FFC007E58124FBF886820886830886F012333A158190783175F0801272F2D2AF28
:2010C400D2AC9003E812669D43EF1080FE75A700AFD974BF5FF5D975B28F75A90075B640FB
:2010E40075FF807E5E7F011EBEFF011FEE4F70F775EF0675D4CF75D5F875D6CF75A4107581
:20110400A70F75A41075A70075E10143E24143A5F5E5A675A6FF75A70F43A5F5E5A675A6E3
:20112400FF75A70075844075B00075850043B001D29475A700C28912674C75B800D2AFD232
:2011440095C296D2EF75BCF975BA0075BB1B75D10775D2FF43D98875DF0075FC8075DA422C
:2011640075D84075E340221239B940157432C0E07478C0E07480C0E012109715811581156B
:2011840081780DE2B44302801C780DE2B447028043780DE2B48602806A780DE2B491030269
:2011A4001234021261781B7490F20874D1F20874CFF2087419F2781F7470F208745EF208A3
:2011C40074EAF2087419F27827740AF2780B740AF2021298781B7480F20874A1F20874037F
:2011E400F208741CF2781F74C0F20874E3F2087412F208741CF27827740AF2780B740AF255
:20120400021298781BE4F20874A1F20874BCF2087433F2781F7440F20874E3F20874CBF214
:20122400087433F27827740AF2780B740AF28064781B74C0F20874CAF2087489F208743689
:20124400F2781FE4F2087428F2087450F2087437F278277414F2780B7432F28037781BE4D0
:20126400F208F208F208F2781FE4F208F208F208F27827E4F2780DE2FA7B00C002C00374E5
:201284004AC0E07478C0E07480C0E0121097E58124FBF58175820A1227C0AA82AB83AEF09A
:2012A400FFEA4B4E4F601175820A1227C0AC82AD83AEF0FF780BECF27582081227C0AC826C
:2012C400AD83AEF0FFEC4D4E4F60377582081227C0AC82AD83AEF0FF900624ECF0EDA3F0C7
:2012E400EEA3F0EFA3F09003E8E4F5F0126FA5781BC0E0E582F208E583F208E5F0F2D0E010
:2013040008F27582091227C0AC82AD83AEF0FFEC4D4E4F60377582091227C0AC82AD83AE69
:20132400F0FF900624ECF0EDA3F0EEA3F0EFA3F09003E8E4F5F0126FA5781FC0E0E582F2A7
:2013440008E583F208E5F0F2D0E008F27582041227C0AC82AD83AEF0FFEC4D4E4F60117503
:2013640082041227C0AC82AD83AEF0FF7827ECF27827E2FB7D007E007F007845E4F208F2EF
:2013840008F208F27849741EF208E4F208F208F28B828D838EF0EF122C86AC827827ECF245
:2013A400780BE2FC7D007E007F0078457401F208E4F208F208F278497432F208E4F208F227
:2013C40008F28C828D838EF0EF122C86AC82AD83AEF0FF780BECF2780DE2B44302801E78EE
:2013E4000DE2B44703021490780DE2B48603021521780DE2B491030215B202164078457479
:2014040080F2087423F20874ADF2087418F27849E4F208740BF208746BF208741BF2781B1F
:20142400E2F58208E2F58308E2F5F008E2122C86781BC0E0E582F208E583F208E5F0F2D0E3
:20144400E008F278457480F2087423F20874ADF2087418F27849E4F208740BF208746BF2F0
:2014640008741BF2781FE2F58208E2F58308E2F5F008E2122C86781FC0E0E582F208E58310
:20148400F208E5F0F2D0E008F202165F78457480F2087474F20874D2F208741AF2784974E4
:2014A40080F20874CEF2087434F208741DF2781BE2F58208E2F58308E2F5F008E2122C8682
:2014C400781BC0E0E582F208E583F208E5F0F2D0E008F278457480F2087474F20874D2F2DC
:2014E40008741AF278497480F20874CEF2087434F208741DF2781FE2F58208E2F58308E214
:20150400F5F008E2122C86781FC0E0E582F208E583F208E5F0F2D0E008F202165F78457421
:2015240040F20874B6F208749AF2087432F278497440F2087410F20874FDF2087434F2783F
:201544001BE2F58208E2F58308E2F5F008E2122C86781BC0E0E582F208E583F208E5F0F277
:20156400D0E008F278457440F20874B6F208749AF2087432F278497440F2087410F208742D
:20158400FDF2087434F2781FE2F58208E2F58308E2F5F008E2122C86781FC0E0E582F2084F
:2015A400E583F208E5F0F2D0E008F202165F7845E4F20874A1F20874BCF2087433F27849AF
:2015C40074C0F20874F7F20874BAF2087437F2781BE2F58208E2F58308E2F5F008E2122C6A
:2015E40086781BC0E0E582F208E583F208E5F0F2D0E008F27845E4F20874A1F20874BCF22E
:20160400087433F2784974C0F20874F7F20874BAF2087437F2781FE2F58208E2F58308E2D0
:20162400F5F008E2122C86781FC0E0E582F208E583F208E5F0F2D0E008F2801F780DE2FEA4
:201644007F00C006C007744AC0E07478C0E07480C0E0121097E58124FBF581781F791BE23B
:20166400F5F0E3B5F01D08E2F5F009E3B5F01408E2F5F009E3B5F00B08E2F5F009E3B5F09D
:20168400028002801A781B791FE22440F308E2344209F308E2340F09F308E2340009F375B0
:2016A400820B1227C0AC82789FECF27F007E007D007845E4F208F208F208F278497464F2F7
:2016C40008E4F208F208F28C828F838EF0ED122C86AC82789FECF27841ECF208E4F208F253
:2016E40008F275820B1225CE75820C1227C0AC82AD83AEF0FF78A3ECF2EC60337F007E0079
:201704007D0078457419F208E4F208F208F2784974DCF208E4F208F208F28C828F838EF0C7
:20172400ED122C86AC82AD83AEF0FF78A3ECF278A37941E2F309E4F309F309F375820C1269
:2017440025CE9005FF74E8F07403A3F0E4A3F0E4A3F0781BE2F58208E2F58308E2F5F00895
:20176400E2126C47AC82AD83AEF0FF7841ECF208EDF208EEF208EFF27582081225CE9005DB
:20178400FF74E8F07403A3F0E4A3F0E4A3F0781FE2F58208E2F58308E2F5F008E2126C4732
:2017A400AC82AD83AEF0FF7841ECF208EDF208EEF208EFF27582091225CE780B7941E2F3C4
:2017C40009E4F309F309F375820A1225CE781F791BE3F5F0C3E295F0FC09E3F5F008E295BE
:2017E400F0FD09E3F5F008E295F0FE09E3F5F008E295F0FF780BE2FA7B0074022AFAE43BE8
:20180400FB9005FFEAF0EBA3F0EB3395E0A3F0A3F08C828D838EF0EF126C477823C0E0E5B4
:2018240082F208E583F208E5F0F2D0E008F27826E2C313FF18E213FE18E213FB18E213FAE6
:20184400781BE22AF208E23BF208E23EF208E23FF27582031227C0126BF7780BC3E2F5F033
:20186400740595F05054126B9DAE82AF83900618EEF0EFA3F0900271126E88AE82E583FF96
:201884003395E0FDFC78239005F4E2F008E2A3F008E2A3F008E2A3F08E828F838DF0EC1299
:2018A40069B9AC82AD83AEF0FF781BE22CF208E23DF208E23EF208E23FF2781BE2F5820832
:2018C400E2F58308E2F5F008E21239F07823E2F58208E2F58308E2F5F008E2123A2C758238
:2018E400031227C0AC82AD83AEF0FF780B9005F4E2F0E4A3F0E4A3F0E4A3F08C828D838EFE
:20190400F0EF1269B9AC828C82123A7B7582021227C0AC828C82123AA540337582021227E9
:20192400C0AC828C82123AA540247582021227C0AC828C82123AA540157461C0E07478C0BD
:20194400E07480C0E01210971581158115811236DFAF827841EFF208E4F208F208F27582D9
:20196400021225CE7582031227C0123DA875820F1227C0123DFF7582121227C012618975B2
:2019840082101227C01261987582111227C0AC828C821261A47827E2F582123D62123DA2BF
:1F19A400AF827841EFF208E4F208F208F27582041225CE7582031227C0120EFA0261AB6C
:2077F2004D502053694B20322E35206F6E205246443930304100322E35006661696C656431
:2078120020746F20656E61626C65207265636569766572000A2A2A50414E49432A2A00003A
:20783200726164696F5F696E697469616C697365206661696C65640062616420626F61722D
:2078520064206672657175656E637920256400726164696F5F636F6E666967757265206661
:0678720061696C65640011
:2019C300AF829004AFE0F5747CFF7DFF74062574FBFA24AEF582E43404F583EFF00A7829E1
:2019E3007401F27829C3E29A5065C0027829E224AEF582E43404F583E0FB8C76757700E518
:201A030076F5786BF575C454F0F57962758D7A757B00AB757E008B077A00E57A6202E57BFA
:201A23006207EEC40354F8CBC403CB6BCB54F8CB6BFEEB6202EE6207E575C4540FFE7B0086
:201A43006AFCEB6FFD7829E22401F2D00280947406257424AEF582E43404F5838C06EEF0E6
:201A63007407257424AEF582E43404F5838D04ECF022AF828F748F047D00782AE27B002C74
:201A8300FCEB3DFDAA747B00C3EA9CEB64808DF063F08095F05032E57424AEFCE43404FDDA
:201AA3008C828D83E0F575E5740424AEFAE43404FB8A828B83E0FE8C828D83F08A828B835B
:201AC300E575F00574057480AD227EB47F047D009004AE74FEF09004AF7409F07828E2FC74
:201AE300782804F29004B0ECF09004B17433F09004B27444F09004B374A6F0780FE2FB08A6
:201B0300E2FC8E828F838DF0EB126E3DA3EC126E3D74022EF50CE43FF50D8D0E7819E2FB7E
:201B230008E2FC850C82850D83850EF0EB126E3DA3EC126E3D74062EFEE43FFFC007C006C8
:201B4300C005124B3AAC82D005D006D0078E828F838DF0EC126E3D7582151219C31247BE1D
:201B6300AE82AF83C3EE9411EF940050012278827411F29004AE12469F9004B3746DF0757D
:201B830082B91219C31247BEAE82AF83C3EE9411EF940050012278827411F29004AE024659
:011BA3009FA2
:201BA400AE82AF83E0FDBDFE1A8E828F83A3E0FDBD091074052EFEE43FFF8E828F83E0705C
:201BC40002D20F22E5827835F2124AE27836E582F208E583F27B007C00783874FFF20874C7
:201BE400FFF27836C3E2940808E294005003021CC18B828C83C004C003124931858229D022
:201C040003D00474FEB529028003021CC174012BFEE43CFF8E828F83C004C00312493185BE
:201C24008229D003D004740925295003021CC1C003C004AD297E0074082DFAE43EFC783508
:201C4400E2F52A752B00782BE2FB7F00E52AC39BFBE52B9FFFC3EB9AEF64808CF063F08060
:201C640095F0D004D003405574082DFDE43EFE7836C3E29D08E29E404474062BFEE43CFF1B
:201C84008E828F83C004C003124931AF82D003D004BF460C7412B529077838EBF208ECF244
:201CA40074082529F529AA297F007836E2C39AF208E29FF2EA2BFBEF3CFC021BE67838E2C0
:201CC400F58208E2F58322E582900322F0E4F52EF52F782F7983E2F3900226124969782F33
:201CE400E2FD782BF2783AE2FA08E2FB7C0090060E7426F07402A3F0E4A3F0900611EDF04B
:201D0400E4A3F08A828B838CF0126DB0782FE4F2783AE2F58208E2F583121BA4900129E02E
:201D2400FDBD020F900322E0F582121BC8AC82AD8380047CFF7DFF8C308D31124AE285823B
:201D44002C85832D900322E0F53574FFB5300974FFB5310474018001E4FCC3E52C9408E576
:201D64002D94005003021E9EC0041248DA858232D00474FEB532028006782BE2F58222C0C9
:201D8400041248F6858232D004740925325003021E9EC00485323375340074082533FBE4EF
:201DA4003534FEAA357F00782BE2FC7D00EAC39CFAEF9DFFC3EA9BEF64808EF063F080958D
:201DC400F0D0045003021E9E74082533FEE43534FFC3E52C9EE52D9F5003021E9EEC702854
:201DE400E52EB53007E52FB53102801C900006C004124931AF82D004BF460D7412B53208D6
:201E040074082532F532807074082532F532782BE22426FEE43402FF7883E532F28E828F51
:201E240083C004124969783A792BE3C5F0E225F0FE08E23400FF7D00782BE22426FAE43435
:201E440002FB90060EEAF0EBA3F0E4A3F0900611E532F0E4A3F08E828F838DF0126DB078A3
:201E64003A792BE3C5F0E225F0FE08E23400FF8E828F83121BA4D004782BE22532F2AE3261
:201E84007F00E52CC39EF52CE52D9FF52DEE252EF52EEF352FF52F021D5E782BE2F58222E3
:201EA400858236124AE2858237858338200D16300865200A62782BE2605DC3E5379420E5FF
:201EC4003894005052782BC3E2F5F0E53695F05008782BE4F275820022D20AC20D783CE298
:201EE400FA08E2FB7C0090060E7426F07402A3F0E4A3F0782B900611E2F0E4A3F08A828BAB
:201F0400838CF0126DB0782BE2F537753800782BE4F2AB378B8222C20A200E03021FD4783D
:201F24002BE2FB7C008B378C38853639753A00C3E5399537E53A95385065783CE2FA08E228
:201F4400FE7F0090060E7426F07402A3F0E4A3F0900611E539F0E53AA3F08A828E838FF04F
:201F6400126DB0E5362426FEE43402FF90060EEEF0EFA3F0E4A3F0AE367F00900611E53711
:201F8400C39EF0E5389FA3F090022675F000126DB0E537C39536782BF2D20B85368222785E
:201FA4003CE2FD08E2FE7F0090060E7426F07402A3F0E4A3F0900611EBF0ECA3F08D828E4F
:201FC400838FF0126DB0C20ED20B782BE2F58222C20BAE367F00C3EE9537EF953850048EB6
:201FE400378F38782BE4F2E53745387003F58222900129E0FF7053E53745386043AD3778CD
:2020040083EDF2783CE2F58208E2F583C005124969D005502B783C90060EE2F008E2A3F06B
:20202400E4A3F0900611E537F0E538A3F090022675F000C005126DB0D005782BEDF28004D6
:20204400782BE4F2782BE2F58222782FE2B4010280030220E37401B53706E4B53802800261
:20206400807912670EAE82AF837830D3E29EF4B3FEB308E29FF4FF7832C3E29E08E29F50E5
:2020840056782BE2FF782B04F2EF2426FFE43402FEC007C006124825AD82D006D0078F8280
:2020A4008E83EDF0783CE2FD08E2FE7F0090060E7426F07402A3F0E4A3F0782B900611E25A
:2020C400F0E4A3F08D828E838FF0126DB0782FE4F2782BE2F5822275820022782FE4F2781E
:2020E4002FE27003022172782FE2FE7F00C3E5379EE5389F506812670EAE82AF837830D368
:20210400E29EF4B3FEB308E29FF4FF7832C3E29E08E29F5045AD377883EDF2900226C00521
:20212400124969D005782BEDF2783CE2FC08E2FE7F0090060E7426F07402A3F0E4A3F09049
:202144000611EDF0E4A3F08C828E838FF0126DB0782FE4F2782BE2F5822275820022783CDB
:20216400793AE2F308E209F3853682021CCBE537453870030223131248DAAF82BFFE0280DF
:20218400030222E47401B53706E4B538028002802E782BE26003022313782F7401F212671F
:2021A4000EE5828583F07830F208E5F0F2782DE2FE08E2FF7832EEF208EFF2758200221239
:2021C40048F6AF82782FEFF2BFF70050208F057E0074082DFDE43EFE7834E2FB7C00C3EB53
:2021E4009DEC64808EF063F08095F05033782FE4F2782BE2FE782B04F2EE2426FEE434022C
:20220400FDC006C005124825AC82D005D0068E828D83ECF0153774FFB5370215380221724F
:2022240074082FFF782FF2782BE26062783CE2FC08E2FD7E0090060E7426F07402A3F0E4FE
:20224400A3F0782B900611E2F0E4A3F08C828D838EF0126DB012670EE5828583F07830F209
:2022640008E5F0F2782FE2FD7E00782D900618E2F008E2A3F08D828E83126E88E58285834E
:20228400F07832F208E5F0F2782BE2F582227E00C3E5379FE5389E503712670EE58285838D
:2022A400F07830F208E5F0F2782FE2FE7F00782D900618E2F008E2A3F08E828F83126E88EF
:2022C400E5828583F07832F208E5F0F275820022783C793AE2F308E209F3853682021CCBCF
:2022E400782BE2FF782B04F2EF2426FFE43402FEC007C006124825AD82D006D0078F828EE6
:2023040083EDF0153774FFB537021538022172783CE2FD08E2FE7F0090060E7426F074022C
:20232400A3F0E4A3F0782B900611E2F0E4A3F08D828E838FF0126DB0782BE2F58222A20A64
:2023440022A20B22D20D22E582900323F07834F222AF83E582900324F0EFA3F0900324E061
:20236400FEA3E0FF9005FFEEF0EFA3F0E4A3F0E4A3F090000075F001E4126C47AC82AD83FA
:20238400AEF0FF0CBC00090DBD00050EBE00010F782DECF208EDF222E582900326F0201054
:2023A40039783EE2FD08E2FE7F00900326E0FCFA7B0090060EEDF0EEA3F0EFA3F0900611AF
:2023C400EAF0EBA3F090012A75F000C004126DB0D004782CECF2C20CC322200C3790032669
:2023E400E0FF782CE2B5072C783E90062DE2F008E2A3F0E4A3F0900630EFF0E4A3F09001A0
:202404002A75F0001270BEE5828583F045F07004C20CD322D20CC322AF82BF130050259053
:20242400039F74FCF0900226C007123309D0078F82122BDF123332AF82782BEFF2EF600446
:20244400C20AD20E22D20190039F74FCF09002261233091206C5123332AF82782BEFF2EF47
:202464006004C20AD20E22AE82AF837840C3E2F5F074FC95F05005784074FCF290060EEE8C
:20248400F0EFA3F0E4A3F07840900611E2F0E4A3F090022675F000126DB07840E2782BF22C
:0524A400C20AD20E2265
:2024A900AF82BF1300400122EF24ED50030225CCEF240A83F582EF241783F583E473EDEFF8
:2024C900F90E10253C27CCCCCCCCCCCCCC895127A7242424252525252525252525252525F0
:2024E90025252525C322AF0F8F82124B89921122C3E4950F74019510E49511E49512400323
:202509000225CCC322D322C3741E950FE49510E49511E4951240030225CCC322C322C37417
:2025290001950FE49510E49511E4951240030225CCC322C37402950FE49510E49511E495CB
:202549001240030225CCC32274FFB50F0F74FFB5100AE4B51106E4B5120280028002D32267
:20256900900363E0FCA3E0FDA3E0FEA3E0FFECB50F0EEDB5100AEEB51106EFB51202C3222C
:2025890090036FE0FCA3E0FDA3E0FEA3E0FFC3E50F9CE5109DE5119EE5129F402622C3E592
:2025A9000F9402E5109400E5119400E51294005012C3E4950F74809510E49511E495125024
:2025C90002C322D322AF827841E2F50F08E2F51008E2F51108E2F5128F82C0071224A9D0EF
:2025E90007400122EF24ED500302279FEF240A83F582EF241783F583E4739F9F9F9F299F76
:20260900ED039F9F9F488F9F2D577F936B272727272627262727272726262727272727278C
:202629007841E2F582C007123D62123DA2AE82D0077841EEF208E4F208F208F202279F7864
:2026490045E4F208F208F208F278497464F208E4F208F208F27841E2F58208E2F58308E2AD
:20266900F5F008E2C007122C86AB82AC83ADF0FED0077841EBF208ECF208EDF208EEF27866
:202689009FEBF202279F7841E2F5F008E242F008E242F008E245F0604278457419F208E44C
:2026A900F208F208F2784974DCF208E4F208F208F27841E2F58208E2F58308E2F5F008E229
:2026C900C007122C86AB82AC83ADF0FED0077841EBF208ECF208EDF208EEF2784179A3E296
:2026E900F302279F7841E2FE900129F07841EEF208E4F208F208F202279F7841E2F5F00818
:20270900E242F008E242F008E245F024FF920850047E0180027E007841EEF208E4F208F260
:2027290008F280727841E2F5F008E242F008E242F008E245F024FF920950047E0180027E3C
:20274900007841EEF208E4F208F208F280487841E2FD08E2FE8D828E83C007123DFFD007B1
:2027690080347841E2FD08E2FE8D828E83C007126189D00780207841E2FD08E2FE8D828EA5
:2027890083C007126198D007800C7841E2F582C0071261A4D007EF75F004A42427F582747F
:2027A9000335F0F5837841E2F008E2A3F008E2A3F008E2A3F0D322AF82BF1300400790009F
:2027C90000E4F5F022EF75F004A42427F582740335F0F583E0FCA3E0FDA3E0FEA3E08C82C5
:2027E9008D838EF022858213858314900397E0FCA3E0FD900399E0FB8C018D028B007F0037
:20280900E82CF8EF3DFFC3E998EA9F5041E9C39CFEEA9DFFEE2513FEEF3514FF89828A83DB
:20282900C007C006C005C004C003C002C001120E35A882D001D002D003D004D005D006D0EF
:20284900078E828F83E8F009B900B10A80AE8513088514098B82C002C001120DB8AE82AF3B
:2028690083D001D002740129FCE43AFD8C828D83C007C006C002C001120E35AD82D001D021
:20288900028D047D0089828A83C005C004120E35AB82D004D005D006D0077A00EB4205EA10
:2028A9004204EEB50506EFB504028002C322D32285821585831690039AE0FCA3E0FD9003BF
:2028C9009CE0FB8C178D188B027F00EA2CFAEF3DFFC3E5179AE5189F5036E517C39CFEE530
:2028E900189DFFEE2515F582EF3516F583780AE0F2851782851883C005C004C003120E5478
:20290900D003D004D0050517E4B517BB051880B78515088516098B82120DB8AE82AF838E3D
:2029290004780AECF2851782851883C007C006120E54D006D00774012517FCE43518FD78EB
:202949000AEFF28C828D83020E54D310AF01C3C0D0122AAD900000120E35E582FF24B340D0
:2029690005BF30005004C3022A3D7D277E039003977401F0E4A3F0900399EFF08D828E8384
:202989001227EE4003022A3D7582001227C0AC82AD83AEF0FFBC1B0BBD0008BE0005BF0047
:2029A900028004C3022A3D7F00EF75F004A42427FD740335F0FE8D828E83E0F50FA3E0F583
:2029C90010A3E0F511A3E0F5128F82C007C006C0051224A9D005D006D0074032EF75F0073A
:2029E900A42478FB747835F0FC8B828C83A3A3A3E493F9A3E493FAA3E493FBA3E493FC8D45
:202A0900828E83E9F0EAA3F0EBA3F0ECA3F00FBF4C0040957E737F039003977401F0740161
:202A2900A3F09003997424F08E828F831227EE40028001D333D0D092AF1322D310AF01C3C8
:202A4900C0D0900327741BF0E4A3F0E4A3F0E4A3F0120E1A780A744CF2900000120E547E4F
:202A6900277F0390039A7401F0E4A3F090039C744CF08E828F831228B9780A7424F290010A
:202A890000120E547E737F0390039A7401F07401A3F090039C7424F08E828F831228B9D010
:202AA900D092AF227F00EF75F004A42427FD740335F0FEEF75F007A42478FB747835F0FCDA
:202AC9008B828C83A3A3A3E493F9A3E493FAA3E493FBA3E493FC8D828E83E9F0EAA3F0EBD8
:202AE900A3F0ECA3F00FBF130040BB7F00EF75F006A4FDAEF02473FBEE3403FC9078FDE42B
:202B090093F574A3E493F575A3E493F576A3E493F5778B828C83E574F0E575A3F0E576A3D1
:202B2900F0E577A3F0ED2473FDEE3403FE74042DFBE43EFC907901E493540F8B828C8354F7
:202B49000FF5F0E054F045F0F074042DFBE43EFC907901E493C4540FFA8B828C83C454F0AB
:202B6900F5F0E0540F45F0F074052DFDE43EFE907902E493FC8D828E83F00FBF0600500387
:202B8900022AF622AF827E008F037C007D40EE75F007A42478F582747835F0F583E493F865
:202BA900A3E493F9A3E493FA90061AE8F0E9A3F0EAA3F08B828C838DF0C007C006126EA816
:202BC900E5828583F0D006D00745F060060EBE130040B58E822285821974ED2519406EE5ED
:202BE9001975F004A42427F582740335F0F583E0F51AA3E0F51BA3E0F51CA3E0F51DE51927
:202C090075F007A42478F582747835F0F583E493FAA3E493FEA3E493FFAC197D00C01AC081
:202C29001BC01CC01DC002C006C007C004C0057854E2C0E008E2C0E07403C0E07479C0E063
:202C49007480C0E01235C2E58124F2F58122AF82BF13005021EF75F007A42478F582747848
:202C690035F0F583E493FDA3E493FEA3E493FF8D828E838FF02290000075F00022AC82AD56
:202C890083AEF0FF7845C3E2F5F0EC95F008E2F5F0ED95F008E2F5F0EE95F008E2F5F0EF12
:202CA90095F0500D7845E2FC08E2FD08E2FE08E2FF7849C3E29C08E29D08E29E08E29F50EC
:202CC9000D7849E2FC08E2FD08E2FE08E2FF8C828D838EF0EF22D310AF01C3C0D0AE82AF15
:202CE90083758F0175B7A575B7F18E828F83E58124FDF8E6F0758F00D0D092AF22E493F56B
:202D09008222E582FF24E14041A8811818B6FF0280387E0074DE2FFC74FB3EFD8C828D838F
:202D2900C007C006122D06AD82D006D007BDFF1A74DE2FFF74FB3EFEA8811818E6C0E08F6D
:202D4900828E83122CDF1581D322C322AF827E007D00ED90F7DE93FC62060DBD1F0040F2BA
:202D690090F7FDE493FDBDFF02801690F7FDE493FDB5060DEF24E14008EF90F7DE93F582A4
:202D8900227582FF22AF827E0074DE2FFF74FB3EFE8F828E83022D067F0090FBFDC00712DF
:202DA9002D06AE82D007BEFF6A7E008E047D008C028D0374DE2AFA74FB3BFB8A828B83C009
:202DC90007C006C005C004122D06AB82D004D005D006D007EB6207BBFF1BC004C005741591
:202DE900C0E07479C0E07480C0E01235C2E58124FBF581C3220EBE1F0040B0C00790FBFDF6
:152E0900122CDF158174FEC0E090FBFF122CDF1581D322C322D8
:207878003279801B000000397980390000004679804000000050798019000000567980000F
:207898000000005E798000000000627980000000006A798000000000747980000000007DD1
:2078B80079800000000086798000000000937980640000009E798000000000A77980000011
:2078D8000000B2798000000000B9798001000000C07980FFFF0000D0798000000000D87961
:2078F8008002000000FFFFFFFF01FF5B25755D205325753A2025733D256C750A0064426D41
:20791800206C6576656C202575206E6F742063616C696272617465640A00464F524D4154EE
:207938000053455249414C5F5350454544004149525F5350454544004E45544944005458D3
:20795800504F57455200454343004D41564C494E4B004F5050524553454E44004D494E5FB2
:2079780046524551004D41585F46524551004E554D5F4348414E4E454C5300445554595F0E
:207998004359434C45004C42545F52535349004D414E434845535445520052545343545310
:2079B800004E4F44454944004E4F444544455354494E4154494F4E0053594E43414E59006F
:0A79D8004E4F4445434F554E5400F6
:202E1E007F00EF75F006A42473FD740335F0FE8D828E83A3A3A3A3E0540F24FF92128F8222
:202E3E00C007C006C005122E6DD005D006D0078D828E83A3A3A3A3E0C4540F24FF92148FE8
:202E5E0082C0071230B0D0070FBF060040B422AF82BF06004003023090EF75F006A42473C8
:202E7E00FD740335F0FE8D828E83A3A3A3A3A212E433FC540FF5F0E054F045F0F08D828EFC
:202E9E0083A3A3A3A3A374FFF075A700EF75F002A4FEAFF024E2F582EF3479F583E493FD47
:202EBE00600FBD0103022F62BD0203022FF5023086301222EE24E2FCEF3479FD8C828D8386
:202EDE00A3E493FD8DF005F07401800225E0D5F0FBFD42A48021EE24E2FCEF3479FD8C8274
:202EFE008D83A3E493FD8DF005F07401800225E0D5F0FBF4FD52A475A70F301223EE24E2F4
:202F1E00FCEF3479FD8C828D83A3E493FD8DF005F07401800225E0D5F0FBFD42A402308BFB
:202F3E00EE24E2FCEF3479FD8C828D83A3E493FD8DF005F07401800225E0D5F0FBF4FD5244
:202F5E00A402308B301222EE24E2FCEF3479FD8C828D83A3E493FD8DF005F0740180022542
:202F7E00E0D5F0FBFD42A58021EE24E2FCEF3479FD8C828D83A3E493FD8DF005F0740180E9
:202F9E000225E0D5F0FBF4FD52A575A70F301223EE24E2FCEF3479FD8C828D83A3E493FD16
:202FBE008DF005F07401800225E0D5F0FBFD42A502308BEE24E2FCEF3479FD8C828D83A3DA
:202FDE00E493FD8DF005F07401800225E0D5F0FBF4FD52A502308B301222EE24E2FCEF3415
:202FFE0079FD8C828D83A3E493FD8DF005F07401800225E0D5F0FBFD42A68021EE24E2FC64
:20301E00EF3479FD8C828D83A3E493FD8DF005F07401800225E0D5F0FBF4FD52A675A70F82
:20303E00301222EE24E2FCEF3479FD8C828D83A3E493FD8DF005F07401800225E0D5F0FB22
:20305E00FD42A68028EE24E2FEEF3479FF8E828F83A3E493FF8FF005F07401800225E0D5B8
:20307E00F0FBF4FF52A6800575A700C32275A700D322C322E58275F006A42473FE74033529
:20309E00F0FF8E828F83A3A3A3A3E0540F24FF921322E582FF75F006A42473FD740335F0A3
:2030BE00FE8D828E83A3A3A3A3A214E433FCC454F0F5F0E0540F45F0F0BF060040030231EF
:2030DE00F48D828E83A3A3A3A3A3E0FEBEFF0280030231F4EF75F002A4FEAFF024E2F58234
:2030FE00EF3479F583E493FD600EBD01028053BD02030231A80231F0301423EE24E2FCEF23
:20311E003479FD8C828D83A3E493FD8DF005F07401800225E0D5F0FBFD42800231F2EE248E
:20313E00E2FCEF3479FD8C828D83A3E493FD8DF005F07401800225E0D5F0FBF4FD528002D2
:20315E0031F2301422EE24E2FCEF3479FD8C828D83A3E493FD8DF005F07401800225E0D5C7
:20317E00F0FBFD4290806DEE24E2FCEF3479FD8C828D83A3E493FD8DF005F074018002253E
:20319E00E0D5F0FBF4FD5290804A301422EE24E2FCEF3479FD8C828D83A3E493FD8DF0052E
:2031BE00F07401800225E0D5F0FBFD42A08025EE24E2FEEF3479FF8E828F83A3E493FF8F6A
:2031DE00F005F07401800225E0D5F0FBF4FF52A08002C322D322C322E58275F006A42473FD
:2031FE00FE740335F0FF8E828F83A3A3A3A3E0C4540F24FF921522AF82BF0600400302320A
:20321E00D2EF75F006A42473FD740335F0FE74042DFDE43EFE8D828E83E0540F60030232D6
:20323E00D2EF75F002A4FEAFF024E2F582EF3479F583E493FD600ABD0102802ABD0271807E
:20325E004AEE24E2FCEF3479FD8C828D83A3E493FD8DF005F07401800225E0D5F0FBFDE538
:20327E008052058D8222EE24E2FCEF3479FD8C828D83A3E493FD8DF005F07401800225E0FC
:20329E00D5F0FBFDE59052058D8222EE24E2FEEF3479FF8E828F83A3E493FF8FF005F074A6
:1932BE0001800225E0D5F0FBFFE5A052078F822275827F2275827F22224D
:0C79E20002030202020102000206000182
:0804DC00C216C217C218C219B2
:2032D700AF82201A058F82024B75784E794DC3E3F5F0E295F0501A784EE2FE784E04F290BA
:2032F700039DE0FCA3E0FDEE2CF582E43DF583EFF022AF83E5829003A0F0EFA3F09003A01F
:20331700E0FEA3E0FF90039DEEF0EFA3F0784EE4F290039FE0784DF2D21A22C21A784EE2AF
:20333700F58222AD82AE83AFF08D828E838FF01274B4FC700122BC250280030235A9C21955
:20335700C218C217C2160DBD00010E8D828E838FF01274B4FBBB6802800CBB6C10D2160D41
:20337700BD000A0E8007D2180DBD00010E8D828E838FF01274B4FBBB63028030BB640280D2
:2033970018BB6F02802BBB7302800ABB7502800EBB78238010D217801D753B0A8018753B3F
:2033B7000AD2198011753B10D219800A753B008005753B08D219301771A8811818E624FD4B
:2033D700FBA8811818A6038B01873C09873D09873E1919C005C006C007AA3CAB3DAF3E8A26
:2033F700828B838FF01274B4D007D006D00570030235BAC005C006C007AA3CAB3DAF3E8AF0
:20341700828B838FF01274B4FA053CE4B53C02053D8A82C007C006C0051232D7D005D006D4
:20343700D007D007D006D00580A9301966301621A8811818E624FCFBA8811818A6038B01F5
:20345700873F09874009874109874219191902351030181DA8811818E614F9A8811818A6DA
:203477000187038B3F754000754100754200023510A8811818E624FEFBA8811818A6038B8E
:20349700018702098703198A3F8B407541007542008066301620A8811818E624FCFBA8810F
:2034B7001818A6038B01873F098740098741098742191919804330181EA8811818E614FB95
:2034D700A8811818A6038B01E7FBF53F3395E0F540F541F5428022A8811818E624FEFBA841
:2034F700811818A6038B018702098703198A3FEBF5403395E0F541F542E53B70030235943E
:2035170030192F9005C3747CF0E4A3F07440A3F09005C6E53BF0853F828540838541F0E592
:2035370042C007C006C005126806D005D006D007802D9005EC747CF0E4A3F07440A3F09082
:2035570005EFE53BF0853F828540838541F0E542C007C006C00512691CD005D006D0077901
:203577007CE7FB603E8B82C007C006C005C0011232D7D001D005D006D0070980E4AB3F8BC8
:2035970082C007C006C0051232D7D005D006D00780118C82C007C006C0051232D7D005D0F2
:2035B70006D0070DBD00010E023340E58124FCFFC007E58124FBF886820886830886F01257
:0535D700333A158122CA
:2035DC00AFF0AE83E58290049EF0EEA3F0EFA3F0201B02C322784FC3E2F5F074FC95F050BB
:2035FC000512397A804590049EE0FDA3E0FEA3E0FF8D828E838FF0784FE2126E3D7862E24D
:20361C00FD08E2FE7F0090060E74A2F07403A3F0E4A3F0784F900611E2F0E4A3F08D828EAB
:20363C00838FF0126DB012397AD322780FE2FE08E2FFBEFF05BFFF02800C0EBE00010F78D1
:20365C000FEEF208EFF2C322AF8275A700C294C2B77586FF7864E2FD08E2FE8F041FEC60DA
:20367C001130B1FD8D828E83E0F586A3AD82AE8380E930B1FD74805584FFBF800280F6C235
:20369C00B7D29475A70022201B057850E26002D322758231123E70E58230E402D322C32233
:2036BC00A2A8921DC2A8101C028006A21D92A8D322A21D92A8C3227851E2F58222758226AA
:2036DC00023E70785EE2F58222758208123E70AF8274014FFEC007C006758208123E3A15F0
:2036FC0081D0075307FEC007758208123E3A158122758208123E70AF8274024FFEC007C0BC
:20371C0006758208123E3A1581D0075307FDC007758208123E3A158122E582FF240350193C
:20373C00C00774EEC0E07479C0E07480C0E0121097158115811581D007C0071236E5D00766
:20375C00C007C00775823E123E3A1581D007EFFE24DF50027E2078667964E2F308E209F33D
:20377C008E82C007C006123664D006D007EFC39EFF7866E22EF208E23400F2C007E4C0E0AD
:20379C00758205123E3A1581E4C0E0758206123E3A1581C21CC21E7409C0E0758207123E27
:2037BC003A158112670EAC82AD83D007C007C005C00412670EAA82AB83D004D005D007EAC6
:2037DC00C39CFAEB9DFB7868C3E2F5F0EA95F008E2F5F0EB95F04003023901758203C00799
:2037FC00C005C004123E70AB82D004D005D007301E40EF603DEB30E5397E04BF04005002CD
:20381C008F0678667964E2F308E209F38E82C007C006C005C004123664D004D005D006D060
:20383C0007EFC39EFF7866E22EF208E23400F20237C8301E40EF603DEB20E6397E04BF049C
:20385C000050028F0678667964E2F308E209F38E82C007C006C005C004123664D004D00574
:20387C00D006D007EFC39EFF7866E22EF208E23400F20237C8EB30E7201236E57811E2FA8B
:20389C0008E2FEBAFF05BEFF02800C0ABA00010E7811EAF208EEF2C322758202C007C00591
:2038BC00C004123E70AB82D004D005D007EB30E105D21E0237C8201E030237C8EB30E10388
:2038DC000237C8EF601D7811E2FE08E2FFBEFF05BFFF02800C0EBE00010F7811EEF208EFC3
:2038FC00F2C322D3227811E2FE08E2FFBEFF05BFFF02800C0EBE00010F7811EEF208EFF252
:20391C00C322E5829004A3F0A2A89220C2A8D2A59004A1E0FEA3E0FFFDC007C006C00575E2
:20393C00823A123E3A1581D006D007C00675823B123E3A15819004A3E0FF786A7966E2F31E
:20395C0008E209F3786C7968E2F308E209F38F82123735921FC2A5A22092A8A21F22C2A8F5
:20397C00C21B784FE4F2C21C7850E4F27413C0E0758205123E3A15817440C0E0758206128F
:20399C003E3A1581123EE41236E512370D7405C0E0758207123E3A1581D2A8D322900032DE
:2039BC0012669D758201123E70AF82BFFF028005BF05005002C322123F44758201123E7060
:2039DC00E582FF20E006123F44922122EF30E102D322C322AC82AD83AEF0FFC3ED941CEED0
:2039FC00944EEF940E400E74C09C74F79D74BA9E74379F5002C3227856ECF208EDF208EE3C
:203A1C00F208EFF28C828D838EF0EF123FB0D322AC82AD83AEF0FFC374F09C74E89D7426DD
:203A3C009EE49F5002C322786E7410F2087427F208E4F208F28C828D838EF0EF123EF0ACD2
:203A5C0082AD83AEF0FF785AECF208EDF208EEF208EFF2C00475827A123E3A1581D322E564
:203A7C00829004A4F0785FE2FF9004A4E0FEB5070122785FEEF2C006758279123E3A1581C6
:203A9C00C21C22785FE2F58222AF82C007E4C0E0758205123E3A1581E4C0E0758206123E4F
:203ABC003A1581123EE47415C0E075820B123E3A15817412C0E075820C123E3A158175825B
:203ADC000012420874B6C0E0758209123E3A1581D007EF249B5010C00774C0C0E0758258B5
:203AFC00123E3A1581D0077856E2FB08E2FC08E2FD08E28B828C838DF0C007123FB0785A1E
:203B1C00E2FB08E208E208E2C00375827A123E3A1581748DC0E0758230123E3A15817442FC
:203B3C00C0E0758233123E3A158174CFC0E0758232123E3A158174FFC0E0758245123E3A7A
:203B5C00158174FFC0E0758246123E3A158174FFC0E0758243123E3A158174FFC0E07582CC
:203B7C0044123E3A1581743CC0E075827C123E3A15817420C0E075827D123E3A1581743274
:203B9C00C0E075827E123E3A158178617410F27861E2FEC006758234123E3A15817428C05F
:203BBC00E0758235123E3A1581758200123D62D0077E00EE907A0B93FDC39F50060EBE0C9D
:203BDC000040F0EEFF907A0B93FE785EF2BE200040047E0D80027E2D75820DC007C00612C1
:203BFC0027C0AA82AB83ACF0FDD006D007EA4B4C4D600B785EE2FD247F4003430602C0073C
:203C1C00C006758270123E3A15817423C0E0758271123E3A15817444C0E075821D123E3A86
:203C3C001581D007785EE2FEBEC8005012C007740AC0E075821E123E3A1581D0078010C01C
:203C5C00077402C0E075821E123E3A1581D007780DE2B4433A7E00EE75F00DA42418FC7459
:203C7C007A35F0FDEF2CF582E43DF583E493FDEE9079FF93FCC007C006C0058C82123E3A7E
:203C9C001581D006D0070EBE0C0040CB023D60780DE2B447397E00EE75F00DA424B4FC74DE
:203CBC007A35F0FDEF2CF582E43DF583E493FDEE9079FF93FCC007C006C0058C82123E3A3E
:203CDC001581D006D0070EBE0C0040CB8076780DE2B486397E00EE75F00DA42450FC747BF1
:203CFC0035F0FDEF2CF582E43DF583E493FDEE9079FF93FCC007C006C0058C82123E3A1563
:203D1C0081D006D0070EBE0C0040CB80377E00EE75F00DA424ECFC747B35F0FDEF2CF5828E
:203D3C00E43DF583E493FDEE9079FF93FCC007C006C0058C82123E3A1581D006D0070EBEDC
:203D5C000C0040CBD322E5829004A5F07406C0E075826D123E3A15819004A5E0FFF582C0BE
:203D7C0007122D55AE82D007BEFF0280078EFC7860EFF222EFC313FF907C8893F5FCEF2FE0
:203D9C00FF7860EFF2227860E2F58222AF83E5829004A6F0EFA3F09004A6E0FEA3E0FF8E6D
:203DBC00047852ECF28F057853EDF2200734C007C006C005C00575823C123E3A1581D00563
:203DDC00D006D007C006C005C00675823D123E3A1581758241123E3A1581758242123E3A5A
:203DFC00158122AF83E5829004A8F0EFA3F09004A8E0FEA3E0FF7854EEF208EFF28F06C022
:203E1C000675823F123E3A15817854E254FFFE08E25400C006758240123E3A158122AF827D
:203E3C00A2A89240C2A875A700C294C2B774804FF58630B1FDA8811818868630B1FD748022
:203E5C005584FFBF800280F6C2B7D29475A700A24092A822AF82A2A89240C2A875A700C2E9
:203E7C0094C2B78F8630B1FD75860030B1FD74805584FFBF800280F6AF86C2B7D29475A79A
:203E9C0000A24092A88F8222AF8275A700C294C2B775867F30B7FD8586E0E58124FDF8864D
:203EBC00050886068F041FEC6016C2B775860030B7FD8D828E83E586F0A3AD82AE8380E4FF
:203EDC00C2B7D29475A70022758203123E70758204023E70AF82AE83ADF0FC7872EFF20876
:203EFC00EEF208EDF208ECF27871E2C313FF18E213FE18E213FB18E213FA7872E22AFA0847
:203F1C00E23BFB08E23EFE08E23FFF786E9005FFE2F008E2A3F008E2A3F008E2A3F08A8250
:203F3C008B838EF0EF026C47E4C0E0758205123E3A1581E4C0E0758206123E3A1581123EA4
:203F5C00E47481C0E0758207123E3A158190000212666430870712669550F8C322E4C0E0C4
:203F7C00758205123E3A15817402C0E0758206123E3A158190001412666412669540137581
:203F9C008203123E70758204123E70E58230E1EAD322C322AF82AE83ADF0FC7876EFF208F7
:203FBC00EEF208EDF208ECF27876C3E2F5F0E495F008E2F5F0743895F008E2F5F0749C95E3
:203FDC00F008E2F5F0741C95F040030240A67877E224C8F208E23463F208E234E3F290051C
:203FFC00FFE4F0742DA3F07431A3F07401A3F07876E2F58208E2F58308E2F5F008E2126C7E
:20401C0047AA829004AAEAF0900624EAF0E4A3F0E4A3F0E4A3F0902D0075F0317401126FB7
:20403C00A5AC82AD83AEF0FF7876E2C39CF208E29DF208E29EF208E29FF2786E7471F20870
:20405C007402F208E4F208F27876E2F58208E2F58308E2F5F008E2123EF07876C0E0E5826D
:20407C00F208E583F208E5F0F2D0E008F27876E225E0F208E233F208E233F208E233F290D3
:20409C0004AAE0FF4420F00241697877E224E4F208E234B1F208E234F1F29005FF7480F072
:2040BC007496A3F07498A3F0E4A3F07876E2F58208E2F58308E2F5F008E2126C47AC82904C
:2040DC0004AAECF0900624ECF0E4A3F0E4A3F0E4A3F090968075F098E4126FA5AC82AD8334
:2040FC00AEF0FF7876E2C39CF208E29DF208E29EF208E29FF2786E7471F2087402F208E45F
:20411C00F208F27876E2F58208E2F58308E2F5F008E2123EF07876C0E0E582F208E583F2AC
:20413C0008E5F0F2D0E008F27876E225E0F208E233F208E233F208E233F2181818E225E0C7
:20415C00F208E233F208E233F208E233F29004AAE04440F07876E2FC08E2FDC005C00490C6
:20417C0004AAE0C0E0758275123E3A1581D004D0058D07C005C004C007758276123E3A15D0
:20419C0081D004D005C004758277123E3A15812275A70FAE86E4CE25E0CE33CE25E0CE337A
:2041BC00FFE58523235403FD7C004206EC420775A700D2EC20ECFDADBE7C00AABD7B00EA51
:2041DC004204EB4205ECC39EFEED9FFF9006357402F0E4A3F08E828F831271EDE5828583CC
:2041FC00F02421FCE435F08C82F58322E5829004ABF0FF24FC4068EF2F2F90421A73024274
:20421C002602427B02427B02424B7418C0E075820D123E3A1581758208123E70AF82741F7C
:20423C005F4480FFC007758208123E3A158122758208123E70AF82741F5F4420FFC00775B7
:20425C008208123E3A1581740AC0E075820D123E3A1581E4C0E075820E123E3A1581227516
:20427C008208123E70AF8253071FC007758208123E3A1581740AC0E075820D123E3A158106
:20429C007404C0E075820E123E3A158122C028C0E0C0F0C082C083C007C006C005C004C010
:2042BC0003C002C001C000C0D075D000758204123E70AF82758203C007123E70AE82D00753
:2042DC00EE30E4497850E2FC7D0074322CFCE43DFDC374FC9CE49D50030243B47850E224FE
:2042FC00A2FCE43403FDC007C006C004C005758232123EA4158115817850E22432F27582A4
:20431C0026123E70E582D006D0077851F2EF30E611D21C758226C006123E70E582D0067870
:20433C0051F2200704EE20E06FEE30E16975824B123E70E582FF2403405E7850C3E2F5F0AF
:20435C00EF95F040537850C3E29F50227850E224A2FDE43403FE7850D3E29FF4FCC007C0A3
:20437C0005C0068C82123EA415811581D007784FEFF2D21BE4C0E0758205123E3A1581E438
:20439C00C0E0758206123E3A15817402C0E0758207123E3A1581801E780FE2FE08E2FFBE64
:2043BC00FF05BFFF02800C0EBE00010F780FEEF208EFF212397AD0D0D000D001D002D003BA
:1343DC00D004D005D006D007D083D082D0F0D0E0D0283239
:2079EE006F76657273697A6564207061636B6574001C1F2021222324252A6E6F7202040875
:207A0E001013182030406080C0FA2727272E1601050B9A888A8C8D03030303030303030349
:207A2E0003030303F4FA7D3F69A77D535E7D5E3F3020000102010001010101010202418309
:207A4E00060C37C406895D065D0CAA8912254A4C9C25378625864AAB000102040201020383
:207A6E00020202040785080E12728A0E18BB0EBBEAFF1D1D1D1E1E1E203041505050501019
:207A8E002041839BC4080C101820314062C58912A69C314A6293C5270003060D1A1E2633C1
:207AAE004D669ACDFEFE2B2B2B2E1601050B9A888A8C8D03030303030303030303030303E0
:207ACE00F4FA7D3F69A77D535E7D5E3F30200001020100010101010102024183060C37C468
:207AEE0006895D065D0CAA8912254A4C9C25378625864AAB000102040201020302020204E6
:207B0E000785080E12728A0E18BB0EBBEAFF1E1E1E21212121304150505050102041839BF6
:207B2E00C4080C101820314062C58912A69C314A6293C5270003060D1A1E26334D669ACD85
:207B4E00FEFE010101010101050B9A888A8C8D03030303030303030303030303D0E8F4FA73
:207B6E00D3A77D535E7D5E3F30E0602000000001010101010202102041839BC406895D0657
:207B8E005D0CAA62C58912A69C25378625864AAB0000000101010203020202040723448539
:207BAE0008398A0E18BB0EBBEAFF1C1C1C1C1C1E20304150505050102041839BC4080C1067
:207BCE001820314062C58912A69C314A6293C5270003060D1A1E26334D669ACDFEFE0101CF
:207BEE0001010101050B9A888A8C8D03030303030303030303030303D0E8F4FAD3A77D5387
:207C0E005E7D5E3F30E0602000000001010101010202102041839BC406895D065D0CAA628B
:207C2E00C58912A69C25378625864AAB0000000101010203020202040723448508398A0E34
:207C4E0018BB0EBBEAFF1E1E1E1E1E1E20304150505050102041839BC4080C1018203140EC
:207C6E0062C58912A69C314A6293C5270003060D1A1E26334D669ACDFEFEEBE6E0DAD3CEAD
:0A7C8E00C9C4BEB8B2ABA49688507A
:2043EF00C028C0E0C0F0C082C083C007C006C005C004C003C002C001C000C0D075D00010F0
:20440F00980302450BAF9930000E30010302450B8F821204E702450B8F82C007120581D0F4
:20442F0007787AE22401FD08E23400FEBD0009BE04067D007E00800B787AE22401FD08E260
:20444F003400FE787CE2B5050708E2B50602803A787AE2243EF58208E23406F583EFF07883
:20446F007AE22401FD08E23400FEBD0009BE04067D007E00800B787AE22401FD08E234006B
:20448F00FE787AEDF208EEF2801B7815E2FD08E2FEBDFF05BEFF02800C0DBD00010E7815F5
:2044AF00EDF208EEF2300954787A797CC3E3F5F0E295F009E3F5F008E295F0B3E433FE6058
:2044CF001B787CE22400FD08E23404FE787AD3E29DF4B3FDB308E29EF4FE8015787C797A0A
:2044EF00E3F5F0C3E295F0FD09E3F5F008E295F0FEC3ED9420EE94005002D28210990280C9
:20450F0061787E7980E2F5F0E3B5F00B08E2F5F009E3B5F002804930090A30830720000496
:20452F00D222803E7880E2243EF58208E2340AF583E0FF7880E22401FD08E23400FEBD00B3
:20454F0009BE02067D007E00800B7880E22401FD08E23400FE7880EDF208EEF28F99800276
:20456F00D222D0D0D000D001D002D003D004D005D006D007D083D082D0F0D0E0D028327845
:20458F007E7980E2F5F0E3B5F00A08E2F5F009E3B5F0012230220302481622AF8275A70095
:2045AF00C2AC787AE4F208F27880E4F208F2787EE4F208F27880E4F208F2D222C28EAE89EB
:2045CF00740F5E4420F5898F82124BAFD28E759810C282D2AC22AF82C0071247BEAD82AE9F
:2045EF0083D007C3ED9401EE94005002C3228F82124604D322AF82A2AC9240C2AC787EE25B
:20460F002401FD08E23400FEBD0009BE02067D007E00800B787EE22401FD08E23400FE78AD
:20462F0080E2B5050708E2B506028044787EE2243EF58208E2340AF583EFF0787EE22401B0
:20464F00FE08E23400FFBE0009BF02067E007F00800B787EE22401FE08E23400FF787EEE1E
:20466F00F208EFF2302224C028124816D028801B7813E2FE08E2FFBEFF05BFFF02800C0E7F
:20468F00BE00010F7813EEF208EFF2A24092AC228582438583447882E27001221247BEACDF
:2046AF0082AD837882E2FA7B00C3EC9AED9B501F7882ECF27813E2FC08E2FDBCFF05BDFF04
:2046CF0002800C0CBC00010D7813ECF208EDF27882E2FD787ED3E29400F4B3FBB308E2942C
:2046EF0002F4FC8D027F00C3EB9AEC9F5008787EE2FFC3E49FFD787EE2243EFE08E2340A06
:20470F00FF7C0090060EE543F0E544A3F0E4A3F0900611EDF0E4A3F08E828F838CF0C005C2
:20472F00126DB0D005ED2543F543E43544F5447882E2C39DF2D22310AF02C2237F00787E05
:20474F00E22DF208E23FF2787EC308E294024006787FE224FEF2A22392AF7882E2603E90B2
:20476F00060EE543F0E544A3F0E4A3F07882E2FE7F00900611EEF0EFA3F0900A3E75F0002E
:20478F00C007C006126DB0D006D007D22310AF02C223787EEEF208EFF2A22392AFD223103C
:2047AF00AF02C223302203124816A22392AF22A2AC9224C2AC787E7980C3E3F5F0E295F014
:2047CF0009E3F5F008E295F0B3E433FF601B7880E22400FE08E23402FF787ED3E29EF4B33B
:2047EF00FEB308E29FF4FF80157880797EE3F5F0C3E295F0FE09E3F5F008E295F0FFA22404
:20480F0092AC8E828F832230090730830420000122C222D29922A2AC9225C2AC787A797C02
:20482F00E2F5F0E3B5F00B08E2F5F009E3B5F002803A787CE2243EF58208E23406F583E0C8
:20484F00FF787CE22401FD08E23400FEBD0009BE04067D007E00800B787CE22401FD08E240
:20486F003400FE787CEDF208EEF280027F00300953787A797CC3E3F5F0E295F009E3F5F005
:20488F0008E295F0B3E433FE601B787CE22400FD08E23404FE787AD3E29DF4B3FDB308E2BB
:2048AF009EF4FE8015787C797AE3F5F0C3E295F0FD09E3F5F008E295F0FEC3E49D74029E58
:2048CF005002C282A22592AC8F8222A2AC9226C2AC787CE2243EF58208E23406F583E0FF5D
:2048EF00A22692AC8F8222A2AC9227C2AC787CE22401FE08E23400FFBE0009BF04067E00D7
:20490F007F00800B787CE22401FE08E23400FFEE243EF582EF3406F583E0FFA22792AC8F8B
:20492F008222AF83E5829004ACF0EFA3F0A2AC9228C2AC9004ACE0FEA3E0FF787CE22EFE61
:20494F0008E23FFF530703EE243EF582EF3406F583E0FFA22892AC8F8222858245858346A7
:20496F00124AE2AC82AD837883E2FA7B00C3EC9AED9B5002C3227884EAF208EBF2787CD3AE
:20498F00E29400F4B3FAB308E29404F4FB7884C3E2F5F0EA95F008E2F5F0EB95F0501378BE
:2049AF007C7984D3E29400F4B3F3B308E29404F409F3AA45AB467F00787CE2243EFD08E2E9
:2049CF003406FE90060EEDF0EEA3F0E4A3F07884900611E2F008E2A3F08A828B838FF0127A
:2049EF006DB07884E2FC7883E2C39CF27884E22545F54508E23546F546D22910AF02C229BA
:204A0F00787C7984E3C5F0E225F0F209E3C5F008E235F0F2787CC308E294044006787DE21D
:204A2F0024FCF2A22992AF7883E26044AD45AE467F0090060E743EF07406A3F0E4A3F07821
:204A4F0083E2FB7C00900611EBF0ECA3F08D828E838FF0C004C003126DB0D003D004D22973
:204A6F0010AF02C229787CEBF208ECF2A22992AFD22910AF02C229300953787A797CC3E3F8
:204A8F00F5F0E295F009E3F5F008E295F0B3E433FF601B787CE22400FE08E23404FF787A2C
:204AAF00D3E29EF4B3FEB308E29FF4FF8015787C797AE3F5F0C3E295F0FE09E3F5F008E299
:204ACF0095F0FFC3E49E74029F5002C282A22992AFD322A2AC922AC2AC787A797CC3E3F558
:204AEF00F0E295F009E3F5F008E295F0B3E433FF6017787A797CE3F5F0C3E295F0FE09E30D
:204B0F00F5F008E295F0FF8019787CD3E29400F4B3FCB308E29404F4FD787AE22CFE08E2AC
:204B2F003DFFA22A92AC8E828F8322124AE2AE82AF83E4C39EFE74049FC423CEC423541FD3
:204B4F006ECE541FCE6ECEFF900618EEF0EFA3F0900064126E88AE82E583A2E7CE33CE3361
:204B6F00CE54018E8222AF82BF0A0A75820DC007124604D0078F82024604AF827E00BE09FC
:204B8F0000501BEE75F003A42498F582747C35F0F583E493FDEFB50502D3220E80E0C3227A
:204BAF00AF82C007124B89D00740027F397E00BE0900501BEE75F003A42498F582747C3535
:204BCF00F0F583E493FDEFB5050280030E80E0EE75F003A42498FD747C35F0FE8D828E8368
:204BEF00A3E493F58DAC8E5304F48D828E83A3A3E4934CF58E900624EFF0E4A3F0E4A3F052
:0F4C0F00E4A3F090007DE4F5F0126FA5022355A9
:1B7C9800012C02029602042C0009960013600126B001392B08739608E6CB08B8
:207DC0000000000000000000000000000000000000000000000000000000000000000000A3
:207DE000000000000000000000000000000000000000000000000000000000000000000083
:207E0000000000000000000000000000000000000000000000000000000000000000000062
:207E2000000000000000000000000000000000000000000000000000000000000000000042
:204C1E007F0078B6E224FFFD08E234FFFE8F037C00C3EB9DEC9E4003024CDCBF0800400352
:204C3E00024CDC7854E2B5030808E2B50403024CD8EF75F002A4FDAEF0C007ED2419F54B2C
:204C5E00EE3401F54C854B82854C83A3E0FF8F4D754E007854E2FA08E2CA25E0CA33FFEAC4
:204C7E002409FAEF3401FF8A828F83A3E0FF8F4F755000854B82854C83E0FF7A00ED240970
:204C9E00F582EE3401F583E0FE7D00C007C04DC04EC04FC050C007C002C006C005C003C0F1
:204CBE000474B3C0E0747CC0E07480C0E01235C2E58124F3F581D007D0070F024C2078A0A8
:204CDE00E2FE7F00C007C0061241ACAC82AD83D006D0077819E2F54F08E2F5507817E2F574
:204CFE004D08E2F54E7815E2F54B08E2F54C7813E2F55108E2F552780FE2F55308E2F5547A
:204D1E007811E2FA08E2FBC006C007C004C005C04FC050C04DC04EC04BC04CC051C052C0E1
:204D3E0053C054C002C00378ABE2C0E008E2C0E07854E2C0E008E2C0E074DBC0E0747CC0C3
:204D5E00E07480C0E01235C2E58124E9F58178ABE4F208F22278AAE254016003024C1E2270
:204D7E00AF827E00789B900618E2F008E2A3F08F828E83126E88AE82AF837899E22EFE08A3
:204D9E00E23F8E82F58322AE82AF83789DC3E29E08E29F5008789DE4F208F2800A789DE229
:204DBE00C39EF208E29FF2788DC3E2F5F0EE95F008E2F5F0EF95F050030250A77887C308AC
:204DDE00E29480400B7854E2F5F008E245F0706F7887E2FC08E2FD788774012CF2E43D0864
:204DFE00F278B6900628E2F008E2A3F08C828D83C007C006127011AC82AD83D006D00778A7
:204E1E0054E2B5040708E2B50502800280317886E4F278B6900628E2F008E2A3F07887E2B5
:204E3E00F58208E2F583C007C006127011E5828583F0D006D0077887F208E5F0F2804F7848
:204E5E0087C308E29480504178B6900628E2F008E2A3F0900001C007C006127011AC82AD94
:204E7E0083D006D0077887E2C39CFC08E29DFD78B6E224FFFA08E234FFFBECB5020BEDB58F
:204E9E00030778867402F2800578867401F2788DD3E29EF4B3FEB308E29FF4FF7886E2B4DA
:204EBE0002107891E2FC08E2FD788DECF208EDF28019788FE2FC08E2FD788DECF208EDF2FB
:204EDE00C007C006120FCBD006D007C007C00612397AD006D007780BC3E2F5F0740195F088
:204EFE00500C78A4E4F208F278A8E4F208F27886E2600302509EC006C007789FE2FC7D002A
:204F1E0078A0E2F555755600ECC39555FEED9556FFBE640ABF0007D007D00602509ED00790
:204F3E00D006C006C007C007C006C005C004C047C048C049C04A90333375F073743F126ABB
:204F5E00FA85825785835885F059F55AE58124FCF581D004D005D006D00778A1E2F5820892
:204F7E00E2F583C005C0041272CDAA82AB83AEF0FFD004D005C007C006C005C004C002C0A7
:204F9E0003C006C00790000075F0A07440126AFA85825B85835C85F05DF55EE58124FCF53E
:204FBE0081D004D005D006D0077894798FE3C5F0E225F0FE09E3C5F008E235F0CE25E0CE0A
:204FDE0033FF8E828F83C005C0041272CDAA82AB83AEF0FFC002C003C006C007855B828595
:204FFE005C83855DF0E55E1273F1AA82AB83AEF0FFE58124FCF581D004D005C007C006C040
:20501E0005C004C002C003C006C0078557828558838559F0E55A1271948582478583488592
:20503E00F049F54AE58124FCF581D004D005D006D00778A1E4F208F2ECC39555FCED955632
:20505E00FD8C828D831272C0AC82AD83AEF0FFC007C006C004C005C006C00785478285481A
:20507E00838549F0E54A126E58E58124FCF581D006D007E58224FF9234B39232D007D006AD
:20509E00789DE4F208F2024DC57886E2B40210C007C006120FA5123A7BD006D007800EC03E
:2050BE0007C006120F95123A7BD006D007788DE2C39EF208E29FF222AF827886E2B4022419
:2050DE00EF70217854E2F5F008E245F070047582012278547996E24400F308E2448009F354
:2050FE00758200227886E27003025300102C00EF60030251957887E2F5F008E245F06046D0
:20511E007896E254FFFE08E2547FFF7887E224FFFC08E234FFFD78B6E224FFFA08E234FF10
:20513E00FB900628EAF0EBA3F08C828D83C007C006127011AC82AD83D006D007EEB504064A
:20515E00EFB5050280297887E2F5F008E245F070227896E254FFFE08E2547FFF78B6E22435
:20517E00FEFC08E234FFFDEEB50408EFB50504758201227582002278B8E270030252EE782F
:20519E0096E254FFFE08E2547FFF78B2E2FC08E2FDEEB50406EFB505028002D22E7896C3D2
:2051BE0008E2948050797896E22401FE08E23400FF78B6E224FFFA08E234FFFB900628EAED
:2051DE00F0EBA3F08E828F83C005C004127011AE82AF83D004D005ECB50644EDB5074078AE
:2051FE0096ECF208EDF2126B9DAE82AF837899E2FA08E2CA25E0CA33FB900628EAF0EBA3F6
:20521E00F08E828F83127011AE82AF837899E22EFE08E23FFF789DEEF208EFF20252BB78BD
:20523E0096ECF274804D08F27854900618E22401F008E23400A3F07899E2F58208E2F583B3
:20525E00126E88AE82AF83C007C006126B9DAC82AD837854900618E22402F008E23400A38E
:20527E00F07899E2F58208E2F583C005C004126E88AA82AB83D004D005900628EAF0EBA39A
:20529E00F08C828D83127011AC82AD83D006D007EC2EFEED3FFF789DEEF208EFF27899E230
:2052BE00FE08E2CE25E0CE33CE25E0CE33FF900628EEF0EFA3F0789DE2F58208E2F5831241
:2052DE007011E5828583F0789DF208E5F0F2800E78547996E24400F308E2448009F37582D7
:2052FE0000227886E2705A302C0C7896E4F2087480F275820022302D1078547996E2440003
:20531E00F308E2448009F3800E7854E2FE08E2FF7896EEF208EFF2102E0280217899900650
:20533E0018E2F008E2A3F0900006126E88E5828583F0789DF208E5F0F27582002275820104
:20535E002275820122123DA2E582FF24EB400578A0E4F2221241ACE5828583F0249CFEE537
:20537E00F034FFFFC3E49EE464808FF063F08095F0E433FD700C78A0E2600778A0E214F218
:20539E008039C3740A9EE464808FF063F08095F0500878A0E2240AF28021C374059EE46483
:2053BE00808FF063F08095F0500878A0E22405F28009ED600678A0E22401F2789FE2FE7FA8
:2053DE000078A0E2FC7D00EEC39CFEEF9DFFC3EE9414EF648094805008789F79A0E224ECAC
:2053FE00F3227854E2F5F008E245F0600330300E9005BBE4F0C230D206120FFF80079005CD
:20541E00BBE02401F09005BBE0FFBF02005004D29580477898E4F2A22F9295B22F7887741A
:20543E00FFF20874FFF290060BE4F090060C7410F0E4A3F090011975F000126D8890060B37
:20545E00E4F090060C7410F0E4A3F090010975F000126D8878ABE4F208F29005BBE075F03F
:20547E000584AFF0BF0413303105120FCB800BC206120FFF120FA5123A7B78ADE4F208F2C9
:20549E00302B077803E2FF78AAF2B22B9005BCE02401F09005BCE0FFBF04081253639005A1
:2054BE00BCE4F022AE82AF839000BE75F000C007C0061273D9E5828583F02401FCE435F093
:2054DE00FD90060E74BEF07400A3F0E4A3F0900611ECF0EDA3F09005AA75F000126DB0D0C7
:2054FE0006D00778B4EEF208EFF2D23322AF82BF02004017EF24EF40129004AEE0FEBE52C8
:20551E000A9004AFE0FEBE540280237E00C3EE9F501BEE24AEF582E43404F583E0F582C070
:20553E0007C006124B75D006D0070E80E02278B279B4E2F308E209F390060E74AEF0740431
:20555E00A3F0E4A3F0900611EFF0E4A3F09000BE75F000C007126DB0D007EF24BEF582E47A
:20557E003400F583E4F09000BE7441F07801EFF2BF041B9000C0E0FFBF49139000C1E0FFE8
:20559E00BF350B78AF7401F275820002241C02244912670EAE82AF8378B9EEF208EFF2785D
:2055BE00FF762A78FFB62A02801DC007C006741FC0E0747DC0E07480C0E0121097158115EF
:2055DE00811581D006D0077800E2B44102801DC007C006742CC0E0747DC0E07480C0E012F7
:2055FE001097158115811581D006D007C007C0061206C5D006D00778AAE2600FC007C00660
:20561E00124D73D006D00778AAE4F2300F17900129E0FB601020000DC20FC007C006121AE3
:20563E00CDD006D007C007C00612670E78BCE582F208E583F2786274AEF2087404F29000DF
:20565E00BB75F0601235DCD006D0074003025980789DE4F208F278BBE2B40400502A78BB5F
:20567E00E2FC7D00C007C006C004C0057442C0E0747DC0E07480C0E01235C2E58124FBF59D
:20569E0081D006D0070255C17886E2700AD22C7896E4F2087480F278BBE224AEFCE434047D
:2056BE00FDEC24FCFCED34FFFD90060EECF0EDA3F0E4A3F09006117404F0E4A3F09000B06D
:2056DE0075F060C007C006126DB0D006D00778BBE214141414F278B2E2F55F08E2F5603058
:2056FE00E73B7898E2B4FF0050117887E2F5F008E245F070067898E22401F27887E4F20823
:20571E00F278B2E2FC08E2FD53057F8C82C007C006120FC1D006D007D2300255C130313FCF
:20573E0078B1E220E6397898E2B4FF00501E7401255FFCE43560FD7887E2B5040708E2B543
:20575E000502800280067898E22401F278B2E2FC08E2FD788774012CF2E43D08F2D23078FD
:20577E00B2E2FC08E2FDC3EC9408ED9400507CC006C007EDCC25E0CC33FDEC2409FCED347F
:20579E0001FDC006C005C0041236D3AF82D004D005D0067E0078B2E2FA08E2CA25E0CA3399
:2057BE00FBEA2409F582EB3401F583E0900618F0E4A3F0900007C007C006C005C004126E88
:2057DE0088AA82AB83D004D005D006D007EA2FFAEB3EC423CAC423541F6ACA541FCA6ACA87
:2057FE00FB8C828D83EAF0D007D00678ABE22401F208E23400F278B0E2FC08E2541FFD4C13
:20581E0060030258C978BBE270030258C978BBE2B4040280030258BB78B2E2FC08E2FDC320
:20583E00EC9408ED94005075C006C00778BBE21414F278BBE224AEFAE43404FB7F008A823D
:20585E008B838FF01274B4FAA31274B4FB7854E2B5020708E2B503028006D007D006803D91
:20587E00D007D006EDCC25E0CC33FDEC2419FCED3401FD7B0090060E74AEF07404A3F0E43F
:20589E00A3F078BB900611E2F0E4A3F08C828D838BF0C007C006126DB0D006D00778ABE22D
:2058BE0024FFF208E234FFF20255C178B0E2FC08E2541FFD4C70030255C178B0E2FC08E267
:2058DE00541FFD788DECF208EDF278BB79B8E2700474018001E4F37582011250D678BCE2A3
:2058FE00FE08E2FF78B1E2C4035401FDBD012278BBC3E2F5F0740195F040030255C178BB5A
:20591E00E2F582C007C00612550BD006D0070255C178BBE270030255C178B1E22354012405
:20593E00FF9210783E74AEF2087404F278BBE2F582C007C00612239CD006D007500302552B
:20595E00C13000030255C1D29678BB7982E2F39004AEC007C00612469FD006D007C29602E5
:20597E0055C1C007C00612670E78BCE582F208E583F2D006D00778BCE2C39EFC08E29FFD4A
:20599E008C828D83C005C004124DA5D004D00578BCE2FE08E2FF788F7994E3F5F0C3E29582
:2059BE00F0FA09E3F5F008E295F0FB788DC3E2F5F0EA95F008E2F5F0EB95F050030255C1FC
:2059DE007886E2B4022A78917994E3F5F0C3E295F0FA09E3F5F008E295F0FB788DC3E2F50D
:2059FE00F0EA95F008E2F5F0EB95F050030255C1C006C00778BC79B9E3F5F0C3E295F0FAA1
:205A1E0009E3F5F008E295F0FB7E007F00C3E49A74809BE49EE464808FF063F08095F0D06F
:205A3E0007D006501DC007C006C005C004125400D004D005D006D00778BC79B9E2F308E207
:205A5E0009F378A3E27003025AF2C007C006C005C0041236D9AB82D004D005D006D007783C
:205A7E00A3C3E2F5F0EB95F0500B78A4E22CF208E23DF2803E78A4E4F208F278A8E2F5F04A
:205A9E0008E245F0702DC007C006126B9DAC82AD8378A6900628E2F008E2A3F08C828D83DE
:205ABE00127011E5828583F0D006D00778A8F208E5F0F278A679A8E3C5F0E225F0FC09E392
:205ADE00C5F008E235F0FD78A4C3E29C08E29D50030255C178B8E4F2758200C007C00612FC
:205AFE0050D6E582D006D00770030255C1789DE2F5F008E245F060030255C1C007C00612AE
:205B1E0036BCD006D007400DC007C0061236A3D006D00750237899E2FC08E2FD789DECF21A
:205B3E0008EDF27886E260030255C1D22C7896E4F2087480F20255C17854E2F5F008E2455B
:205B5E00F0600B7898E2B4140050030255C1C006C0077854E2FC08E2CC25E0CC33FDEC24A9
:205B7E0009FCED3401FD0CBC00010DC007C006C005C0041236D9AB82D004D005D006D00753
:205B9E007A007854E2FE08E2CE25E0CE33FFEE2409FEEF3401FF8E828F83A3E0900618F085
:205BBE00E4A3F0900003C005C004C003C002126E88AE82AF83D002D003D004D005EE2BFEE0
:205BDE00EF3AC313CE13CEC313CE13CE8C828D83EEF0D007D0063032030255C1788D799937
:205BFE00C3E3F5F0E295F009E3F5F008E295F050030255C1788DE2FC08E2FD7899E2FA082B
:205C1E00E2CA25E0CA33FBECC39AFCED9BFD30E7047D0080367899E2FB08E2CB25E0CB33FF
:205C3E00FC788DE2C39BFB08E29CFC789B9005BDE2F008E2A3F08B828C83C007C0061267B2
:205C5E006BAB82AC83D006D0078B05BD050050030255C1ED24FBFD7893C3E29D5004789340
:205C7E00E2FDC007C006C005124AE2E5828583F0D005D006D00745F06044302E417886E25E
:205C9E00B4013B788FE2FB08E2C313CB13CBC313CB13CBFC788DC3E29B08E29C50030255B9
:205CBE00C19004AE74FFF078BB7401F278B1E24420F2788B74FFF20874FFF2025DC978866A
:205CDE00E2B40203025DC5203303025D68C006C0079005AA75F000C007C006C0051273D9E9
:205CFE00AB82AC83D005D006D0078D027F00C3EA9BEF9CD007D00640519005AA75F000C025
:205D1E0007C006C0051273D9AB8278BBEBF290060E74AAF07405A3F0E4A3F0900611EBF081
:205D3E00E4A3F09004AE75F000126DB0D005D006D00778B1E24420F278B4E2FB08E2FC78AE
:205D5E008BEBF208ECF2C2338061783C74AEF2087404F28D82C007C006C005121EA4E5822B
:205D7E0078BBF2122345D005D006D0079235E433FC78B113E292E5F278B1E230E52D78B40A
:205D9E00E2FB08E2FC788BEBF208ECF278AFE2FC78AF04F28C82C007C006C00512241CD0B8
:205DBE0005D006D007800478BBE4F278BB7993C3E2F5F0E395F05021C007C006C0057457C7
:205DDE00C0E0747DC0E07480C0E0121097158115811581D005D006D0077886E2B40103D378
:205DFE008001C39235E43378B113E292E6F2C007C006C005122342D005D006D0079235E4E5
:205E1E0033FC78B113E292E7F27886E26003025F8B78BBE26003025F8BBD12005003025F96
:205E3E008B78B6E224FFFC08E234FFFD78ADC3E29C08E29D4003025F8B7854C3E29408083F
:205E5E00E294004003025F8B7899E2FC08E2CC25E0CC33FD788FE2C39CFC08E29DFD788D0C
:205E7E00C3E29C08E29D4003025F8B78AD7954E2F5F0E3B5F00B08E2F5F009E3B5F00280DF
:205E9E0002800B78ADE22401F208E23400F278BB7402F278ADE2FC08E2CC25E0CC33FDECE8
:205EBE002409FCED3401FD0CBC00010D7854E2FA08E2CA25E0CA33FBEA2409FAEB3401FB21
:205EDE008A828B83A3E08C828D83F078ADE2FC08E2CC25E0CC33FDEC2409FCED3401FD907B
:205EFE00060EECF0EDA3F0E4A3F09006117402F0E4A3F09004AE75F000C007C006126DB0B6
:205F1E0090060E74ADF0E4A3F07460A3F09006117402F0E4A3F09004B075F000126DB0D0A4
:205F3E0006D00778BB7404F278ADE22401F208E23400F278AD7954E2F5F0E3B5F00B08E265
:205F5E00F5F009E3B5F0028002800B78ADE22401F208E23400F278B0E4F208E254E0F278EA
:205F7E00B1E2547FF278B1E254DFF280537886E2601E78BBE270197886E2B402028003028F
:205F9E0055C17854E2F5F008E245F060030255C178BBE22404F582C007C006124D7EAC8254
:205FBE00AD83D006D007788DE2C39CFC08E29DFD78B0ECF208ED541FF5F0E254E045F0F290
:205FDE007886E2B402267854E2F5F008E245F0701BC007C006120FBBAD82D006D0077C00E9
:205FFE0043048078B2EDF208ECF2800A78B27954E3F20809E3F278BBE224AEFCE43404FD95
:20601E007B0090060E74B0F0E4A3F07460A3F09006117404F0E4A3F08C828D838BF0C0076B
:20603E00C006126DB0D006D00778B1E220E52C78BBE2601E78B0E2FC08E2541FFD4C6012B3
:20605E00D2967889E2FC08E2FD788BECF208EDF28009788B74FFF20874FFF27886E2700F6F
:20607E0078BBE27006D22ED22D8010C22D800C7886E2B401067897E2547FF2302E2178869F
:20609E00E2B4011BC22E7899799DE2F308E2F5F0E325E0C5F033C5F0F309E5F0F3800E7826
:2060BE0099E2FC08E2FD789DECF208EDF2789FE2FC7D0078A0E2FA7B00ECC39AFCED9BFDDF
:2060DE00BC6405BD0002801F78BBE22404F582C007C006124D7EAC82AD83D006D00778A1DD
:2060FE00E22CF208E23DF278BBE22404FD786A74AEF2087404F2788B9004A1E2F008E2A330
:20611E00F0788D796CE2F308E209F38D82C007C00612391ED006D007401078BBE2600BC08A
:20613E0007C006122348D006D00778A3E2600C78A4E4F208F278A8E4F208F2C007C0061266
:20615E000F95123A7B12397AD006D00778BBE270030255C178B0E2FC08E2541FFD4C700385
:20617E000255C1C2960255C1A23022AE82AF8378B674012EF2E43F08F222AE82AF837889BE
:20619E00EEF208EFF222E58224FF9231221236DFAF82900624EFF0E4A3F0E4A3F0E4A3F031
:2061BE009003E8E4F5F0126FA5AC82AD83AEF0FF9005FFECF0EDA3F0EEA3F0EFA3F09012C7
:2061DE000075F07AE4126C47AC82AD83AEF0FF74082CF561E43DF562E43EF563E43FF564B2
:2061FE00AA61E562C4CAC4540F6ACA540FCA6ACAFBE563C454F04BFBAE63E564C4CEC45450
:20621E000F6ECE540FCE6ECE789BEAF208EBF2900624EAF0EBA3F0E4A3F0E4A3F09027100D
:20623E00E4F5F0C003C002126FA585826585836685F067F568900624E561F0E562A3F0E50A
:20625E0063A3F0E564A3F0900271E4F5F0126FA5AC82AD83AEF0FFD002D003C3E5659CE52E
:20627E00669DE5679EE5689F500A789B74012AF2E43B08F2789B900618E2F008E2A3F09070
:20629E00000D126E88E5828583F07899240DF2E435F008F230073478937474F2789CE2F5FA
:2062BE00F018E225E0C5F033C5F0F208E5F0F2789BE2FE08E2CE25E0CE33CE25E0CE33FFEF
:2062DE007899E22EF208E23FF28005789374F8F27899E2F56108E2C56125E0C56133F56276
:2062FE007894E561F208E562F2789B900624E2F008E2A3F0E4A3F0E4A3F07893E2FA7B008F
:20631E007C007D008A828B838CF0ED126FA585826585836685F067F5687899E2F56908E26F
:20633E00F56AE4F56BF56CE5692565FCE56A3566FDE56B3567FEE56C3568FFEC2CF565ED4A
:20635E0033F566EE33F567EF33F568AA61AB62E4FEFFEA2565FAEB3566FBEE3567FEEF3501
:20637E0068FFE5692AFCE56A3BFDE56B3EFEE56C3FFF78A3E2603578A67438F2087401F2C5
:20639E00784574A8F2087403F208E4F208F27849ECF208EDF208EEF208EFF28C828D838EC8
:2063BE00F0EF122C86AC82AD83AEF0FFC374FF9C741F9DE49EE49F50087CFF7D1F7E007FAE
:2063DE0000C3EC94A8ED9461EE9400EF940040087CA87D617E007F00788FECF208EDF27842
:2063FE009BE2F56908E2F56AE4F56BF56CE5692569F569E56A33F56AE56B33F56BE56C3334
:20641E00F56CE5692569F569E56A33F56AE56B33F56BE56C33F56C7899E2F56508E2F56688
:20643E00E4F567F568E5652569F569E566356AF56AE567356BF56BE568356CF56CE5692514
:20645E0069F569E56A33F56AE56B33F56BE56C33F56CE5692569F569E56A33F56AE56B3310
:20647E00F56BE56C33F56C7894E2F56108E2F562E4F563F564E5612569F569E562356AF592
:20649E006AE563356BF56BE564356CF56CE5652569FCE566356AFDE567356BE568356C78D4
:2064BE0091ECF208EDF27861E27E0024F6FFEE34FFFE9006357402F0E4A3F08F828E83121B
:2064DE0071EDAE82AF83789B900618E2F008E2A3F08E828F83126E88AE82AF837899E22E21
:2064FE00F208E23FF2788F7999E3F5F0C3E295F0FE09E3F5F008E295F0FF789B9005BDE2E2
:20651E00F008E2A3F08E828F8312676BAE82AF837893E2FC7D00C3EC9EED9F50048C068DD6
:20653E00078E8212234B78B274FFF20874FFF2788774FFF20874FFF290060BE4F090060CC2
:20655E007410F0E4A3F090011975F000126D8890060BE4F090060C7410F0E4A3F090010980
