:0A04D20078007441F278167464F2A9
:2004E700AF828F06BE0802801BBE0D028005BE7F30801175820A124B7E7812E22401F8E433
:20050700F2D201227812E26064758208124B7E758220124B7E758208124B7E7812E214F2A5
:20052700227812E2B41000503E8F82C007C0061272DAE582D006D00760338F82C007C00693
:200547001272A8E582D006D00760055306DF80028F068E077812E2FE781204F2EE2401F816
:20056700EFF28F82024B7EC2007812E4F222AF82BF2B0280047815E4F27815C3E2F5F074E4
:200587000495F0402C7815E275F003A4900597730205BC0205A60205A60205AD0205BC7839
:2005A70015E22401F22278157404F278167464F2227815E4F278167464F2227816E26038AE
:2005C7007816E214F27816E2702E7815E260087815E2B40423800678157401F222D2007889
:2005E70015E4F278017441F278027454F27803E4F278127402F2D20122AF82BF3000400D10
:20060700EF24C640088F06EE24D0F58222BF4100400DEF24B940088F0674C92EF58222BFE9
:200627006100400BEF2499400674A92FF582227861E2C0E008E2C0E07458C0E07475C0E056
:200647007480C0E0123617E58124FBF58175820022AD82AE83AFF01274B5F582C007C0064E
:20066700C005120600AC82D005D006D007ECC454F0FC0DBD00010E8D828E838FF01274B543
:20068700F582C004120600AF82D004EF2CF58222E5812404F5817C007D007E007F007813C2
:2006A700E22401F9E3FBF582C007C006C005C004C003126E25E582D003D004D005D006D0D7
:2006C70007606D90061DECF0EDA3F0EEA3F0EFA3F090000AE4F5F0C003126FA6AF82AE837E
:2006E700ADF0FCD0038B027B00EA24D0FAEB34FFFBE58124FDF8A60208A603EB3395E0081B
:20070700F608F6E58124FDF8E62FF608E63EF608E63DF608E63CF6E58124FDF8860408865A
:20072700050886060886077813E22401F20206A58C828D838EF0EFC8E58124FCF581C8221A
:20074700200101227812E2B40200E433FF70637801E2FEBE525C7802E2FEBE5455781374BE
:2007670003F278127913C3E2F5F0E395F050157813E22401F9E3FEBE2C0280087813E2249F
:2007870001F280DE7813E22401F9E3FEBE2C167813E2FE781304F2EE2401F8E4F212069719
:2007A7001254CB800690FFFF1254CB7812E4F2C20122EF70667801E2FFBF415F7802E2FF9E
:2007C700BF54587803E2FF6023BF26028023BF2B028023BF49028023BF4F028028BF500239
:2007E700801EBF53028027BF5A2E8027120829802A120A708025120CAB8020120867801B08
:20080700120B4A801678167464F2C200800D1209E5800843EF1080FE1208487812E4F2C261
:2008270001227861E2C0E008E2C0E07490C0E07475C0E07480C0E0123617E58124FBF5818E
:20084700227861E2C0E008E2C0E07499C0E07475C0E07480C0E0123617E58124FBF5812244
:200867007804E2FF6037BF30028032BF31028058BF32030208FABF3303020920BF34030200
:200887000949BF3503020972BF3603020984BF3703020987BF380302098A0209E27426C0A3
:2008A700E07478C0E07480C0E07861E2C0E008E2C0E074A5C0E07475C0E07480C0E012362E
:2008C70017E58124F8F58122743CC0E07478C0E07480C0E07861E2C0E008E2C0E074A5C0B2
:2008E700E07475C0E07480C0E0123617E58124F8F581227482C0E0E4C0E07861E2C0E008FE
:20090700E2C0E074AEC0E07475C0E07480C0E0123617E58124F9F58122781AE2FE7F00C044
:2009270006C0077861E2C0E008E2C0E074AEC0E07475C0E07480C0E0123617E58124F9F548
:200947008122781BE2FE7F00C006C0077861E2C0E008E2C0E074AEC0E07475C0E07480C08A
:20096700E0123617E58124F9F581227F008F82C007122B1BD0070FBF130040F12202659560
:20098700024C277861E2F5F008E245F070207861E2C0E008E2C0E074B7C0E07475C0E074DF
:2009A70080C0E0123617E58124FBF581802C1261879202E433FE7F00C006C0077861E2C0E0
:2009C700E008E2C0E074C8C0E07475C0E07480C0E0123617E58124F9F58122020848781356
:2009E7007403F2120697AC82AD83AEF0FFBC130040030208487813E22401F9E3FFBF3D020E
:200A07008036BF3F618C821226F3AB82AD83AEF0FFC003C005C006C0077861E2C0E008E22D
:200A2700C0E074D7C0E07475C0E07480C0E0123617E58124F7F58122EC602B7813E2240186
:200A4700F2C004120697AB82AD83AEF0FFD004784EEBF208EDF208EEF208EFF28C821225BC
:200A67000150030208290208487804E2FFBF46028012BF54028053BF55028014BF57028076
:200A870009020B471229E902082912299202082990061374E1F07475A3F07480A3F090001A
:200AA7000575F060126EA9E5828583F045F0701775B7A575B7F1758F0390F7FE74FFF075CF
:200AC7008F0043EF1080FE02084890061374E7F07475A3F07480A3F090000575F060126E9D
:200AE700A9E5828583F045F070057814E4F22290061374E8F07475A3F07480A3F09000052C
:200B070075F060126EA9E5828583F045F070077814E26401F22290061374EEF07475A3F077
:200B27007480A3F090000575F060126EA9E5828583F045F070077814E26402F2220208485F
:200B47000208487804E2FFBF50028003020BF47F008F057E00C007C005C0067861E2C0E00C
:200B670008E2C0E074F3C0E07475C0E07480C0E0123617E58124F9F581D0078F82C00712A7
:200B87003060D007501BC0077400C0E07476C0E07480C0E0123617158115811581D007800B
:200BA70019C0077408C0E07476C0E07480C0E0123617158115811581D0078F82C007123200
:200BC700189203E433FD7E00C005C0067410C0E07476C0E07480C0E0123617E58124FBF529
:200BE70081D0070FBF06005003020B58227805E2FFBF3D0C7806E2F582126E25E58270032C
:200C07000208487806E224D0FF7804E2FEBE4302805EBE49028016BE4F028008BE52028023
:200C270015020CA5D2118F82122D9F8074C2118F82122D9F806B8F82C007123060D00740E1
:200C47002C8F82123237AE827D00C006C0057861E2C0E008E2C0E07419C0E07476C0E0748D
:200C670080C0E0123617E58124F9F581220208487808E2F582C007126E25E582D007601B83
:200C87007808E2FE3395E0FDEE24D0FEED34FF4E24FF92138F8212307E40060208480208BF
:070CA7004802082902084879
:207558005B25755D20726561645F6865785F6E6962626C653A204572726F72206368617274
:20757800206E6F7420696E20737570706F727465642072616E6765005B25755D204F4B0A42
:20759800005B25755D204552524F520A005B25755D2025730A005B25755D2025750A005B48
:2075B80025755D2053796E633A20426173650A005B25755D2053796E633A2025750A005BB8
:2075D80025755D20256C750A00504441544500003D52535349003D54444D005B25755D20EC
:2075F80050696E3A256420004F75747075742000496E70757420200056616C3A2025640A58
:0E761800005B25755D2076616C3A25750A00D1
:200CAE00AF827E007D00AB08AC098F021FEA603B8B828C83E0FAA3AB82AC83ED2DF9ED3038
:200CCE00E714890009E8907726936EFDE990772693F86AFE80D4890009E890762693F86E6A
:1B0CEE00FDE990762693F96AFE80BF8D07E4FDFCEE4205EC42078D828F832288
:207626000000102120423063408450A560C670E781089129A14AB16BC18CD1ADE1CEF1EF44
:20764600123102103273225252B5429472F762D693398318B37BA35AD3BDC39CF3FFE3DE04
:20766600246234430420140164E674C744A45485A56AB54B85289509E5EEF5CFC5ACD58DC4
:20768600365326721611063076D766F6569546B4B75BA77A97198738F7DFE7FED79DC7BC84
:2076A60048C458E5688678A70840186128023823C9CCD9EDE98EF9AF89489969A90AB92B44
:2076C6005AF54AD47AB76A961A710A503A332A12DBFDCBDCFBBFEB9E9B798B58BB3BAB1A04
:2076E6006CA67C874CE45CC52C223C030C601C41EDAEFD8FCDECDDCDAD2ABD0B8D689D49C4
:207706007E976EB65ED54EF43E132E321E510E70FF9FEFBEDFDDCFFCBF1BAF3A9F598F7883
:20772600918881A9B1CAA1EBD10CC12DF14EE16F108000A130C220E3500440257046606743
:2077460083B99398A3FBB3DAC33DD31CE37FF35E02B1129022F332D2423552146277725603
:20776600B5EAA5CB95A88589F56EE54FD52CC50D34E224C314A004817466644754244405C3
:20778600A7DBB7FA879997B8E75FF77EC71DD73C26D336F2069116B0665776764615563483
:2077A600D94CC96DF90EE92F99C889E9B98AA9AB584448657806682718C008E1388228A343
:2077C600CB7DDB5CEB3FFB1E8BF99BD8ABBBBB9A4A755A546A377A160AF11AD02AB33A9203
:2077E600FD2EED0FDD6CCD4DBDAAAD8B9DE88DC97C266C075C644C453CA22C831CE00CC1C3
:20780600EF1FFF3ECF5DDF7CAF9BBFBA8FD99FF86E177E364E555E742E933EB20ED11EF082
:200D090075B7A575B7F122D310AF01C3C0D0AF8474035F4430F584C007120D09D007758F14
:200D29000390F80074FFF0758F008F84D0D092AF22D310AF01C3C0D0AE82AF83AD847403B2
:200D49005D4430F584758F004307F88E828F83E493FF758F008D848F82D0D092AF22D31056
:200D6900AF01C3C0D0AE82AF83AD8474035D4430F584C007C006C005120D09D005D006D01E
:190D890007758F054307F88E828F837817E2F08D84758F00D0D092AF2264
:02F7FE003DC20A
:200DA200AF83E58290010FF0EFA3F090010FE0FEA3E0FF90010EE0FD7C008D027B001ABAB0
:200DC200FF011B8C007900C3E89AE964808BF063F08095F05046C007C006C005C004126BE3
:200DE2009EAA82D004D005D006D0078DF0EA84E5F02EFAE43FFB8A828B83E0F50AC005EC21
:200E02002EF8E43FFD88828D83E0F98A828B83F088828D83E50AF00CD005809E22AF83E55C
:200E220082900111F0EFA3F07F007818C3E2F5F0EF95F0500FEF24DCF582E43400F583EFC9
:200E4200F00F80E6900111E0FEA3E0FF8E828F83126BF87818E2FF7E008F047D001CBCFFBC
:200E6200011D8E027B00C3EA9CEB64808DF063F08095F05042C007C006126B9EAC82D0061C
:200E8200D0078FF0EC84E5F024DCFCE43400FD8C828D83E0F50BC007EE24DCFAE43400FFE0
:200EA2008A828F83E0FB8C828D83F08A828F83E50BF00ED00780A2227819E224DCF582E434
:200EC2003400F583E0F582227818E2F5F0E484E5F024DCF582E43400F583E0F58222781946
:200EE200E2F58222E582900115F07819F2227819E2FE7F000EBE00010F7818900619E2F0F6
:200F0200E4A3F08E828F83126F3DAE82AF837819EEF220040C78187919E2F5F0E484E5F04F
:070F2200F322A20592042254
:060400000204790242B281
:01040B0032BE
:0104130032B6
:01041B0032AE
:030423000243F899
:03042B000266A7BF
:010433003296
:01043B00328E
:010443003286
:01044B00327E
:010453003276
:01045B00326E
:010463003266
:01046B00325E
:0304730002661D01
:0304E40002047699
:03047600020F2949
:200F2900758433AFC4781AEFF2AFC3781BEFF212289E40031229E97582061226F3AC82908B
:200F49000136ECF07582071226F3AC82AD83AEF0FFEC4D4E4F24FF92077582051226F3ACEC
:200F690082AD83AEF0FFEC4D4E4F24FF920675820E1226F3AC82AD83AEF0FFEC4D4E4F2463
:200F8900FF9208120FEC12109E1239CF40157440C0E07478C0E07480C0E0120FB215811581
:200FA900811581122D500255B090785A75F0801272F3E58124FCFFC007E58124FBF88682EC
:200FC9000886830886F012338F158190786575F0801272F3D2AFD2AC9003E812669E43EF84
:200FE9001080FE75A700AFD974BF5FF5D943B28075A90075B64075FF807E5E7F011EBEFF2D
:20100900011FEE4F70F775EF0675D4CF75D5FF75D62875A41075A70F75A41075A70075E1D6
:201029000143E24143A6FD75A70F43A5F575A6FD43B1C043A1C043A50143A50143FA204370
:20104900A32075A70275A14075F80075A20043F801D2A375A700C28912674D7582011226BE
:20106900F3AC828C821245B375B800D2AFD2B7C2B6D2EF75BCF975BA0075BB1B75D1077558
:20108900D2FF43D98875DF0075FC8075DA4275D84075E34022123A0E40157466C0E07478A0
:2010A900C0E07480C0E0120FB2158115811581781AE2B44302801C781AE2B44702804378A9
:2010C9001AE2B48602806A781AE2B4910302116702119478287490F20874D1F20874CFF2F6
:2010E900087419F2782C7470F208745EF20874EAF2087419F27834740AF27818740AF2021D
:2011090011CB78287480F20874A1F2087403F208741CF2782C74C0F20874E3F2087412F2BF
:2011290008741CF27834740AF27818740AF20211CB7828E4F20874A1F20874BCF2087433C4
:20114900F2782C7440F20874E3F20874CBF2087433F27834740AF27818740AF2806478287F
:2011690074C0F20874CAF2087489F2087436F2782CE4F2087428F2087450F2087437F27882
:2011890034741BF278187432F280377828E4F208F208F208F2782CE4F208F208F208F2786E
:2011A90034E4F2781AE2FA7B00C002C003747EC0E07478C0E07480C0E0120FB2E58124FBA4
:2011C900F58175820A1226F3AA82AB83AEF0FFEA4B4E4F601175820A1226F3AC82AD83AEF2
:2011E900F0FF7818ECF27582081226F3AC82AD83AEF0FFEC4D4E4F60377582081226F3AC21
:2012090082AD83AEF0FF90061DECF0EDA3F0EEA3F0EFA3F09003E8E4F5F0126FA67828C099
:20122900E0E582F208E583F208E5F0F2D0E008F27582091226F3AC82AD83AEF0FFEC4D4EE4
:201249004F60377582091226F3AC82AD83AEF0FF90061DECF0EDA3F0EEA3F0EFA3F09003D4
:20126900E8E4F5F0126FA6782CC0E0E582F208E583F208E5F0F2D0E008F27582041226F3EF
:20128900AC82AD83AEF0FFEC4D4E4F60117582041226F3AC82AD83AEF0FF7834ECF27834AC
:2012A900E2FB7D007E007F007852E4F208F208F208F27856741EF208E4F208F208F28B820F
:2012C9008D838EF0EF122BC2AC827834ECF27818E2FC7D007E007F0078527401F208E4F2DA
:2012E90008F208F278567432F208E4F208F208F28C828D838EF0EF122BC2AC82AD83AEF033
:20130900FF7818ECF2781AE2B44302801E781AE2B447030213C3781AE2B48603021454786F
:201329001AE2B491030214E502157378527480F2087423F20874ADF2087418F27856E4F255
:2013490008740BF208746BF208741BF27828E2F58208E2F58308E2F5F008E2122BC27828F6
:20136900C0E0E582F208E583F208E5F0F2D0E008F278527480F2087423F20874ADF20874B8
:2013890018F27856E4F208740BF208746BF208741BF2782CE2F58208E2F58308E2F5F00885
:2013A900E2122BC2782CC0E0E582F208E583F208E5F0F2D0E008F202159278527480F2086A
:2013C9007474F20874D2F208741AF278567480F20874CEF2087434F208741DF27828E2F5CE
:2013E9008208E2F58308E2F5F008E2122BC27828C0E0E582F208E583F208E5F0F2D0E008C6
:20140900F278527480F2087474F20874D2F208741AF278567480F20874CEF2087434F208DD
:20142900741DF2782CE2F58208E2F58308E2F5F008E2122BC2782CC0E0E582F208E583F20A
:2014490008E5F0F2D0E008F202159278527440F20874B6F208749AF2087432F278567440A3
:20146900F2087410F20874FDF2087434F27828E2F58208E2F58308E2F5F008E2122BC2785B
:2014890028C0E0E582F208E583F208E5F0F2D0E008F278527440F20874B6F208749AF208A3
:2014A9007432F278567440F2087410F20874FDF2087434F2782CE2F58208E2F58308E2F54E
:2014C900F008E2122BC2782CC0E0E582F208E583F208E5F0F2D0E008F20215927852E4F269
:2014E9000874A1F20874BCF2087433F2785674C0F20874F7F20874BAF2087437F27828E261
:20150900F58208E2F58308E2F5F008E2122BC27828C0E0E582F208E583F208E5F0F2D0E0B7
:2015290008F27852E4F20874A1F20874BCF2087433F2785674C0F20874F7F20874BAF208A5
:201549007437F2782CE2F58208E2F58308E2F5F008E2122BC2782CC0E0E582F208E583F2CF
:2015690008E5F0F2D0E008F2801F781AE2FE7F00C006C007747EC0E07478C0E07480C0E01A
:20158900120FB2E58124FBF581782C7928E2F5F0E3B5F01D08E2F5F009E3B5F01408E2F570
:2015A900F009E3B5F00B08E2F5F009E3B5F0028002801A7828792CE22440F308E234420931
:2015C900F308E2340F09F308E2340009F375820B1226F3AC8278ACECF27F007E007D00787D
:2015E90052E4F208F208F208F278567464F208E4F208F208F28C828F838EF0ED122BC2AC2C
:201609008278ACECF2784EECF208E4F208F208F275820B12250175820C1226F3AC82AD8301
:20162900AEF0FF78B0ECF2EC60337F007E007D0078527419F208E4F208F208F2785674DCCC
:20164900F208E4F208F208F28C828F838EF0ED122BC2AC82AD83AEF0FF78B0ECF278B07991
:201669004EE2F309E4F309F309F375820C1225019005F874E8F07403A3F0E4A3F0E4A3F05A
:201689007828E2F58208E2F58308E2F5F008E2126C48AC82AD83AEF0FF784EECF208EDF2E1
:2016A90008EEF208EFF27582081225019005F874E8F07403A3F0E4A3F0E4A3F0782CE2F5CD
:2016C9008208E2F58308E2F5F008E2126C48AC82AD83AEF0FF784EECF208EDF208EEF20828
:2016E900EFF27582091225017818794EE2F309E4F309F309F375820A122501782C7928E363
:20170900F5F0C3E295F0FC09E3F5F008E295F0FD09E3F5F008E295F0FE09E3F5F008E295EA
:20172900F0FF7818E2FA7B0074022AFAE43BFB9005F8EAF0EBA3F0EB3395E0A3F0A3F08CEC
:20174900828D838EF0EF126C487830C0E0E582F208E583F208E5F0F2D0E008F27833E2C3EF
:2017690013FF18E213FE18E213FB18E213FA7828E22AF208E23BF208E23EF208E23FF275D5
:2017890082031226F3126BF87818C3E2F5F0740595F05054126B9EAE82AF83900611EEF05D
:2017A900EFA3F0900271126E89AE82E583FF3395E0FDFC78309005EDE2F008E2A3F008E2F7
:2017C900A3F008E2A3F08E828F838DF0EC1269BAAC82AD83AEF0FF7828E22CF208E23DF27C
:2017E90008E23EF208E23FF27828E2F58208E2F58308E2F5F008E2123A457830E2F58208FD
:20180900E2F58308E2F5F008E2123A817582031226F3AC82AD83AEF0FF78189005EDE2F0DB
:20182900E4A3F0E4A3F0E4A3F08C828D838EF0EF1269BAAC828C82123AD07582021226F3FE
:20184900AC828C82123AFA40337582021226F3AC828C82123AFA40247582021226F3AC822E
:201869008C82123AFA40157495C0E07478C0E07480C0E0120FB2158115811581123734AF2C
:2018890082784EEFF208E4F208F208F27582021225017582031226F3123DFC75820F122665
:2018A900F3123E537582121226F312618A7582101226F31261997582111226F3AC828C82AB
:2018C9001261A57834E2F582123DB6123DF6AF82784EEFF208E4F208F208F27582041225BC
:0D18E900017582031226F3120E1F0261AC7E
:207826004D502053694B20322E34206F6E205246443930305000322E34006661696C6564EF
:2078460020746F20656E61626C65207265636569766572000A2A2A50414E49432A2A000006
:20786600726164696F5F696E697469616C697365206661696C65640062616420626F6172F9
:2078860064206672657175656E637920256400726164696F5F636F6E66696775726520662D
:0678A60061696C656400DD
:2018F600AF829004B9E0F5787CFF7DFF74062578FBFA24B8F582E43404F583EFF00A783686
:201916007401F27836C3E29A5065C0027836E224B8F582E43404F583E0FB8C7A757B00E5B9
:201936007AF57C6BF579C454F0F57D62798D7E757F00AB797E008B077A00E57E6202E57FA0
:201956006207EEC40354F8CBC403CB6BCB54F8CB6BFEEB6202EE6207E579C4540FFE7B0050
:201976006AFCEB6FFD7836E22401F2D00280947406257824B8F582E43404F5838C06EEF099
:201996007407257824B8F582E43404F5838D04ECF022AF828F788F047D007837E27B002C23
:2019B600FCEB3DFDAA787B00C3EA9CEB64808DF063F08095F05032E57824B8FCE43404FD96
:2019D6008C828D83E0F579E5780424B8FAE43404FB8A828B83E0FE8C828D83F08A828B8317
:2019F600E579F00578057880AD227EBE7F047D009004B874FEF09004B97409F07835E2FC0B
:201A1600783504F29004BAECF09004BB7433F09004BC7444F09004BD74A6F0781CE2FB0831
:201A3600E2FC8E828F838DF0EB126E3EA3EC126E3E74022EF50CE43FF50D8D0E7826E2FB3D
:201A560008E2FC850C82850D83850EF0EB126E3EA3EC126E3E74062EFEE43FFFC007C00694
:201A7600C005124B43AC82D005D006D0078E828F838DF0EC126E3E7582151218F61247C7A6
:201A9600AE82AF83C3EE9411EF9400500122788F7411F29004B81246A89004BD746DF07521
:201AB60082B91218F61247C7AE82AF83C3EE9411EF9400500122788F7411F29004B80246D5
:011AD600A867
:201AD700AE82AF83E0FDBDFE1A8E828F83A3E0FDBD091074052EFEE43FFF8E828F83E0702A
:201AF70002D20E22E5827842F2124AEB7843E582F208E583F27B007C00784574FFF2087466
:201B1700FFF27843C3E2940808E294005003021BF48B828C83C004C00312493A858229D0A7
:201B370003D00474FEB529028003021BF474012BFEE43CFF8E828F83C004C00312493A8551
:201B57008229D003D004740925295003021BF4C003C004AD297E0074082DFAE43EFC784297
:201B7700E2F52A752B007838E2FB7F00E52AC39BFBE52B9FFFC3EB9AEF64808CF063F08021
:201B970095F0D004D003405574082DFDE43EFE7843C3E29D08E29E404474062BFEE43CFFDC
:201BB7008E828F83C004C00312493AAF82D003D004BF460C7412B529077845EBF208ECF2FC
:201BD70074082529F529AA297F007843E2C39AF208E29FF2EA2BFBEF3CFC021B197845E241
:201BF700F58208E2F58322E58290032FF0E4F52EF52F783C7990E2F3900233124972783CB7
:201C1700E2FD7838F27847E2FA08E2FB7C009006077433F07402A3F0E4A3F090060AEDF0FF
:201C3700E4A3F08A828B838CF0126DB1783CE4F27847E2F58208E2F583121AD7900136E0A2
:201C5700FDBD020F90032FE0F582121AFBAC82AD8380047CFF7DFF8C308D31124AEB8582C1
:201C77002C85832D90032FE0F53574FFB5300974FFB5310474018001E4FCC3E52C9408E537
:201C97002D94005003021DD1C0041248E3858232D00474FEB5320280067838E2F58222C04F
:201CB700041248FF858232D004740925325003021DD1C00485323375340074082533FBE482
:201CD7003534FEAA357F007838E2FC7D00EAC39CFAEF9DFFC3EA9BEF64808EF063F080954E
:201CF700F0D0045003021DD174082533FEE43534FFC3E52C9EE52D9F5003021DD1EC7028BE
:201D1700E52EB53007E52FB53102801C900006C00412493AAF82D004BF460D7412B532089A
:201D370074082532F532807074082532F5327838E22433FEE43402FF7890E532F28E828FF8
:201D570083C00412497278477938E3C5F0E225F0FE08E23400FF7D007838E22433FAE434C6
:201D770002FB900607EAF0EBA3F0E4A3F090060AE532F0E4A3F08E828F838DF0126DB1787E
:201D9700477938E3C5F0E225F0FE08E23400FF8E828F83121AD7D0047838E22532F2AE32D6
:201DB7007F00E52CC39EF52CE52D9FF52DEE252EF52EEF352FF52F021C917838E2F5822272
:201DD700858236124AEB858237858338200C163007652009627838E2605DC3E5379420E5BA
:201DF70038940050527838C3E2F5F0E53695F050087838E4F275820022D209C20C7849E241
:201E1700FA08E2FB7C009006077433F07402A3F0E4A3F0783890060AE2F0E4A3F08A828B6C
:201E3700838CF0126DB17838E2F5377538007838E4F2AB378B8222C209200D03021F0778BF
:201E570038E2FB7C008B378C38853639753A00C3E5399537E53A953850657849E2FA08E2DC
:201E7700FE7F009006077433F07402A3F0E4A3F090060AE539F0E53AA3F08A828E838FF01E
:201E9700126DB1E5362433FEE43402FF900607EEF0EFA3F0E4A3F0AE367F0090060AE537DF
:201EB700C39EF0E5389FA3F090023375F000126DB1E537C395367838F2D20A853682227812
:201ED70049E2FD08E2FE7F009006077433F07402A3F0E4A3F090060AEBF0ECA3F08D828E11
:201EF700838FF0126DB1C20DD20A7838E2F58222C20AAE367F00C3EE9537EF953850048E79
:201F1700378F387838E4F2E53745387003F58222900136E0FF7053E53745386043AD377880
:201F370090EDF27849E2F58208E2F583C005124972D005502B7849900607E2F008E2A3F010
:201F5700E4A3F090060AE537F0E538A3F090023375F000C005126DB1D0057838EDF2800490
:201F77007838E4F27838E2F58222783CE2B4010280030220167401B53706E4B538028002D5
:201F9700807912670FAE82AF83783DD3E29EF4B3FEB308E29FF4FF783FC3E29E08E29F5098
:201FB700567838E2FF783804F2EF2433FFE43402FEC007C00612482EAD82D006D0078F821E
:201FD7008E83EDF07849E2FD08E2FE7F009006077433F07402A3F0E4A3F0783890060AE20F
:201FF700F0E4A3F08D828E838FF0126DB1783CE4F27838E2F5822275820022783CE4F278C4
:202017003CE270030220A5783CE2FE7F00C3E5379EE5389F506812670FAE82AF83783DD3DB
:20203700E29EF4B3FEB308E29FF4FF783FC3E29E08E29F5045AD377890EDF2900233C005C8
:20205700124972D0057838EDF27849E2FC08E2FE7F009006077433F07402A3F0E4A3F090EE
:20207700060AEDF0E4A3F08C828E838FF0126DB1783CE4F27838E2F5822275820022784988
:202097007947E2F308E209F3853682021BFEE537453870030222461248E3AF82BFFE028033
:2020B700030222177401B53706E4B538028002802E7838E26003022246783C7401F212676E
:2020D7000FE5828583F0783DF208E5F0F2783AE2FE08E2FF783FEEF208EFF27582002212DF
:2020F70048FFAF82783CEFF2BFF70050208F057E0074082DFDE43EFE7841E2FB7C00C3EBFE
:202117009DEC64808EF063F08095F05033783CE4F27838E2FE783804F2EE2433FEE43402C5
:20213700FDC006C00512482EAC82D005D0068E828D83ECF0153774FFB5370215380220A5E2
:2021570074082FFF783CF27838E260627849E2FC08E2FD7E009006077433F07402A3F0E49F
:20217700A3F0783890060AE2F0E4A3F08C828D838EF0126DB112670FE5828583F0783DF2C2
:2021970008E5F0F2783CE2FD7E00783A900611E2F008E2A3F08D828E83126E89E582858308
:2021B700F0783FF208E5F0F27838E2F582227E00C3E5379FE5389E503712670FE582858340
:2021D700F0783DF208E5F0F2783CE2FE7F00783A900611E2F008E2A3F08E828F83126E899C
:2021F700E5828583F0783FF208E5F0F27582002278497947E2F308E209F3853682021BFE44
:202217007838E2FF783804F2EF2433FFE43402FEC007C00612482EAD82D006D0078F828E83
:2022370083EDF0153774FFB5370215380220A57849E2FD08E2FE7F009006077433F07402B5
:20225700A3F0E4A3F0783890060AE2F0E4A3F08D828E838FF0126DB17838E2F58222A2091F
:2022770022A20A22D20C22E582900330F07841F222AF83E582900331F0EFA3F0900331E0FD
:20229700FEA3E0FF9005F8EEF0EFA3F0E4A3F0E4A3F090000075F001E4126C48AC82AD83CE
:2022B700AEF0FF0CBC00090DBD00050EBE00010F783AECF208EDF222E582900333F0200F09
:2022D70039784BE2FD08E2FE7F00900333E0FCFA7B00900607EDF0EEA3F0EFA3F090060A71
:2022F700EAF0EBA3F090013775F000C004126DB1D0047839ECF2C20BC322200B3790033311
:20231700E0FF7839E2B5072C784B900626E2F008E2A3F0E4A3F0900629EFF0E4A3F0900161
:202337003775F0001270BFE5828583F045F07004C20BD322D20BC322AF82BF130050259015
:2023570003AA74FCF0900233C00712335ED0078F82122B1B123387AF827838EFF2EF600409
:20237700C209D20D22D2019003AA74FCF090023312335E120747123387AF827838EFF2EFC5
:202397006004C209D20D22AE82AF83784DC3E2F5F074FC95F05005784D74FCF2900607EE49
:2023B700F0EFA3F0E4A3F0784D90060AE2F0E4A3F090023375F000126DB1784DE27838F2CC
:0523D700C209D20D2235
:2023DC00AF82BF1300400122EF24ED50030224FFEF240A83F582EF241783F583E47320222E
:2023FC002C4143586F5AFFFFFFFFFFFFFFBC845ADA24242424242424242424242424242467
:20241C0024242424C322AF3B8F82124B92921022C3E4953B7401953CE4953DE4953E400310
:20243C000224FFC322D322C3741E953BE4953CE4953DE4953E40030224FFC322C322C374D1
:20245C0001953BE4953CE4953DE4953E40030224FFC322C37402953BE4953CE4953DE49533
:20247C003E40030224FFC32274FFB53B0F74FFB53C0AE4B53D06E4B53E0280028002D32227
:20249C00900370E0FCA3E0FDA3E0FEA3E0FFECB53B0EEDB53C0AEEB53D06EFB53E02C3223D
:2024BC0090037CE0FCA3E0FDA3E0FEA3E0FFC3E53B9CE53C9DE53D9EE53E9F402622C3E5A3
:2024DC003B9402E53C9400E53D9400E53E94005012C3E4953B7480953CE4953DE4953E5092
:2024FC0002C322D322AF82784EE2F53B08E2F53C08E2F53D08E2F53E8F82C0071223DCD0CE
:20251C0007400122EF24ED50030226D2EF240A83F582EF241783F583E473D2D2D2D25CD2DF
:20253C002036D2D2D27BC2D2608AB2C69E26262626252626262626262525262626262626D5
:20255C00784EE2F582C007123DB6123DF6AE82D007784EEEF208E4F208F208F20226D2783E
:20257C0052E4F208F208F208F278567464F208E4F208F208F2784EE2F58208E2F58308E254
:20259C00F5F008E2C007122BC2AB82AC83ADF0FED007784EEBF208ECF208EDF208EEF278EC
:2025BC00ACEBF20226D2784EE2F5F008E242F008E242F008E245F0604278527419F208E4C1
:2025DC00F208F208F2785674DCF208E4F208F208F2784EE2F58208E2F58308E2F5F008E2DD
:2025FC00C007122BC2AB82AC83ADF0FED007784EEBF208ECF208EDF208EEF2784E79B0E202
:20261C00F30226D2784EE2FE900136F0784EEEF208E4F208F208F20226D2784EE2F5F0084D
:20263C00E242F008E242F008E245F024FF920750047E0180027E00784EEEF208E4F208F222
:20265C0008F28072784EE2F5F008E242F008E242F008E245F024FF920850047E0180027EFE
:20267C0000784EEEF208E4F208F208F28048784EE2FD08E2FE8D828E83C007123E53D00710
:20269C008034784EE2FD08E2FE8D828E83C00712618AD0078020784EE2FD08E2FE8D828E58
:2026BC0083C007126199D007800C784EE2F582C0071261A5D007EF75F004A42434F5827431
:2026DC000335F0F583784EE2F008E2A3F008E2A3F008E2A3F0D322AF82BF13004007900060
:2026FC0000E4F5F022EF75F004A42434F582740335F0F583E0FCA3E0FDA3E0FEA3E08C8286
:20271C008D838EF02285823F8583409003A4E0FD9003A5E0FC8D038D017A008C007F00E8AC
:20273C0029F8EF3AFF8B41754200C3E54198E54264808FF063F08095F0503BE541C399F948
:20275C00E5429AFAE9253FF9EA3540FA8B067F008E828F83C005C004C003C002C001120DE3
:20277C003AAF82D001D002D003D004D00589828A83EFF00B80A1853F088540098C82C00325
:20279C00120CAEAE82AF83D00374012541FCE43542FD8C828D83C007C006C003120D3AAD79
:2027BC0082D0038D047D007A008B828A83C005C004120D3AAB82D004D005D006D0077A0027
:2027DC00EB4205EA4204EEB50506EFB504028002C322D3228582438583449003A6E0FD908B
:2027FC0003A7E0FC8D038D457546008C027F00EA2545FAEF3546FF8B47754800C3E5479A3E
:20281C00E54864808FF063F08095F05037C0048B067F00E547C39545FAE5489546FCEA2583
:20283C0043F582EC3544F5837817E0F28E828F83C005C004C003120D67D003D004D0050B09
:20285C00D00480A28543088544098C82C003120CAEAE82AF83D0037D008E027817EAF28BEF
:20287C00828D83C007C006120D67D006D00774012547FCE43548FD7817EFF28C828D83021F
:20289C000D67D310AF01C3C0D0900000120D3AAE827F00C3744C9EE49F4008EE9430EF9409
:2028BC00005004C302298B7C347D039003A47401F09003A5EEF08C828D83C006122721D03F
:2028DC0006400302298B7D807F039003A474032EF09003A57424F08D828F83122721400314
:2028FC0002298B7582001226F3AC82AD83AEF0FFBC1B0BBD0008BE0005BF00028003C380F8
:20291C006E7F00EF75F004A42434FD740335F0FE8D828E83E0F53BA3E0F53CA3E0F53DA387
:20293C00E0F53E8F82C007C006C0051223DCD005D006D0074032EF75F007A424ACFB74784A
:20295C0035F0FC8B828C83A3A3A3E493F9A3E493FAA3E493FBA3E493FC8D828E83E9F0EAA3
:20297C00A3F0EBA3F0ECA3F00FBF4C004095D333D0D092AF1322D310AF01C3C0D0900334F3
:20299C00741BF0E4A3F0E4A3F0E4A3F0120D107817744CF2900000120D677E347F039003EA
:2029BC00A67401F09003A7744CF08E828F831227F07E807F039003A6744FF09003A774247D
:2029DC00F08E828F831227F0D0D092AF227F00EF75F004A42434FD740335F0FEEF75F007D8
:2029FC00A424ACFB747835F0FC8B828C83A3A3A3E493F9A3E493FAA3E493FBA3E493FC8DFE
:202A1C00828E83E9F0EAA3F0EBA3F0ECA3F00FBF130040BB7F00EF75F006A4FDAEF024801C
:202A3C00FBEE3403FC907931E493F578A3E493F579A3E493F57AA3E493F57B8B828C83E5A4
:202A5C0078F0E579A3F0E57AA3F0E57BA3F0ED2480FDEE3403FE74042DFBE43EFC9079356F
:202A7C00E493540F8B828C83540FF5F0E054F045F0F074042DFBE43EFC907935E493C45428
:202A9C000FFA8B828C83C454F0F5F0E0540F45F0F074052DFDE43EFE907936E493FC8D821C
:202ABC008E83F00FBF06005003022A3222AF827E008F037C007D40EE75F007A424ACF58293
:202ADC00747835F0F583E493F8A3E493F9A3E493FA900613E8F0E9A3F0EAA3F08B828C8325
:202AFC008DF0C007C006126EA9E5828583F0D006D00745F060060EBE130040B58E82228555
:202B1C00824974ED2549406EE54975F004A42434F582740335F0F583E0F54AA3E0F54BA3AE
:202B3C00E0F54CA3E0F54DE54975F007A424ACF582747835F0F583E493FAA3E493FEA3E475
:202B5C0093FFAC497D00C04AC04BC04CC04DC002C006C007C004C0057861E2C0E008E2C04A
:202B7C00E07437C0E07479C0E07480C0E0123617E58124F2F58122AF82BF13005021EF75A2
:202B9C00F007A424ACF582747835F0F583E493FDA3E493FEA3E493FF8D828E838FF02290B8
:202BBC00000075F00022AC82AD83AEF0FF7852C3E2F5F0EC95F008E2F5F0ED95F008E2F592
:202BDC00F0EE95F008E2F5F0EF95F0500D7852E2FC08E2FD08E2FE08E2FF7856C3E29C085F
:202BFC00E29D08E29E08E29F500D7856E2FC08E2FD08E2FE08E2FF8C828D838EF0EF22D3E8
:202C1C0010AF01C3C0D0AE82AF83758F0175B7A575B7F18E828F83E58124FDF8E6F0758FB5
:202C3C0000D0D092AF22E493F58222AF82758433EF24E14041A8811818B6FF0280387E004D
:202C5C0074DD2FFC74FF3EFD8C828D83C007C006122C42AD82D006D007BDFF1A74DD2FFFD2
:202C7C0074FF3EFEA8811818E6C0E08F828E83122C1B1581D322C322AF827E007584337D67
:202C9C0000ED90F7DD93FC62060DBD1F0040F290F7FCE493FDBDFF02801690F7FCE493FD73
:202CBC00B5060DEF24E14008EF90F7DD93F582227582FF227F0075843390FFFCC007122C22
:202CDC0042AE82D007BEFF6A7E008E047D008C028D0374DD2AFA74FF3BFB8A828B83C007BE
:202CFC00C006C005C004122C42AB82D004D005D006D007EB6207BBFF1BC004C0057449C037
:202D1C00E07479C0E07480C0E0123617E58124FBF581C3220EBE1F0040B0C00790FFFC1218
:142D3C002C1B158174FEC0E090FFFF122C1B1581D322C3223D
:2078AC006679801B0000006D7980390000007A798040000000847980190000008A798000D7
:2078CC0000000092798000000000967980000000009E798000000000A8798000000000B199
:2078EC00798000000000BA798000000000C7798064000000D2798000000000DB798000000D
:20790C000000E6798000000000ED798001000000F47980FFFF0000047A80000000000C7A26
:20792C008002000000FFFFFFFF01FF5B25755D205325753A2025733D256C750A0064426D0C
:20794C00206C6576656C202575206E6F742063616C696272617465640A00464F524D4154BA
:20796C000053455249414C5F5350454544004149525F5350454544004E455449440054589F
:20798C00504F57455200454343004D41564C494E4B004F5050524553454E44004D494E5F7E
:2079AC0046524551004D41585F46524551004E554D5F4348414E4E454C5300445554595FDA
:2079CC004359434C45004C42545F52535349004D414E4348455354455200525453435453DC
:2079EC00004E4F44454944004E4F444544455354494E4154494F4E0053594E43414E59003B
:0A7A0C004E4F4445434F554E5400C1
:202D50007F00EF75F006A42480FD740335F0FE8D828E83A3A3A3A3E0540F24FF92118F82E5
:202D7000C007C006C005122D9FD005D006D0078D828E83A3A3A3A3E0C4540F24FF92138F87
:202D900082C00712307ED0070FBF060040B422AF82BF0600400302305EEF75F006A42480EE
:202DB000FD740335F0FE8D828E83A3A3A3A3A211E433FC540FF5F0E054F045F0F08D828ECC
:202DD00083A3A3A3A3A374FFF075A700EF75F002A4FEAFF02416F582EF347AF583E493FDE1
:202DF00024FC5003023054ED2D2D902DFE73022E0A022E9D022F30022FC3301122EE24166E
:202E1000FCEF347AFD8C828D83A3E493FD8DF005F07401800225E0D5F0FBFD42A48021EE37
:202E30002416FCEF347AFD8C828D83A3E493FD8DF005F07401800225E0D5F0FBF4FD52A468
:202E500075A70F301123EE2416FCEF347AFD8C828D83A3E493FD8DF005F07401800225E072
:202E7000D5F0FBFD42A4023059EE2416FCEF347AFD8C828D83A3E493FD8DF005F0740180BA
:202E90000225E0D5F0FBF4FD52A4023059301122EE2416FCEF347AFD8C828D83A3E493FD93
:202EB0008DF005F07401800225E0D5F0FBFD42A58021EE2416FCEF347AFD8C828D83A3E4EC
:202ED00093FD8DF005F07401800225E0D5F0FBF4FD52A575A70F301123EE2416FCEF347AEC
:202EF000FD8C828D83A3E493FD8DF005F07401800225E0D5F0FBFD42A5023059EE2416FCCF
:202F1000EF347AFD8C828D83A3E493FD8DF005F07401800225E0D5F0FBF4FD52A502305931
:202F3000301122EE2416FCEF347AFD8C828D83A3E493FD8DF005F07401800225E0D5F0FBFD
:202F5000FD42A68021EE2416FCEF347AFD8C828D83A3E493FD8DF005F07401800225E0D5A5
:202F7000F0FBF4FD52A675A70F301123EE2416FCEF347AFD8C828D83A3E493FD8DF005F079
:202F90007401800225E0D5F0FBFD42A6023059EE2416FCEF347AFD8C828D83A3E493FD8D75
:202FB000F005F07401800225E0D5F0FBF4FD52A6023059301122EE2416FCEF347AFD8C82BD
:202FD0008D83A3E493FD8DF005F07401800225E0D5F0FBFD42B18021EE2416FCEF347AFD3D
:202FF0008C828D83A3E493FD8DF005F07401800225E0D5F0FBF4FD52B175A70F301122EEEE
:203010002416FCEF347AFD8C828D83A3E493FD8DF005F07401800225E0D5F0FBFD42A1800D
:2030300028EE2416FEEF347AFF8E828F83A3E493FF8FF005F07401800225E0D5F0FBF4FF38
:2030500052A1800575A700C32275A700D322C322E58275F006A42480FE740335F0FF8E822E
:203070008F83A3A3A3A3E0540F24FF921222E582FF75F006A42480FD740335F0FE8D828E29
:2030900083A3A3A3A3A213E433FCC454F0F5F0E0540F45F0F0BF060040030232168D828E05
:2030B00083A3A3A3A3A3E0FEBEFF028003023216EF75F002A4FEAFF02416F582EF347AF50A
:2030D00083E493FD24FC5003023212ED2D2D9030E2730230EE0231380231820231CA301354
:2030F00023EE2416FCEF347AFD8C828D83A3E493FD8DF005F07401800225E0D5F0FBFD423D
:2031100080023214EE2416FCEF347AFD8C828D83A3E493FD8DF005F07401800225E0D5F0B1
:20313000FBF4FD5280023214301323EE2416FCEF347AFD8C828D83A3E493FD8DF005F0743A
:2031500001800225E0D5F0FBFD4290023214EE2416FCEF347AFD8C828D83A3E493FD8DF090
:2031700005F07401800225E0D5F0FBF4FD5290023214301322EE2416FCEF347AFD8C828DB5
:2031900083A3E493FD8DF005F07401800225E0D5F0FBFD42A0806DEE2416FCEF347AFD8C41
:2031B000828D83A3E493FD8DF005F07401800225E0D5F0FBF4FD52A0804A301322EE2416EE
:2031D000FCEF347AFD8C828D83A3E493FD8DF005F07401800225E0D5F0FBFD42B08025EE64
:2031F0002416FEEF347AFF8E828F83A3E493FF8FF005F07401800225E0D5F0FBF4FF52B08B
:203210008002C322D322C322E58275F006A42480FE740335F0FF8E828F83A3A3A3A3E0C458
:20323000540F24FF921422AF82BF06004003023327EF75F006A42480FD740335F0FE7404EA
:203250002DFDE43EFE8D828E83E0540F6003023327EF75F002A4FEAFF02416F582EF347A0D
:20327000F583E493FD24FC5003023323ED2D2D9032837302328F0232B40232D90232FEEEB0
:203290002416FCEF347AFD8C828D83A3E493FD8DF005F07401800225E0D5F0FBFDE5805237
:2032B000058D8222EE2416FCEF347AFD8C828D83A3E493FD8DF005F07401800225E0D5F0A2
:2032D000FBFDE59052058D8222EE2416FCEF347AFD8C828D83A3E493FD8DF005F07401808F
:2032F0000225E0D5F0FBFDE5A052058D8222EE2416FEEF347AFF8E828F83A3E493FF8FF071
:1C33100005F07401800225E0D5F0FBFFE5B052078F822275827F2275827F22227E
:0C7A16000304030301020103010101004D
:0804DC00C215C216C217C218B6
:20332C00AF822019058F82024B7E785B795AC3E3F5F0E295F0501A785BE2FE785B04F29028
:20334C0003A8E0FCA3E0FDEE2CF582E43DF583EFF022AF83E5829003ABF0EFA3F09003ABA8
:20336C00E0FEA3E0FF9003A8EEF0EFA3F0785BE4F29003AAE0785AF2D21922C219785BE21F
:20338C00F58222AD82AE83AFF08D828E838FF01274B5FC700122BC250280030235FEC218AB
:2033AC00C217C216C2150DBD00010E8D828E838FF01274B5FBBB6802800CBB6C10D2150DEF
:2033CC00BD000A0E8007D2170DBD00010E8D828E838FF01274B5FBBB63028030BB6402807D
:2033EC0018BB6F02802BBB7302800ABB7502800EBB78238010D216801D750F0A8018750F43
:20340C000AD2188011750F10D218800A750F008005750F08D218301671A8811818E624FD7D
:20342C00FBA8811818A6038B0187100987110987121919C005C006C007AA10AB11AF128AD8
:20344C00828B838FF01274B5D007D006D005700302360FC005C006C007AA10AB11AF128AC7
:20346C00828B838FF01274B5FA0510E4B5100205118A82C007C006C00512332CD005D006AC
:20348C00D007D007D006D00580A9301866301521A8811818E624FCFBA8811818A6038B01A2
:2034AC00871309871409871509871619191902356530171DA8811818E614F9A8811818A6E1
:2034CC000187038B13751400751500751600023565A8811818E624FEFBA8811818A6038B94
:2034EC00018702098703198A138B147515007516008066301520A8811818E624FCFBA8816B
:20350C001818A6038B018713098714098715098716191919804330171EA8811818E614FBF0
:20352C00A8811818A6038B01E7FBF5133395E0F514F515F5168022A8811818E624FEFBA89B
:20354C00811818A6038B018702098703198A13EBF5143395E0F515F516E50F70030235E96F
:20356C0030182F9005BC7480F0E4A3F07440A3F09005BFE50FF08513828514838515F0E5F8
:20358C0016C007C006C005126807D005D006D007802D9005E57480F0E4A3F07440A3F0905B
:2035AC0005E8E50FF08513828514838515F0E516C007C006C00512691DD005D006D007798E
:2035CC0080E7FB603E8B82C007C006C005C00112332CD001D005D006D0070980E4AB138B45
:2035EC0082C007C006C00512332CD005D006D00780118C82C007C006C00512332CD005D0F1
:20360C0006D0070DBD00010E023395E58124FCFFC007E58124FBF886820886830886F012AC
:05362C00338F1581221F
:20363100AFF0AE83E5829004A9F0EEA3F0EFA3F0201A02C322785CC3E2F5F074FC95F0504E
:20365100051239CF80459004A9E0FDA3E0FEA3E0FF8D828E838FF0785CE2126E3E786FE27C
:20367100FD08E2FE7F0090060774ADF07403A3F0E4A3F0785C90060AE2F0E4A3F08D828E4C
:20369100838FF0126DB11239CFD322781CE2FE08E2FFBEFF05BFFF02800C0EBE00010F7819
:2036B1001CEEF208EFF2C322AF8275A702C2A3C2FF75A3FF7871E2FD08E2FE8F041FEC60F5
:2036D1001130F9FD8D828E83E0F5A3A3AD82AE8380E930F9FD748055A1FFBF800280F6C216
:2036F100FFD2A375A70022201A05785DE26002D322758231123EC4E58230E402D322C32227
:20371100A2A8921CC2A8101B028006A21C92A8D322A21C92A8C322785EE2F582227582264B
:20373100023EC4786BE2F58222758208123EC4AF8274014FFEC007C006758208123E8E1591
:2037510081D0075307FEC007758208123E8E158122758208123EC4AF8274024FFEC007C0BE
:2037710006758208123E8E1581D0075307FDC007758208123E8E158122E582FF240350193F
:20379100C0077422C0E0747AC0E07480C0E0120FB2158115811581D007C00712373AD0076C
:2037B100C007C00775823E123E8E1581D007EFFE24DF50027E2078737971E2F308E209F37A
:2037D1008E82C007C0061236B9D006D007EFC39EFF7873E22EF208E23400F2C007E4C0E0F6
:2037F100758205123E8E1581E4C0E0758206123E8E1581C21BC21D7409C0E0758207123E2C
:203811008E158112670FAC82AD83D007C007C005C00412670FAA82AB83D004D005D007EA1A
:20383100C39CFAEB9DFB7875C3E2F5F0EA95F008E2F5F0EB95F04003023956758203C007E1
:20385100C005C004123EC4AB82D004D005D007301D40EF603DEB30E5397E04BF0400500224
:203871008F0678737971E2F308E209F38E82C007C006C005C0041236B9D004D005D006D09C
:2038910007EFC39EFF7873E22EF208E23400F202381D301D40EF603DEB20E6397E04BF04E5
:2038B1000050028F0678737971E2F308E209F38E82C007C006C005C0041236B9D004D005B0
:2038D100D006D007EFC39EFF7873E22EF208E23400F202381DEB30E72012373A781EE2FA70
:2038F10008E2FEBAFF05BEFF02800C0ABA00010E781EEAF208EEF2C322758202C007C0052F
:20391100C004123EC4AB82D004D005D007EB30E105D21D02381D201D0302381DEB30E10334
:2039310002381DEF601D781EE2FE08E2FFBEFF05BFFF02800C0EBE00010F781EEEF208EFFD
:20395100F2C322D322781EE2FE08E2FFBEFF05BFFF02800C0EBE00010F781EEEF208EFF2E2
:20397100C322E5829004AEF0A2A8921FC2A8D2A59004ACE0FEA3E0FFFDC007C006C0057578
:20399100823A123E8E1581D006D007C00675823B123E8E15819004AEE0FF78777973E2F3FC
:2039B10008E209F378797975E2F308E209F38F8212378A921EC2A5A21F92A8A21E22C2A834
:2039D100C21A785CE4F2C21B785DE4F27413C0E0758205123E8E15817440C0E075820612CE
:2039F1003E8E1581123F3812373A1237627405C0E0758207123E8E1581D2A8D322900032E1
:203A110012669E758201123EC4AF82BFFF028005BF05005002C322123F98758201123EC40D
:203A3100E582FF20E006123F98922022EF30E102D322C322AC82AD83AEF0FFC3ED941CEE27
:203A5100944EEF940E400E74C09C74F79D74BA9E74379F5002C3227863ECF208EDF208EED9
:203A7100F208EFF28C828D838EF0EF124004D322AC82AD83AEF0FFC374F09C74E89D742633
:203A91009EE49F5002C322787B7410F2087427F208E4F208F28C828D838EF0EF123F44AC1B
:203AB10082AD83AEF0FF7867ECF208EDF208EEF208EFF2C00475827A123E8E1581D322E5AE
:203AD100829004AFF0786CE2FF9004AFE0FEB5070122786CEEF2C006758279123E8E1581ED
:203AF100C21B22786CE2F58222AF82C007E4C0E0758205123E8E1581E4C0E0758206123E9A
:203B11008E1581123F387415C0E075820B123E8E15817412C0E075820C123E8E1581D221B8
:203B310012425C74B6C0E0758209123E8E1581D007EF249B5010C00774C0C0E075825812A5
:203B51003E8E1581D0077863E2FB08E2FC08E2FD08E28B828C838DF0C0071240047867E235
:203B7100FB08E208E208E2C00375827A123E8E1581748DC0E0758230123E8E15817442C021
:203B9100E0758233123E8E158174CFC0E0758232123E8E158174FFC0E0758245123E8E15D4
:203BB1008174FFC0E0758246123E8E158174FFC0E0758243123E8E158174FFC0E0758244A0
:203BD100123E8E1581743CC0E075827C123E8E15817420C0E075827D123E8E15817432C0A7
:203BF100E075827E123E8E1581786E7410F2786EE2FEC006758234123E8E15817428C0E028
:203C1100758235123E8E1581758200123DB6D0077E00EE907A3F93FDC39F50060EBE0C004B
:203C310040F0EEFF907A3F93FE786BF2BE200040047E0D80027E2D75820DC007C006122604
:203C5100F3AA82AB83ACF0FDD006D007EA4B4C4D600B786BE2FD247F4003430602C007C00D
:203C710006758270123E8E15817423C0E0758271123E8E15817444C0E075821D123E8E15E0
:203C910081D007786BE2FEBEC8005012C007740AC0E075821E123E8E1581D0078010C00774
:203CB1007402C0E075821E123E8E1581D007781AE2B4433A7E00EE75F00DA4244CFC747AFC
:203CD10035F0FDEF2CF582E43DF583E493FDEE907A3393FCC007C006C0058C82123E8E1505
:203CF10081D006D0070EBE0C0040CB023DB4781AE2B447397E00EE75F00DA424E8FC747A8F
:203D110035F0FDEF2CF582E43DF583E493FDEE907A3393FCC007C006C0058C82123E8E15C4
:203D310081D006D0070EBE0C0040CB8076781AE2B486397E00EE75F00DA42484FC747B353A
:203D5100F0FDEF2CF582E43DF583E493FDEE907A3393FCC007C006C0058C82123E8E158138
:203D7100D006D0070EBE0C0040CB80377E00EE75F00DA42420FC747C35F0FDEF2CF582E4A1
:203D91003DF583E493FDEE907A3393FCC007C006C0058C82123E8E1581D006D0070EBE0CD6
:203DB1000040CBD322E5829004B0F07404C0E075826D123E8E15819004B0E0FFF582C00706
:203DD100122C94AE82D007BEFF0280078EFC786DEFF222EFC313FF907CBC93F5FCEF2FFF14
:203DF100786DEFF222786DE2F58222AF83E5829004B1F0EFA3F09004B1E0FEA3E0FF8E04E3
:203E1100785FECF28F057860EDF2200634C007C006C005C00575823C123E8E1581D005D0D4
:203E310006D007C006C005C00675823D123E8E1581758241123E8E1581758242123E8E15C3
:203E51008122AF83E5829004B3F0EFA3F09004B3E0FEA3E0FF7861EEF208EFF28F06C006B8
:203E710075823F123E8E15817861E254FFFE08E25400C006758240123E8E158122AF82A2D7
:203E9100A89240C2A875A702C2A3C2FF74804FF5A330F9FDA881181886A330F9FD748055F7
:203EB100A1FFBF800280F6C2FFD2A375A700A24092A822AF82A2A89240C2A875A702C2A3D0
:203ED100C2FF8FA330F9FD75A30030F9FD748055A1FFBF800280F6AFA3C2FFD2A375A70036
:203EF100A24092A88F8222AF8275A702C2A3C2FF75A37F30FFFD85A3E0E58124FDF8860518
:203F11000886068F041FEC6016C2FF75A30030FFFD8D828E83E5A3F0A3AD82AE8380E4C222
:203F3100FFD2A375A70022758203123EC4758204023EC4AF82AE83ADF0FC787FEFF208EEE8
:203F5100F208EDF208ECF2787EE2C313FF18E213FE18E213FB18E213FA787FE22AFA08E2E3
:203F71003BFB08E23EFE08E23FFF787B9005F8E2F008E2A3F008E2A3F008E2A3F08A828B4C
:203F9100838EF0EF026C48E4C0E0758205123E8E1581E4C0E0758206123E8E1581123F38F8
:203FB1007481C0E0758207123E8E158190000212666530810712669650F8C322E4C0E0758E
:203FD1008205123E8E15817402C0E0758206123E8E15819000141266651266964013758275
:203FF10003123EC4758204123EC4E58230E1EAD322C322AF82AE83ADF0FC7883EFF208EE81
:20401100F208EDF208ECF27883C3E2F5F0E495F008E2F5F0743895F008E2F5F0749C95F07E
:2040310008E2F5F0741C95F040030240FA7884E224C8F208E23463F208E234E3F29005F85D
:20405100E4F0742DA3F07431A3F07401A3F07883E2F58208E2F58308E2F5F008E2126C48D2
:20407100AA829004B5EAF090061DEAF0E4A3F0E4A3F0E4A3F0902D0075F0317401126FA6FF
:20409100AC82AD83AEF0FF7883E2C39CF208E29DF208E29EF208E29FF2787B7471F2087432
:2040B10002F208E4F208F27883E2F58208E2F58308E2F5F008E2123F447883C0E0E582F22B
:2040D10008E583F208E5F0F2D0E008F27883E225E0F208E233F208E233F208E233F290045F
:2040F100B5E0FF4420F00241BD7884E224E4F208E234B1F208E234F1F29005F87480F07448
:2041110096A3F07498A3F0E4A3F07883E2F58208E2F58308E2F5F008E2126C48AC82900458
:20413100B5ECF090061DECF0E4A3F0E4A3F0E4A3F090968075F098E4126FA6AC82AD83AE2F
:20415100F0FF7883E2C39CF208E29DF208E29EF208E29FF2787B7471F2087402F208E4F2AB
:2041710008F27883E2F58208E2F58308E2F5F008E2123F447883C0E0E582F208E583F208D2
:20419100E5F0F2D0E008F27883E225E0F208E233F208E233F208E233F2181818E225E0F27B
:2041B10008E233F208E233F208E233F29004B5E04440F07883E2FC08E2FDC005C004900447
:2041D100B5E0C0E0758275123E8E1581D004D0058D07C005C004C007758276123E8E15814B
:2041F100D004D005C004758277123E8E15812275A70FAEBEE4CE25E0CE33CE25E0CE33FF1B
:20421100E5BD23235403FD7C004206EC420775A700D2EC20ECFDADBE7C00AABD7B00EA4280
:2042310004EB4205ECC39EFEED9FFF90062E7402F0E4A3F08E828F831271EEE5828583F0CE
:20425100242DFCE435F08C82F583223021257418C0E075820D123E8E1581758208123EC422
:20427100AF82741F5F4480FFC007758208123E8E158122758208123EC4AF8253071FC00767
:20429100758208123E8E1581740AC0E075820D123E8E15817404C0E075820E123E8E158173
:2042B10022C028C0E0C0F0C082C083C007C006C005C004C003C002C001C000C0D075D0001D
:2042D100758204123EC4AF82758203C007123EC4AE82D007EE30E449785DE2FC7D00743290
:2042F1002CFCE43DFDC374FC9CE49D50030243BD785DE224ADFCE43403FDC007C006C004D5
:20431100C005758232123EF815811581785DE22432F2758226123EC4E582D006D007785E10
:20433100F2EF30E611D21B758226C006123EC4E582D006785EF2200604EE20E06FEE30E1F5
:204351006975824B123EC4E582FF2403405E785DC3E2F5F0EF95F04053785DC3E29F502271
:20437100785DE224ADFDE43403FE785DD3E29FF4FCC007C005C0068C82123EF815811581A1
:20439100D007785CEFF2D21AE4C0E0758205123E8E1581E4C0E0758206123E8E1581740235
:2043B100C0E0758207123E8E1581801E781CE2FE08E2FFBEFF05BFFF02800C0EBE00010FF5
:2043D100781CEEF208EFF21239CFD0D0D000D001D002D003D004D005D006D007D083D08274
:0743F100D0F0D0E0D028322B
:207A22006F76657273697A6564207061636B6574001C1F2021222324252A6E6F7202040840
:207A42001013182030406080C0FA2727272E1601050B9A888A8C8D03030303030303030315
:207A620003030303F4FA7D3F69A77D535E7D5E3F30200001020100010101010102024183D5
:207A8200060C37C406895D065D0CAA8912254A4C9C25378625864AAB00010204020102034F
:207AA200020202040785080E12728A0E18BB0EBBEAFF1D1D1D1E1E1E2030415050505010E5
:207AC2002041839BC4080C101820314062C58912A69C314A6293C5270003060D1A1E26338D
:207AE2004D669ACDFEFE2B2B2B2E1601050B9A888A8C8D03030303030303030303030303AC
:207B0200F4FA7D3F69A77D535E7D5E3F30200001020100010101010102024183060C37C433
:207B220006895D065D0CAA8912254A4C9C25378625864AAB000102040201020302020204B1
:207B42000785080E12728A0E18BB0EBBEAFF1E1E1E21212121304150505050102041839BC2
:207B6200C4080C101820314062C58912A69C314A6293C5270003060D1A1E26334D669ACD51
:207B8200FEFE010101010101050B9A888A8C8D03030303030303030303030303D0E8F4FA3F
:207BA200D3A77D535E7D5E3F30E0602000000001010101010202102041839BC406895D0623
:207BC2005D0CAA62C58912A69C25378625864AAB0000000101010203020202040723448505
:207BE20008398A0E18BB0EBBEAFF1C1C1C1C1C1E20304150505050102041839BC4080C1033
:207C02001820314062C58912A69C314A6293C5270003060D1A1E26334D669ACDFEFE01019A
:207C220001010101050B9A888A8C8D03030303030303030303030303D0E8F4FAD3A77D5352
:207C42005E7D5E3F30E0602000000001010101010202102041839BC406895D065D0CAA6257
:207C6200C58912A69C25378625864AAB0000000101010203020202040723448508398A0E00
:207C820018BB0EBBEAFF1E1E1E1E1E1E20304150505050102041839BC4080C1018203140B8
:207CA20062C58912A69C314A6293C5270003060D1A1E26334D669ACDFEFEEBE6E0DAD3CE79
:0A7CC200C9C4BEB8B2ABA496885046
:2043F800C028C0E0C0F0C082C083C007C006C005C004C003C002C001C000C0D075D00010E7
:204418009803024514AF9930000E3001030245148F821204E70245148F82C007120575D0DC
:20443800077887E22401FD08E23400FEBD0009BE04067D007E00800B7887E22401FD08E23D
:204458003400FE7889E2B5050708E2B50602803A7887E22437F58208E23406F583EFF07867
:2044780087E22401FD08E23400FEBD0009BE04067D007E00800B7887E22401FD08E2340048
:20449800FE7887EDF208EEF2801B7822E2FD08E2FEBDFF05BEFF02800C0DBD00010E7822C5
:2044B800EDF208EEF230085478877989C3E3F5F0E295F009E3F5F008E295F0B3E433FE6036
:2044D8001B7889E22400FD08E23404FE7887D3E29DF4B3FDB308E29EF4FE801578897987CD
:2044F800E3F5F0C3E295F0FD09E3F5F008E295F0FEC3ED9420EE94005002D28210990280C0
:2045180061788B798DE2F5F0E3B5F00B08E2F5F009E3B5F002804930080A30830720000474
:20453800D222803E788DE22437F58208E2340AF583E0FF788DE22401FD08E23400FEBD0097
:2045580009BE02067D007E00800B788DE22401FD08E23400FE788DEDF208EEF28F99800253
:20457800D222D0D0D000D001D002D003D004D005D006D007D083D082D0F0D0E0D02832783C
:204598008B798DE2F5F0E3B5F00A08E2F5F009E3B5F0012230220302481F22AF8275A70069
:2045B800C2AC7887E4F208F2788DE4F208F2788BE4F208F2788DE4F208F2D222C28EAE89AE
:2045D800740F5E4420F5898F82124BB8D28E759810C282D2AC22AF82C0071247C7AD82AE84
:2045F80083D007C3ED9401EE94005002C3228F8212460DD322AF82A2AC9240C2AC788BE23C
:204618002401FD08E23400FEBD0009BE02067D007E00800B788BE22401FD08E23400FE7897
:204638008DE2B5050708E2B506028044788BE22437F58208E2340AF583EFF0788BE2240187
:20465800FE08E23400FFBE0009BF02067E007F00800B788BE22401FE08E23400FF788BEEFB
:20467800F208EFF2302224C02812481FD028801B7820E2FE08E2FFBEFF05BFFF02800C0E60
:20469800BE00010F7820EEF208EFF2A24092AC22858217858318788FE27001221247C7AC0B
:2046B80082AD83788FE2FA7B00C3EC9AED9B501F788FECF27820E2FC08E2FDBCFF05BDFFD4
:2046D80002800C0CBC00010D7820ECF208EDF2788FE2FD788BD3E29400F4B3FBB308E294FC
:2046F80002F4FC8D027F00C3EB9AEC9F5008788BE2FFC3E49FFD788BE22437FE08E2340AEA
:20471800FF7C00900607E517F0E518A3F0E4A3F090060AEDF0E4A3F08E828F838CF0C0051F
:20473800126DB1D005ED2517F517E43518F518788FE2C39DF2D22310AF02C2237F00788B91
:20475800E22DF208E23FF2788BC308E294024006788CE224FEF2A22392AF788FE2603E9082
:204778000607E517F0E518A3F0E4A3F0788FE2FE7F0090060AEEF0EFA3F0900A3775F00085
:20479800C007C006126DB1D006D007D22310AF02C223788BEEF208EFF2A22392AFD2231025
:2047B800AF02C22330220312481FA22392AF22A2AC9224C2AC788B798DC3E3F5F0E295F0E8
:2047D80009E3F5F008E295F0B3E433FF601B788DE22400FE08E23402FF788BD3E29EF4B318
:2047F800FEB308E29FF4FF8015788D798BE3F5F0C3E295F0FE09E3F5F008E295F0FFA224E1
:2048180092AC8E828F832230080730830420000122C222D29922A2AC9225C2AC78877989E0
:20483800E2F5F0E3B5F00B08E2F5F009E3B5F002803A7889E22437F58208E23406F583E0B9
:20485800FF7889E22401FD08E23400FEBD0009BE04067D007E00800B7889E22401FD08E21D
:204878003400FE7889EDF208EEF280027F0030085378877989C3E3F5F0E295F009E3F5F0D6
:2048980008E295F0B3E433FE601B7889E22400FD08E23404FE7887D3E29DF4B3FDB308E298
:2048B8009EF4FE801578897987E3F5F0C3E295F0FD09E3F5F008E295F0FEC3E49D74029E35
:2048D8005002C282A22592AC8F8222A2AC9226C2AC7889E22437F58208E23406F583E0FF4E
:2048F800A22692AC8F8222A2AC9227C2AC7889E22401FE08E23400FFBE0009BF04067E00C1
:204918007F00800B7889E22401FE08E23400FFEE2437F582EF3406F583E0FFA22792AC8F7C
:204938008222AF83E5829004B6F0EFA3F0A2AC9228C2AC9004B6E0FEA3E0FF7889E22EFE37
:2049580008E23FFF530703EE2437F582EF3406F583E0FFA22892AC8F822285821985831AFD
:20497800124AEBAC82AD837890E2FA7B00C3EC9AED9B5002C3227891EAF208EBF27889D375
:20499800E29400F4B3FAB308E29404F4FB7891C3E2F5F0EA95F008E2F5F0EB95F0501378A8
:2049B800897991D3E29400F4B3F3B308E29404F409F3AA19AB1A7F007889E22437FD08E218
:2049D8003406FE900607EDF0EEA3F0E4A3F0789190060AE2F008E2A3F08A828B838FF01272
:2049F8006DB17891E2FC7890E2C39CF27891E22519F51908E2351AF51AD22910AF02C22939
:204A180078897991E3C5F0E225F0F209E3C5F008E235F0F27889C308E294044006788AE2E0
:204A380024FCF2A22992AF7890E26044AD19AE1A7F009006077437F07406A3F0E4A3F07871
:204A580090E2FB7C0090060AEBF0ECA3F08D828E838FF0C004C003126DB1D003D004D22963
:204A780010AF02C2297889EBF208ECF2A22992AFD22910AF02C22930085378877989C3E3C9
:204A9800F5F0E295F009E3F5F008E295F0B3E433FF601B7889E22400FE08E23404FF788709
:204AB800D3E29EF4B3FEB308E29FF4FF801578897987E3F5F0C3E295F0FE09E3F5F008E276
:204AD80095F0FFC3E49E74029F5002C282A22992AFD322A2AC922AC2AC78877989C3E3F535
:204AF800F0E295F009E3F5F008E295F0B3E433FF601778877989E3F5F0C3E295F0FE09E3EA
:204B1800F5F008E295F0FF80197889D3E29400F4B3FCB308E29404F4FD7887E22CFE08E289
:204B38003DFFA22A92AC8E828F8322124AEBAE82AF83E4C39EFE74049FC423CEC423541FC1
:204B58006ECE541FCE6ECEFF900611EEF0EFA3F0900064126E89AE82E583A2E7CE33CE335E
:204B7800CE54018E8222AF82BF0A0A75820DC00712460DD0078F8202460DAF827E00BE09E1
:204B980000501BEE75F003A424CCF582747C35F0F583E493FDEFB50502D3220E80E0C3223D
:204BB800AF82C007124B92D00740027F397E00BE0900501BEE75F003A424CCF582747C35EF
:204BD800F0F583E493FDEFB5050280030E80E0EE75F003A424CCFD747C35F0FE8D828E832B
:204BF800A3E493F58DAC8E5304F48D828E83A3A3E4934CF58E90061DEFF0E4A3F0E4A3F050
:0F4C1800E4A3F090007DE4F5F0126FA60222886D
:1B7CCC00012C02029602042C0009960013600126B001392B08739608E6CB0884
:207DF40000000000000000000000000000000000000000000000000000000000000000006F
:207E140000000000000000000000000000000000000000000000000000000000000000004E
:207E340000000000000000000000000000000000000000000000000000000000000000002E
:207E540000000000000000000000000000000000000000000000000000000000000000000E
:204C27007F0078D4E224FFFD08E234FFFE8F037C00C3EB9DEC9E4003024CE5BF0800400322
:204C4700024CE57861E2B5030808E2B50403024CE1EF75F002A4FDAEF0C007ED2426F552F0
:204C6700EE3401F553855282855383A3E0FF8F547555007861E2FA08E2CA25E0CA33FFEA8B
:204C87002416FAEF3401FF8A828F83A3E0FF8F56755700855282855383E0FF7A00ED241631
:204CA700F582EE3401F583E0FE7D00C007C054C055C056C057C007C002C006C005C003C0CC
:204CC7000474E7C0E0747CC0E07480C0E0123617E58124F3F581D007D0070F024C2978ADFF
:204CE700E2FE7F00C007C006124200AC82AD83D006D0077826E2F55608E2F5577824E2F5EE
:204D07005408E2F5557822E2F55208E2F5537820E2F55808E2F559781CE2F55A08E2F55B11
:204D2700781EE2FA08E2FBC006C007C004C005C056C057C054C055C052C053C058C059C093
:204D47005AC05BC002C00378B8E2C0E008E2C0E07861E2C0E008E2C0E0740FC0E0747DC05D
:204D6700E07480C0E0123617E58124E9F58178B8E4F208F22278B7E254016003024C2722EE
:204D8700AF827E0078A8900611E2F008E2A3F08F828E83126E89AE82AF8378A6E22EFE0886
:204DA700E23F8E82F58322AE82AF8378AAC3E29E08E29F500878AAE4F208F2800A78AAE2F9
:204DC700C39EF208E29FF2789AC3E2F5F0EE95F008E2F5F0EF95F050030250B07894C30880
:204DE700E29480400B7861E2F5F008E245F0706F7894E2FC08E2FD789474012CF2E43D0834
:204E0700F278D4900621E2F008E2A3F08C828D83C007C006127012AC82AD83D006D0077885
:204E270061E2B5040708E2B50502800280317893E4F278D4900621E2F008E2A3F07894E26E
:204E4700F58208E2F583C007C006127012E5828583F0D006D0077894F208E5F0F2804F7831
:204E670094C308E29480504178D4900621E2F008E2A3F0900001C007C006127012AC82AD66
:204E870083D006D0077894E2C39CFC08E29DFD78D4E224FFFA08E234FFFBECB5020BEDB55B
:204EA700030778937402F2800578937401F2789AD3E29EF4B3FEB308E29FF4FF7893E2B49D
:204EC7000210789EE2FC08E2FD789AECF208EDF28019789CE2FC08E2FD789AECF208EDF2BE
:204EE700C007C006120EF0D006D007C007C0061239CFD006D0077818C3E2F5F0740195F0F9
:204F0700500C78B1E4F208F278B5E4F208F27893E260030250A7C006C00778ACE2FC7D00E3
:204F270078ADE2F55C755D00ECC3955CFEED955DFFBE640ABF0007D007D0060250A7D00755
:204F4700D006C006C007C007C006C005C004C04EC04FC050C05190333375F073743F126A96
:204F6700FB85825E85835F85F060F561E58124FCF581D004D005D006D00778AEE2F582085F
:204F8700E2F583C005C0041272CEAA82AB83AEF0FFD004D005C007C006C005C004C002C09D
:204FA70003C006C00790000075F0A07440126AFB85826285836385F064F565E58124FCF518
:204FC70081D004D005D006D00778A1799CE3C5F0E225F0FE09E3C5F008E235F0CE25E0CEE7
:204FE70033FF8E828F83C005C0041272CEAA82AB83AEF0FFC002C003C006C0078562828584
:2050070063838564F0E5651273F2AA82AB83AEF0FFE58124FCF581D004D005C007C006C020
:2050270005C004C002C003C006C007855E82855F838560F0E56112719585824E85834F855E
:20504700F050F551E58124FCF581D004D005D006D00778AEE4F208F2ECC3955CFCED955D00
:20506700FD8C828D831272C1AC82AD83AEF0FFC007C006C004C005C006C007854E82854F02
:20508700838550F0E551126E59E58124FCF581D006D007E58224FF9234B39232D007D00695
:2050A70078AAE4F208F2024DCE7893E2B40210C007C006120ECA123AD0D006D007800EC099
:2050C70007C006120EBA123AD0D006D007789AE2C39EF208E29FF222AF827893E2B402247D
:2050E700EF70217861E2F5F008E245F0700475820122786179A3E24400F308E2448009F324
:20510700758200227893E27003025309102C00EF600302519E7894E2F5F008E245F060469A
:2051270078A3E254FFFE08E2547FFF7894E224FFFC08E234FFFD78D4E224FFFA08E234FFCF
:20514700FB900621EAF0EBA3F08C828D83C007C006127012AC82AD83D006D007EEB5040647
:20516700EFB5050280297894E2F5F008E245F0702278A3E254FFFE08E2547FFF78D4E224F4
:20518700FEFC08E234FFFDEEB50408EFB50504758201227582002278D6E270030252F778FF
:2051A700A3E254FFFE08E2547FFF78BFE2FC08E2FDEEB50406EFB505028002D22E78A3C3A2
:2051C70008E29480507978A3E22401FE08E23400FF78D4E224FFFA08E234FFFB900621EAC0
:2051E700F0EBA3F08E828F83C005C004127012AE82AF83D004D005ECB50644EDB5074078A4
:20520700A3ECF208EDF2126B9EAE82AF8378A6E2FA08E2CA25E0CA33FB900621EAF0EBA3D8
:20522700F08E828F83127012AE82AF8378A6E22EFE08E23FFF78AAEEF208EFF20252C47890
:20524700A3ECF274804D08F27861900611E22401F008E23400A3F078A6E2F58208E2F5838A
:20526700126E89AE82AF83C007C006126B9EAC82AD837861900611E22402F008E23400A37D
:20528700F078A6E2F58208E2F583C005C004126E89AA82AB83D004D005900621EAF0EBA38A
:2052A700F08C828D83127012AC82AD83D006D007EC2EFEED3FFF78AAEEF208EFF278A6E20C
:2052C700FE08E2CE25E0CE33CE25E0CE33FF900621EEF0EFA3F078AAE2F58208E2F5831232
:2052E7007012E5828583F078AAF208E5F0F2800E786179A3E24400F308E2448009F37582A6
:2053070000227893E2705A302C0C78A3E4F2087480F275820022302D10786179A3E24400C5
:20532700F308E2448009F3800E7861E2FE08E2FF78A3EEF208EFF2102E02802178A6900620
:2053470011E2F008E2A3F0900006126E89E5828583F078AAF208E5F0F275820022758201F4
:205367002275820122123DF6E582FF24EB400578ADE4F222124200E5828583F0249CFEE578
:20538700F034FFFFC3E49EE464808FF063F08095F0E433FD700C78ADE2600778ADE214F2F5
:2053A7008039C3740A9EE464808FF063F08095F0500878ADE2240AF28021C374059EE4646D
:2053C700808FF063F08095F0500878ADE22405F28009ED600678ADE22401F278ACE2FE7F78
:2053E7000078ADE2FC7D00EEC39CFEEF9DFFC3EE9414EF64809480500878AC79ADE224EC7C
:20540700F3227861E2F5F008E245F0600330300E9005B4E4F0C230D205120F248007900599
:20542700B4E02401F09005B4E0FFBF06005004D2B7804778A5E4F2A22F92B7B22F789474BD
:20544700FFF20874FFF2900604E4F09006057410F0E4A3F090012675F000126D8990060435
:20546700E4F09006057410F0E4A3F090011675F000126D8978B8E4F208F29005B4E075F029
:205487000584AFF0BF0413303105120EF0800BC205120F24120ECA123AD078BAE4F208F2F2
:2054A700302B077814E2FF78B7F2B22B9005B5E02401F09005B5E0FFBF040812536C90057F
:2054C700B5E4F022AE82AF8390000175F060C007C0061273DAE5828583F02401FCE435F0ED
:2054E700FD9006077401F07400A3F07460A3F090060AECF0EDA3F09000C375F060126DB1F4
:20550700D006D00778C1EEF208EFF2D23322AF82BF02004017EF24EF40129004B8E0FEBE29
:20552700520A9004B9E0FEBE540280237E00C3EE9F501BEE24B8F582E43404F583E0F582C1
:20554700C007C006124B7ED006D0070E80E02278BF79C1E2F308E209F390060774B8F07446
:2055670004A3F0E4A3F090060AEFF0E4A3F090000175F060C007126DB1D007EF2401F8E40C
:20558700F278017441F27812EFF2BF04197803E2FFBF49127804E2FFBF350B78BC7401F23E
:2055A70075820002234F02237C12670FAE82AF8378D7EEF208EFF278FF762A78FFB62A0266
:2055C700801DC007C0067453C0E0747DC0E07480C0E0120FB2158115811581D006D0077854
:2055E70000E2B44102801DC007C0067460C0E0747DC0E07480C0E0120FB215811581158173
:20560700D006D007C007C006120747D006D00778B7E2600FC007C006124D7CD006D007782F
:20562700B7E4F2300E17900136E0FB601020000DC20EC007C006121A00D006D007C007C085
:205647000612670F78DAE582F208E583F2786F74B8F2087404F29000D975F060123631D0BA
:2056670006D007400302598178AAE4F208F278D9E2B40400502A78D9E2FC7D00C007C00697
:20568700C004C0057476C0E0747DC0E07480C0E0123617E58124FBF581D006D0070255C2AB
:2056A7007893E2700AD22C78A3E4F2087480F278D9E224B8FCE43404FDEC24FCFCED34FF53
:2056C700FD900607ECF0EDA3F0E4A3F090060A7404F0E4A3F09000BD75F060C007C0061226
:2056E7006DB1D006D00778D9E214141414F278BFE2F56608E2F56730E73B78A5E2B4FF00A5
:2057070050117894E2F5F008E245F0700678A5E22401F27894E4F208F278BFE2FC08E2FDCB
:2057270053057F8C82C007C006120EE6D006D007D2300255C230313F78BEE220E63978A50E
:20574700E2B4FF00501E74012566FCE43567FD7894E2B5040708E2B505028002800678A54D
:20576700E22401F278BFE2FC08E2FD789474012CF2E43D08F2D23078BFE2FC08E2FDC3ECC6
:205787009408ED9400507CC006C007EDCC25E0CC33FDEC2416FCED3401FDC006C005C00442
:2057A700123728AF82D004D005D0067E0078BFE2FA08E2CA25E0CA33FBEA2416F582EB34C5
:2057C70001F583E0900611F0E4A3F0900007C007C006C005C004126E89AA82AB83D004D0A7
:2057E70005D006D007EA2FFAEB3EC423CAC423541F6ACA541FCA6ACAFB8C828D83EAF0D041
:2058070007D00678B8E22401F208E23400F278BDE2FC08E2541FFD4C60030258CA78D9E2F8
:2058270070030258CA78D9E2B4040280030258BC78BFE2FC08E2FDC3EC9408ED94005075B7
:20584700C006C00778D9E21414F278D9E224B8FAE43404FB7F008A828B838FF01274B5FAFA
:20586700A31274B5FB7861E2B5020708E2B503028006D007D006803DD007D006EDCC25E0D0
:20588700CC33FDEC2426FCED3401FD7B0090060774B8F07404A3F0E4A3F078D990060AE22B
:2058A700F0E4A3F08C828D838BF0C007C006126DB1D006D00778B8E224FFF208E234FFF241
:2058C7000255C278BDE2FC08E2541FFD4C70030255C278BDE2FC08E2541FFD789AECF208FE
:2058E700EDF278D979D6E2700474018001E4F37582011250DF78DAE2FE08E2FF78BEE2C4CF
:20590700035401FDBD012278D9C3E2F5F0740195F040030255C278D9E2F582C007C00612D1
:205927005515D006D0070255C278D9E270030255C278BEE223540124FF920F784B74B8F23C
:20594700087404F278D9E2F582C007C0061222CFD006D00750030255C23000030255C2D25D
:20596700B678D9798FE2F39004B8C007C0061246A8D006D007C2B60255C2C007C00612671F
:205987000F78DAE582F208E583F2D006D00778DAE2C39EFC08E29FFD8C828D83C005C00479
:2059A700124DAED004D00578DAE2FE08E2FF789C79A1E3F5F0C3E295F0FA09E3F5F008E23A
:2059C70095F0FB789AC3E2F5F0EA95F008E2F5F0EB95F050030255C27893E2B4022A789EA7
:2059E70079A1E3F5F0C3E295F0FA09E3F5F008E295F0FB789AC3E2F5F0EA95F008E2F5F085
:205A0700EB95F050030255C2C006C00778DA79D7E3F5F0C3E295F0FA09E3F5F008E295F048
:205A2700FB7E007F00C3E49A74809BE49EE464808FF063F08095F0D007D006501DC007C0D5
:205A470006C005C004125409D004D005D006D00778DA79D7E2F308E209F378B0E27003020F
:205A67005AF3C007C006C005C00412372EAB82D004D005D006D00778B0C3E2F5F0EB95F0A0
:205A8700500B78B1E22CF208E23DF2803E78B1E4F208F278B5E2F5F008E245F0702DC00734
:205AA700C006126B9EAC82AD8378B3900621E2F008E2A3F08C828D83127012E5828583F05E
:205AC700D006D00778B5F208E5F0F278B379B5E3C5F0E225F0FC09E3C5F008E235F0FD781B
:205AE700B1C3E29C08E29D50030255C278D6E4F2758200C007C0061250DFE582D006D007BD
:205B070070030255C278AAE2F5F008E245F060030255C2C007C006123711D006D007400D8D
:205B2700C007C0061236F8D006D007502378A6E2FC08E2FD78AAECF208EDF27893E2600357
:205B47000255C2D22C78A3E4F2087480F20255C27861E2F5F008E245F0600B78A5E2B4143E
:205B67000050030255C2C006C0077861E2FC08E2CC25E0CC33FDEC2416FCED3401FD0CBCAE
:205B870000010DC007C006C005C00412372EAB82D004D005D006D0077A007861E2FE08E2C3
:205BA700CE25E0CE33FFEE2416FEEF3401FF8E828F83A3E0900611F0E4A3F0900003C005B7
:205BC700C004C003C002126E89AE82AF83D002D003D004D005EE2BFEEF3AC313CE13CEC334
:205BE70013CE13CE8C828D83EEF0D007D0063032030255C2789A79A6C3E3F5F0E295F00989
:205C0700E3F5F008E295F050030255C2789AE2FC08E2FD78A6E2FA08E2CA25E0CA33FBEC6C
:205C2700C39AFCED9BFD30E7047D00803678A6E2FB08E2CB25E0CB33FC789AE2C39BFB082D
:205C4700E29CFC78A89005B6E2F008E2A3F08B828C83C007C00612676CAB82AC83D006D079
:205C6700078B05BD050050030255C2ED24FBFD78A0C3E29D500478A0E2FDC007C006C00558
:205C8700124AEBE5828583F0D005D006D00745F06044302E417893E2B4013B789CE2FB0887
:205CA700E2C313CB13CBC313CB13CBFC789AC3E29B08E29C50030255C29004B874FFF07896
:205CC700D97401F278BEE24420F2789874FFF20874FFF2025DCA7893E2B40203025DC62019
:205CE7003303025D69C006C0079000C375F060C007C006C0051273DAAB82AC83D005D00642
:205D0700D0078D027F00C3EA9BEF9CD007D00640519000C375F060C007C006C0051273DABD
:205D2700AB8278D9EBF290060774C3F0E4A3F07460A3F090060AEBF0E4A3F09004B875F0BC
:205D470000126DB1D005D006D00778BEE24420F278C1E2FB08E2FC7898EBF208ECF2C23358
:205D67008061784974B8F2087404F28D82C007C006C005121DD7E58278D9F2122278D00558
:205D8700D006D0079235E433FC78BE13E292E5F278BEE230E52D78C1E2FB08E2FC7898EB90
:205DA700F208ECF278BCE2FC78BC04F28C82C007C006C00512234FD005D006D00780047866
:205DC700D9E4F278D979A0C3E2F5F0E395F05021C007C006C005748BC0E0747DC0E07480CA
:205DE700C0E0120FB2158115811581D005D006D0077893E2B40103D38001C39235E43378D3
:205E0700BE13E292E6F2C007C006C005122275D005D006D0079235E433FC78BE13E292E763
:205E2700F27893E26003025F8C78D9E26003025F8CBD12005003025F8C78D4E224FFFC0845
:205E4700E234FFFD78BAC3E29C08E29D4003025F8C7861C3E2940808E294004003025F8C37
:205E670078A6E2FC08E2CC25E0CC33FD789CE2C39CFC08E29DFD789AC3E29C08E29D400376
:205E8700025F8C78BA7961E2F5F0E3B5F00B08E2F5F009E3B5F0028002800B78BAE2240100
:205EA700F208E23400F278D97402F278BAE2FC08E2CC25E0CC33FDEC2416FCED3401FD0C0C
:205EC700BC00010D7861E2FA08E2CA25E0CA33FBEA2416FAEB3401FB8A828B83A3E08C82A7
:205EE7008D83F078BAE2FC08E2CC25E0CC33FDEC2416FCED3401FD900607ECF0EDA3F0E4B6
:205F0700A3F090060A7402F0E4A3F09004B875F000C007C006126DB190060774BAF0E4A3BA
:205F2700F07460A3F090060A7402F0E4A3F09004BA75F000126DB1D006D00778D97404F23B
:205F470078BAE22401F208E23400F278BA7961E2F5F0E3B5F00B08E2F5F009E3B5F00280B7
:205F670002800B78BAE22401F208E23400F278BDE4F208E254E0F278BEE2547FF278BEE242
:205F870054DFF280537893E2601E78D9E270197893E2B4020280030255C27861E2F5F008F2
:205FA700E245F060030255C278D9E22404F582C007C006124D87AC82AD83D006D007789AE5
:205FC700E2C39CFC08E29DFD78BDECF208ED541FF5F0E254E045F0F27893E2B402267861BA
:205FE700E2F5F008E245F0701BC007C006120EE0AD82D006D0077C0043048078BFEDF2085F
:20600700ECF2800A78BF7961E3F20809E3F278D9E224B8FCE43404FD7B0090060774BDF0E8
:20602700E4A3F07460A3F090060A7404F0E4A3F08C828D838BF0C007C006126DB1D006D000
:206047000778BEE220E52C78D9E2601E78BDE2FC08E2541FFD4C6012D2B67896E2FC08E2AF
:20606700FD7898ECF208EDF28009789874FFF20874FFF27893E2700F78D9E27006D22ED2F5
:206087002D8010C22D800C7893E2B4010678A4E2547FF2302E217893E2B4011BC22E78A60C
:2060A70079AAE2F308E2F5F0E325E0C5F033C5F0F309E5F0F3800E78A6E2FC08E2FD78AA36
:2060C700ECF208EDF278ACE2FC7D0078ADE2FA7B00ECC39AFCED9BFDBC6405BD0002801FAC
:2060E70078D9E22404F582C007C006124D87AC82AD83D006D00778AEE22CF208E23DF27892
:20610700D9E22404FD787774B8F2087404F278989004ACE2F008E2A3F0789A7979E2F30899
:20612700E209F38D82C007C006123973D006D007401078D9E2600BC007C00612227BD00673
:20614700D00778B0E2600C78B1E4F208F278B5E4F208F2C007C006120EBA123AD01239CF58
:20616700D006D00778D9E270030255C278BDE2FC08E2541FFD4C70030255C2C2B60255C2D6
:20618700A23022AE82AF8378D474012EF2E43F08F222AE82AF837896EEF208EFF222E582C0
:2061A70024FF923122123734AF8290061DEFF0E4A3F0E4A3F0E4A3F09003E8E4F5F0126F66
:2061C700A6AC82AD83AEF0FF9005F8ECF0EDA3F0EEA3F0EFA3F090120075F07AE4126C4800
:2061E700AC82AD83AEF0FF74082CF568E43DF569E43EF56AE43FF56BAA68E569C4CAC4540F
:206207000F6ACA540FCA6ACAFBE56AC454F04BFBAE6AE56BC4CEC4540F6ECE540FCE6ECE71
:2062270078A8EAF208EBF290061DEAF0EBA3F0E4A3F0E4A3F0902710E4F5F0C003C0021256
:206247006FA685826C85836D85F06EF56F90061DE568F0E569A3F0E56AA3F0E56BA3F090CD
:206267000271E4F5F0126FA6AC82AD83AEF0FFD002D003C3E56C9CE56D9DE56E9EE56F9F91
:20628700500A78A874012AF2E43B08F278A8900611E2F008E2A3F090000D126E89E582852B
:2062A70083F078A6240DF2E435F008F230063478A07474F278A9E2F5F018E225E0C5F033F5
:2062C700C5F0F208E5F0F278A8E2FE08E2CE25E0CE33CE25E0CE33FF78A6E22EF208E23F67
:2062E700F2800578A074F8F278A6E2F56808E2C56825E0C56833F56978A1E568F208E569C5
:20630700F278A890061DE2F008E2A3F0E4A3F0E4A3F078A0E2FA7B007C007D008A828B83F2
:206327008CF0ED126FA685826C85836D85F06EF56F78A6E2F57008E2F571E4F572F573E54A
:2063470070256CFCE571356DFDE572356EFEE573356FFFEC2CF56CED33F56DEE33F56EEFE3
:2063670033F56FAA68AB69E4FEFFEA256CFAEB356DFBEE356EFEEF356FFFE5702AFCE57189
:206387003BFDE5723EFEE5733FFF78B0E2603578B37438F2087401F2785274A8F208740367
:2063A700F208E4F208F27856ECF208EDF208EEF208EFF28C828D838EF0EF122BC2AC82AD43
:2063C70083AEF0FFC374FF9C741F9DE49EE49F50087CFF7D1F7E007F00C3EC94A8ED946156
:2063E700EE9400EF940040087CA87D617E007F00789CECF208EDF278A8E2F57008E2F571BA
:20640700E4F572F573E5702570F570E57133F571E57233F572E57333F573E5702570F57051
:20642700E57133F571E57233F572E57333F57378A6E2F56C08E2F56DE4F56EF56FE56C25B4
:2064470070F570E56D3571F571E56E3572F572E56F3573F573E5702570F570E57133F571FF
:20646700E57233F572E57333F573E5702570F570E57133F571E57233F572E57333F5737897
:20648700A1E2F56808E2F569E4F56AF56BE5682570F570E5693571F571E56A3572F572E547
:2064A7006B3573F573E56C2570FCE56D3571FDE56E3572E56F3573789EECF208EDF2786ECC
:2064C700E27E0024F6FFEE34FFFE90062E7402F0E4A3F08F828E831271EEAE82AF8378A867
:2064E700900611E2F008E2A3F08E828F83126E89AE82AF8378A6E22EF208E23FF2789C794A
:20650700A6E3F5F0C3E295F0FE09E3F5F008E295F0FF78A89005B6E2F008E2A3F08E828F46
:206527008312676CAE82AF8378A0E2FC7D00C3EC9EED9F50048C068D078E8212227E78BFCB
