:0A04D20078007441F278157464F2AA
:2004E700AF828F06BE0802801BBE0D028005BE7F30801175820A1249347812E22401F8E47F
:20050700F2D201227812E260647582081249347582201249347582081249347812E214F289
:20052700227812E2B41000503E8F82C007C006126831E582D006D00760338F82C007C00646
:200547001267CBE582D006D00760055306DF80028F068E077812E2FE781204F2EE2401F8FE
:20056700EFF28F82024934C2007812E4F222AF82BF2B0280047814E4F27814C3E2F5F07432
:200587000495F0402C7814E275F003A4900597730205BC0205A60205A60205AD0205BC783A
:2005A70014E22401F22278147404F278157464F2227814E4F278157464F2227815E26038B4
:2005C7007815E214F27815E2702E7814E260087814E2B40423800678147401F222D200788E
:2005E70014E4F278017441F278027454F27803E4F278127402F2D20122200101227812E2CE
:20060700B40200E433FF70187801E2FEBE52117802E2FEBE540A1250BD7812E4F2C201222B
:20062700EF60030206937801E2FFBF415F7802E2FFBF54587803E2FF6023BF26028023BF1F
:200647002B028023BF49028023BF4F028028BF5002801EBF53028027BF5A2E802712069A54
:20066700802A12094B8025120B79802012078E801B120A2D801678157464F2C200800D12AF
:2006870008C9800843EF1080FE1206BC7812E4F2C201227420C0E0746BC0E07480C0E07466
:2006A7001CC0E0746BC0E07480C0E0123397E58124FAF581227423C0E0746BC0E07480C002
:2006C700E0741CC0E0746BC0E07480C0E0123397E58124FAF58122E5812404F5817C007DFB
:2006E700007E007F007816E22401F9E3FBF582C007C006C005C004C003126348E582D00343
:20070700D004D005D006D007606D9005EBECF0EDA3F0EEA3F0EFA3F090000AE4F5F0C003AA
:200727001264C9AF82AE83ADF0FCD0038B027B00EA24D0FAEB34FFFBE58124FDF8A602087D
:20074700A603EB3395E008F608F6E58124FDF8E62FF608E63EF608E63DF608E63CF6E58107
:2007670024FDF886040886050886060886077816E22401F20206EC8C828D838EF0EFC8E560
:200787008124FCF581C8227804E2FF6030BF3002802BBF31028048BF32028065BF3303023F
:2007A7000825BF3403020845BF3503020865BF36030208C0BF37030208C30208C6747AC054
:2007C700E0746DC0E07480C0E0741CC0E0746BC0E07480C0E0123397E58124FAF58122746E
:2007E7008DC0E0746DC0E07480C0E0741CC0E0746BC0E07480C0E0123397E58124FAF58197
:20080700227443C0E0E4C0E07429C0E0746BC0E07480C0E0123397E58124FBF58122781FF4
:20082700E2FE7F00C006C0077429C0E0746BC0E07480C0E0123397E58124FBF581227820E4
:20084700E2FE7F00C006C0077429C0E0746BC0E07480C0E0123397E58124FBF581227F00DD
:200867008F82C00712261B85820885830985F00AF50BD0078F82C007122A43AA82AD83AE6F
:20088700F0D0078F037C00C007C008C009C00AC00BC002C005C006C003C004742DC0E07406
:2008A7006BC0E07480C0E0123397E58124F4F581D0070FBF100040A822025AD60249E302A1
:2008C70006BC78167403F21206DEAC82AD83AEF0FFBC100040030206BC7816E22401F9E323
:2008E700FFBF3D02802DBF3F588C8212261BAB82AD83AEF0FFC003C005C006C007743AC013
:20090700E0746BC0E07480C0E0123397E58124F9F58122EC602B7816E22401F2C00412060C
:20092700DEAB82AD83AEF0FFD0047856EBF208EDF208EEF208EFF28C8212248D5003020675
:200947009A0206BC7804E2FFBF46028017BF50028058BF54028056BF55028014BF57028021
:2009670009020A2A12291102069A1228BA02069A9005E1743FF0746BA3F07480A3F090000B
:200987000575F0601263CCE5828583F045F0701775B7A575B7F1758F0390F7FE74FFF075D8
:2009A7008F0043EF1080FE0206BC024EC19005E17445F0746BA3F07480A3F090000575F0FA
:2009C700601263CCE5828583F045F070057813E4F2229005E17446F0746BA3F07480A3F0CA
:2009E70090000575F0601263CCE5828583F045F070077813E26401F2229005E1744CF074CA
:200A07006BA3F07480A3F090000575F0601263CCE5828583F045F070077813E26402F222BD
:200A27000206BC0206BC7804E2FFBF50028003020ACE7F008F057E00C007C005C0067451B4
:200A4700C0E0746BC0E07480C0E0123397E58124FBF581D0078F82C007122E68D007501B6C
:200A6700C0077459C0E0746BC0E07480C0E0123397158115811581D0078019C0077461C0BE
:200A8700E0746BC0E07480C0E0123397158115811581D0078F82C007122FCC9202E433FD5A
:200AA7007E00C005C0067469C0E0746BC0E07480C0E0123397E58124FBF581D0070FBF0614
:200AC700005003020A3B227805E2FFBF3D0C7806E2F582126348E58270030206BC7806E25B
:200AE70024D0FF7804E2FEBE43028052BE49028013BE4F028005BE52738012D2118F821280
:200B07002C46806BC2118F82122C4680628F82C007122E68D00740238F82122FEBAE827D83
:200B270000C006C0057472C0E0746BC0E07480C0E0123397E58124FBF581220206BC78084D
:200B4700E2F582C007126348E582D007601B7808E2FE3395E0FDEE24D0FEED34FF4E24FF82
:200B670092138F82122E8640060206BC0206BC02069A78167404F21206DEAC82AD83AEF098
:200B87007804E2FFBF43028051BF4C03020C77BF50028003020C857805E2FFBF3D02800383
:200BA700020C8578167405F21206DE7817C0E0E582F208E583F208E5F0F2D0E008F27817BA
:200BC700E254FFFA08E2540008E2540008E254008AFCC221123FF602069A7816E22401F945
:200BE700E3FFBF3D028041BF3F028003020C858C82122B41AF827817EFF208E4F208F2082A
:200C0700F27817E2C0E008E2C0E008E2C0E008E2C0E0743AC0E0746BC0E07480C0E0123386
:200C270097E58124F9F581227816E22401F2C0041206DE7817C0E0E582F208E583F208E5E3
:200C4700F0F2D0E008F2D0047817E254FFFB08E2540008E2540008E25400C0038C82122AA7
:200C6700F715819203500512069A80030206BC22122B7A500512069A80030206BC220206AC
:010C8700BCB0
:206B1C0025730A004F4B004552524F520025750A005325753A2025733D256C750A00256C32
:206B3C00750A00504441544500003D52535349003D54444D0050696E3A256420004F75746A
:1E6B5C007075742000496E70757420200056616C3A2025640A0076616C3A25750A0021
:200C8800AF827E007D00AB0CAC0D8F021FEA603B8B828C83E0FAA3AB82AC83ED2DF9ED3056
:200CA800E714890009E8906C7A936EFDE9906C7A93F86AFE80D4890009E8906B7A93F86EB5
:1B0CC800FDE9906B7A93F96AFE80BF8D07E4FDFCEE4205EC42078D828F832265
:206B7A000000102120423063408450A560C670E781089129A14AB16BC18CD1ADE1CEF1EFFB
:206B9A00123102103273225252B5429472F762D693398318B37BA35AD3BDC39CF3FFE3DEBB
:206BBA00246234430420140164E674C744A45485A56AB54B85289509E5EEF5CFC5ACD58D7B
:206BDA00365326721611063076D766F6569546B4B75BA77A97198738F7DFE7FED79DC7BC3B
:206BFA0048C458E5688678A70840186128023823C9CCD9EDE98EF9AF89489969A90AB92BFB
:206C1A005AF54AD47AB76A961A710A503A332A12DBFDCBDCFBBFEB9E9B798B58BB3BAB1ABA
:206C3A006CA67C874CE45CC52C223C030C601C41EDAEFD8FCDECDDCDAD2ABD0B8D689D497A
:206C5A007E976EB65ED54EF43E132E321E510E70FF9FEFBEDFDDCFFCBF1BAF3A9F598F783A
:206C7A00918881A9B1CAA1EBD10CC12DF14EE16F108000A130C220E35004402570466067FA
:206C9A0083B99398A3FBB3DAC33DD31CE37FF35E02B1129022F332D24235521462777256BA
:206CBA00B5EAA5CB95A88589F56EE54FD52CC50D34E224C314A0048174666447542444057A
:206CDA00A7DBB7FA879997B8E75FF77EC71DD73C26D336F2069116B066577676461556343A
:206CFA00D94CC96DF90EE92F99C889E9B98AA9AB584448657806682718C008E1388228A3FA
:206D1A00CB7DDB5CEB3FFB1E8BF99BD8ABBBBB9A4A755A546A377A160AF11AD02AB33A92B9
:206D3A00FD2EED0FDD6CCD4DBDAAAD8B9DE88DC97C266C075C644C453CA22C831CE00CC179
:206D5A00EF1FFF3ECF5DDF7CAF9BBFBA8FD99FF86E177E364E555E742E933EB20ED11EF039
:200CE30075B7A575B7F122D310AF01C3C0D0120CE3758F0790000074FFF0758F00D0D092C6
:200D0300AF22D310AF01C3C0D0AE82AF83758F048E828F83E493FF758F008F82D0D092AF21
:200D230022D310AF01C3C0D0AE82AF83C007C006120CE3D006D007758F058E828F83781B4D
:0A0D4300E2F0758F00D0D092AF22CD
:02F7FE003DC20A
:200D4D00AF83E582900106F0EFA3F0900106E0FEA3E0FF900105E0FD7C008D027B001ABA20
:200D6D00FF011B8C007900C3E89AE964808BF063F08095F05046C007C006C005C004126043
:200D8D00C1AA82D004D005D006D0078DF0EA84E5F02EFAE43FFB8A828B83E0F50EC005EC4F
:200DAD002EF8E43FFD88828D83E0F98A828B83F088828D83E50EF00CD005809E22AF83E5AE
:200DCD0082900108F0EFA3F07F00781CC3E2F5F0EF95F0500FEF24D3F582E43400F583EF2D
:200DED00F00F80E6900108E0FEA3E0FF8E828F8312611B781CE2FF7E008F047D001CBCFFFE
:200E0D00011D8E027B00C3EA9CEB64808DF063F08095F05042C007C0061260C1AC82D00659
:200E2D00D0078FF0EC84E5F024D3FCE43400FD8C828D83E0F50FC007EE24D3FAE43400FF43
:200E4D008A828F83E0FB8C828D83F08A828F83E50FF00ED00780A222781DE224D3F582E48A
:200E6D003400F583E0F58222781EE224D3F582E43400F583E0F58222781DE2FE7F000EBE91
:200E8D0000010F781CE2FC7D009005E7ECF0EDA3F08E828F83C005C004126460AE82AF838B
:200EAD00D004D005781DEEF2300407781D791EE2F322781DE27022781EE2FE7F000EBE00DF
:200ECD00010F9005E7ECF0EDA3F08E828F83126460AE82AF83781EEEF222A2059204500797
:200EED00781E791DE2F322781EE2FE7F000EBE00010F781C9005E7E2F0E4A3F08E828F8376
:0A0F0D00126460AE82781EEEF2223C
:0604000002047902404CE9
:01040B0032BE
:0104130032B6
:01041B0032AE
:0304230002419201
:03042B00025BCDA4
:010433003296
:01043B00328E
:010443003286
:01044B00327E
:010453003276
:01045B00326E
:010463003266
:01046B00325E
:03047300025B43E6
:0304E40002047699
:03047600020F175B
:200F1700AFC4781FEFF2AFC37820EFF21227C6400312291175820612261BAC8290010CEC4F
:200F3700F075820712261BAC82AD83AEF0FFEC4D4E4F24FF920775820512261BAC82AD831F
:200F5700AEF0FFEC4D4E4F24FF920675820E12261BAC82AD83AEF0FFEC4D4E4F24FF920866
:200F7700120FD412107512372A40157491C0E0746DC0E07480C0E0120F9A158115811581CF
:200F970002518A906DAB75F08012684AE58124FCFFC007E58124FBF886820886830886F0AC
:200FB70012310F1581906DB675F08012684AD2AFD2AC9003E8125BC443EF1080FEAFD9746F
:200FD700BF5FF5D975B28F75B64075A90075FF807E5E7F011EBEFF011FEE4F70F775EF0676
:200FF70075D4CF75D5F875D68F75A41075A70F75A41075A70075E10143E24443A5F5E5A6E5
:2010170075A6FF75A70F43A5F5E5A675A6FF75A70075844075B00075850043B001D29475AF
:20103700A700C289125C7375820112261BAC828C8212434A75B800D2AFD295C296D2EF75FD
:20105700BCF975BA0075BB1B75D10775D98875DF0075DA4275FC8075D84075E340221237C1
:2010770069401574B7C0E0746DC0E07480C0E0120F9A158115811581781FE2B44302801C30
:20109700781FE2B447028043781FE2B48602806A781FE2B4910302113E02116B7835749020
:2010B700F20874D1F20874CFF2087419F278397470F208745EF20874EAF2087419F2784139
:2010D700740AF2781C740AF20211A278357480F20874A1F2087403F208741CF2783974C04E
:2010F700F20874E3F2087412F208741CF27841740AF2781C740AF20211A27835E4F20874AB
:20111700A1F20874BCF2087433F278397440F20874E3F20874CBF2087433F27841740AF2AF
:20113700781C740AF28064783574C0F20874CAF2087489F2087436F27839E4F2087428F2ED
:20115700087450F2087437F278417414F2781C7432F280377835E4F208F208F208F27839DD
:20117700E4F208F208F208F27841E4F2781FE2FA7B00C002C00374CFC0E0746DC0E074803A
:20119700C0E0120F9AE58124FBF58175820A12261BAA82AB83AEF0FFEA4B4E4F601175825D
:2011B7000A12261BAC82AD83AEF0FF781CECF275820812261BAC82AD83AEF0FFEC4D4E4F2B
:2011D700603775820812261BAC82AD83AEF0FF9005EBECF0EDA3F0EEA3F0EFA3F09003E8BA
:2011F700E4F5F01264C97835C0E0E582F208E583F208E5F0F2D0E008F275820912261BAC50
:2012170082AD83AEF0FFEC4D4E4F603775820912261BAC82AD83AEF0FF9005EBECF0EDA3C1
:20123700F0EEA3F0EFA3F09003E8E4F5F01264C97839C0E0E582F208E583F208E5F0F2D076
:20125700E008F275820412261BAC82AD83AEF0FFEC4D4E4F601175820412261BAC82AD8361
:20127700AEF0FF7841ECF27841E2FB7D007E007F00785AE4F208F208F208F2785E741EF223
:2012970008E4F208F208F28B828D838EF0EF122A72AC827841ECF2781CE2FC7D007E007F7C
:2012B70000785A7401F208E4F208F208F2785E7432F208E4F208F208F28C828D838EF0EF41
:2012D700122A72AC82AD83AEF0FF781CECF2781FE2B44302801E781FE2B4470302139A782E
:2012F7001FE2B4860302142B781FE2B491030214BC02154A785A7480F2087423F20874ADF2
:20131700F2087418F2785EE4F208740BF208746BF208741BF27835E2F58208E2F58308E265
:20133700F5F008E2122A727835C0E0E582F208E583F208E5F0F2D0E008F2785A7480F208D8
:201357007423F20874ADF2087418F2785EE4F208740BF208746BF208741BF27839E2F582BB
:2013770008E2F58308E2F5F008E2122A727839C0E0E582F208E583F208E5F0F2D0E008F208
:20139700021569785A7480F2087474F20874D2F208741AF2785E7480F20874CEF2087434AC
:2013B700F208741DF27835E2F58208E2F58308E2F5F008E2122A727835C0E0E582F208E537
:2013D70083F208E5F0F2D0E008F2785A7480F2087474F20874D2F208741AF2785E7480F2EA
:2013F7000874CEF2087434F208741DF27839E2F58208E2F58308E2F5F008E2122A727839E9
:20141700C0E0E582F208E583F208E5F0F2D0E008F2021569785A7440F20874B6F208749AAF
:20143700F2087432F2785E7440F2087410F20874FDF2087434F27835E2F58208E2F583088C
:20145700E2F5F008E2122A727835C0E0E582F208E583F208E5F0F2D0E008F2785A7440F21D
:201477000874B6F208749AF2087432F2785E7440F2087410F20874FDF2087434F27839E2EF
:20149700F58208E2F58308E2F5F008E2122A727839C0E0E582F208E583F208E5F0F2D0E06A
:2014B70008F2021569785AE4F20874A1F20874BCF2087433F2785E74C0F20874F7F208743C
:2014D700BAF2087437F27835E2F58208E2F58308E2F5F008E2122A727835C0E0E582F20827
:2014F700E583F208E5F0F2D0E008F2785AE4F20874A1F20874BCF2087433F2785E74C0F284
:201517000874F7F20874BAF2087437F27839E2F58208E2F58308E2F5F008E2122A727839FE
:20153700C0E0E582F208E583F208E5F0F2D0E008F2801F781FE2FE7F00C006C00774CFC09B
:20155700E0746DC0E07480C0E0120F9AE58124FBF58178397935E2F5F0E3B5F01D08E2F51F
:20157700F009E3B5F01408E2F5F009E3B5F00B08E2F5F009E3B5F0028002801A7835793977
:20159700E22440F308E2344209F308E2340F09F308E2340009F375820B12261BAC8278A7BA
:2015B700ECF27F007E007D00785AE4F208F208F208F2785E7464F208E4F208F208F28C82A6
:2015D7008F838EF0ED122A72AC8278A7ECF27856ECF208E4F208F208F275820B12248D75E6
:2015F700820C12261BAC82AD83AEF0FF78ABECF2EC60337F007E007D00785A7419F208E4C1
:20161700F208F208F2785E74DCF208E4F208F208F28C828F838EF0ED122A72AC82AD83AE9E
:20163700F0FF78ABECF278AB7956E2F309E4F309F309F375820C12248D9005C674E8F07423
:2016570003A3F0E4A3F0E4A3F07835E2F58208E2F58308E2F5F008E212616BAC82AD83AEE4
:20167700F0FF7856ECF208EDF208EEF208EFF275820812248D9005C674E8F07403A3F0E4A9
:20169700A3F0E4A3F07839E2F58208E2F58308E2F5F008E212616BAC82AD83AEF0FF78565D
:2016B700ECF208EDF208EEF208EFF275820912248D781C7956E2F309E4F309F309F37582B3
:2016D7000A12248D78397935E3F5F0C3E295F0FC09E3F5F008E295F0FD09E3F5F008E2954C
:2016F700F0FE09E3F5F008E295F0FF781CE2FA7B0074022AFAE43BFB9005C6EAF0EBA3F054
:20171700EB3395E0A3F0A3F08C828D838EF0EF12616B783DC0E0E582F208E583F208E5F0A3
:20173700F2D0E008F27840E2C313FF18E213FE18E213FB18E213FA7835E22AF208E23BF2AB
:2017570008E23EF208E23FF275820312261B12611B781CC3E2F5F0740595F050541260C16F
:20177700AE82AF839005DFEEF0EFA3F09002711263ACAE82E583FF3395E0FDFC783D900576
:20179700BBE2F008E2A3F008E2A3F008E2A3F08E828F838DF0EC125EDDAC82AD83AEF0FF5B
:2017B7007835E22CF208E23DF208E23EF208E23FF27835E2F58208E2F58308E2F5F008E2F6
:2017D7001237D2783DE2F58208E2F58308E2F5F008E212380E75820312261BAC82AD83AEFD
:2017F700F0FF781C9005BBE2F0E4A3F0E4A3F0E4A3F08C828D838EF0EF125EDDAC828C82B4
:2018170012385F75820212261BAC828C82123889403375820212261BAC828C82123889409F
:201837002475820212261BAC828C82123889401574E6C0E0746DC0E07480C0E0120F9A15DE
:2018570081158115811234B4AF827856EFF208E4F208F208F275820212248D75820312262A
:201877001B123B737841E2F582123B2D123B6DAF827856EFF208E4F208F208F27582041271
:0E189700248D75820312261B120DCA0257BA49
:206D7A0053694B20312E38206F6E205246443930304100312E38006661696C656420746F69
:206D9A0020656E61626C65207265636569766572000A2A2A50414E49432A2A000072616489
:206DBA00696F5F696E697469616C697365206661696C65640062616420626F6172642066FD
:206DDA0072657175656E637920256400726164696F5F636F6E666967757265206661696C98
:036DFA00656400CD
:2018A500AF82900487E0F56F7CFF7DFF7406256FFBFA2486F582E43404F583EFF00A784340
:2018C5007401F27843C3E29A5065C0027843E22486F582E43404F583E0FB8C71757200E535
:2018E50071F5736BF570C454F0F57462708D75757600AB707E008B077A00E5756202E5764C
:201905006207EEC40354F8CBC403CB6BCB54F8CB6BFEEB6202EE6207E570C4540FFE7B00AA
:201925006AFCEB6FFD7843E22401F2D00280947406256F2486F582E43404F5838C06EEF018
:201945007407256F2486F582E43404F5838D04ECF022AF828F6F8F047D007844E27B002CAB
:20196500FCEB3DFDAA6F7B00C3EA9CEB64808DF063F08095F05032E56F2486FCE43404FD2B
:201985008C828D83E0F570E56F042486FAE43404FB8A828B83E0FE8C828D83F08A828B83AC
:2019A500E570F0056F056F80AD227E8C7F047D0090048674FEF09004877409F07842E2FC00
:2019C500784204F2900488ECF09004897433F090048A7444F090048B74A6F07821E2FB0839
:2019E500E2FC8E828F838DF0EB126361A3EC12636174022EF510E43FF5118D12782BE2FB4E
:201A050008E2FC8510828511838512F0EB126361A3EC12636174062EF510E43FF5118D1289
:201A2500C007C006C0051248F4AC82D005D006D0078510828511838512F0EC126361740460
:201A45002EF510E43FF5118D12782DE28510828511838512F012636174052EF510E43FF5AE
:201A6500118D127831E28510828511838512F012636174072EF510E43FF5118D12782EE29B
:201A85008510828511838512F012636174082EFEE43FFF7832E28E828F838DF01263617574
:201AA50082151218A5124564AE82AF83C3EE9411EF940050012278957411F290048612445E
:201AC5003C90048B746DF07582B91218A5124564AE82AF83C3EE9411EF94005001227895E0
:091AE5007411F290048602443CE5
:201AEE00AE82AF83E0FDBDFE1A8E828F83A3E0FDBD091074052EFEE43FFF8E828F83E07013
:201B0E0002D20E22E582900305F012489CE5828583F0900306F0E5F0A3F0900308E4F0E42B
:201B2E00A3F090030A74FFF074FFA3F0900305E0F52B900306E0F529A3E0F52AC3E52994C8
:201B4E0008E52A94005003021C3F900308E0FBA3E0FC8B828C83C004C0031246D485822829
:201B6E00D003D00474FEB528028003021C3F74012BFEE43CFF8E828F83C004C0031246D4ED
:201B8E00858228D003D004740925285003021C3FC003C004AD287E0074082DFAE43EFC85C7
:201BAE002B2C752D007845E2FB7F00E52CC39BFBE52D9FFFC3EB9AEF64808CF063F08095EC
:201BCE00F0D004D003406A74082DFDE43EFEC3E5299DE52A9E405A74062BFEE43CFF8E8269
:201BEE008F83C004C0031246D4AF82D003D004BF460D7412B5280890030AEBF0ECA3F07452
:201C0E00082528F528AA287F00900306E0FDA3E0FE900306EDC39AF0EE9FA3F0900308E08E
:201C2E00FDA3E0FE900308EA2DF0EF3EA3F0021B4090030AE0FEA3E08E82F58322E58290BA
:201C4E00030CF0E4F530F53178497996E2F390020912471E7849E2FD7845F2784FE2FA0897
:201C6E00E2FB7C009005D57409F07402A3F0E4A3F09005D8EDF0E4A3F08A828B838CF0123D
:201C8E0062D47849E4F2784FE2F58208E2F583121AEE90010CE0FDBD020F90030CE0F5828F
:201CAE00121B12AC82AD8380047CFF7DFF8C328D3312489C85822E85832F90030CE0F53773
:201CCE0074FFB5320974FFB5330474018001E4FCC3E52E9408E52F94005003021E1EC004EF
:201CEE0012467D858234D00474FEB5340280067845E2F58222C004124699858234D004749F
:201D0E000925345003021E1EC00485343575360074082535FBE43536FEAA377F007845E248
:201D2E00FC7D00EAC39CFAEF9DFFC3EA9BEF64808EF063F08095F0D0045003021E1E74087C
:201D4E002535FEE43536FFC3E52E9EE52F9F5003021E1EEC7028E530B53207E531B5330290
:201D6E00801C900006C0041246D4AF82D004BF460D7412B5340874082534F534807074083B
:201D8E002534F5347845E22409FEE43402FF7896E534F28E828F83C00412471E784F7945D5
:201DAE00E3C5F0E225F0FE08E23400FF7D007845E22409FAE43402FB9005D5EAF0EBA3F051
:201DCE00E4A3F09005D8E534F0E4A3F08E828F838DF01262D4784F7945E3C5F0E225F0FE98
:201DEE0008E23400FF8E828F83121AEED0047845E22534F2AE347F00E52EC39EF52EE52FB2
:201E0E009FF52FEE2530F530EF3531F531021CDE7845E2F5822285823812489C85823985E0
:201E2E00833A200C163007652009627845E2605DC3E5399420E53A940050527845C3E2F5D1
:201E4E00F0E53895F050087845E4F275820022D209C20C7851E2FA08E2FB7C009005D57451
:201E6E0009F07402A3F0E4A3F078459005D8E2F0E4A3F08A828B838CF01262D47845E2F5F6
:201E8E0039753A007845E4F2AB398B8222C209200D03021F547845E2FB7C008B398C3A8511
:201EAE00383B753C00C3E53B9539E53C953A50657851E2FA08E2FE7F009005D57409F07443
:201ECE0002A3F0E4A3F09005D8E53BF0E53CA3F08A828E838FF01262D4E5382409FEE43473
:201EEE0002FF9005D5EEF0EFA3F0E4A3F0AE387F009005D8E539C39EF0E53A9FA3F090026E
:201F0E000975F0001262D4E539C395387845F2D20A853882227851E2FD08E2FE7F009005BF
:201F2E00D57409F07402A3F0E4A3F09005D8EBF0ECA3F08D828E838FF01262D4C20DD20A78
:201F4E007845E2F58222C20AAE387F00C3EE9539EF953A50048E398F3A7845E4F2E53945F3
:201F6E003A7003F5822290010CE0FF7053E539453A6043AD397896EDF27851E2F58208E2AF
:201F8E00F583C00512471ED005502B78519005D5E2F008E2A3F0E4A3F09005D8E539F0E5D6
:201FAE003AA3F090020975F000C0051262D4D0057845EDF280047845E4F27845E2F5822279
:201FCE007849E2B4010280030220637401B53906E4B53A0280028079125C35AE82AF83785B
:201FEE004AD3E29EF4B3FEB308E29FF4FF784CC3E29E08E29F50567845E2FF784504F2EFEC
:20200E002409FFE43402FEC007C0061245CBAD82D006D0078F828E83EDF07851E2FD08E252
:20202E00FE7F009005D57409F07402A3F0E4A3F078459005D8E2F0E4A3F08D828E838FF0AC
:20204E001262D47849E4F27845E2F58222758200227849E4F27849E270030220F27849E2DE
:20206E00FE7F00C3E5399EE53A9F5068125C35AE82AF83784AD3E29EF4B3FEB308E29FF4F1
:20208E00FF784CC3E29E08E29F5045AD397896EDF2900209C00512471ED0057845EDF2787B
:2020AE0051E2FC08E2FE7F009005D57409F07402A3F0E4A3F09005D8EDF0E4A3F08C828EC8
:2020CE00838FF01262D47849E4F27845E2F58222758200227851794FE2F308E209F38538B7
:2020EE0082021C4BE539453A700302229312467DAF82BFFE0280030222647401B53906E403
:20210E00B53A028002802E7845E2600302229378497401F2125C35E5828583F0784AF208F1
:20212E00E5F0F27847E2FE08E2FF784CEEF208EFF275820022124699AF827849EFF2BFF722
:20214E000050208F057E0074082DFDE43EFE784EE2FB7C00C3EB9DEC64808EF063F0809509
:20216E00F050337849E4F27845E2FE784504F2EE2409FEE43402FDC006C0051245CBAC82EC
:20218E00D005D0068E828D83ECF0153974FFB53902153A0220F274082FFF7849F27845E27A
:2021AE0060627851E2FC08E2FD7E009005D57409F07402A3F0E4A3F078459005D8E2F0E40C
:2021CE00A3F08C828D838EF01262D4125C35E5828583F0784AF208E5F0F27849E2FD7E00D7
:2021EE0078479005DFE2F008E2A3F08D828E831263ACE5828583F0784CF208E5F0F278456D
:20220E00E2F582227E00C3E5399FE53A9E5037125C35E5828583F0784AF208E5F0F27849AD
:20222E00E2FE7F0078479005DFE2F008E2A3F08E828F831263ACE5828583F0784CF208E56A
:20224E00F0F2758200227851794FE2F308E209F3853882021C4B7845E2FF784504F2EF241D
:20226E0009FFE43402FEC007C0061245CBAD82D006D0078F828E83EDF0153974FFB53902F5
:20228E00153A0220F27851E2FD08E2FE7F009005D57409F07402A3F0E4A3F078459005D83D
:2022AE00E2F0E4A3F08D828E838FF01262D47845E2F58222A20922A20A22D20C22E5829016
:2022CE00030DF0784EF222AF83E58290030EF0EFA3F090030EE0FEA3E0FF9005C6EEF0EF41
:2022EE00A3F0E4A3F0E4A3F090000075F001E412616BAC82AD83AEF0FF0CBC00090DBD0001
:20230E00050EBE00010F7847ECF208EDF222E582900310F0200F397853E2FD08E2FE7F00B5
:20232E00900310E0FCFA7B009005D5EDF0EEA3F0EFA3F09005D8EAF0EBA3F090010D75F089
:20234E0000C0041262D4D0047846ECF2C20BC322200B37900310E0FF7846E2B5072C78530A
:20236E009005F4E2F008E2A3F0E4A3F09005F7EFF0E4A3F090010D75F0001265E2E58285D6
:20238E0083F045F07004C20BD322D20BC322AE82AF837855C3E2F5F074FC95F050057855BF
:2023AE0074FCF29005D5EEF0EFA3F0E4A3F078559005D8E2F0E4A3F090020975F000126275
:0C23CE00D47855E27845F2C209D20D2205
:2023DA00AF82BF1000400122EF24F0500302248BEF2F2F9023F17302242102242302242D32
:2023FA0002243F02244102245302246702245502248B02248B02248B02248B02248B0224DB
:20241A008B02248B022479C322AF3D8F82124948921022C3E4953D7401953EE4953FE4958C
:20243A0040504EC322D322C3741E953DE4953EE4953FE49540503AC322C322C37401953D1D
:20245A00E4953EE4953FE495405026C322C37402953DE4953EE4953FE495405014C322C3A0
:20247A007483953DE4953EE4953FE495405002C322D322AF827856E2F53D08E2F53E08E20B
:20249A00F53F08E2F5408F82C0071223DAD007400122BF0402801FBF0603022593BF0703FF
:2024BA000225A8BF0B02802DBF0C02806FBF0E030225D20225FA7856E2F582C007123B2DAC
:2024DA00123B6DAE82D0077856EEF208E4F208F208F20225FA785AE4F208F208F208F27872
:2024FA005E7464F208E4F208F208F27856E2F58208E2F58308E2F5F008E2C007122A72AB66
:20251A0082AC83ADF0FED0077856EBF208ECF208EDF208EEF278A7EBF20225FA7856E2F55C
:20253A00F008E242F008E242F008E245F06042785A7419F208E4F208F208F2785E74DCF25D
:20255A0008E4F208F208F27856E2F58208E2F58308E2F5F008E2C007122A72AB82AC83ADCF
:20257A00F0FED0077856EBF208ECF208EDF208EEF2785679ABE2F380677856E2FE90010C23
:20259A00F07856EEF208E4F208F208F280527856E2F5F008E242F008E242F008E245F024CF
:2025BA00FF920750047E0180027E007856EEF208E4F208F208F280287856E2F5F008E242AD
:2025DA00F008E242F008E245F024FF920850047E0180027E007856EEF208E4F208F208F2A6
:2025FA00EF75F004A42411F582740335F0F5837856E2F008E2A3F008E2A3F008E2A3F0D31B
:20261A0022AF82BF10004007900000E4F5F022EF75F004A42411F582740335F0F583E0FC24
:20263A00A3E0FDA3E0FEA3E08C828D838EF022858241858342900375E0FD900376E0FC8D55
:20265A00038D017A008C007F00E829F8EF3AFF8B43754400C3E54398E54464808FF063F030
:20267A008095F0503BE543C399F9E5449AFAE92541F9EA3542FA8B067F008E828F83C005DC
:20269A00C004C003C002C001120D05AF82D001D002D003D004D00589828A83EFF00B80A17F
:2026BA0085410C85420D8C82C003120C88AE82AF83D00374012543FCE43544FD8C828D835D
:2026DA00C007C006C003120D05AD82D0038D047D007A008B828A83C005C004120D05AB82EE
:2026FA00D004D005D006D0077A00EB4205EA4204EEB50506EFB504028002C322D3228582D3
:20271A0045858346900377E0FD900378E0FC8D038D477548008C027F00EA2547FAEF354854
:20273A00FF8B49754A00C3E5499AE54A64808FF063F08095F05037C0048B067F00E549C32C
:20275A009547FAE54A9548FCEA2545F582EC3546F583781BE0F28E828F83C005C004C00304
:20277A00120D24D003D004D0050BD00480A285450C85460D8C82C003120C88AE82AF83D028
:20279A00037D008E02781BEAF28B828D83C007C006120D24D006D00774012549FCE4354AC4
:2027BA00FD781BEFF28C828D83020D24D310AF01C3C0D0900000120D05AE827F00C374407D
:2027DA009EE49F4008EE9430EF94005004C30228B37C117D039003757401F0900376EEF0EC
:2027FA008C828D83C006122649D00640030228B37D517F0390037574032EF09003767424D6
:20281A00F08D828F8312264940030228B375820012261BAC82AD83AEF0FFBC1A0BBD000801
:20283A00BE0005BF00028003C3806E7F00EF75F004A42411FD740335F0FE8D828E83E0F58A
:20285A003DA3E0F53EA3E0F53FA3E0F5408F82C007C006C0051223DAD005D006D007403296
:20287A00EF75F007A424FDFB746D35F0FC8B828C83A3A3A3E493F9A3E493FAA3E493FBA3E0
:20289A00E493FC8D828E83E9F0EAA3F0EBA3F0ECA3F00FBF40004095D333D0D092AF132239
:2028BA00D310AF01C3C0D0900311741AF0E4A3F0E4A3F0E4A3F0120CEA781B7440F29000C0
:2028DA0000120D247E117F039003777401F09003787440F08E828F831227187E517F039018
:2028FA0003777443F09003787424F08E828F83122718D0D092AF227F00EF75F004A42411E4
:20291A00FD740335F0FEEF75F007A424FDFB746D35F0FC8B828C83A3A3A3E493F9A3E4935A
:20293A00FAA3E493FBA3E493FC8D828E83E9F0EAA3F0EBA3F0ECA3F00FBF100040BB7F008D
:20295A00EF75F006A4FDAEF02451FBEE3403FC906E6DE493F56FA3E493F570A3E493F571EE
:20297A00A3E493F5728B828C83E56FF0E570A3F0E571A3F0E572A3F0ED2451FDEE3403FE1F
:20299A0074042DFBE43EFC906E71E493540F8B828C83540FF5F0E054F045F0F074042DFBC9
:2029BA00E43EFC906E71E493C4540FFA8B828C83C454F0F5F0E0540F45F0F074052DFDE4E0
:2029DA003EFE906E72E493FC8D828E83F00FBF0600500302295A22AF827E008F037C007DA6
:2029FA0040EE75F007A424FDF582746D35F0F583E493F8A3E493F9A3E493FA9005E1E8F085
:202A1A00E9A3F0EAA3F08B828C838DF0C007C0061263CCE5828583F0D006D00745F0600695
:202A3A000EBE100040B58E8222AF82BF10005021EF75F007A424FDF582746D35F0F583E40F
:202A5A0093FDA3E493FEA3E493FF8D828E838FF02290000075F00022AC82AD83AEF0FF7850
:202A7A005AC3E2F5F0EC95F008E2F5F0ED95F008E2F5F0EE95F008E2F5F0EF95F0500D784C
:202A9A005AE2FC08E2FD08E2FE08E2FF785EC3E29C08E29D08E29E08E29F500D785EE2FC6C
:202ABA0008E2FD08E2FE08E2FF8C828D838EF0EF22D310AF01C3C0D0AE82AF83758F0175D5
:202ADA00B7A575B7F18E828F83E58124FDF8E6F0758F00D0D092AF22E493F58222E582FF6F
:202AFA0024E14041A8811818B6FF0280387E0074DE2FFC74FB3EFD8C828D83C007C006120C
:202B1A002AF2AD82D006D007BDFF1A74DE2FFF74FB3EFEA8811818E6C0E08F828E83122A65
:202B3A00CB1581D322C322AF827E007D00ED90F7DE93FC62060DBD1F0040F290F7FDE493B5
:202B5A00FDBDFF02801690F7FDE493FDB5060DEF24E14008EF90F7DE93F582227582FF2276
:202B7A007F0090FBFDC007122AF2AE82D007BEFF6A7E008E047D008C028D0374DE2AFA747C
:202B9A00FB3BFB8A828B83C007C006C005C004122AF2AB82D004D005D006D007EB6207BBFA
:202BBA00FF1BC004C0057473C0E0746EC0E07480C0E0123397E58124FBF581C3220EBE1F14
:1D2BDA000040B0C00790FBFD122ACB158174FEC0E090FBFF122ACB1581D322C322EF
:206DFD00906E801A000000976E8039000000A46E8040000000AE6E8019000000B46E8000F7
:206E1D00000000BC6E8001000000C06E8001000000C86E8001000000D26E8000000000DBA9
:206E3D006E8000000000E46E8000000000F16E8064000000FC6E8000000000056F80000054
:206E5D000000106F8000000000176F8083000000FFFFFFFF01FF64426D206C6576656C2026
:206E7D002575206E6F742063616C696272617465640A00464F524D41540053455249414C2C
:206E9D005F5350454544004149525F5350454544004E45544944005458504F574552004567
:206EBD004343004D41564C494E4B004F5050524553454E44004D494E5F46524551004D416E
:206EDD00585F46524551004E554D5F4348414E4E454C5300445554595F4359434C45004CB4
:206EFD0042545F52535349004D414E4348455354455200525453435453004D41585F57498D
:056F1D004E444F570037
:202BF7007F00EF75F006A42451FD740335F0FE8D828E83A3A3A3A3E0540F24FF92118F826F
:202C1700C007C006C005122C46D005D006D0078D828E83A3A3A3A3E0C4540F24FF92138F3B
:202C370082C007122E86D0070FBF060040B422AF82BF06004003022E66EF75F006A424516B
:202C5700FD740335F0FE8D828E83A3A3A3A3A211E433FC540FF5F0E054F045F0F08D828E26
:202C770083A3A3A3A3A374FFF075A700EF75F002A4FEAFF02422F582EF346FF583E493FD3A
:202C9700600FBD0103022D3BBD0203022DCE022E5F301122EE2422FCEF346FFD8C828D83F5
:202CB700A3E493FD8DF005F07401800225E0D5F0FBFD42A48021EE2422FCEF346FFD8C8267
:202CD7008D83A3E493FD8DF005F07401800225E0D5F0FBF4FD52A475A70F301123EE2422DE
:202CF700FCEF346FFD8C828D83A3E493FD8DF005F07401800225E0D5F0FBFD42A4022E615B
:202D1700EE2422FCEF346FFD8C828D83A3E493FD8DF005F07401800225E0D5F0FBF4FD5237
:202D3700A4022E61301122EE2422FCEF346FFD8C828D83A3E493FD8DF005F0740180022562
:202D5700E0D5F0FBFD42A58021EE2422FCEF346FFD8C828D83A3E493FD8DF005F0740180DC
:202D77000225E0D5F0FBF4FD52A575A70F301123EE2422FCEF346FFD8C828D83A3E493FD0A
:202D97008DF005F07401800225E0D5F0FBFD42A5022E61EE2422FCEF346FFD8C828D83A3F9
:202DB700E493FD8DF005F07401800225E0D5F0FBF4FD52A5022E61301122EE2422FCEF342B
:202DD7006FFD8C828D83A3E493FD8DF005F07401800225E0D5F0FBFD42A68021EE2422FC57
:202DF700EF346FFD8C828D83A3E493FD8DF005F07401800225E0D5F0FBF4FD52A675A70FB6
:202E1700301122EE2422FCEF346FFD8C828D83A3E493FD8DF005F07401800225E0D5F0FB16
:202E3700FD42A68025EE2422FEEF346FFF8E828F83A3E493FF8FF005F07401800225E0D5AE
:202E5700F0FBF4FF52A68002C32275A700D322C322E58275F006A42451FE740335F0FF8E16
:202E7700828F83A3A3A3A3E0540F24FF921222E582FF75F006A42451FD740335F0FE8D825F
:202E97008E83A3A3A3A3A213E433FCC454F0F5F0E0540F45F0F0BF06004003022FCA8D824F
:202EB7008E83A3A3A3A3A3E0FEBEFF028003022FCAEF75F002A4FEAFF02422F582EF346FBA
:202ED700F583E493FD600EBD01028053BD0203022F7E022FC6301323EE2422FCEF346FFD61
:202EF7008C828D83A3E493FD8DF005F07401800225E0D5F0FBFD4280022FC8EE2422FCEF81
:202F1700346FFD8C828D83A3E493FD8DF005F07401800225E0D5F0FBF4FD5280022FC830AB
:202F37001322EE2422FCEF346FFD8C828D83A3E493FD8DF005F07401800225E0D5F0FBFD26
:202F57004290806DEE2422FCEF346FFD8C828D83A3E493FD8DF005F07401800225E0D5F074
:202F7700FBF4FD5290804A301322EE2422FCEF346FFD8C828D83A3E493FD8DF005F0740162
:202F9700800225E0D5F0FBFD42A08025EE2422FEEF346FFF8E828F83A3E493FF8FF005F0DD
:202FB7007401800225E0D5F0FBF4FF52A08002C322D322C322E58275F006A42451FE7403B8
:202FD70035F0FF8E828F83A3A3A3A3E0C4540F24FF921422AF82BF060040030230A8EF759F
:202FF700F006A42451FD740335F0FE74042DFDE43EFE8D828E83E0540F60030230A8EF754E
:20301700F002A4FEAFF02422F582EF346FF583E493FD600ABD0102802ABD0271804AEE244B
:2030370022FCEF346FFD8C828D83A3E493FD8DF005F07401800225E0D5F0FBFDE5805205B0
:203057008D8222EE2422FCEF346FFD8C828D83A3E493FD8DF005F07401800225E0D5F0FB06
:20307700FDE59052058D8222EE2422FEEF346FFF8E828F83A3E493FF8FF005F074018002D6
:1530970025E0D5F0FBFFE5A052078F822275827F2275827F221F
:0C6F22000203020202010200020600014C
:0804DC00C215C216C217C218B6
:2030AC00AF822019058F8202493478637962C3E3F5F0E295F0501A7863E2FE786304F290D7
:2030CC000379E0FCA3E0FDEE2CF582E43DF583EFF022AF83E58290037CF0EFA3F090037CB8
:2030EC00E0FEA3E0FF900379EEF0EFA3F07863E4F290037BE07862F2D21922C2197863E2E8
:20310C00F58222AD82AE83AFF08D828E838FF0126A0CFC700122BC2502800302337EC21862
:20312C00C217C216C2150DBD00010E8D828E838FF0126A0CFBBB6802800CBB6C10D2150D24
:20314C00BD000A0E8007D2170DBD00010E8D828E838FF0126A0CFBBB63028030BB640280B2
:20316C0018BB6F02802BBB7302800ABB7502800EBB78238010D216801D75130A80187513BD
:20318C000AD2188011751310D218800A7513008005751308D218301671A8811818E624FDF4
:2031AC00FBA8811818A6038B0187140987150987161919C005C006C007AA14AB15AF168A43
:2031CC00828B838FF0126A0CD007D006D005700302338FC005C006C007AA14AB15AF168A74
:2031EC00828B838FF0126A0CFA0514E4B5140205158A82C007C006C0051230ACD005D00659
:20320C00D007D007D006D00580A9301866301521A8811818E624FCFBA8811818A6038B0124
:20322C00871709871809871909871A1919190232E530171DA8811818E614F9A8811818A6D6
:20324C000187038B17751800751900751A000232E5A8811818E624FEFBA8811818A6038B89
:20326C00018702098703198A178B18751900751A008066301520A8811818E624FCFBA881DD
:20328C001818A6038B01871709871809871909871A191919804330171EA8811818E614FB63
:2032AC00A8811818A6038B01E7FBF5173395E0F518F519F51A8022A8811818E624FEFBA80E
:2032CC00811818A6038B018702098703198A17EBF5183395E0F519F51AE513700302336960
:2032EC0030182F90058A7477F0E4A3F07440A3F090058DE513F08517828518838519F0E5D8
:20330C001AC007C006C005125D2AD005D006D007802D9005B37477F0E4A3F07440A3F090FC
:20332C0005B6E513F08517828518838519F0E51AC007C006C005125E40D005D006D0077916
:20334C0077E7FB603E8B82C007C006C005C0011230ACD001D005D006D0070980E4AB178B4F
:20336C0082C007C006C0051230ACD005D006D00780118C82C007C006C0051230ACD005D079
:20338C0006D0070DBD00010E023115E58124FCFFC007E58124FBF886820886830886F012B1
:0533AC00310F15812224
:2033B100AFF0AE83E58290047AF0EEA3F0EFA3F0201A02C3227864C3E2F5F074FC95F050F8
:2033D1000512372A804590047AE0FDA3E0FEA3E0FF8D828E838FF07864E21263617875E2AF
:2033F100FD08E2FE7F009005D5747EF07403A3F0E4A3F078649005D8E2F0E4A3F08D828E5C
:20341100838FF01262D412372AD3227821E2FE08E2FFBEFF05BFFF02800C0EBE00010F7825
:2034310021EEF208EFF2C322AF8275A700C294C2B77586FF7877E2FD08E2FE8F041FEC60E2
:203451001130B1FD8D828E83E0F586A3AD82AE8380E930B1FD74805584FFBF800280F6C262
:20347100B7D29475A70022201A057865E26002D322758231123C00E58230E402D322C322BE
:20349100A2A8921CC2A8101B028006A21C92A8D322A21C92A8C3227866E2F58222758226C6
:2034B100023C007871E2F58222758208123C00AF8274014FFEC007C006758208123BCA1561
:2034D10081D0075307FEC007758208123BCA158122758208123C00AF8274024FFEC007C0CE
:2034F10006758208123BCA1581D0075307FDC007758208123BCA158122E582FF2403501950
:20351100C007742EC0E0746FC0E07480C0E0120F9A158115811581D007C0071234BAD00788
:20353100C007C00775823E123BCA1581D007EFFE24DF50027E2078797977E2F308E209F3B7
:203551008E82C007C006123439D006D007EFC39EFF7879E22EF208E23400F2C007E4C0E0F4
:20357100758205123BCA1581E4C0E0758206123BCA1581C21BC21D7409C0E0758207123B3F
:20359100CA1581125C35AC82AD83D007C007C005C004125C35AA82AB83D004D005D007EA2B
:2035B100C39CFAEB9DFB787BC3E2F5F0EA95F008E2F5F0EB95F040030236D6758203C007E1
:2035D100C005C004123C00AB82D004D005D007301D40EF603DEB30E5397E04BF040050026D
:2035F1008F0678797977E2F308E209F38E82C007C006C005C004123439D004D005D006D095
:2036110007EFC39EFF7879E22EF208E23400F202359D301D40EF603DEB20E6397E04BF04E4
:203631000050028F0678797977E2F308E209F38E82C007C006C005C004123439D004D005A8
:20365100D006D007EFC39EFF7879E22EF208E23400F202359DEB30E7201234BA7823E2FAED
:2036710008E2FEBAFF05BEFF02800C0ABA00010E7823EAF208EEF2C322758202C007C005AC
:20369100C004123C00AB82D004D005D007EB30E105D21D02359D201D0302359DEB30E10383
:2036B10002359DEF601D7823E2FE08E2FFBEFF05BFFF02800C0EBE00010F7823EEF208EFF9
:2036D100F2C322D3227823E2FE08E2FFBEFF05BFFF02800C0EBE00010F7823EEF208EFF25B
:2036F100C322E58290047DF0A2A8921FC2A8D2A590047DE0FF787D7979E2F308E209F37886
:203711007F797BE2F308E209F38F8212350A921EC2A5A21F92A8A21E22C2A8C21A7864E40E
:20373100F2C21B7865E4F27413C0E0758205123BCA15817440C0E0758206123BCA15811216
:203751003C741234BA1234E27405C0E0758207123BCA1581D2A8D322900032125BC4758263
:2037710001123C00AF82BFFF028005BF05005002C322758204123C00E582FF20E006123C75
:20379100D4922022EF30E102D322E4C0E0758205123BCA15817402C0E0758206123BCA150D
:2037B10081900032125B8B125BBC4013758203123C00758204123C00E58230E1EAD322C396
:2037D10022AC82AD83AEF0FFC3ED941CEE944EEF940E400E74C09C74F79D74BA9E74379FBE
:2037F1005002C3227869ECF208EDF208EEF208EFF28C828D838EF0EF123D40D322AC82AD20
:2038110083AEF0FFC374F09C74E89D74269EE49F5002C3229000817410F07427A3F0E4A38F
:20383100F0E4A3F08C828D838EF0EF123C80AC82AD83AEF0FF786DECF208EDF208EEF20822
:20385100EFF2C00475827A123BCA1581D322E58290047EF07872E2FF90047EE0FEB50701BE
:20387100227872EEF2C006758279123BCA1581C21B227872E2F58222AF82C007E4C0E07513
:203891008205123BCA1581E4C0E0758206123BCA1581123C747415C0E075820B123BCA159C
:2038B100817412C0E075820C123BCA1581D221123FF674B6C0E0758209123BCA1581D00718
:2038D100EF249B5010C00774C0C0E0758258123BCA1581D0077869E2FB08E2FC08E2FD08C8
:2038F100E28B828C838DF0C007123D40786DE2FB08E208E208E2C00375827A123BCA158185
:20391100748DC0E0758230123BCA15817422C0E0758233123BCA1581740CC0E075823212B9
:203931003BCA158174FFC0E0758243123BCA158174FFC0E0758244123BCA1581743CC0E096
:2039510075827C123BCA15817420C0E075827D123BCA15817432C0E075827E123BCA158179
:2039710078747410F27874E2FEC006758234123BCA15817428C0E0758235123BCA158175E0
:203991008200123B2DD0077E00EE906F4B93FDC39F50060EBE0C0040F0EEFF906F4B93FE75
:2039B1007871F2BE200040047E0D80027E2D75820DC007C00612261BAA82AB83ACF0FDD09A
:2039D10006D007EA4B4C4D600B7871E2FD247F4003430602C007C006758270123BCA158126
:2039F1007423C0E0758271123BCA15817444C0E075821D123BCA1581D0077871E2FEBEC82B
:203A1100005012C007740AC0E075821E123BCA1581D0078010C0077402C0E075821E123BE6
:203A3100CA1581D007781FE2B4433A7E00EE75F00DA42458FC746F35F0FDEF2CF582E43DE2
:203A5100F583E493FDEE906F3F93FCC007C006C0058C82123BCA1581D006D0070EBE0C001C
:203A710040CB023B2B781FE2B447397E00EE75F00DA424F4FC746F35F0FDEF2CF582E43DC7
:203A9100F583E493FDEE906F3F93FCC007C006C0058C82123BCA1581D006D0070EBE0C00DC
:203AB10040CB8076781FE2B486397E00EE75F00DA42490FC747035F0FDEF2CF582E43DF528
:203AD10083E493FDEE906F3F93FCC007C006C0058C82123BCA1581D006D0070EBE0C004051
:203AF100CB80377E00EE75F00DA4242CFC747135F0FDEF2CF582E43DF583E493FDEE906FD2
:203B11003F93FCC007C006C0058C82123BCA1581D006D0070EBE0C0040CBD322E582900439
:203B31007FF07406C0E075826D123BCA158190047FE0FFF582C007122B41AE82D007BEFF68
:203B51000280078EFC7873EFF222EFC313FF9071C893F5FCEF2FFF7873EFF2227873E2F575
:203B71008222AF83E582900480F0EFA3F0900480E0FEA3E0FF8E047867ECF28F057868ED4D
:203B9100F2200634C007C006C005C00575823A123BCA1581D005D006D007C006C005C00600
:203BB10075823B123BCA158175823F123BCA1581758240123BCA158122AF82A2A89238C225
:203BD100A875A700C294C2B774804FF58630B1FDA8811818868630B1FD74805584FFBF8057
:203BF1000280F6C2B7D29475A700A23892A822AF82A2A89238C2A875A700C294C2B78F865C
:203C110030B1FD75860030B1FD74805584FFBF800280F6AF86C2B7D29475A700A23892A815
:203C31008F8222AF8275A700C294C2B775867F30B7FD8586E0E58124FDF886050886068FAE
:203C5100041FEC6016C2B775860030B7FD8D828E83E586F0A3AD82AE8380E4C2B7D2947540
:203C7100A70022758203123C00758204023C00AF82AE83ADF0FC7885EFF208EEF208EDF241
:203C910008ECF27884E2C313FF18E213FE18E213FB18E213FA7885E22AFA08E23BFB08E253
:203CB1003EFE08E23FFF78819005C6E2F008E2A3F008E2A3F008E2A3F08A828B838EF0EF6B
:203CD10002616BE4C0E0758205123BCA1581E4C0E0758206123BCA1581123C747481C0E053
:203CF100758207123BCA1581900002125B8B308707125BBC50F8C322E4C0E0758205123B9D
:203D1100CA15817402C0E0758206123BCA1581900014125B8B125BBC4013758203123C0012
:203D3100758204123C00E58230E1EAD322C322AF82AE83ADF0FC7889EFF208EEF208EDF241
:203D510008ECF27889C3E2F5F0E495F008E2F5F0743895F008E2F5F0749C95F008E2F5F045
:203D7100741C95F04003023E36788AE224C8F208E23463F208E234E3F29005C6E4F0742D6C
:203D9100A3F07431A3F07401A3F07889E2F58208E2F58308E2F5F008E212616BAA8290042C
:203DB10082EAF09005EBEAF0E4A3F0E4A3F0E4A3F0902D0075F03174011264C9AC82AD8372
:203DD100AEF0FF7889E2C39CF208E29DF208E29EF208E29FF278817471F2087402F208E467
:203DF100F208F27889E2F58208E2F58308E2F5F008E2123C807889C0E0E582F208E583F227
:203E110008E5F0F2D0E008F27889E225E0F208E233F208E233F208E233F2900482E0FF44D8
:203E310020F0023EF9788AE224E4F208E234B1F208E234F1F29005C67480F07496A3F07438
:203E510098A3F0E4A3F07889E2F58208E2F58308E2F5F008E212616BAC82900482ECF090AC
:203E710005EBECF0E4A3F0E4A3F0E4A3F090968075F098E41264C9AC82AD83AEF0FF78893E
:203E9100E2C39CF208E29DF208E29EF208E29FF278817471F2087402F208E4F208F2788957
:203EB100E2F58208E2F58308E2F5F008E2123C807889C0E0E582F208E583F208E5F0F2D0B4
:203ED100E008F27889E225E0F208E233F208E233F208E233F2181818E225E0F208E233F2C0
:203EF10008E233F208E233F2900482E04440F07889E2FC08E2FDC005C004900482E0C0E044
:203F1100758275123BCA1581D004D0058D07C005C004C007758276123BCA1581D004D00527
:203F3100C004758277123BCA158122D2EC20ECFDAFBE7E00ACBD7D00EC4206ED42078E825D
:203F51008F831267E4AA82AB83ACF0FDC002C003C004C00590FF2E75F0D1743F12601EAA00
:203F710082AB83ACF0FDE58124FCF5818A828B838CF0ED1267F1AE82AF83EE24FFFCEF346C
:203F9100FBFD8C828D831267E4AA82AB83ACF0FD749AC0E07499C0E07459C0E07440C0E08E
:203FB1008A828B838CF0ED126949AA82AB83ACF0FDE58124FCF581E4C0E0C0E074C8C0E0BA
:203FD1007441C0E08A828B838CF0ED126729AA82AB83ACF0FDE58124FCF5818A828B838CC1
:203FF100F0ED0267F13021257418C0E075820D123BCA1581758208123C00AF82741F5F4472
:2040110080FFC007758208123BCA158122758208123C00AF8253071FC007758208123BCAA7
:204031001581740AC0E075820D123BCA15817404C0E075820E123BCA158122C027C0E0C0D7
:20405100F0C082C083C007C006C005C004C003C002C001C000C0D075D000758204123C00A0
:20407100AF82758203C007123C00AE82D007EE30E4497865E2FC7D0074322CFCE43DFDC3B6
:2040910074FC9CE49D50030241577865E2247EFCE43403FDC007C006C004C00575823212CF
:2040B1003C34158115817865E22432F2758226123C00E582D006D0077866F2EF30E611D215
:2040D1001B758226C006123C00E582D0067866F2200604EE20E06FEE30E16975824B123CF7
:2040F10000E582FF2403405E7865C3E2F5F0EF95F040537865C3E29F50227865E2247EFD25
:20411100E43403FE7865D3E29FF4FCC007C005C0068C82123C3415811581D0077864EFF2B2
:20413100D21AE4C0E0758205123BCA1581E4C0E0758206123BCA15817402C0E07582071201
:204151003BCA1581801E7821E2FE08E2FFBEFF05BFFF02800C0EBE00010F7821EEF208EF59
:20417100F212372AD0D0D000D001D002D003D004D005D006D007D083D082D0F0D0E0D02781
:0141910032FB
:206F2E006F76657273697A6564207061636B6574001C1F2021222324252A6E6F720204083F
:206F4E001013182030406080C0FA2727272E1601050B9A888A8C8D03030303030303030314
:206F6E0003030303F4FA7D3F69A77D535E7D5E3F30200001020100010101010102024183D4
:206F8E00060C37C406895D065D0CAA8912254A4C9C25378625864AAB00010204020102034E
:206FAE00020202040785080E12728A0E18BB0EBBEAFF1D1D1D1E1E1E2030415050505010E4
:206FCE002041839BC4080C101820314062C58912A69C314A6293C5270003060D1A1E26338C
:206FEE004D669ACDFEFE2B2B2B2E1601050B9A888A8C8D03030303030303030303030303AB
:20700E00F4FA7D3F69A77D535E7D5E3F30200001020100010101010102024183060C37C432
:20702E0006895D065D0CAA8912254A4C9C25378625864AAB000102040201020302020204B0
:20704E000785080E12728A0E18BB0EBBEAFF1E1E1E21212121304150505050102041839BC1
:20706E00C4080C101820314062C58912A69C314A6293C5270003060D1A1E26334D669ACD50
:20708E00FEFE010101010101050B9A888A8C8D03030303030303030303030303D0E8F4FA3E
:2070AE00D3A77D535E7D5E3F30E0602000000001010101010202102041839BC406895D0622
:2070CE005D0CAA62C58912A69C25378625864AAB0000000101010203020202040723448504
:2070EE0008398A0E18BB0EBBEAFF1C1C1C1C1C1E20304150505050102041839BC4080C1032
:20710E001820314062C58912A69C314A6293C5270003060D1A1E26334D669ACDFEFE010199
:20712E0001010101050B9A888A8C8D03030303030303030303030303D0E8F4FAD3A77D5351
:20714E005E7D5E3F30E0602000000001010101010202102041839BC406895D065D0CAA6256
:20716E00C58912A69C25378625864AAB0000000101010203020202040723448508398A0EFF
:20718E0018BB0EBBEAFF1E1E1E1E1E1E20304150505050102041839BC4080C1018203140B7
:2071AE0062C58912A69C314A6293C5270003060D1A1E26334D669ACDFEFEEBE6E0DAD3CE78
:0A71CE00C9C4BEB8B2ABA496885045
:20419200C027C0E0C0F0C082C083C007C006C005C004C003C002C001C000C0D075D0001050
:2041B20098030242ABAF9930000E3001030242AB8F821204E70242AB8F82C007120575D089
:2041D20007788DE22401FD08E23400FEBD6C09BE07067D007E00800B788DE22401FD08E22B
:2041F2003400FE788FE2B5050708E2B50602803A788DE22405F58208E23406F583EFF078F6
:204212008DE22401FD08E23400FEBD6C09BE07067D007E00800B788DE22401FD08E2340035
:20423200FE788DEDF208EEF2801B7827E2FD08E2FEBDFF05BEFF02800C0DBD00010E78271D
:20425200EDF208EEF2788D798FC3E3F5F0E295F009E3F5F008E295F0B3E433FE601B788FFC
:20427200E2246CFD08E23407FE788DD3E29DF4B3FDB308E29EF4FE8015788F798DE3F5F008
:20429200C3E295F0FD09E3F5F008E295F0FEC3ED9411EE94005002D2821099028061789195
:2042B2007993E2F5F0E3B5F00B08E2F5F009E3B5F002804930080A308307200004D22280C7
:2042D2003E7893E22471F58208E2340DF583E0FF7893E22401FD08E23400FEBD8A09BE02D8
:2042F200067D007E00800B7893E22401FD08E23400FE7893EDF208EEF28F998002D222D0B5
:20431200D0D000D001D002D003D004D005D006D007D083D082D0F0D0E0D0273278917993CC
:20433200E2F5F0E3B5F00A08E2F5F009E3B5F001223022030245BC22AF82C2AC788DE4F29B
:2043520008F27893E4F208F27891E4F208F27893E4F208F2D222C28EAE89740F5E4420F50D
:20437200898F8212496ED28E759810C282D2AC22AF82C007124564AD82AE83D007C3ED9439
:2043920001EE94005002C3228F821243A1D322AF82A2AC9238C2AC7891E22401FD08E23473
:2043B20000FEBD8A09BE02067D007E00800B7891E22401FD08E23400FE7893E2B505070872
:2043D200E2B5060280447891E22471F58208E2340DF583EFF07891E22401FE08E23400FFC4
:2043F200BE8A09BF02067E007F00800B7891E22401FE08E23400FF7891EEF208EFF23022BC
:2044120024C0271245BCD027801B7825E2FE08E2FFBEFF05BFFF02800C0EBE00010F7825ED
:20443200EEF208EFF2A23892AC2285821B85831C7895E2700122124564AC82AD837895E297
:20445200FA7B00C3EC9AED9B501F7895ECF27825E2FC08E2FDBCFF05BDFF02800C0CBC0076
:20447200010D7825ECF208EDF27895E2FD7891D3E2948AF4B3FBB308E29402F4FC8D027F1F
:2044920000C3EB9AEC9F50097891E2FF748AC39FFD7891E22471FE08E2340DFF7C009005DE
:2044B200D5E51BF0E51CA3F0E4A3F09005D8EDF0E4A3F08E828F838CF0C0051262D4D005D9
:2044D200ED251BF51BE4351CF51C7895E2C39DF2D22310AF02C2237F007891E22DF208E2F8
:2044F2003FF27891C3E2948A08E29402400B7891E22476F208E234FDF2A22392AF7895E269
:20451200603E9005D5E51BF0E51CA3F0E4A3F07895E2FE7F009005D8EEF0EFA3F0900D713F
:2045320075F000C007C0061262D4D006D007D22310AF02C2237891EEF208EFF2A22392AF0F
:20455200D22310AF02C2233022031245BCA22392AF22A2AC9224C2AC78917993C3E3F5F00C
:20457200E295F009E3F5F008E295F0B3E433FF601B7893E2248AFE08E23402FF7891D3E2C8
:204592009EF4B3FEB308E29FF4FF801578937991E3F5F0C3E295F0FE09E3F5F008E295F0BD
:2045B200FFA22492AC8E828F832230080730830420000122C222D29922A2AC9225C2AC780D
:2045D2008D798FE2F5F0E3B5F00B08E2F5F009E3B5F002803A788FE22405F58208E2340611
:2045F200F583E0FF788FE22401FD08E23400FEBD6C09BE07067D007E00800B788FE224019A
:20461200FD08E23400FE788FEDF208EEF280027F00788D798FC3E3F5F0E295F009E3F5F0D0
:2046320008E295F0B3E433FE601B788FE2246CFD08E23407FE788DD3E29DF4B3FDB308E285
:204652009EF4FE8015788F798DE3F5F0C3E295F0FD09E3F5F008E295F0FEC374229DE49E71
:204672005002C282A22592AC8F8222A2AC9226C2AC788FE22405F58208E23406F583E0FFE2
:20469200A22692AC8F8222A2AC9227C2AC788FE22401FE08E23400FFBE6C09BF07067E00B4
:2046B2007F00800B788FE22401FE08E23400FFEE2405F582EF3406F583E0FFA22792AC8F11
:2046D2008222AF83E582900483F0EFA3F0A2AC9228C2AC900483E0FEA3E0FF788FE22EFE00
:2046F20008E23FFF9005EF746CF07407A3F08E828F83126535AE82AF83EE2405F582EF343D
:2047120006F583E0FFA22892AC8F822285821D85831E12489CAC82AD837896E2FA7B00C329
:20473200EC9AED9B5002C3227897EAF208EBF2788FD3E2946CF4B3FAB308E29407F4FB7856
:2047520097C3E2F5F0EA95F008E2F5F0EB95F05013788F7997D3E2946CF4B3F3B308E2947E
:2047720007F409F3AA1DAB1E7F00788FE22405FD08E23406FE9005D5EDF0EEA3F0E4A3F0B1
:2047920078979005D8E2F008E2A3F08A828B838FF01262D47897E2FC7896E2C39CF278971E
:2047B200E2251DF51D08E2351EF51ED22910AF02C229788F7997E3C5F0E225F0F209E3C571
:2047D200F008E235F0F2788FC3E2946C08E29407400B788FE22494F208E234F8F2A2299262
:2047F200AF7896E26044AD1DAE1E7F009005D57405F07406A3F0E4A3F07896E2FB7C009001
:2048120005D8EBF0ECA3F08D828E838FF0C004C0031262D4D003D004D22910AF02C229781B
:204832008FEBF208ECF2A22992AFD22910AF02C229788D798FC3E3F5F0E295F009E3F5F091
:2048520008E295F0B3E433FF601B788FE2246CFE08E23407FF788DD3E29EF4B3FEB308E25E
:204872009FF4FF8015788F798DE3F5F0C3E295F0FE09E3F5F008E295F0FFC374229EE49F49
:204892005002C282A22992AFD322A2AC922AC2AC788D798FC3E3F5F0E295F009E3F5F0081F
:2048B200E295F0B3E433FF6017788D798FE3F5F0C3E295F0FE09E3F5F008E295F0FF80196A
:2048D200788FD3E2946CF4B3FCB308E29407F4FD788DE22CFE08E23DFFA22A92AC8E828F5E
:2048F200832212489CAE82AF83746CC39EFE74079FC423CEC423541F6ECE541FCE6ECEFF89
:204912009005DFEEF0EFA3F09000641263ACAE82AF8390058474EDF0E4A3F08E828F830235
:204932005C8FAF82BF0A0A75820DC0071243A1D0078F820243A1AF827E00BE0900501BEE18
:2049520075F003A424D8F582747135F0F583E493FDEFB50502D3220E80E0C322AF827E002E
:20497200BE0900501BEE75F003A424D8F582747135F0F583E493FDEFB5050280030E80E0F4
:20499200900485EEF0BE09069004857406F0900485E075F003A424D8FD747135F0FE8D82A9
:2049B2008E83A3E493F58DAC8E5304F48D828E83A3A3E4934CF58E9005EBEFF0E4A3F0E44D
:1149D200A3F0E4A3F090007DE4F5F01264C90222D5BC
:1B71D800012C02029602042C0009960013600126B001392B08739608E6CB0883
:20731B00000000000000000000000000000000000000000000000000000000000000000052
:20733B00000000000000000000000000000000000000000000000000000000000000000032
:20735B00000000000000000000000000000000000000000000000000000000000000000012
:20737B000000000000000000000000000000000000000000000000000000000000000000F2
:2049E300782FE2FE08E2FF7832E2FD7C00782EE2FB8B4F7550007831E2FB8B51755200787C
:204A03002DE2FB7A00C006C007C005C004C04FC050C051C052C003C00274F3C0E07471C086
:204A2300E07480C0E0123397E58124F3F58178A8E2FE7F00C007C006123F3CAC82AD83D069
:204A430006D007782BE2F55108E2F5527829E2F54F08E2F5507827E2F55308E2F5547825EB
:204A6300E2F55508E2F5567821E2F55708E2F5587823E2FA08E2FBC006C007C004C005C0A2
:204A830051C052C04FC050C053C054C055C056C057C058C002C003741FC0E07472C0E0745E
:204AA30080C0E0123397E58124EDF581782FE4F208F22278B2E2540160030249E322AF822C
:204AC3007E0078A39005DFE2F008E2A3F08F828E831263ACAE82AF8378A1E22EFE08E23F82
:204AE3008E82F58322AF827899E2F559789AE2FC08E2FD78B4E230E6467401B55910789FAC
:204B0300E2FA08E2FB789AEAF208EBF280467402B5590280057403B5590F78997403F278A7
:204B23009A7401F208E4F2802B7899E4F278B3E2FA08E2541FFB789AEAF208EBF2801578C2
:204B4300997402F278B3E2FA08E2541FFB789AEAF208EBF27899E2B40208EFB40100923206
:204B63004004C2328002D232A232922B7899E26002C22C7813E25402700122789A79C6D326
:204B8300E29CF4B3F3B308E29DF409F37899E2B5596EC00778A1E2FA08E2FB9005FC7402B9
:204BA300F0E4A3F08A828B83C003C0021266B8AE82AF83D002D00378C6C3E2F5F0EE95F07A
:204BC30008E2F5F0EF648063F08095F0D0074030E49AFAE49BFB9005FC7402F0E4A3F08AA7
:204BE300828B83C0071266B8AB82AE83D00778C6C3E29B08E264808EF063F08095F0504B39
:204C03007E007899E2FA7B00AC597D00C007C006C002C003C004C0057456C0E07472C0E09E
:204C23007480C0E0123397E58124F7F58178C6E2C0E008E2C0E07469C0E07472C0E07480C9
:204C4300C0E0123397E58124FBF58122AE82AF8378A5C3E29E08E29F500878A5E4F208F228
:204C6300800A78A5E2C39EF208E29FF2789AC3E2F5F0EE95F008E2F5F0EF95F05003024EE5
:204C8300B67899E2FC7D000CBC00010D9005E77404F0E4A3F08C828D83C007C0061264603D
:204CA300AC82AD83D006D0077899ECF2789AD3E29EF4B3FEB308E29FF4FF7899E2600678ED
:204CC30099E2B40210789CE2FC08E2FD789AECF208EDF2800E789FE2FC08E2FD789AECF286
:204CE30008EDF27899E260067899E2B40126C007C006120E8512372AD006D007781CC3E218
:204D0300F5F0740195F0500C78ACE4F208F278B0E4F208F27899E26003024EA9C006C0078D
:204D230078A7E2FC7D0078A8E2F55A755B00ECC3955AFEED955BFFBE640ABF0007D007D0C4
:204D430006024EA9D007D006C006C007C007C006C005C004C04BC04CC04DC04E9033337564
:204D6300F073743F12601E85825C85835D85F05EF55FE58124FCF581D004D005D006D00749
:204D830078A9E2F58208E2F583C005C004126825AA82AB83AEF0FFD004D005C007C006C01F
:204DA30005C004C002C003C006C00790000075F0A0744012601E85826085836185F062F5A0
:204DC30063E58124FCF581D004D005D006D007789F799CE3C5F0E225F0FE09E3C5F008E2D7
:204DE30035F0CE25E0CE33FF8E828F83C005C004126825AA82AB83AEF0FFC002C003C0062C
:204E0300C0078560828561838562F0E563126949AA82AB83AEF0FFE58124FCF581D004D07E
:204E230005C007C006C005C004C002C003C006C007855C82855D83855EF0E55F126729853C
:204E4300824B85834C85F04DF54EE58124FCF581D004D005D006D00778A9E4F208F2ECC337
:204E6300955AFCED955BFD8C828D831267E4AC82AD83AEF0FFC007C006C004C005C006C058
:204E830007854B82854C83854DF0E54E12637CE58124FCF581D006D007E58224FF9233B3D1
:204EA300922FD007D006C22BC22C78A5E4F208F2024C6F789AE2C39EF208E29FF222789907
:204EC300E2FE7F0074022EFEE43FFF9005E77404F0E4A3F08E828F83126460AE827899EE2A
:204EE300F222123B6DE582FF24EB400578A8E4F222123F3CE5828583F0249CFEE5F034FF5D
:204F0300FFC3E49EE464808FF063F08095F0E433FD700C78A8E2600778A8E214F28039C32E
:204F2300740A9EE464808FF063F08095F0500878A8E2240AF28021C374059EE464808FF077
:204F430063F08095F0500878A8E22405F28009ED600678A8E22401F278A7E2FE7F0078A8EE
:204F6300E2FC7D00EEC39CFEEF9DFFC3EE9414EF64809480500878A779A8E224ECF32230EE
:204F83002E09900582E4F0C22E8007900582E02401F0900582E0FFBF06005004D29580066D
:204FA300A22D9295B22DEF24D740030250399005827405F0125C8BE58230E059789AE2FE26
:204FC30008E2FF789FC3E29E08E29F501778A1D3E29EF4B3FCB308E29FF4FD789AECF20867
:204FE300EDF28008789A7401F208E4F27813E254026022789AE2C0E008E2C0E0C006C00700
:205003007475C0E07472C0E07480C0E0123397E58124F9F5817813E254026015748FC0E03A
:205023007472C0E07480C0E0123397158115811581C205120EE7900582E0FF603D1234A866
:20504300AF827E00782DE29005DFF0E4A3F0900003C007C0061263ACAC82AD83D006D007F0
:20506300EC2FFCED3EC313CC13CCC313CC13CCFD782DECF2782FE4F208F2900582E0FF24D8
:20508300FA50179005D2E4F09005D37404F0E4A3F090003175F0601262AC7813E278B2F2FB
:2050A300D230900583E02401F0900583E0FFBF0408124EE5900583E4F02290000175F06073
:2050C300126931E5828583F02401FEE435F0FF9005D57401F07400A3F07460A3F09005D8ED
:2050E300EEF0EFA3F09000B575F0601262D4D23122AF82BF02004017EF24EF40129004861F
:20510300E0FEBE520A900487E0FEBE540280237E00C3EE9F501BEE2486F582E43404F58308
:20512300E0F582C007C006124934D006D0070E80E0229005D57486F07404A3F0E4A3F09056
:2051430005D8EFF0E4A3F090000175F060C0071262D4D007EF2401F8E4F278017441F27863
:2051630012EFF2D20190037B74FCF09004861230DE120600123107E582FF600A7855EFF2DE
:2051830090048602239C22125C3578C8E582F208E583F278C879CAE2F308E209F378FF7646
:2051A3002A78FFB62A028015749EC0E07472C0E07480C0E0120F9A1581158115817800E231
:2051C300B44102801574ABC0E07472C0E07480C0E0120F9A15811581158112060078B2E2C6
:2051E3006007124AB678B2E4F2300E0F90010CE0FB6008200005C20E1219AF120E75123858
:205203005F125C35AA82AB8378757486F2087404F29000CC75F060C003C0021233B1D00276
:20522300D00340030253A0D22ED205C003C002120EE71234A8AD82D002D0037C00782DE238
:205243009005DFF0E4A3F0900007C005C004C003C0021263ACAE82AF83D002D003D004D0FF
:2052630005EE2DFEEF3CC423CEC423541F6ECE541FCE6ECE782DEEF2782FE2FE08E2FF0E17
:20528300BE00010F782FEEF208EFF278A5E4F208F278CCE2B4020050030251A478CCE22470
:2052A300FE2486FEE43404FF9005D5EEF0EFA3F0E4A3F09005D87402F0E4A3F09000B375E7
:2052C300F060C003C0021262D4D002D00378CCE21414F278B3E2FE08E2541FFF4E704178EB
:2052E300CCE2603C78CCE2B404209005D57486F07404A3F0E4A3F078CC9005D8E2F0E4A383
:20530300F090003175F0601262D4782FE2FE08E2FF1EBEFF011F782FEEF208EFF20251A4FA
:2053230078B3E2FE08E2541FFF4E70030251A478CCE2F582C003C002124AE8D002D00378C8
:20534300C8EAF208EBF278B4E2C4035401FFBF010B78CCE2F5821250F40251A478CCE2704D
:20536300030251A478B4E223540124FF920F78537486F2087404F278CCE2F58212231C507F
:20538300030251A43000030251A4D29678CC7995E2F390048612443CC2960251A4125C35B9
:2053A300AA82AB8378C879CDD3E29AF4B3F3B308E29BF409F378CDE2F58208E2F583C00336
:2053C300C002124C4FD002D00378C8EAF208EBF278CAD3E29AF4B3FCB308E29BF4FD7E00DA
:2053E3007F00C3E49C74809DE49EE464808FF063F08095F05012C003C002124F82D002D0CA
:205403000378CAEAF208EBF278ABE270030254901234AEAF8278ABC3E2F5F0EF95F0501679
:2054230078AC79CDE3C5F0E225F0F209E3C5F008E235F0F2803678ACE4F208F278B0E2F533
:20544300F008E245F070251260C1AE82AF8378AE9005EFE2F008E2A3F08E828F8312653549
:20546300E5828583F078B0F208E5F0F278AE79B0E3C5F0E225F0FE09E3C5F008E235F0FF56
:2054830078ACC3E29E08E29F50030251A47899E26011202B030251A47899E2B402028003F8
:2054A3000251A4302C030251A478A5E2F5F008E245F060030251A4202E05123491400512BE
:2054C3003478501178A1E2FE08E2FF78A5EEF208EFF20251A41234AEAF827E00782EE29042
:2054E30005DFF0E4A3F0900003C007C0061263ACAC82AD83D006D007EC2FFCED3EC313CC2E
:2055030013CCC313CC13CCFD782EECF2302F030251A4789A79A1C3E3F5F0E295F009E3F54F
:20552300F008E295F050030251A4789A79A1E3F5F0C3E295F0FE09E3F5F008E295F0FF78EC
:20554300A3900584E2F008E2A3F08E828F83125C8FAE82AF83BE030050030251A41E1E1E57
:20556300789EC3E29E5004789EE2FE3031579000B575F060C006126931AD82AF83D0068E8C
:20558300037C00C3EB9DEC9F403B9000B575F060C006126931AD8278CCEDF29005D574B5D7
:2055A300F0E4A3F07460A3F09005D8EDF0E4A3F090048675F0001262D4D00678B4E244204A
:2055C300F2C231802678517486F2087404F28E82C006121E24E58278CCF21222C5D00692EE
:2055E30034E433FF78B413E292E5F278CC799EC3E2F5F0E395F05019C00674C1C0E074729D
:20560300C0E07480C0E0120F9A158115811581D0067899E2B40203D38001C39234E43378E8
:20562300B413E292E6F2C0061222C2D0069234E433FF78B413E292E7F27899E2704478CC6F
:20564300E2703F30303CBE04004037C2309005D5742DF0E4A3F07460A3F09005D87404F041
:20566300E4A3F090048675F0001262D478CC7404F278B3E4F208E254E0F278B4E2547FF257
:20568300802878CCE22402F582124AC1AE82AF83789AE2C39EFE08E29FFF78B3EEF208EF40
:2056A300541FF5F0E254E045F0F2120E6512385F78CCE22486FEE43404FF7D009005D574E0
:2056C300B3F0E4A3F07460A3F09005D87402F0E4A3F08E828F838DF01262D478CCE2600E81
:2056E30078B3E2FE08E2541FFF4E6002D29678CCE27002D22C78A1E2FE08E2FF78A5EEF2B3
:2057030008EFF278A7E2FE7F0078A8E2FC7D00EEC39CFEEF9DFFBE6405BF0002801778CC0B
:20572300E22402F582124AC1AE82AF8378A9E22EF208E23FF278CCE22402FF789FE2FD08E1
:20574300E2C313CD13CDFE789AE22DFD08E23EFE787D7486F2087404F2787FEDF208EEF28E
:205763008F821236F3401A78CCE2601578B3E2FE08E2541FFF4E600978B4E220E50312227D
:20578300C878ABE2600C78ACE4F208F278B0E4F208F2120E7512385F12372A78CCE2700397
:2057A3000251A478B3E2FE08E2541FFF4E70030251A4C2960251A41234B4AF829005EBEFE7
:2057C300F0E4A3F0E4A3F0E4A3F09003E8E4F5F01264C9AC82AD83AEF0FF9005C6ECF0EDCF
:2057E300A3F0EEA3F0EFA3F090120075F07AE412616BAC82AD83AEF0FF74082CFCE43DFD10
:20580300E43EFEE43FFFEDC4CCC4540F6CCC540FCC6CCCFDEEC454F04DFDEFC4CEC4540F1B
:205823006ECE540FCE6ECE78A3ECF208EDF29005DFECF0EDA3F090000DC005C0041263ACC5
:20584300E5828583F0D004D005240DFEE435F0FF78A1EEF208EFF230062E789E7476F2EDE1
:20586300CC25E0CC33FD78A3ECF208EDF2EDCC25E0CC33CC25E0CC33FDEC2EFEED3FFF7833
:20588300A1EEF208EFF28005789E74FAF278A1799FE2F308E2F5F0E325E0C5F033C5F0F353
:2058A30009E5F0F378A39005EBE2F008E2A3F0E4A3F0E4A3F0789EE2FC7D007E007F008C42
:2058C300828D838EF0EF1264C985826485836585F066F56778A1E2FA08E2FB7E007F009011
:2058E30005EBE5642AF0E5653BA3F0E5663EA3F0E5673FA3F0900003E4F5F01264C978CF1E
:20590300C0E0E582F208E583F208E5F0F2D0E008F278ABE2604E78AE7438F2087401F27852
:205923005A74A8F2087403F208E4F208F278CF795EE2F308E209F308E209F308E209F37896
:20594300CFE2F58208E2F58308E2F5F008E2122A7278CFC0E0E582F208E583F208E5F0F2E2
:20596300D0E008F278CFC3E294A808E2946108E2940008E29400401A781CC3E2F5F074018A
:2059830095F0500E78CF74A8F2087461F208E4F208F275820F12261BAA82AB83AEF0FF9045
:2059A30005EBEAF0EBA3F0EEA3F0EFA3F090003EE4F5F01264C9AC82AD83AEF0FF78CFC3BE
:2059C300E2F5F0EC95F008E2F5F0ED95F008E2F5F0EE95F008E2F5F0EF95F0503775820F39
:2059E30012261BAC82AD83AEF0FF9005EBECF0EDA3F0EEA3F0EFA3F090003EE4F5F012646A
:205A0300C978CFC0E0E582F208E583F208E5F0F2D0E008F278CFC3E2F5F074FF95F008E2EC
:205A2300F5F0741F95F008E2F5F0E495F008E2F5F0E495F0500E78CF74FFF208741FF20857
:205A4300E4F208F278CFE2FC08E2FD789CECF208EDF27874E27E0024F6FFEE34FFFE900575
:205A6300FC7402F0E4A3F08F828E83C005C0041266B8AE82AF8378A39005DFE2F008E2A31F
:205A8300F08E828F831263ACAE82AF83D004D00578A1E22EF208E23FF278A1D3E29CF4B37E
:205AA300FCB308E29DF4FD78A3900584E2F008E2A3F08C828D83125C8FAE82AF83789EE2C4
:205AC300FC7D00C3EC9EED9F50048C068D078E820222CB789FE2C0E008E2C0E074D6C0E0EB
:205AE3007472C0E07480C0E0123397E58124FBF581900001125BC4789CE2C0E008E2C0E0D0
:205B030074EAC0E07472C0E07480C0E0123397E58124FBF581900001125BC4789EE2FE7F5C
:205B230000C006C00774FFC0E07472C0E07480C0E0123397E58124FBF581900001025BC41F
:2071F3004C2F5220525353493A2025752F257520204C2F52206E6F6973653A2025752F25FE
:207213007520706B74733A2025752000207478653D2575207278653D2575207374783D2581
:2072330075207372783D2575206563633D25752F25752074656D703D25642064636F3D2533
:20725300750A0054444D3A2025752F2575206C656E3D257520002064656C74613A20256497
:207273000A0054444D3A206368616E67652074696D696E672025752F25750A0054444D3AF8
:20729300207363616E6E696E670A00737461636B20626C6F776E0A00706461746120636110
:2072B3006E617279206368616E6765640A006F76657273697A65642074646D207061636B0E
:2072D30065740073696C656E63655F706572696F643A2025750A0074785F77696E646F771C
:2072F3005F77696474683A2025750A006D61785F646174615F7061636B65745F6C656E67E3
:0873130074683A2025750A0098
:205B4300C027C0E0C0F0C082C083C007C006C005C004C003C002C001C000C0D075D0007520
:205B630091041205C2E56860021568D0D0D000D001D002D003D004D005D006D007D083D029
:205B830082D0F0D0E0D02732AE82AF83C3EE94F6EF940940047568FF2274092EFEE43FFFB1
:205BA300900584740AF0E4A3F08E828F83125C8FAE828E682285826822E568B40100923523
:205BC30022125B8B125BBC50FB22C027C0E0C0F0C082C083C007C006C005C004C003C002BB
:205BE300C001C000C0D075D00075C80474012569F569E4356AF56A30080312432ED0D0D09A
:205C030000D001D002D003D004D005D006D007D083D082D0F0D0E0D02732AFCDAECCEFB5DD
:205C2300CDF88F05E4FFFCEE4207EC42058F828D8322AE69AF6AC007C006125C1DAC82AD59
:205C430083D006D007EEB569E9EFB56AE5EEC40354F8FF7E00EDC403CCC40354076CCC547D
:205C630007CC6CCCFDEC4206ED42078E828F83227592407593B075910443E68075CA007505
:0C5C8300CB0075C804D2AD2285CC822273
:205C8F00AF83E582900586F0EFA3F0900588E4F0E4A3F0900584E0FEA3E0FF7D1090058646
:205CAF00E0FBA3E0FC339236ECCB25E0CB33FC900586EBF0ECA3F0900588E0FBA3E0CB25EA
:205CCF00E0CB33FC900588EBF0ECA3F0303612900588E0FBA3E0FC90058874014BF0ECA319
:205CEF00F0900588E0FBA3E0FCC3EB9EEC9F401D900588EBC39EF0EC9FA3F0900586E0FB8D
:1B5D0F00A3E0FC90058674014BF0ECA3F0DD8E900586E0FEA3E08E82F583221F
:205D2A00AF82AE83ADF0FC90058EEFF0EEA3F0EDA3F0ECA3F090058DE0FF7E2090058EE03A
:205D4A00FAA3E0FBA3E0FCA3E0FD8F6B756C00756D00756E009005BBE56BF0E56CA3F0E5C9
:205D6A006DA3F0E56EA3F08A828B838CF0EDC007C006125EDDAA82AB83D006D00774302A01
:205D8A00FD9005B2F08D04EC24C650079005B274072DF01EEE2492FCE43405FD9005B2E029
:205DAA008C828D83F090058EE0FAA3E0FBA3E0FCA3E0FD9005C6E56BF0E56CA3F0E56DA3DD
:205DCA00F0E56EA3F08A828B838CF0EDC007C00612616BAA82AB83ACF0FDD006D0079005C0
:205DEA008EEAF0EBA3F0ECA3F0EDA3F090058EE0FAA3E0FBA3E0FCA3E0FDEA4B4C4D600309
:205E0A00025D4690058AE0FCA3E0FDA3E0FFEE2492F582E43405F583E0FB8C828D838FF0AE
:205E2A00126361A3AC82AD830EBE20E28C828D838FF0E4026361AF82AE83ADF0FC9005B725
:205E4A00EFF0EEA3F0EDA3F0ECA3F09005B7E0FCA3E0FDA3E0FEA3E0FF30E73F9005B6E0AD
:205E6A00FBBB0A379005B3E0F9A3E0FAA3E0FB89828A838BF0742D1263619005B374012915
:205E8A00F0E43AA3F0EBA3F09005B7C3E49CF0E49DA3F0E49EA3F0E49FA3F09005B7E0FCF3
:205EAA00A3E0FDA3E0FEA3E0FF9005B3E0F9A3E0FAA3E0FB9005B6E0F890058AE9F0EAA391
:135ECA00F0EBA3F090058DE8F08C828D838EF0EF025D2A49
:205EDD00AF82AE83ADF0FC9005BFEFF0EEA3F0EDA3F0ECA3F09005C3E4F09005BFE0FCA3F8
:205EFD00E0FDA3E0FEA3E0FF7B009005BBE0F56FA3E0F570A3E0F571A3E0F572235401FA69
:205F1D007074C003E56F256FF8E57033F9E57133FAE57233FB9005BBE8F0E9A3F0EAA3F033
:205F3D00EBA3F09005BBE0F56FA3E0F570A3E0F571A3E0F572C3EC956FED9570EE9571EFEF
:205F5D009572D0035027E572C313F572E57113F571E57013F570E56F13F56F9005BBF0E5B3
:205F7D0070A3F0E571A3F0E572A3F080090B9005C3EBF0025F079005C3E0FF9005BFE0FB99
:205F9D00A3E0FCA3E0FDA3E0FE9005BBE0F56FA3E0F570A3E0F571A3E0F572C3EB956FEC77
:205FBD009570ED9571EE957240179005BFEBC3956FF0EC9570A3F0ED9571A3F0EE9572A3E8
:205FDD00F09005BBE0FBA3E0FCA3E0FDA3E0C313FEED13FDEC13FCEB13FB9005BBF0ECA373
:205FFD00F0EDA3F0EEA3F08F061FEE708E9005BFE0FCA3E0FDA3E0FEA3E08C828D838EF0A3
:01601D002260
:20601E0012613DBC00030268E9EF60FA30D502B2D1E583B4FF030268FFE582B4FF030268BF
:20603E00FF258340072482400B0268E924831450030268FFF582EA8DF0A4A8F0EA8EF0A473
:20605E0028F8E435F0F9EB8DF0A428E935F0F9E433CA8FF0A429F9EA35F0FAEBF88EF0A491
:20607E0029F9EA35F0FAE433FBEC8DF0A429F9EA35F0FAE43BFBE88FF0A42AFAEB35F0FB39
:20609E00E433CCFD8EF0A42AFAEB35F0FBE43CFCED8FF0A42BFBEC35F0FC20E7031262795B
:0360BE000268C8AD
:2060C100900FFBE0FCA3E0FDA3E0FEA3E0FF9005EBECF0EDA3F0EEA3F0EFA3F0904E6D7527
:2060E100F0C674411264C9AC82AD83AEF0FF900FFB74392CF074303DA3F0E43EA3F0E43F4B
:20610100A3F0900FFBE0A3E0A3E0FEA3E0FF8E048F0553057F8C828D8322AF83E582900580
:1C612100C4F0EFA3F09005C4E0FEA3E0FF900FFBEEF0EFA3F0E4A3F0E4A3F02269
:047D1100010000006D
:20613D00AA82AB83A2F73392D1F5826002D2F7ACF0E58124F9F8E6FD08E6FE0886F008E6C5
:0E615D00A2F73392D5F5836002D2F7AFF0229D
:20616B00AF82AE83ADF0FC9005CAEFF0EEA3F0EDA3F0ECA3F09005CEE4F0E4A3F0E4A3F036
:20618B00E4A3F09005C6E0FCA3E0FDA3E0FEA3E0FF756F209005CAE0F8A3E0F9A3E0FAA3EC
:2061AB00E0FB339237E828F8E933F9EA33FAEB33FB9005CAE8F0E9A3F0EAA3F0EBA3F09072
:2061CB0005CEE0F8A3E0F9A3E0FAA3E0FBE828F8E933F9EA33FAEB33FB9005CEE8F0E9A37E
:2061EB00F0EAA3F0EBA3F030371E9005CEE0F8A3E0F9A3E0FAA3E0FB9005CE740148F0E979
:20620B00A3F0EAA3F0EBA3F09005CEE0F8A3E0F9A3E0FAA3E0FBC3E89CE99DEA9EEB9F4014
:20622B00319005CEE8C39CF0E99DA3F0EA9EA3F0EB9FA3F09005CAE0F8A3E0F9A3E0FAA364
:20624B00E0FB9005CA740148F0E9A3F0EAA3F0EBA3F0D56F02800302619F9005CAE0FCA32C
:0E626B00E0FDA3E0FEA3E08C828D838EF02286
:0604A800E478FFF6D8FD28
:206279007804EC7011E58224F8500AF582E4C9CACBFCD8EF22EC7820058220E713D5820124
:1362990022C3E933F9EA33FAEB33FBEC33FCD8EA15822232
:2062AC00AC82AD839005D3E0FEA3E0FFBE000360121F0F9005D2E08C828D83126361A3DE8F
:0862CC00FADFF88C828D8322B9
:2062D400AFF0AE83E5829005DAF0EEA3F0EFA3F09005DAE0F56FA3E0F570A3E0F571AA6F74
:2062F400AB70AC719005D5E0F8A3E0F9A3E0FF9005D8E0F572A3E0F573AD72AE7315727438
:20631400FFB572021573ED4E6020888289838FF0126A0CFEA3A882A9838A828B838CF0EE66
:14633400126361A3AA82AB8380CF856F828570838571F0223D
:2004860079FAE94409601B7A0A90731B780575A006E493F2A308B8000205A0D9F4DAF27577
:0204A600A0FFB5
:19634800E5829005DDF0FFBF30004009EF24C640047582012275820022EC
:1B63610020F71130F6138883A88220F509F6A8837583002280FEF280F5F0223B
:20637C00FFA88118181267A0D2D133E6400730E70B7582002220E70675820122C2D112671F
:10639C0082E97003F5822220D101B3E433F5822225
:2063AC00AA83AB828BF09005DFE0A4F8A9F08AF0E0A429F98BF0A3E0A429F58388822222C2
:2063CC00AFF0AE83E5829005E4F0EEA3F0EFA3F09005E4E0FDA3E0FEA3E0FF9005E1E0F56A
:2063EC006FA3E0F570A3E0F5718D008E018F04888289838CF0126A0CF87C00A96FAA70AB37
:20640C007189828A838BF0126A0CF97B00E8C399F8EC9BFC88028C03E84C7028856F8285D1
:20642C0070838571F0126A0C601A0DBD00010E9005E4EDF0EEA3F0EFA3F0056FE4B56FA91E
:14644C00057080A59005E4EDF0EEA3F0EFA3F08A828B83220D
:20646000AF83E5829005E9F0EFA3F09005E9E0FEA3E0FF33E433FD6009C3E49EFBE49FFC46
