:0A04D20078007441F278157464F2AA
:2004E700AF828F06BE0802801BBE0D028005BE7F30801175820A1246027812E22401F8E4B4
:20050700F2D201227812E260647582081246027582201246027582081246027812E214F228
:20052700227812E2B41000503E8F82C007C0061264FFE582D006D00760338F82C007C0067C
:20054700126499E582D006D00760055306DF80028F068E077812E2FE781204F2EE2401F833
:20056700EFF28F82024602C2007812E4F222AF82BF2B0280047814E4F27814C3E2F5F07467
:200587000495F0402C7814E275F003A4900597730205BC0205A60205A60205AD0205BC783A
:2005A70014E22401F22278147404F278157464F2227814E4F278157464F2227815E26038B4
:2005C7007815E214F27815E2702E7814E260087814E2B40423800678147401F222D200788E
:2005E70014E4F278017441F278027454F27803E4F278127402F2D20122200101227812E2CE
:20060700B40200E433FF70187801E2FEBE52117802E2FEBE540A124D8B7812E4F2C2012260
:20062700EF60030206937801E2FFBF415F7802E2FFBF54587803E2FF6023BF26028023BF1F
:200647002B028023BF49028023BF4F028028BF5002801EBF53028027BF5A2E802712069A54
:20066700802A12094B8025120B79802012078E801B120A2D801678157464F2C200800D12AF
:2006870008C9800843EF1080FE1206BC7812E4F2C2012274EEC0E07467C0E07480C0E0749C
:2006A700EAC0E07467C0E07480C0E0123187E58124FAF5812274F1C0E07467C0E07480C080
:2006C700E074EAC0E07467C0E07480C0E0123187E58124FAF58122E5812404F5817C007D43
:2006E700007E007F007816E22401F9E3FBF582C007C006C005C004C003126016E582D00378
:20070700D004D005D006D007606D9005D0ECF0EDA3F0EEA3F0EFA3F090000AE4F5F0C003C5
:20072700126197AF82AE83ADF0FCD0038B027B00EA24D0FAEB34FFFBE58124FDF8A60208B2
:20074700A603EB3395E008F608F6E58124FDF8E62FF608E63EF608E63DF608E63CF6E58107
:2007670024FDF886040886050886060886077816E22401F20206EC8C828D838EF0EFC8E560
:200787008124FCF581C8227804E2FF6030BF3002802BBF31028048BF32028065BF3303023F
:2007A7000825BF3403020845BF3503020865BF36030208C0BF37030208C30208C67448C086
:2007C700E0746AC0E07480C0E074EAC0E07467C0E07480C0E0123187E58124FAF5812274B9
:2007E7005BC0E0746AC0E07480C0E074EAC0E07467C0E07480C0E0123187E58124FAF58114
:20080700227481C0E0E4C0E074F7C0E07467C0E07480C0E0123187E58124FBF58122781B02
:20082700E2FE7F00C006C00774F7C0E07467C0E07480C0E0123187E58124FBF58122781C30
:20084700E2FE7F00C006C00774F7C0E07467C0E07480C0E0123187E58124FBF581227F0025
:200867008F82C00712253785820885830985F00AF50BD0078F82C00712295FAA82AD83AE39
:20088700F0D0078F037C00C007C008C009C00AC00BC002C005C006C003C00474FBC0E07438
:2008A70067C0E07480C0E0123187E58124F4F581D0070FBF100040A8220257A40246B10221
:2008C70006BC78167403F21206DEAC82AD83AEF0FFBC100040030206BC7816E22401F9E323
:2008E700FFBF3D02802DBF3F588C82122537AB82AD83AEF0FFC003C005C006C0077408C02A
:20090700E07468C0E07480C0E0123187E58124F9F58122EC602B7816E22401F2C004120621
:20092700DEAB82AD83AEF0FFD0047852EBF208EDF208EEF208EFF28C821223A9500302065E
:200947009A0206BC7804E2FFBF46028017BF50028058BF54028056BF55028014BF57028021
:2009670009020A2A12282D02069A1227D602069A9005C6740DF07468A3F07480A3F0900025
:200987000575F06012609AE5828583F045F0701775B7A575B7F1758F0390F7FE74FFF0750D
:2009A7008F0043EF1080FE0206BC024B8F9005C67413F07468A3F07480A3F090000575F07F
:2009C7006012609AE5828583F045F070057813E4F2229005C67414F07468A3F07480A3F04F
:2009E70090000575F06012609AE5828583F045F070077813E26401F2229005C6741AF0744C
:200A070068A3F07480A3F090000575F06012609AE5828583F045F070077813E26402F222F5
:200A27000206BC0206BC7804E2FFBF50028003020ACE7F008F057E00C007C005C006741FE6
:200A4700C0E07468C0E07480C0E0123187E58124FBF581D0078F82C007122C58D007501B93
:200A6700C0077427C0E07468C0E07480C0E0123187158115811581D0078019C007742FC037
:200A8700E07468C0E07480C0E0123187158115811581D0078F82C007122DBC9202E433FD81
:200AA7007E00C005C0067437C0E07468C0E07480C0E0123187E58124FBF581D0070FBF025F
:200AC700005003020A3B227805E2FFBF3D0C7806E2F582126016E58270030206BC7806E290
:200AE70024D0FF7804E2FEBE43028052BE49028013BE4F028005BE52738012D2108F821281
:200B07002A36806BC2108F82122A3680628F82C007122C58D00740238F82122DDBAE827DCC
:200B270000C006C0057440C0E07468C0E07480C0E0123187E58124FBF581220206BC780894
:200B4700E2F582C007126016E582D007601B7808E2FE3395E0FDEE24D0FEED34FF4E24FFB7
:150B670092128F82122C7640060206BC0206BC02069A0206BCDC
:2067EA0025730A004F4B004552524F520025750A005325753A2025733D256C750A00256C68
:20680A00750A00504441544500003D52535349003D54444D0050696E3A256420004F75749F
:1E682A007075742000496E70757420200056616C3A2025640A0076616C3A25750A0056
:200B7C00AF827E007D00AB0CAC0D8F021FEA603B8B828C83E0FAA3AB82AC83ED2DF9ED3063
:200B9C00E714890009E8906948936EFDE990694893F86AFE80D4890009E890684893F86E61
:1B0BBC00FDE990684893F96AFE80BF8D07E4FDFCEE4205EC42078D828F8322A7
:206848000000102120423063408450A560C670E781089129A14AB16BC18CD1ADE1CEF1EF30
:20686800123102103273225252B5429472F762D693398318B37BA35AD3BDC39CF3FFE3DEF0
:20688800246234430420140164E674C744A45485A56AB54B85289509E5EEF5CFC5ACD58DB0
:2068A800365326721611063076D766F6569546B4B75BA77A97198738F7DFE7FED79DC7BC70
:2068C80048C458E5688678A70840186128023823C9CCD9EDE98EF9AF89489969A90AB92B30
:2068E8005AF54AD47AB76A961A710A503A332A12DBFDCBDCFBBFEB9E9B798B58BB3BAB1AF0
:206908006CA67C874CE45CC52C223C030C601C41EDAEFD8FCDECDDCDAD2ABD0B8D689D49AF
:206928007E976EB65ED54EF43E132E321E510E70FF9FEFBEDFDDCFFCBF1BAF3A9F598F786F
:20694800918881A9B1CAA1EBD10CC12DF14EE16F108000A130C220E350044025704660672F
:2069680083B99398A3FBB3DAC33DD31CE37FF35E02B1129022F332D24235521462777256EF
:20698800B5EAA5CB95A88589F56EE54FD52CC50D34E224C314A004817466644754244405AF
:2069A800A7DBB7FA879997B8E75FF77EC71DD73C26D336F2069116B066577676461556346F
:2069C800D94CC96DF90EE92F99C889E9B98AA9AB584448657806682718C008E1388228A32F
:2069E800CB7DDB5CEB3FFB1E8BF99BD8ABBBBB9A4A755A546A377A160AF11AD02AB33A92EF
:206A0800FD2EED0FDD6CCD4DBDAAAD8B9DE88DC97C266C075C644C453CA22C831CE00CC1AE
:206A2800EF1FFF3ECF5DDF7CAF9BBFBA8FD99FF86E177E364E555E742E933EB20ED11EF06E
:200BD70075B7A575B7F122D310AF01C3C0D0AF8474035F4430F584C007120BD7D007758F7C
:200BF7000390F80074FFF0758F008F84D0D092AF22D310AF01C3C0D0AE82AF83AD847403E6
:200C17005D4430F584758F004307F88E828F83E493FF758F008D848F82D0D092AF22D31089
:200C3700AF01C3C0D0AE82AF83AD8474035D4430F584C007C006C005120BD7D005D006D085
:190C570007758F054307F88E828F837817E2F08D84758F00D0D092AF2297
:02F7FE003DC20A
:200C7000AF83E582900102F0EFA3F0900102E0FEA3E0FF900101E0FD7C008D027B001ABA0A
:200C9000FF011B8C007900C3E89AE964808BF063F08095F05046C007C006C005C004125D24
:200CB0008FAA82D004D005D006D0078DF0EA84E5F02EFAE43FFB8A828B83E0F50EC005EC5F
:200CD0002EF8E43FFD88828D83E0F98A828B83F088828D83E50EF00CD005809E22AF83E58C
:200CF00082900104F0EFA3F07F007818C3E2F5F0EF95F0500FEF24CFF582E43400F583EF17
:200D1000F00F80E6900104E0FEA3E0FF8E828F83125DE97818E2FF7E008F047D001CBCFF19
:200D3000011D8E027B00C3EA9CEB64808DF063F08095F05042C007C006125D8FAC82D0066C
:200D5000D0078FF0EC84E5F024CFFCE43400FD8C828D83E0F50FC007EE24CFFAE43400FF29
:200D70008A828F83E0FB8C828D83F08A828F83E50FF00ED00780A2227819E224CFF582E470
:200D90003400F583E0F58222781AE224CFF582E43400F583E0F582227819E2FE7F000EBE7B
:200DB00000010F7818E2FC7D009005CCECF0EDA3F08E828F83C005C00412612EAE82AF83BD
:200DD000D004D0057819EEF23003077819791AE2F3227819E27022781AE2FE7F000EBE00D2
:200DF000010F9005CCECF0EDA3F08E828F8312612EAE82AF83781AEEF222A20492035007CB
:200E1000781A7919E2F322781AE2FE7F000EBE00010F78189005CCE2F0E4A3F08E828F837E
:0A0E300012612EAE82781AEEF22253
:06040000020479023E38FF
:01040B0032BE
:0104130032B6
:01041B0032AE
:03042300023F7E17
:03042B0002589BD9
:010433003296
:01043B00328E
:010443003286
:01044B00327E
:010453003276
:01045B00326E
:010463003266
:01046B00325E
:030473000258111B
:0304E40002047699
:03047600020E3A39
:200E3A00758433AFC4781BEFF2AFC3781CEFF21226E2400312282D758206122537AC8290B1
:200E5A000108ECF0758207122537AC82AD83AEF0FFEC4D4E4F24FF9206758205122537AC85
:200E7A0082AD83AEF0FFEC4D4E4F24FF920575820E122537AC82AD83AEF0FFEC4D4E4F2411
:200E9A00FF9207120EFA120F911235164015745FC0E0746AC0E07480C0E0120EC015811512
:200EBA00811581024E58906A7975F080126518E58124FCFFC007E58124FBF8868208868390
:200EDA000886F0122EFF1581906A8475F080126518D2AFD2AC9003E812589243EF1080FE7D
:200EFA00AFD974BF5FF5D943B28075B64075A90075FF807E5E7F011EBEFF011FEE4F70F703
:200F1A0075EF0675D4CF75D5FF75D6F075A41075A70F75A41075A70075E10143E24043A673
:200F3A000D75A70F43A5F575A6FD75A70275A14075F80075A20043F801D2A375A700C2895A
:200F5A00125941758201122537AC828C821240D575B800D2AF75A70F43B1C043A1C075A7B5
:200F7A0000D2B7C2B6D2EF75BCF975BA0075BB1B75D10775E3402212355540157485C0E060
:200F9A00746AC0E07480C0E0120EC0158115811581781BE2B44302801C781BE2B447028087
:200FBA0043781BE2B48602806A781BE2B4910302105A02108778317490F20874D1F208741D
:200FDA00CFF2087419F278357470F208745EF20874EAF2087419F2783D740AF27818740A4E
:200FFA00F20210BE78317480F20874A1F2087403F208741CF2783574C0F20874E3F20874DC
:20101A0012F208741CF2783D740AF27818740AF20210BE7831E4F20874A1F20874BCF20873
:20103A007433F278357440F20874E3F20874CBF2087433F2783D740AF27818740AF2806476
:20105A00783174C0F20874CAF2087489F2087436F27835E4F2087428F2087450F20874374A
:20107A00F2783D7414F278187432F280377831E4F208F208F208F27835E4F208F208F2086A
:20109A00F2783DE4F2781BE2FA7B00C002C003749DC0E0746AC0E07480C0E0120EC0E58141
:2010BA0024FBF58175820A122537AA82AB83AEF0FFEA4B4E4F601175820A122537AC82AD8E
:2010DA0083AEF0FF7818ECF2758208122537AC82AD83AEF0FFEC4D4E4F603775820812255D
:2010FA0037AC82AD83AEF0FF9005D0ECF0EDA3F0EEA3F0EFA3F09003E8E4F5F0126197781A
:20111A0031C0E0E582F208E583F208E5F0F2D0E008F2758209122537AC82AD83AEF0FFEC5B
:20113A004D4E4F6037758209122537AC82AD83AEF0FF9005D0ECF0EDA3F0EEA3F0EFA3F0E7
:20115A009003E8E4F5F01261977835C0E0E582F208E583F208E5F0F2D0E008F27582041299
:20117A002537AC82AD83AEF0FFEC4D4E4F6011758204122537AC82AD83AEF0FF783DECF2C0
:20119A00783DE2FB7D007E007F007856E4F208F208F208F2785A741EF208E4F208F208F26F
:2011BA008B828D838EF0EF12298EAC82783DECF27818E2FC7D007E007F0078567401F208DC
:2011DA00E4F208F208F2785A7432F208E4F208F208F28C828D838EF0EF12298EAC82AD833D
:2011FA00AEF0FF7818ECF2781BE2B44302801E781BE2B447030212B6781BE2B486030213BA
:20121A0047781BE2B491030213D802146678567480F2087423F20874ADF2087418F2785A8F
:20123A00E4F208740BF208746BF208741BF27831E2F58208E2F58308E2F5F008E212298EFD
:20125A007831C0E0E582F208E583F208E5F0F2D0E008F278567480F2087423F20874ADF297
:20127A00087418F2785AE4F208740BF208746BF208741BF27835E2F58208E2F58308E2F504
:20129A00F008E212298E7835C0E0E582F208E583F208E5F0F2D0E008F202148578567480B3
:2012BA00F2087474F20874D2F208741AF2785A7480F20874CEF2087434F208741DF27831AE
:2012DA00E2F58208E2F58308E2F5F008E212298E7831C0E0E582F208E583F208E5F0F2D014
:2012FA00E008F278567480F2087474F20874D2F208741AF2785A7480F20874CEF2087434F8
:20131A00F208741DF27835E2F58208E2F58308E2F5F008E212298E7835C0E0E582F208E5B9
:20133A0083F208E5F0F2D0E008F202148578567440F20874B6F208749AF2087432F2785AF8
:20135A007440F2087410F20874FDF2087434F27831E2F58208E2F58308E2F5F008E21229EA
:20137A008E7831C0E0E582F208E583F208E5F0F2D0E008F278567440F20874B6F208749A9A
:20139A00F2087432F2785A7440F2087410F20874FDF2087434F27835E2F58208E2F583082E
:2013BA00E2F5F008E212298E7835C0E0E582F208E583F208E5F0F2D0E008F20214857856AF
:2013DA00E4F20874A1F20874BCF2087433F2785A74C0F20874F7F20874BAF2087437F278A1
:2013FA0031E2F58208E2F58308E2F5F008E212298E7831C0E0E582F208E583F208E5F0F292
:20141A00D0E008F27856E4F20874A1F20874BCF2087433F2785A74C0F20874F7F20874BAF7
:20143A00F2087437F27835E2F58208E2F58308E2F5F008E212298E7835C0E0E582F208E57E
:20145A0083F208E5F0F2D0E008F2801F781BE2FE7F00C006C007749DC0E0746AC0E0748043
:20147A00C0E0120EC0E58124FBF58178357931E2F5F0E3B5F01D08E2F5F009E3B5F0140898
:20149A00E2F5F009E3B5F00B08E2F5F009E3B5F0028002801A78317935E22440F308E234A3
:2014BA004209F308E2340F09F308E2340009F375820B122537AC8278A3ECF27F007E007D80
:2014DA00007856E4F208F208F208F2785A7464F208E4F208F208F28C828F838EF0ED12292C
:2014FA008EAC8278A3ECF27852ECF208E4F208F208F275820B1223A975820C122537AC8224
:20151A00AD83AEF0FF78A7ECF2EC60337F007E007D0078567419F208E4F208F208F2785AFD
:20153A0074DCF208E4F208F208F28C828F838EF0ED12298EAC82AD83AEF0FF78A7ECF278B9
:20155A00A77952E2F309E4F309F309F375820C1223A99005AB74E8F07403A3F0E4A3F0E480
:20157A00A3F07831E2F58208E2F58308E2F5F008E2125E39AC82AD83AEF0FF7852ECF2084D
:20159A00EDF208EEF208EFF27582081223A99005AB74E8F07403A3F0E4A3F0E4A3F0783573
:2015BA00E2F58208E2F58308E2F5F008E2125E39AC82AD83AEF0FF7852ECF208EDF208EE74
:2015DA00F208EFF27582091223A978187952E2F309E4F309F309F375820A1223A97835792B
:2015FA0031E3F5F0C3E295F0FC09E3F5F008E295F0FD09E3F5F008E295F0FE09E3F5F0085E
:20161A00E295F0FF7818E2FA7B0074022AFAE43BFB9005ABEAF0EBA3F0EB3395E0A3F0A34E
:20163A00F08C828D838EF0EF125E397839C0E0E582F208E583F208E5F0F2D0E008F2783C33
:20165A00E2C313FF18E213FE18E213FB18E213FA7831E22AF208E23BF208E23EF208E23F9E
:20167A00F2758203122537125DE97818C3E2F5F0740595F05054125D8FAE82AF839005C429
:20169A00EEF0EFA3F090027112607AAE82E583FF3395E0FDFC78399005A0E2F008E2A3F074
:2016BA0008E2A3F008E2A3F08E828F838DF0EC125BABAC82AD83AEF0FF7831E22CF208E2E5
:2016DA003DF208E23EF208E23FF27831E2F58208E2F58308E2F5F008E21235BE7839E2F5E2
:2016FA008208E2F58308E2F5F008E21235FA758203122537AC82AD83AEF0FF78189005A0CA
:20171A00E2F0E4A3F0E4A3F0E4A3F08C828D838EF0EF125BABAC828C8212364B75820212FB
:20173A002537AC828C821236754033758202122537AC828C8212367540247582021225379C
:20175A00AC828C82123675401574B4C0E0746AC0E07480C0E0120EC0158115811581123261
:20177A00A4AF827852EFF208E4F208F208F27582021223A975820312253712395F783DE27D
:20179A00F582123919123959AF827852EFF208E4F208F208F27582041223A97582031225F8
:0717BA0037120CED02548808
:206A480053694B20312E38206F6E205246443930305500312E38006661696C656420746F8A
:206A680020656E61626C65207265636569766572000A2A2A50414E49432A2A0000726164BE
:206A8800696F5F696E697469616C697365206661696C65640062616420626F617264206632
:206AA80072657175656E637920256400726164696F5F636F6E666967757265206661696CCD
:036AC80065640002
:2017C100AF8290046CE0F56F7CFF7DFF7406256FFBFA246BF582E43404F583EFF00A783F5F
:2017E1007401F2783FC3E29A5065C002783FE2246BF582E43404F583E0FB8C71757200E53D
:2018010071F5736BF570C454F0F57462708D75757600AB707E008B077A00E5756202E57630
:201821006207EEC40354F8CBC403CB6BCB54F8CB6BFEEB6202EE6207E570C4540FFE7B008F
:201841006AFCEB6FFD783FE22401F2D00280947406256F246BF582E43404F5838C06EEF01C
:201861007407256F246BF582E43404F5838D04ECF022AF828F6F8F047D007840E27B002CAF
:20188100FCEB3DFDAA6F7B00C3EA9CEB64808DF063F08095F05032E56F246BFCE43404FD2B
:2018A1008C828D83E0F570E56F04246BFAE43404FB8A828B83E0FE8C828D83F08A828B83AC
:2018C100E570F0056F056F80AD227E717F047D0090046B74FEF090046C7409F0783EE2FC3A
:2018E100783E04F290046DECF090046E7433F090046F7444F090047074A6F0781DE2FB0892
:20190100E2FC8E828F838DF0EB12602FA3EC12602F74022EF510E43FF5118D127827E2FBA0
:2019210008E2FC8510828511838512F0EB12602FA3EC12602F74062EF510E43FF5118D12D8
:20194100C007C006C0051245C2AC82D005D006D0078510828511838512F0EC12602F7404AF
:201961002EF510E43FF5118D127829E28510828511838512F012602F74052EF510E43FF5CC
:20198100118D12782DE28510828511838512F012602F74072EF510E43FF5118D12782AE2BD
:2019A1008510828511838512F012602F74082EFEE43FFF782EE28E828F838DF012602F75C7
:2019C10082151217C11242EDAE82AF83C3EE9411EF940050012278917411F290046B1241C4
:2019E100C5900470746DF07582B91217C11242EDAE82AF83C3EE9411EF94005001227891BA
:091A01007411F290046B0241C55E
:201A0A00AE82AF83E0FDBDFE1A8E828F83A3E0FDBD091074052EFEE43FFF8E828F83E070F7
:201A2A0002D20D22E582900301F012456AE5828583F0900302F0E5F0A3F0900304E4F0E452
:201A4A00A3F090030674FFF074FFA3F0900301E0F52B900302E0F529A3E0F52AC3E52994B9
:201A6A0008E52A94005003021B5B900304E0FBA3E0FC8B828C83C004C003124400858228CD
:201A8A00D003D00474FEB528028003021B5B74012BFEE43CFF8E828F83C004C0031244008D
:201AAA00858228D003D004740925285003021B5BC003C004AD287E0074082DFAE43EFC8591
:201ACA002B2C752D007841E2FB7F00E52CC39BFBE52D9FFFC3EB9AEF64808CF063F08095D5
:201AEA00F0D004D003406A74082DFDE43EFEC3E5299DE52A9E405A74062BFEE43CFF8E824E
:201B0A008F83C004C003124400AF82D003D004BF460D7412B52808900306EBF0ECA3F07410
:201B2A00082528F528AA287F00900302E0FDA3E0FE900302EDC39AF0EE9FA3F0900304E07F
:201B4A00FDA3E0FE900304EA2DF0EF3EA3F0021A5C900306E0FEA3E08E82F58322E582908C
:201B6A000308F0E4F530F53178457992E2F390020512444A7845E2FD7841F2784BE2FA086F
:201B8A00E2FB7C009005BA7405F07402A3F0E4A3F09005BDEDF0E4A3F08A828B838CF0125C
:201BAA005FA27845E4F2784BE2F58208E2F583121A0A900108E0FDBD020F900308E0F5829D
:201BCA00121A2EAC82AD8380047CFF7DFF8C328D3312456A85822E85832F900308E0F53776
:201BEA0074FFB5320974FFB5330474018001E4FCC3E52E9408E52F94005003021D3AC004B9
:201C0A001243A9858234D00474FEB5340280067841E2F58222C0041243C5858234D0047435
:201C2A000925345003021D3AC00485343575360074082535FBE43536FEAA377F007841E216
:201C4A00FC7D00EAC39CFAEF9DFFC3EA9BEF64808EF063F08095F0D0045003021D3A740846
:201C6A002535FEE43536FFC3E52E9EE52F9F5003021D3AEC7028E530B53207E531B533025A
:201C8A00801C900006C004124400AF82D004BF460D7412B5340874082534F53480707408F6
:201CAA002534F5347841E22405FEE43402FF7892E534F28E828F83C00412444A784B7941A5
:201CCA00E3C5F0E225F0FE08E23400FF7D007841E22405FAE43402FB9005BAEAF0EBA3F059
:201CEA00E4A3F09005BDE534F0E4A3F08E828F838DF0125FA2784B7941E3C5F0E225F0FED5
:201D0A0008E23400FF8E828F83121A0AD0047841E22534F2AE347F00E52EC39EF52EE52F7E
:201D2A009FF52FEE2530F530EF3531F531021BFA7841E2F5822285823812456A85823985E3
:201D4A00833A200B163006652008627841E2605DC3E5399420E53A940050527841C3E2F5C1
:201D6A00F0E53895F050087841E4F275820022D208C20B784DE2FA08E2FB7C009005BA745B
:201D8A0005F07402A3F0E4A3F078419005BDE2F0E4A3F08A828B838CF0125FA27841E2F537
:201DAA0039753A007841E4F2AB398B8222C208200C03021E707841E2FB7C008B398C3A85E5
:201DCA00383B753C00C3E53B9539E53C953A5065784DE2FA08E2FE7F009005BA7405F0744B
:201DEA0002A3F0E4A3F09005BDE53BF0E53CA3F08A828E838FF0125FA2E5382405FEE434AC
:201E0A0002FF9005BAEEF0EFA3F0E4A3F0AE387F009005BDE539C39EF0E53A9FA3F0900288
:201E2A000575F000125FA2E539C395387841F2D20985388222784DE2FD08E2FE7F009005E6
:201E4A00BA7405F07402A3F0E4A3F09005BDEBF0ECA3F08D828E838FF0125FA2C20CD209CE
:201E6A007841E2F58222C209AE387F00C3EE9539EF953A50048E398F3A7841E4F2E53945E1
:201E8A003A7003F58222900108E0FF7053E539453A6043AD397892EDF2784DE2F58208E2A0
:201EAA00F583C00512444AD005502B784D9005BAE2F008E2A3F0E4A3F09005BDE539F0E5CC
:201ECA003AA3F090020575F000C005125FA2D0057841EDF280047841E4F27841E2F58222A3
:201EEA007845E2B401028003021F7F7401B53906E4B53A0280028079125903AE82AF83785E
:201F0A0046D3E29EF4B3FEB308E29FF4FF7848C3E29E08E29F50567841E2FF784104F2EFE0
:201F2A002405FFE43402FEC007C00612434AAD82D006D0078F828E83EDF0784DE2FD08E2C2
:201F4A00FE7F009005BA7405F07402A3F0E4A3F078419005BDE2F0E4A3F08D828E838FF0CF
:201F6A00125FA27845E4F27841E2F58222758200227845E4F27845E2700302200E7845E2F0
:201F8A00FE7F00C3E5399EE53A9F5068125903AE82AF837846D3E29EF4B3FEB308E29FF40F
:201FAA00FF7848C3E29E08E29F5045AD397892EDF2900205C00512444AD0057841EDF27847
:201FCA004DE2FC08E2FE7F009005BA7405F07402A3F0E4A3F09005BDEDF0E4A3F08C828EEB
:201FEA00838FF0125FA27845E4F27841E2F5822275820022784D794BE2F308E209F38538E1
:20200A0082021B67E539453A70030221AF1243A9AF82BFFE0280030221807401B53906E46D
:20202A00B53A028002802E7841E260030221AF78457401F2125903E5828583F07846F208FC
:20204A00E5F0F27843E2FE08E2FF7848EEF208EFF2758200221243C5AF827845EFF2BFF7EA
:20206A000050208F057E0074082DFDE43EFE784AE2FB7C00C3EB9DEC64808EF063F08095F2
:20208A00F050337845E4F27841E2FE784104F2EE2405FEE43402FDC006C00512434AAC8264
:2020AA00D005D0068E828D83ECF0153974FFB53902153A02200E74082FFF7845F27841E24B
:2020CA006062784DE2FC08E2FD7E009005BA7405F07402A3F0E4A3F078419005BDE2F0E433
:2020EA00A3F08C828D838EF0125FA2125903E5828583F07846F208E5F0F27845E2FD7E002E
:20210A0078439005C4E2F008E2A3F08D828E8312607AE5828583F07848F208E5F0F27841AD
:20212A00E2F582227E00C3E5399FE53A9E5037125903E5828583F07846F208E5F0F27845CF
:20214A00E2FE7F0078439005C4E2F008E2A3F08E828F8312607AE5828583F07848F208E5A7
:20216A00F0F275820022784D794BE2F308E209F3853882021B677841E2FF784104F2EF24F7
:20218A0005FFE43402FEC007C00612434AAD82D006D0078F828E83EDF0153974FFB5390261
:2021AA00153A02200E784DE2FD08E2FE7F009005BA7405F07402A3F0E4A3F078419005BD48
:2021CA00E2F0E4A3F08D828E838FF0125FA27841E2F58222A20822A20922D20B22E5829037
:2021EA000309F0784AF222AF83E58290030AF0EFA3F090030AE0FEA3E0FF9005ABEEF0EF51
:20220A00A3F0E4A3F0E4A3F090000075F001E4125E39AC82AD83AEF0FF0CBC00090DBD001A
:20222A00050EBE00010F7843ECF208EDF222E58290030CF0200E39784FE2FD08E2FE7F00A7
:20224A0090030CE0FCFA7B009005BAEDF0EEA3F0EFA3F09005BDEAF0EBA3F090010975F0AC
:20226A0000C004125FA2D0047842ECF2C20AC322200A3790030CE0FF7842E2B5072C784F36
:20228A009005D9E2F008E2A3F0E4A3F09005DCEFF0E4A3F090010975F0001262B0E582852A
:2022AA0083F045F07004C20AD322D20AC322AE82AF837851C3E2F5F074FC95F050057851AE
:2022CA0074FCF29005BAEEF0EFA3F0E4A3F078519005BDE2F0E4A3F090020575F000125F9B
:0C22EA00A27851E27841F2C208D20C2226
:2022F600AF82BF1000400122EF24F050030223A7EF2F2F90230D7302233D02233F0223498F
:2023160002235B02235D02236F0223830223710223A70223A70223A70223A70223A70223B2
:20233600A70223A7022395C322AF3D8F82124616920F22C3E4953D7401953EE4953FE49555
:2023560040504EC322D322C3741E953DE4953EE4953FE49540503AC322C322C37401953D02
:20237600E4953EE4953FE495405026C322C37402953DE4953EE4953FE495405014C322C385
:202396007483953DE4953EE4953FE495405002C322D322AF827852E2F53D08E2F53E08E2F4
:2023B600F53F08E2F5408F82C0071222F6D007400122BF0402801FBF06030224AFBF0703AE
:2023D6000224C4BF0B02802DBF0C02806FBF0E030224EE0225167852E2F582C00712391959
:2023F600123959AE82D0077852EEF208E4F208F208F20225167856E4F208F208F208F27859
:202416005A7464F208E4F208F208F27852E2F58208E2F58308E2F5F008E2C00712298EAB37
:2024360082AC83ADF0FED0077852EBF208ECF208EDF208EEF278A3EBF20225167852E2F531
:20245600F008E242F008E242F008E245F0604278567419F208E4F208F208F2785A74DCF24A
:2024760008E4F208F208F27852E2F58208E2F58308E2F5F008E2C00712298EAB82AC83AD9D
:20249600F0FED0077852EBF208ECF208EDF208EEF2785279A7E2F380677852E2FE9001081C
:2024B600F07852EEF208E4F208F208F280527852E2F5F008E242F008E242F008E245F024BC
:2024D600FF920650047E0180027E007852EEF208E4F208F208F280287852E2F5F008E2429B
:2024F600F008E242F008E245F024FF920750047E0180027E007852EEF208E4F208F208F290
:20251600EF75F004A4240DF582740335F0F5837852E2F008E2A3F008E2A3F008E2A3F0D307
:2025360022AF82BF10004007900000E4F5F022EF75F004A4240DF582740335F0F583E0FC0D
:20255600A3E0FDA3E0FEA3E08C828D838EF022858241858342900359E0FD90035AE0FC8D72
:20257600038D017A008C007F00E829F8EF3AFF8B43754400C3E54398E54464808FF063F015
:202596008095F0503BE543C399F9E5449AFAE92541F9EA3542FA8B067F008E828F83C005C1
:2025B600C004C003C002C001120C08AF82D001D002D003D004D00589828A83EFF00B80A162
:2025D60085410C85420D8C82C003120B7CAE82AF83D00374012543FCE43544FD8C828D834F
:2025F600C007C006C003120C08AD82D0038D047D007A008B828A83C005C004120C08AB82CF
:20261600D004D005D006D0077A00EB4205EA4204EEB50506EFB504028002C322D3228582B7
:202636004585834690035BE0FD90035CE0FC8D038D477548008C027F00EA2547FAEF354871
:20265600FF8B49754A00C3E5499AE54A64808FF063F08095F05037C0048B067F00E549C311
:202676009547FAE54A9548FCEA2545F582EC3546F5837817E0F28E828F83C005C004C003ED
:20269600120C35D003D004D0050BD00480A285450C85460D8C82C003120B7CAE82AF83D00A
:2026B600037D008E027817EAF28B828D83C007C006120C35D006D00774012549FCE4354A9D
:2026D600FD7817EFF28C828D83020C35D310AF01C3C0D0900000120C08AE827F00C3744054
:2026F6009EE49F4008EE9430EF94005004C30227CF7C0D7D039003597401F090035AEEF0F2
:202716008C828D83C006122565D00640030227CF7D4D7F0390035974032EF090035A740CD8
:20273600F08D828F8312256540030227CF758200122537AC82AD83AEF0FFBC1B0BBD000894
:20275600BE0005BF00028003C3806E7F00EF75F004A4240DFD740335F0FE8D828E83E0F573
:202776003DA3E0F53EA3E0F53FA3E0F5408F82C007C006C0051222F6D005D006D007403260
:20279600EF75F007A424CBFB746A35F0FC8B828C83A3A3A3E493F9A3E493FAA3E493FBA3FA
:2027B600E493FC8D828E83E9F0EAA3F0EBA3F0ECA3F00FBF40004095D333D0D092AF13221E
:2027D600D310AF01C3C0D090030D741BF0E4A3F0E4A3F0E4A3F0120BDE78177440F29000B9
:2027F60000120C357E0D7F0390035B7401F090035C7440F08E828F831226347E4D7F039012
:20281600035B7443F090035C740CF08E828F83122634D0D092AF227F00EF75F004A4240D01
:20283600FD740335F0FEEF75F007A424CBFB746A35F0FC8B828C83A3A3A3E493F9A3E49374
:20285600FAA3E493FBA3E493FC8D828E83E9F0EAA3F0EBA3F0ECA3F00FBF100040BB7F0072
:20287600EF75F006A4FDAEF0244DFBEE3403FC906B3BE493F56FA3E493F570A3E493F5710C
:20289600A3E493F5728B828C83E56FF0E570A3F0E571A3F0E572A3F0ED244DFDEE3403FE08
:2028B60074042DFBE43EFC906B3FE493540F8B828C83540FF5F0E054F045F0F074042DFBE3
:2028D600E43EFC906B3FE493C4540FFA8B828C83C454F0F5F0E0540F45F0F074052DFDE4FA
:2028F6003EFE906B40E493FC8D828E83F00FBF0200500302287622AF827E008F037C007DA9
:2029160040EE75F007A424CBF582746A35F0F583E493F8A3E493F9A3E493FA9005C6E8F0B9
:20293600E9A3F0EAA3F08B828C838DF0C007C00612609AE5828583F0D006D00745F06006AF
:202956000EBE100040B58E8222AF82BF10005021EF75F007A424CBF582746A35F0F583E429
:2029760093FDA3E493FEA3E493FF8D828E838FF02290000075F00022AC82AD83AEF0FF7835
:2029960056C3E2F5F0EC95F008E2F5F0ED95F008E2F5F0EE95F008E2F5F0EF95F0500D7835
:2029B60056E2FC08E2FD08E2FE08E2FF785AC3E29C08E29D08E29E08E29F500D785AE2FC5D
:1129D60008E2FD08E2FE08E2FF8C828D838EF0EF228B
:206ACB00416B801B000000486B8039000000556B80400000005F6B8019000000656B8000C5
:206AEB000000006D6B8000000000716B8000000000796B8000000000836B80000000008C79
:206B0B006B8000000000956B8000000000A26B8064000000AD6B8000000000B66B800000D5
:206B2B000000C16B8000000000C86B8083000000FFFFFFFF01FF464F524D415400534552B9
:206B4B0049414C5F5350454544004149525F5350454544004E45544944005458504F57457D
:206B6B005200454343004D41564C494E4B004F5050524553454E44004D494E5F46524551BA
:206B8B00004D41585F46524551004E554D5F4348414E4E454C5300445554595F4359434C0C
:206BAB0045004C42545F52535349004D414E4348455354455200525453435453004D415850
:086BCB005F57494E444F57008B
:2029E7007F00EF75F006A4244DFD740335F0FE8D828E83A3A3A3A3E0540F24FF92108F8286
:202A0700C007C006C005122A36D005D006D0078D828E83A3A3A3A3E0C4540F24FF92128F60
:202A270082C007122C76D0070FBF020040B422AF82BF02004003022C56EF75F006A4244DAD
:202A4700FD740335F0FE8D828E83A3A3A3A3A210E433FC540FF5F0E054F045F0F08D828E39
:202A670083A3A3A3A3A374FFF075A700EF75F002A4FEAFF024D3F582EF346BF583E493FD9F
:202A8700600FBD0103022B2BBD0203022BBE022C4F301022EE24D3FCEF346BFD8C828D8391
:202AA700A3E493FD8DF005F07401800225E0D5F0FBFD42A48021EE24D3FCEF346BFD8C82CC
:202AC7008D83A3E493FD8DF005F07401800225E0D5F0FBF4FD52A475A70F301023EE24D340
:202AE700FCEF346BFD8C828D83A3E493FD8DF005F07401800225E0D5F0FBFD42A4022C5183
:202B0700EE24D3FCEF346BFD8C828D83A3E493FD8DF005F07401800225E0D5F0FBF4FD529C
:202B2700A4022C51301022EE24D3FCEF346BFD8C828D83A3E493FD8DF005F07401800225DA
:202B4700E0D5F0FBFD42A58021EE24D3FCEF346BFD8C828D83A3E493FD8DF005F074018041
:202B67000225E0D5F0FBF4FD52A575A70F301023EE24D3FCEF346BFD8C828D83A3E493FD70
:202B87008DF005F07401800225E0D5F0FBFD42A5022C51EE24D3FCEF346BFD8C828D83A370
:202BA700E493FD8DF005F07401800225E0D5F0FBF4FD52A5022C51301022EE24D3FCEF349F
:202BC7006BFD8C828D83A3E493FD8DF005F07401800225E0D5F0FBFD42A68021EE24D3FCBC
:202BE700EF346BFD8C828D83A3E493FD8DF005F07401800225E0D5F0FBF4FD52A675A70FCC
:202C0700301022EE24D3FCEF346BFD8C828D83A3E493FD8DF005F07401800225E0D5F0FB7C
:202C2700FD42A68025EE24D3FEEF346BFF8E828F83A3E493FF8FF005F07401800225E0D513
:202C4700F0FBF4FF52A68002C32275A700D322C322E58275F006A4244DFE740335F0FF8E2C
:202C6700828F83A3A3A3A3E0540F24FF921122E582FF75F006A4244DFD740335F0FE8D8276
:202C87008E83A3A3A3A3A212E433FCC454F0F5F0E0540F45F0F0BF02004003022DBA8D8278
:202CA7008E83A3A3A3A3A3E0FEBEFF028003022DBAEF75F002A4FEAFF024D3F582EF346B31
:202CC700F583E493FD600EBD01028053BD0203022D6E022DB6301223EE24D3FCEF346BFDEB
:202CE7008C828D83A3E493FD8DF005F07401800225E0D5F0FBFD4280022DB8EE24D3FCEFF4
:202D0700346BFD8C828D83A3E493FD8DF005F07401800225E0D5F0FBF4FD5280022DB830D3
:202D27001222EE24D3FCEF346BFD8C828D83A3E493FD8DF005F07401800225E0D5F0FBFD8C
:202D47004290806DEE24D3FCEF346BFD8C828D83A3E493FD8DF005F07401800225E0D5F0D9
:202D6700FBF4FD5290804A301222EE24D3FCEF346BFD8C828D83A3E493FD8DF005F07401C8
:202D8700800225E0D5F0FBFD42A08025EE24D3FEEF346BFF8E828F83A3E493FF8FF005F042
:202DA7007401800225E0D5F0FBF4FF52A08002C322D322C322E58275F006A4244DFE7403CE
:202DC70035F0FF8E828F83A3A3A3A3E0C4540F24FF921322AF82BF02004003022E98EF75C8
:202DE700F006A4244DFD740335F0FE74042DFDE43EFE8D828E83E0540F6003022E98EF7576
:202E0700F002A4FEAFF024D3F582EF346BF583E493FD600ABD0102802ABD0271804AEE24B0
:202E2700D3FCEF346BFD8C828D83A3E493FD8DF005F07401800225E0D5F0FBFDE580520515
:202E47008D8222EE24D3FCEF346BFD8C828D83A3E493FD8DF005F07401800225E0D5F0FB6B
:202E6700FDE59052058D8222EE24D3FEEF346BFF8E828F83A3E493FF8FF005F0740180023B
:152E870025E0D5F0FBFFE5A052078F822275827F2275827F2231
:046BD30001000101BB
:0804DC00C214C215C216C217BA
:202E9C00AF822018058F82024602785F795EC3E3F5F0E295F0501A785FE2FE785F04F2902F
:202EBC00035DE0FCA3E0FDEE2CF582E43DF583EFF022AF83E582900360F0EFA3F09003601E
:202EDC00E0FEA3E0FF90035DEEF0EFA3F0785FE4F290035FE0785EF2D21822C218785FE240
:202EFC00F58222AD82AE83AFF08D828E838FF01266DAFC700122BC2502800302316EC217BE
:202F1C00C216C215C2140DBD00010E8D828E838FF01266DAFBBB6802800CBB6C10D2140D70
:202F3C00BD000A0E8007D2160DBD00010E8D828E838FF01266DAFBBB63028030BB640280FB
:202F5C0018BB6F02802BBB7302800ABB7502800EBB78238010D215801D75130A80187513D0
:202F7C000AD2178011751310D217800A7513008005751308D217301571A8811818E624FD0A
:202F9C00FBA8811818A6038B0187140987150987161919C005C006C007AA14AB15AF168A55
:202FBC00828B838FF01266DAD007D006D005700302317FC005C006C007AA14AB15AF168ACE
:202FDC00828B838FF01266DAFA0514E4B5140205158A82C007C006C005122E9CD005D006B3
:202FFC00D007D007D006D00580A9301766301421A8811818E624FCFBA8811818A6038B0139
:20301C00871709871809871909871A1919190230D530161DA8811818E614F9A8811818A6FB
:20303C000187038B17751800751900751A000230D5A8811818E624FEFBA8811818A6038BAD
:20305C00018702098703198A178B18751900751A008066301420A8811818E624FCFBA881F0
:20307C001818A6038B01871709871809871909871A191919804330161EA8811818E614FB76
:20309C00A8811818A6038B01E7FBF5173395E0F518F519F51A8022A8811818E624FEFBA820
:2030BC00811818A6038B018702098703198A17EBF5183395E0F519F51AE513700302315984
:2030DC0030172F90056F7477F0E4A3F07440A3F0900572E513F08517828518838519F0E521
:2030FC001AC007C006C0051259F8D005D006D007802D9005987477F0E4A3F07440A3F09060
:20311C00059BE513F08517828518838519F0E51AC007C006C005125B0ED005D006D0077978
:20313C0077E7FB603E8B82C007C006C005C001122E9CD001D005D006D0070980E4AB178B73
:20315C0082C007C006C005122E9CD005D006D00780118C82C007C006C005122E9CD005D0AF
:20317C0006D0070DBD00010E022F05E58124FCFFC007E58124FBF886820886830886F012D5
:05319C002EFF15812249
:2031A100AFF0AE83E58290045EF0EEA3F0EFA3F0201902C3227860C3E2F5F074FC95F0502B
:2031C10005123516804590045EE0FDA3E0FEA3E0FF8D828E838FF07860E212602F7871E230
:2031E100FD08E2FE7F009005BA7462F07403A3F0E4A3F078609005BDE2F0E4A3F08D828EC4
:20320100838FF0125FA2123516D322781DE2FE08E2FFBEFF05BFFF02800C0EBE00010F7886
:203221001DEEF208EFF2C322AF8275A702C2A3C2FF75A3FF7873E2FD08E2FE8F041FEC6086
:203241001130F9FD8D828E83E0F5A3A3AD82AE8380E930F9FD748055A1FFBF800280F6C2AA
:20326100FFD2A375A700222019057861E26002D3227582311239ECE58230E402D322C32295
:20328100A2A8921BC2A8101A028006A21B92A8D322A21B92A8C3227862E2F58222758226E0
:2032A1000239EC786DE2F582227582081239ECAF8274014FFEC007C0067582081239B615BB
:2032C10081D0075307FEC0077582081239B61581227582081239ECAF8274024FFEC007C00D
:2032E100067582081239B61581D0075307FDC0077582081239B6158122E582FF240350198E
:20330100C00774D7C0E0746BC0E07480C0E0120EC0158115811581D007C0071232AAD007E2
:20332100C007C00775823E1239B61581D007EFFE24DF50027E2078757973E2F308E209F3E7
:203341008E82C007C006123229D006D007EFC39EFF7875E22EF208E23400F2C007E4C0E01C
:203361007582051239B61581E4C0E07582061239B61581C21AC21C7409C0E0758207123981
:20338100B61581125903AC82AD83D007C007C005C004125903AA82AB83D004D005D007EABB
:2033A100C39CFAEB9DFB7877C3E2F5F0EA95F008E2F5F0EB95F040030234C6758203C00709
:2033C100C005C0041239ECAB82D004D005D007301C40EF603DEB30E5397E04BF0400500297
:2033E1008F0678757973E2F308E209F38E82C007C006C005C004123229D004D005D006D0C1
:2034010007EFC39EFF7875E22EF208E23400F202338D301C40EF603DEB20E6397E04BF040D
:203421000050028F0678757973E2F308E209F38E82C007C006C005C004123229D004D005D4
:20344100D006D007EFC39EFF7875E22EF208E23400F202338DEB30E7201232AA781FE2FA2B
:2034610008E2FEBAFF05BEFF02800C0ABA00010E781FEAF208EEF2C322758202C007C005C2
:20348100C0041239ECAB82D004D005D007EB30E105D21C02338D201C0302338DEB30E103D2
:2034A10002338DEF601D781FE2FE08E2FFBEFF05BFFF02800C0EBE00010F781FEEF208EF25
:2034C100F2C322D322781FE2FE08E2FFBEFF05BFFF02800C0EBE00010F781FEEF208EFF275
:2034E100C322E582900461F0A2A8921EC2A8900461E0FF78797975E2F308E209F3787B795C
:2035010077E2F308E209F38F821232FA921DA21E92A8A21D22C2A8C2197860E4F2C21A7858
:2035210061E4F27413C0E07582051239B615817440C0E07582061239B61581123A601232C1
:20354100AA1232D27405C0E07582071239B61581D2A8D3229000321258927582011239ECA0
:20356100AF82BFFF028005BF05005002C3227582041239ECE582FF20E006123AC0921F225C
:20358100EF30E102D322E4C0E07582051239B615817402C0E07582061239B61581900032B0
:2035A10012585912588A40137582031239EC7582041239ECE58230E1EAD322C322AC82AD86
:2035C10083AEF0FFC3ED941CEE944EEF940E400E74C09C74F79D74BA9E74379F5002C32296
:2035E1007865ECF208EDF208EEF208EFF28C828D838EF0EF123B2CD322AC82AD83AEF0FF63
:20360100C374F09C74E89D74269EE49F5002C32290007D7410F07427A3F0E4A3F0E4A3F05E
:203621008C828D838EF0EF123A6CAC82AD83AEF0FF7869ECF208EDF208EEF208EFF2C00410
:2036410075827A1239B61581D322E582900462F0786EE2FF900462E0FEB5070122786EEED1
:20366100F2C0067582791239B61581C21A22786EE2F58222AF82C007E4C0E0758205123968
:20368100B61581E4C0E07582061239B61581123A607415C0E075820B1239B615817412C011
:2036A100E075820C1239B61581D220123DE274B6C0E07582091239B61581D007EF249B5036
:2036C10010C00774C0C0E07582581239B61581D0077865E2FB08E2FC08E2FD08E28B828C77
:2036E100838DF0C007123B2C7869E2FB08E208E208E2C00375827A1239B61581748DC0E0A1
:203701007582301239B615817422C0E07582331239B61581740CC0E07582321239B6158113
:2037210074FFC0E07582431239B6158174FFC0E07582441239B61581743CC0E075827C12EA
:2037410039B615817420C0E075827D1239B615817432C0E075827E1239B6158178707410E6
:20376100F27870E2FEC0067582341239B615817428C0E07582351239B615817582001239C5
:2037810019D0077E00EE906BF493FDC39F50060EBE0C0040F0EEFF906BF493FE786DF2BE8B
:2037A100200040047E0D80027E2D75820DC007C006122537AA82AB83ACF0FDD006D007EA63
:2037C1004B4C4D600B786DE2FD247F4003430602C007C0067582701239B615817423C0E0E2
:2037E1007582711239B615817444C0E075821D1239B61581D007786DE2FEBEC8005012C082
:2038010007740AC0E075821E1239B61581D0078010C0077402C0E075821E1239B61581D016
:2038210007781BE2B4433A7E00EE75F00DA42401FC746C35F0FDEF2CF582E43DF583E49393
:20384100FDEE906BE893FCC007C006C0058C821239B61581D006D0070EBE0C0040CB023948
:2038610017781BE2B447397E00EE75F00DA4249DFC746C35F0FDEF2CF582E43DF583E493A4
:20388100FDEE906BE893FCC007C006C0058C821239B61581D006D0070EBE0C0040CB80764D
:2038A100781BE2B486397E00EE75F00DA42439FC746D35F0FDEF2CF582E43DF583E493FDA2
:2038C100EE906BE893FCC007C006C0058C821239B61581D006D0070EBE0C0040CB80377ECB
:2038E10000EE75F00DA424D5FC746D35F0FDEF2CF582E43DF583E493FDEE906BE893FCC00C
:2039010007C006C0058C821239B61581D006D0070EBE0C0040CBD322E582900463F0FF7E1F
:2039210000EE906E7193FDC39F50060EBE080040F0900464EEF0BE08069004647407F09048
:203941000464E0FF906E7193FE786FEEF2C00775826D1239B6158122786FE2F58222AF83E0
:20396100E582900465F0EFA3F0900465E0FEA3E0FF8E047863ECF28F057864EDF220053428
:20398100C007C006C005C00575823A1239B61581D005D006D007C006C005C00675823B1230
:2039A10039B6158175823F1239B615817582401239B6158122AF82A2A89238C2A875A702F7
:2039C100C2A3C2FF74804FF5A330F9FDA881181886A330F9FD748055A1FFBF800280F6C2B5
:2039E100FFD2A375A700A23892A822AF82A2A89238C2A875A702C2A3C2FF8FA330F9FD7540
:203A0100A30030F9FD748055A1FFBF800280F6AFA3C2FFD2A375A700A23892A88F8222AFA2
:203A21008275A702C2A3C2FF75A37F30FFFD85A3E0E58124FDF886050886068F041FEC6058
:203A410016C2FF75A30030FFFD8D828E83E5A3F0A3AD82AE8380E4C2FFD2A375A700227562
:203A610082031239EC7582040239ECAF82AE83ADF0FC7881EFF208EEF208EDF208ECF27865
:203A810080E2C313FF18E213FE18E213FB18E213FA7881E22AFA08E23BFB08E23EFE08E2A5
:203AA1003FFF787D9005ABE2F008E2A3F008E2A3F008E2A3F08A828B838EF0EF025E39E445
:203AC100C0E07582051239B61581E4C0E07582061239B61581123A607481C0E07582071249
:203AE10039B6158190000212585930870712588A50F8C322E4C0E07582051239B615817481
:203B010002C0E07582061239B6158190001412585912588A40137582031239EC7582041282
:203B210039ECE58230E1EAD322C322AF82AE83ADF0FC7885EFF208EEF208EDF208ECF2781D
:203B410085C3E2F5F0E495F008E2F5F0743895F008E2F5F0749C95F008E2F5F0741C95F0A4
:203B61004003023C227886E224C8F208E23463F208E234E3F29005ABE4F0742DA3F0743190
:203B8100A3F07401A3F07885E2F58208E2F58308E2F5F008E2125E39AA82900467EAF090DE
:203BA10005D0EAF0E4A3F0E4A3F0E4A3F0902D0075F0317401126197AC82AD83AEF0FF78AB
:203BC10085E2C39CF208E29DF208E29EF208E29FF2787D7471F2087402F208E4F208F27832
:203BE10085E2F58208E2F58308E2F5F008E2123A6C7885C0E0E582F208E583F208E5F0F2EC
:203C0100D0E008F27885E225E0F208E233F208E233F208E233F2900467E0FF4420F0023C8A
:203C2100E57886E224E4F208E234B1F208E234F1F29005AB7480F07496A3F07498A3F0E4BE
:203C4100A3F07885E2F58208E2F58308E2F5F008E2125E39AC82900467ECF09005D0ECF070
:203C6100E4A3F0E4A3F0E4A3F090968075F098E4126197AC82AD83AEF0FF7885E2C39CF222
:203C810008E29DF208E29EF208E29FF2787D7471F2087402F208E4F208F27885E2F5820843
:203CA100E2F58308E2F5F008E2123A6C7885C0E0E582F208E583F208E5F0F2D0E008F278EF
:203CC10085E225E0F208E233F208E233F208E233F2181818E225E0F208E233F208E233F219
:203CE10008E233F2900467E04440F07885E2FC08E2FDC005C004900467E0C0E07582751221
:203D010039B61581D004D0058D07C005C004C0077582761239B61581D004D005C004758228
:203D2100771239B6158122D2EC20ECFDAFBE7E00ACBD7D00EC4206ED42078E828F831264B8
:203D4100B2AA82AB83ACF0FDC002C003C004C00590FF2E75F0D1743F125CECAA82AB83ACA9
:203D6100F0FDE58124FCF5818A828B838CF0ED1264BFAE82AF83EE24FFFCEF34FBFD8C8209
:203D81008D831264B2AA82AB83ACF0FD749AC0E07499C0E07459C0E07440C0E08A828B83C1
:203DA1008CF0ED126617AA82AB83ACF0FDE58124FCF581E4C0E0C0E074C8C0E07441C0E0C6
:203DC1008A828B838CF0ED1263F7AA82AB83ACF0FDE58124FCF5818A828B838CF0ED02641B
:203DE100BF3020257418C0E075820D1239B615817582081239ECAF82741F5F4480FFC007E4
:203E01007582081239B61581227582081239ECAF8253071FC0077582081239B61581740A2E
:203E2100C0E075820D1239B615817404C0E075820E1239B6158122C027C0E0C0F0C082C037
:203E410083C007C006C005C004C003C002C001C000C0D075D0007582041239ECAF82758293
:203E610003C0071239ECAE82D007EE30E4497861E2FC7D0074322CFCE43DFDC374FC9CE41B
:203E81009D5003023F437861E22462FCE43403FDC007C006C004C005758232123A20158117
:203EA10015817861E22432F27582261239ECE582D006D0077862F2EF30E611D21A75822615
:203EC100C0061239ECE582D0067862F2200504EE20E06FEE30E16975824B1239ECE582FF0E
:203EE1002403405E7861C3E2F5F0EF95F040537861C3E29F50227861E22462FDE43403FEAC
:203F01007861D3E29FF4FCC007C005C0068C82123A2015811581D0077860EFF2D219E4C06C
:203F2100E07582051239B61581E4C0E07582061239B615817402C0E07582071239B615814A
:203F4100801E781DE2FE08E2FFBEFF05BFFF02800C0EBE00010F781DEEF208EFF2123516BF
:1D3F6100D0D0D000D001D002D003D004D005D006D007D083D082D0F0D0E0D02732C9
:206BD7006F76657273697A6564207061636B6574001C1F2021222324252A6E6F720204089A
:206BF7001013182030406080C0FA2727272E1601050B9A888A8C8D0303030303030303036F
:206C170003030303F4FA7D3F69A77D535E7D5E3F302000010201000101010101020241832E
:206C3700060C37C406895D065D0CAA8912254A4C9C25378625864AAB0001020402010203A8
:206C5700020202040785080E12728A0E18BB0EBBEAFF1D1D1D1E1E1E20304150505050103E
:206C77002041839BC4080C101820314062C58912A69C314A6293C5270003060D1A1E2633E6
:206C97004D669ACDFEFE2B2B2B2E1601050B9A888A8C8D0303030303030303030303030305
:206CB700F4FA7D3F69A77D535E7D5E3F30200001020100010101010102024183060C37C48D
:206CD70006895D065D0CAA8912254A4C9C25378625864AAB0001020402010203020202040B
:206CF7000785080E12728A0E18BB0EBBEAFF1E1E1E21212121304150505050102041839B1C
:206D1700C4080C101820314062C58912A69C314A6293C5270003060D1A1E26334D669ACDAA
:206D3700FEFE010101010101050B9A888A8C8D03030303030303030303030303D0E8F4FA98
:206D5700D3A77D535E7D5E3F30E0602000000001010101010202102041839BC406895D067C
:206D77005D0CAA62C58912A69C25378625864AAB000000010101020302020204072344855E
:206D970008398A0E18BB0EBBEAFF1C1C1C1C1C1E20304150505050102041839BC4080C108C
:206DB7001820314062C58912A69C314A6293C5270003060D1A1E26334D669ACDFEFE0101F4
:206DD70001010101050B9A888A8C8D03030303030303030303030303D0E8F4FAD3A77D53AC
:206DF7005E7D5E3F30E0602000000001010101010202102041839BC406895D065D0CAA62B1
:206E1700C58912A69C25378625864AAB0000000101010203020202040723448508398A0E59
:206E370018BB0EBBEAFF1E1E1E1E1E1E20304150505050102041839BC4080C101820314011
:206E570062C58912A69C314A6293C5270003060D1A1E26334D669ACDFEFE010205080B0ED5
:026E77001114F4
:203F7E00C027C0E0C0F0C082C083C007C006C005C004C003C002C001C000C0D075D0001066
:203F9E009803024043AF9930000E3001030240438F821204E70240438F82C007120575D0DD
:203FBE00077889E22401FD08E23400FEBD6C09BE07067D007E00800B7889E22401FD08E249
:203FDE003400FE788BE2B5050708E2B50602803A7889E224EAF58208E23405F583EFF07830
:203FFE0089E22401FD08E23400FEBD6C09BE07067D007E00800B7889E22401FD08E2340054
:20401E00FE7889EDF208EEF2801B7823E2FD08E2FEBDFF05BEFF02800C0DBD00010E78233F
:20403E00EDF208EEF21099028054788D798FE2F5F0E3B5F00B08E2F5F009E3B5F002803C97
:20405E00788FE22456F58208E2340DF583E0FF788FE22401FD08E23400FEBD8A09BE0206A9
:20407E007D007E00800B788FE22401FD08E23400FE788FEDF208EEF28F998002D221D0D06A
:20409E00D000D001D002D003D004D005D006D007D083D082D0F0D0E0D02732788D798FE239
:2040BE00F5F0E3B5F00A08E2F5F009E3B5F0012230210302434522AF82C2AC7889E4F2086A
:2040DE00F2788FE4F208F2788DE4F208F2788FE4F208F2D221C28EAE89740F5E4420F58910
:2040FE008F8212463CD28E759810D2AC22AF82C0071242EDAD82AE83D007C3ED9401EE94A9
:20411E00005002C3228F8212412AD322AF82A2AC9238C2AC788DE22401FD08E23400FEBD2E
:20413E008A09BE02067D007E00800B788DE22401FD08E23400FE788FE2B5050708E2B5060E
:20415E00028044788DE22456F58208E2340DF583EFF0788DE22401FE08E23400FFBE8A09A9
:20417E00BF02067E007F00800B788DE22401FE08E23400FF788DEEF208EFF2302124C02781
:20419E00124345D027801B7821E2FE08E2FFBEFF05BFFF02800C0EBE00010F7821EEF20808
:2041BE00EFF2A23892AC2285821B85831C7891E27001221242EDAC82AD837891E2FA7B0003
:2041DE00C3EC9AED9B501F7891ECF27821E2FC08E2FDBCFF05BDFF02800C0CBC00010D78E4
:2041FE0021ECF208EDF27891E2FD788DD3E2948AF4B3FBB308E29402F4FC8D027F00C3EB7A
:20421E009AEC9F5009788DE2FF748AC39FFD788DE22456FE08E2340DFF7C009005BAE51B6B
:20423E00F0E51CA3F0E4A3F09005BDEDF0E4A3F08E828F838CF0C005125FA2D005ED251B47
:20425E00F51BE4351CF51C7891E2C39DF2D22210AF02C2227F00788DE22DF208E23FF278FC
:20427E008DC3E2948A08E29402400B788DE22476F208E234FDF2A22292AF7891E2603E9067
:20429E0005BAE51BF0E51CA3F0E4A3F07891E2FE7F009005BDEEF0EFA3F0900D5675F000D4
:2042BE00C007C006125FA2D006D007D22210AF02C222788DEEF208EFF2A22292AFD2221023
:2042DE00AF02C222302103124345A22292AF22A2AC9223C2AC788D798FC3E3F5F0E295F0A6
:2042FE0009E3F5F008E295F0B3E433FF601B788FE2248AFE08E23402FF788DD3E29EF4B369
:20431E00FEB308E29FF4FF8015788F798DE3F5F0C3E295F0FE09E3F5F008E295F0FFA223BC
:20433E0092AC8E828F8322C221D29922A2AC9224C2AC7889798BE2F5F0E3B5F00B08E2F5BD
:20435E00F009E3B5F002803A788BE224EAF58208E23405F583E0FF788BE22401FD08E234F9
:20437E0000FEBD6C09BE07067D007E00800B788BE22401FD08E23400FE788BEDF208EEF2B1
:20439E0080027F00A22492AC8F8222A2AC9225C2AC788BE224EAF58208E23405F583E0FF70
:2043BE00A22592AC8F8222A2AC9226C2AC788BE22401FE08E23400FFBE6C09BF07067E0091
:2043DE007F00800B788BE22401FE08E23400FFEE24EAF582EF3405F583E0FFA22692AC8F09
:2043FE008222AF83E582900468F0EFA3F0A2AC9227C2AC900468E0FEA3E0FF788BE22EFE12
:20441E0008E23FFF9005D4746CF07407A3F08E828F83126203AE82AF83EE24EAF582EF347E
:20443E0005F583E0FFA22792AC8F822285821D85831E12456AAC82AD837892E2FA7B00C33B
:20445E00EC9AED9B5002C3227893EAF208EBF2788BD3E2946CF4B3FAB308E29407F4FB7835
:20447E0093C3E2F5F0EA95F008E2F5F0EB95F05013788B7993D3E2946CF4B3F3B308E29461
:20449E0007F409F3AA1DAB1E7F00788BE224EAFD08E23405FE9005BAEDF0EEA3F0E4A3F0C3
:2044BE0078939005BDE2F008E2A3F08A828B838FF0125FA27893E2FC7892E2C39CF2789355
:2044DE00E2251DF51D08E2351EF51ED22810AF02C228788B7993E3C5F0E225F0F209E3C552
:2044FE00F008E235F0F2788BC3E2946C08E29407400B788BE22494F208E234F8F2A2289242
:20451E00AF7892E26044AD1DAE1E7F009005BA74EAF07405A3F0E4A3F07892E2FB7C009016
:20453E0005BDEBF0ECA3F08D828E838FF0C004C003125FA2D003D004D22810AF02C2287844
:20455E008BEBF208ECF2A22892AFD322A2AC9229C2AC7889798BC3E3F5F0E295F009E3F5A0
:20457E00F008E295F0B3E433FF60177889798BE3F5F0C3E295F0FE09E3F5F008E295F0FF4A
:20459E008019788BD3E2946CF4B3FCB308E29407F4FD7889E22CFE08E23DFFA22992AC8E16
:2045BE00828F832212456AAE82AF83746CC39EFE74079FC423CEC423541F6ECE541FCE6EB1
:2045DE00CEFF9005C4EEF0EFA3F090006412607AAE82AF8390056974EDF0E4A3F08E828F90
:2045FE008302595DAF82BF0A0A75820DC00712412AD0078F8202412AAF827E00BE090050FB
:20461E001BEE75F003A42479F582746E35F0F583E493FDEFB50502D3220E80E0C322AF823C
:20463E007E00BE0900501BEE75F003A42479F582746E35F0F583E493FDEFB5050280030E6F
:20465E0080E090046AEEF0BE090690046A7406F090046AE075F003A42479FD746E35F0FE42
:20467E008D828E83A3E493F58DAC8E5304F48D828E83A3A3E4934CF58E9005D0EFF0E4A364
:13469E00F0E4A3F0E4A3F090007DE4F5F01261970221F137
:1B6E7900012C02029602042C0009960013600126B001392B08739608E6CB08E5
:206FBC000000000000000000000000000000000000000000000000000000000000000000B5
:206FDC00000000000000000000000000000000000000000000000000000000000000000095
:206FFC00000000000000000000000000000000000000000000000000000000000000000075
:20701C00000000000000000000000000000000000000000000000000000000000000000054
:2046B100782BE2FE08E2FF782EE2FD7C00782AE2FB8B4F755000782DE2FB8B5175520078C1
:2046D10029E2FB7A00C006C007C005C004C04FC050C051C052C003C0027494C0E0746EC022
:2046F100E07480C0E0123187E58124F3F58178A4E2FE7F00C007C006123D28AC82AD83D0CB
:2047110006D0077827E2F55108E2F5527825E2F54F08E2F5507823E2F55308E2F554782130
:20473100E2F55508E2F556781DE2F55708E2F558781FE2FA08E2FBC006C007C004C005C0DF
:2047510051C052C04FC050C053C054C055C056C057C058C002C00374C0C0E0746EC0E074F6
:2047710080C0E0123187E58124EDF581782BE4F208F22278AEE2540160030246B122AF82B0
:204791007E00789F9005C4E2F008E2A3F08F828E8312607AAE82AF83789DE22EFE08E23F0F
:2047B1008E82F58322AF827895E2F5597896E2FC08E2FD78B0E230E6467401B55910789BF1
:2047D100E2FA08E2FB7896EAF208EBF280467402B5590280057403B5590F78957403F278E5
:2047F100967401F208E4F2802B7895E4F278AFE2FA08E2541FFB7896EAF208EBF280157808
:20481100957402F278AFE2FA08E2541FFB7896EAF208EBF27895E2B40208EFB4010092314C
:204831004004C2318002D231A231922A7895E26002C22B7813E25402700122789679C2D36C
:20485100E29CF4B3F3B308E29DF409F37895E2B5596EC007789DE2FA08E2FB9005E1740211
:20487100F0E4A3F08A828B83C003C002126386AE82AF83D002D00378C2C3E2F5F0EE95F0E8
:2048910008E2F5F0EF648063F08095F0D0074030E49AFAE49BFB9005E17402F0E4A3F08AF7
:2048B100828B83C007126386AB82AE83D00778C2C3E29B08E264808EF063F08095F0504BA7
:2048D1007E007895E2FA7B00AC597D00C007C006C002C003C004C00574F7C0E0746EC0E03B
:2048F1007480C0E0123187E58124F7F58178C2E2C0E008E2C0E0740AC0E0746FC0E0748077
:20491100C0E0123187E58124FBF58122AE82AF8378A1C3E29E08E29F500878A1E4F208F277
:20493100800A78A1E2C39EF208E29FF27896C3E2F5F0EE95F008E2F5F0EF95F05003024B25
:20495100847895E2FC7D000CBC00010D9005CC7404F0E4A3F08C828D83C007C00612612EF8
:20497100AC82AD83D006D0077895ECF27896D3E29EF4B3FEB308E29FF4FF7895E26006782E
:2049910095E2B402107898E2FC08E2FD7896ECF208EDF2800E789BE2FC08E2FD7896ECF2CF
:2049B10008EDF27895E260067895E2B40126C007C006120DA8123516D006D0077818C3E24D
:2049D100F5F0740195F0500C78A8E4F208F278ACE4F208F27895E26003024B77C006C00704
:2049F10078A3E2FC7D0078A4E2F55A755B00ECC3955AFEED955BFFBE640ABF0007D007D002
:204A110006024B77D007D006C006C007C007C006C005C004C04BC04CC04DC04E90333375CE
:204A3100F073743F125CEC85825C85835D85F05EF55FE58124FCF581D004D005D006D007B4
:204A510078A5E2F58208E2F583C005C0041264F3AA82AB83AEF0FFD004D005C007C006C08E
:204A710005C004C002C003C006C00790000075F0A07440125CEC85826085836185F062F50B
:204A910063E58124FCF581D004D005D006D007789B7998E3C5F0E225F0FE09E3C5F008E214
:204AB10035F0CE25E0CE33FF8E828F83C005C0041264F3AA82AB83AEF0FFC002C003C00697
:204AD100C0078560828561838562F0E563126617AA82AB83AEF0FFE58124FCF581D004D0E9
:204AF10005C007C006C005C004C002C003C006C007855C82855D83855EF0E55F1263F785A8
:204B1100824B85834C85F04DF54EE58124FCF581D004D005D006D00778A5E4F208F2ECC370
:204B3100955AFCED955BFD8C828D831264B2AC82AD83AEF0FFC007C006C004C005C006C0C2
:204B510007854B82854C83854DF0E54E12604AE58124FCF581D006D007E58224FF9232B33C
:204B7100922ED007D006C22AC22B78A1E4F208F202493D7896E2C39EF208E29FF222789580
:204B9100E2FE7F0074022EFEE43FFF9005CC7404F0E4A3F08E828F8312612EAE827895EEB3
:204BB100F222123959E582FF24EB400578A4E4F222123D28E5828583F0249CFEE5F034FFC2
:204BD100FFC3E49EE464808FF063F08095F0E433FD700C78A4E2600778A4E214F28039C36C
:204BF100740A9EE464808FF063F08095F0500878A4E2240AF28021C374059EE464808FF0B1
:204C110063F08095F0500878A4E22405F28009ED600678A4E22401F278A3E2FE7F0078A433
:204C3100E2FC7D00EEC39CFEEF9DFFC3EE9414EF64809480500878A379A4E224ECF322302B
:204C51002D09900567E4F0C22D8007900567E02401F0900567E0FFBF06005004D2B78006D3
:204C7100A22C92B7B22CEF24D74003024D079005677405F0125959E58230E0597896E2FEC4
:204C910008E2FF789BC3E29E08E29F5017789DD3E29EF4B3FCB308E29FF4FD7896ECF208A8
:204CB100EDF2800878967401F208E4F27813E2540260227896E2C0E008E2C0E0C006C0073D
:204CD1007416C0E0746FC0E07480C0E0123187E58124F9F5817813E2540260157430C0E043
:204CF100746FC0E07480C0E0123187158115811581C204120E0A900567E0FF603D123298BC
:204D1100AF827E007829E29005C4F0E4A3F0900003C007C00612607AAC82AD83D006D00779
:204D3100EC2FFCED3EC313CC13CCC313CC13CCFD7829ECF2782BE4F208F2900567E0FF2430
:204D5100FA50179005B7E4F09005B87404F0E4A3F090002D75F060125F7A7813E278AEF2A3
:204D7100D22F900568E02401F0900568E0FFBF0408124BB3900568E4F02290000175F0602F
:204D91001265FFE5828583F02401FEE435F0FF9005BA7401F07400A3F07460A3F09005BD8E
:204DB100EEF0EFA3F09000B175F060125FA2D23022AF82BF02004017EF24EF401290046BA9
:204DD100E0FEBE520A90046CE0FEBE540280237E00C3EE9F501BEE246BF582E43404F58374
:204DF100E0F582C007C006124602D006D0070E80E0229005BA746BF07404A3F0E4A3F090F7
:204E110005BDEFF0E4A3F090000175F060C007125FA2D007EF2401F8E4F278017441F278E8
:204E310012EFF2D20190035F74FCF090046B122ECE120600122EF7E582FF600A7851EFF273
:204E510090046B0222B82212590378C4E582F208E583F278C479C6E2F308E209F378FF76BC
:204E71002A78FFB62A028015743FC0E0746FC0E07480C0E0120EC01581158115817800E2A3
:204E9100B441028015744CC0E0746FC0E07480C0E0120EC015811581158112060078AEE23C
:204EB100600712478478AEE4F2300D0F900108E0FB6008200005C20D1218CB120D98123691
:204ED1004B125903AA82AB837871746BF2087404F29000C875F060C003C0021231A1D0022A
:204EF100D003400302506ED22DD204C003C002120E0A123298AD82D002D0037C007829E298
:204F11009005C4F0E4A3F0900007C005C004C003C00212607AAE82AF83D002D003D004D084
:204F310005EE2DFEEF3CC423CEC423541F6ECE541FCE6ECE7829EEF2782BE2FE08E2FF0E54
:204F5100BE00010F782BEEF208EFF278A1E4F208F278C8E2B402005003024E7278C8E224EA
:204F7100FE246BFEE43404FF9005BAEEF0EFA3F0E4A3F09005BD7402F0E4A3F09000AF7571
:204F9100F060C003C002125FA2D002D00378C8E21414F278AFE2FE08E2541FFF4E7041785D
:204FB100C8E2603C78C8E2B404209005BA746BF07404A3F0E4A3F078C89005BDE2F0E4A315
:204FD100F090002D75F060125FA2782BE2FE08E2FF1EBEFF011F782BEEF208EFF2024E72A6
:204FF10078AFE2FE08E2541FFF4E7003024E7278C8E2F582C003C0021247B6D002D0037870
:20501100C4EAF208EBF278B0E2C4035401FFBF010B78C8E2F582124DC2024E7278C8E270FC
:2050310003024E7278B0E223540124FF920E784F746BF2087404F278C8E2F58212223850F6
:2050510003024E72300003024E72D2B678C87991E2F390046B1241C5C2B6024E721259031F
:20507100AA82AB8378C479C9D3E29AF4B3F3B308E29BF409F378C9E2F58208E2F583C00377
:20509100C00212491DD002D00378C4EAF208EBF278C6D3E29AF4B3FCB308E29BF4FD7E004C
:2050B1007F00C3E49C74809DE49EE464808FF063F08095F05012C003C002124C50D002D034
:2050D1000378C6EAF208EBF278A7E2700302515E12329EAF8278A7C3E2F5F0EF95F0501602
:2050F10078A879C9E3C5F0E225F0F209E3C5F008E235F0F2803678A8E4F208F278ACE2F579
:20511100F008E245F07025125D8FAE82AF8378AA9005D4E2F008E2A3F08E828F8312620307
:20513100E5828583F078ACF208E5F0F278AA79ACE3C5F0E225F0FE09E3C5F008E235F0FF97
:2051510078A8C3E29E08E29F5003024E727895E26011202A03024E727895E2B402028003A4
:20517100024E72302B03024E7278A1E2F5F008E245F06003024E72202D05123281400512AA
:2051910032685011789DE2FE08E2FF78A1EEF208EFF2024E7212329EAF827E00782AE290DC
:2051B10005C4F0E4A3F0900003C007C00612607AAC82AD83D006D007EC2FFCED3EC313CCB3
:2051D10013CCC313CC13CCFD782AECF2302E03024E727896799DC3E3F5F0E295F009E3F5C7
:2051F100F008E295F05003024E727896799DE3F5F0C3E295F0FE09E3F5F008E295F0FF785F
:205211009F900569E2F008E2A3F08E828F8312595DAE82AF83BE03005003024E721E1E1E15
:20523100789AC3E29E5004789AE2FE3030579000B175F060C0061265FFAD82AF83D0068E04
:20525100037C00C3EB9DEC9F403B9000B175F060C0061265FFAD8278C8EDF29005BA74B169
:20527100F0E4A3F07460A3F09005BDEDF0E4A3F090046B75F000125FA2D00678B0E24420EE
:20529100F2C2308026784D746BF2087404F28E82C006121D40E58278C8F21221E1D0069211
:2052B10033E433FF78B013E292E5F278C8799AC3E2F5F0E395F05019C0067462C0E0746F41
:2052D100C0E07480C0E0120EC0158115811581D0067895E2B40203D38001C39233E43378FE
:2052F100B013E292E6F2C0061221DED0069233E433FF78B013E292E7F27895E2704478C89B
:20531100E2703F302F3CBE04004037C22F9005BA7429F0E4A3F07460A3F09005BD7404F0B2
:20533100E4A3F090046B75F000125FA278C87404F278AFE4F208E254E0F278B0E2547FF2E8
:20535100802878C8E22402F58212478FAE82AF837896E2C39EFE08E29FFF78AFEEF208EFB6
:20537100541FF5F0E254E045F0F2120D8812364B78C8E2246BFEE43404FF7D009005BA7443
:20539100AFF0E4A3F07460A3F09005BD7402F0E4A3F08E828F838DF0125FA278C8E2600E0E
:2053B10078AFE2FE08E2541FFF4E6002D2B678C8E27002D22B789DE2FE08E2FF78A1EEF2D9
:2053D10008EFF278A3E2FE7F0078A4E2FC7D00EEC39CFEEF9DFFBE6405BF0002801778C84D
:2053F100E22402F58212478FAE82AF8378A5E22EF208E23FF278C8E22402FF789BE2FD0858
:20541100E2C313CD13CDFE7896E22DFD08E23EFE7879746BF2087404F2787BEDF208EEF2EA
:205431008F821234E3401A78C8E2601578AFE2FE08E2541FFF4E600978B0E220E5031221D1
:20545100E478A7E2600C78A8E4F208F278ACE4F208F2120D9812364B12351678C8E27003CA
:20547100024E7278AFE2FE08E2541FFF4E7003024E72C2B6024E721232A4AF829005D0EFCC
:20549100F0E4A3F0E4A3F0E4A3F09003E8E4F5F0126197AC82AD83AEF0FF9005ABECF0ED54
:2054B100A3F0EEA3F0EFA3F090120075F07AE4125E39AC82AD83AEF0FF74082CFCE43DFD7A
:2054D100E43EFEE43FFFEDC4CCC4540F6CCC540FCC6CCCFDEEC454F04DFDEFC4CEC4540F51
:2054F1006ECE540FCE6ECE789FECF208EDF29005C4ECF0EDA3F090000DC005C00412607A4F
:20551100E5828583F0D004D005240DFEE435F0FF789DEEF208EFF230052E789A7476F2ED1F
:20553100CC25E0CC33FD789FECF208EDF2EDCC25E0CC33CC25E0CC33FDEC2EFEED3FFF786C
:205551009DEEF208EFF28005789A74FAF2789D799BE2F308E2F5F0E325E0C5F033C5F0F398
:2055710009E5F0F3789F9005D0E2F008E2A3F0E4A3F0E4A3F0789AE2FC7D007E007F008C9A
:20559100828D838EF0EF12619785826485836585F066F567789DE2FA08E2FB7E007F00907F
:2055B10005D0E5642AF0E5653BA3F0E5663EA3F0E5673FA3F0900003E4F5F012619778CBA7
:2055D100C0E0E582F208E583F208E5F0F2D0E008F278A7E2604E78AA7438F2087401F27890
:2055F1005674A8F2087403F208E4F208F278CB795AE2F308E209F308E209F308E209F378D8
:20561100CBE2F58208E2F58308E2F5F008E212298E78CBC0E0E582F208E583F208E5F0F204
:20563100D0E008F278CBC3E294A808E2946108E2940008E29400401A7818C3E2F5F07401C7
:2056510095F0500E78CB74A8F2087461F208E4F208F275820F122537AA82AB83AEF0FF9063
:2056710005D0EAF0EBA3F0EEA3F0EFA3F090003EE4F5F0126197AC82AD83AEF0FF78CBC347
:20569100E2F5F0EC95F008E2F5F0ED95F008E2F5F0EE95F008E2F5F0EF95F0503775820F6E
:2056B100122537AC82AD83AEF0FF9005D0ECF0EDA3F0EEA3F0EFA3F090003EE4F5F01261A2
:2056D1009778CBC0E0E582F208E583F208E5F0F2D0E008F278CBC3E2F5F074FF95F008E25C
:2056F100F5F0741F95F008E2F5F0E495F008E2F5F0E495F0500E78CB74FFF208741FF20891
:20571100E4F208F278CBE2FC08E2FD7898ECF208EDF27870E27E0024F6FFEE34FFFE9005B6
:20573100E17402F0E4A3F08F828E83C005C004126386AE82AF83789F9005C4E2F008E2A3C3
:20575100F08E828F8312607AAE82AF83D004D005789DE22EF208E23FF2789DD3E29CF4B3F0
:20577100FCB308E29DF4FD789F900569E2F008E2A3F08C828D8312595DAE82AF83789AE251
:20579100FC7D00C3EC9EED9F50048C068D078E820221E7789BE2C0E008E2C0E07477C0E068
:2057B100746FC0E07480C0E0123187E58124FBF5819000011258927898E2C0E008E2C0E053
:2057D100748BC0E0746FC0E07480C0E0123187E58124FBF581900001125892789AE2FE7F3F
:2057F10000C006C00774A0C0E0746FC0E07480C0E0123187E58124FBF581900001025892FE
:206E94004C2F5220525353493A2025752F257520204C2F52206E6F6973653A2025752F2560
:206EB4007520706B74733A2025752000207478653D2575207278653D2575207374783D25E4
:206ED40075207372783D2575206563633D25752F25752074656D703D25642064636F3D2596
:206EF400750A0054444D3A2025752F2575206C656E3D257520002064656C74613A202564FA
:206F14000A0054444D3A206368616E67652074696D696E672025752F25750A0054444D3A5A
:206F3400207363616E6E696E670A00737461636B20626C6F776E0A00706461746120636172
:206F54006E617279206368616E6765640A006F76657273697A65642074646D207061636B70
:206F740065740073696C656E63655F706572696F643A2025750A0074785F77696E646F777E
:206F94005F77696474683A2025750A006D61785F646174615F7061636B65745F6C656E6745
:086FB40074683A2025750A00FB
:20581100C027C0E0C0F0C082C083C007C006C005C004C003C002C001C000C0D075D0007555
:2058310091041205C2E56860021568D0D0D000D001D002D003D004D005D006D007D083D05E
:2058510082D0F0D0E0D02732AE82AF83C3EE94F6EF940940047568FF2274092EFEE43FFFE6
:20587100900569740AF0E4A3F08E828F8312595DAE828E682285826822E568B401009234A9
:205891002212585912588A50FB22C027C0E0C0F0C082C083C007C006C005C004C003C0025A
:2058B100C001C000C0D075D00075C80474012569F569E4356AF56A3007031240B9D0D0D048
:2058D10000D001D002D003D004D005D006D007D083D082D0F0D0E0D02732AFCDAECCEFB513
:2058F100CDF88F05E4FFFCEE4207EC42058F828D8322AE69AF6AC007C0061258EBAC82ADC5
:2059110083D006D007EEB569E9EFB56AE5EEC40354F8FF7E00EDC403CCC40354076CCC54B2
:2059310007CC6CCCFDEC4206ED42078E828F83227592407593B075910443E68075CA00753A
:0C595100CB0075C804D2AD2285CC8222A8
:20595D00AF83E58290056BF0EFA3F090056DE4F0E4A3F0900569E0FEA3E0FF7D1090056BE7
:20597D00E0FBA3E0FC339235ECCB25E0CB33FC90056BEBF0ECA3F090056DE0FBA3E0CB2556
:20599D00E0CB33FC90056DEBF0ECA3F030351290056DE0FBA3E0FC90056D74014BF0ECA3A0
:2059BD00F090056DE0FBA3E0FCC3EB9EEC9F401D90056DEBC39EF0EC9FA3F090056BE0FB13
:1B59DD00A3E0FC90056B74014BF0ECA3F0DD8E90056BE0FEA3E08E82F583228B
:2059F800AF82AE83ADF0FC900573EFF0EEA3F0EDA3F0ECA3F0900572E0FF7E20900573E0C1
:205A1800FAA3E0FBA3E0FCA3E0FD8F6B756C00756D00756E009005A0E56BF0E56CA3F0E519
:205A38006DA3F0E56EA3F08A828B838CF0EDC007C006125BABAA82AB83D006D00774302A6B
:205A5800FD900597F08D04EC24C6500790059774072DF01EEE2477FCE43405FD900597E0CA
:205A78008C828D83F0900573E0FAA3E0FBA3E0FCA3E0FD9005ABE56BF0E56CA3F0E56DA348
:205A9800F0E56EA3F08A828B838CF0EDC007C006125E39AA82AB83ACF0FDD006D00790052A
:205AB80073EAF0EBA3F0ECA3F0EDA3F0900573E0FAA3E0FBA3E0FCA3E0FDEA4B4C4D600374
:205AD800025A1490056FE0FCA3E0FDA3E0FFEE2477F582E43405F583E0FB8C828D838FF04F
:205AF80012602FA3AC82AD830EBE20E28C828D838FF0E402602FAF82AE83ADF0FC90059CE0
:205B1800EFF0EEA3F0EDA3F0ECA3F090059CE0FCA3E0FDA3E0FEA3E0FF30E73F90059BE018
:205B3800FBBB0A37900598E0F9A3E0FAA3E0FB89828A838BF0742D12602F900598740129B5
:205B5800F0E43AA3F0EBA3F090059CC3E49CF0E49DA3F0E49EA3F0E49FA3F090059CE0FC5E
:205B7800A3E0FDA3E0FEA3E0FF900598E0F9A3E0FAA3E0FB90059BE0F890056FE9F0EAA317
:135B9800F0EBA3F0900572E8F08C828D838EF0EF0259F8CF
:205BAB00AF82AE83ADF0FC9005A4EFF0EEA3F0EDA3F0ECA3F09005A8E4F09005A4E0FCA37E
:205BCB00E0FDA3E0FEA3E0FF7B009005A0E0F56FA3E0F570A3E0F571A3E0F572235401FAB9
:205BEB007074C003E56F256FF8E57033F9E57133FAE57233FB9005A0E8F0E9A3F0EAA3F084
:205C0B00EBA3F09005A0E0F56FA3E0F570A3E0F571A3E0F572C3EC956FED9570EE9571EF3F
:205C2B009572D0035027E572C313F572E57113F571E57013F570E56F13F56F9005A0F0E503
:205C4B0070A3F0E571A3F0E572A3F080090B9005A8EBF0025BD59005A8E0FF9005A4E0FB55
:205C6B00A3E0FCA3E0FDA3E0FE9005A0E0F56FA3E0F570A3E0F571A3E0F572C3EB956FECC7
:205C8B009570ED9571EE957240179005A4EBC3956FF0EC9570A3F0ED9571A3F0EE9572A338
:205CAB00F09005A0E0FBA3E0FCA3E0FDA3E0C313FEED13FDEC13FCEB13FB9005A0F0ECA3DE
:205CCB00F0EDA3F0EEA3F08F061FEE708E9005A4E0FCA3E0FDA3E0FEA3E08C828D838EF0F3
:015CEB002296
:205CEC00125E0BBC00030265B7EF60FA30D502B2D1E583B4FF030265CDE582B4FF03026597
:205D0C00CD258340072482400B0265B724831450030265CDF582EA8DF0A4A8F0EA8EF0A444
:205D2C0028F8E435F0F9EB8DF0A428E935F0F9E433CA8FF0A429F9EA35F0FAEBF88EF0A4C6
:205D4C0029F9EA35F0FAE433FBEC8DF0A429F9EA35F0FAE43BFBE88FF0A42AFAEB35F0FB6E
:205D6C00E433CCFD8EF0A42AFAEB35F0FBE43CFCED8FF0A42BFBEC35F0FC20E703125F47C5
:035D8C0002659617
:205D8F00900FE0E0FCA3E0FDA3E0FEA3E0FF9005D0ECF0EDA3F0EEA3F0EFA3F0904E6D7592
:205DAF00F0C67441126197AC82AD83AEF0FF900FE074392CF074303DA3F0E43EA3F0E43FD0
:205DCF00A3F0900FE0E0A3E0A3E0FEA3E0FF8E048F0553057F8C828D8322AF83E5829005D1
:1C5DEF00A9F0EFA3F09005A9E0FEA3E0FF900FE0EEF0EFA3F0E4A3F0E4A3F022F0
:0479B20001000000D0
:205E0B00AA82AB83A2F73392D1F5826002D2F7ACF0E58124F9F8E6FD08E6FE0886F008E6FA
:0E5E2B00A2F73392D5F5836002D2F7AFF022D2
:205E3900AF82AE83ADF0FC9005AFEFF0EEA3F0EDA3F0ECA3F09005B3E4F0E4A3F0E4A3F0A1
:205E5900E4A3F09005ABE0FCA3E0FDA3E0FEA3E0FF756F209005AFE0F8A3E0F9A3E0FAA357
:205E7900E0FB339236E828F8E933F9EA33FAEB33FB9005AFE8F0E9A3F0EAA3F0EBA3F090C3
:205E990005B3E0F8A3E0F9A3E0FAA3E0FBE828F8E933F9EA33FAEB33FB9005B3E8F0E9A3E9
:205EB900F0EAA3F0EBA3F030361E9005B3E0F8A3E0F9A3E0FAA3E0FB9005B3740148F0E9E5
:205ED900A3F0EAA3F0EBA3F09005B3E0F8A3E0F9A3E0FAA3E0FBC3E89CE99DEA9EEB9F4065
:205EF900319005B3E8C39CF0E99DA3F0EA9EA3F0EB9FA3F09005AFE0F8A3E0F9A3E0FAA3D0
:205F1900E0FB9005AF740148F0E9A3F0EAA3F0EBA3F0D56F028003025E6D9005AFE0FCA3CC
:0E5F3900E0FDA3E0FEA3E08C828D838EF022BB
:0604A800E478FFF6D8FD28
:205F47007804EC7011E58224F8500AF582E4C9CACBFCD8EF22EC7820058220E713D5820159
:135F670022C3E933F9EA33FAEB33FBEC33FCD8EA15822267
:205F7A00AC82AD839005B8E0FEA3E0FFBE000360121F0F9005B7E08C828D8312602FA3DE2F
:085F9A00FADFF88C828D8322EE
:205FA200AFF0AE83E5829005BFF0EEA3F0EFA3F09005BFE0F56FA3E0F570A3E0F571AA6FDF
:205FC200AB70AC719005BAE0F8A3E0F9A3E0FF9005BDE0F572A3E0F573AD72AE73157274A3
:205FE200FFB572021573ED4E6020888289838FF01266DAFEA3A882A9838A828B838CF0EED2
:1460020012602FA3AA82AB8380CF856F828570838571F022A7
:2004860079FAE94409601B7A0A906FBC78EA75AA05E493F2A308B8000205AAD9F4DAF275E2
:0204A600AAFFAB
:19601600E5829005C2F0FFBF30004009EF24C6400475820122758200223C
:1B602F0020F71130F6138883A88220F509F6A8837583002280FEF280F5F02270
:20604A00FFA881181812646ED2D133E6400730E70B7582002220E70675820122C2D112648C
:10606A0050E97003F5822220D101B3E433F582228C
:20607A00AA83AB828BF09005C4E0A4F8A9F08AF0E0A429F98BF0A3E0A429F5838882222212
:20609A00AFF0AE83E5829005C9F0EEA3F0EFA3F09005C9E0FDA3E0FEA3E0FF9005C6E0F5F0
:2060BA006FA3E0F570A3E0F5718D008E018F04888289838CF01266DAF87C00A96FAA70ABA2
:2060DA007189828A838BF01266DAF97B00E8C399F8EC9BFC88028C03E84C7028856F82853D
:2060FA0070838571F01266DA601A0DBD00010E9005C9EDF0EEA3F0EFA3F0056FE4B56FA9A5
:14611A00057080A59005C9EDF0EEA3F0EFA3F08A828B83225D
:20612E00AF83E5829005CEF0EFA3F09005CEE0FEA3E0FF33E433FD6009C3E49EFBE49FFCB1
:20614E0080048E038F049005CCE0FEA3E0FF30E709C3E49EF9E49FFA80048E018F029005B4
:20616E00D4E9F0EAA3F08B828C83C005126203AE82AF83D005ED600CC3E49EFCE49FFD8CB2
:09618E00828D83228E828F832210
:20619700A882A983AAF0FB88F09005D0E0A4FCADF089F0E0A42DFDE435F0FE88F0A3E0A436
:2061B7002DFDE5F03EFEE433FF89F0E0A42EFEE5F03FFF88F0A3E0A42EFEE5F03FFF8AF0E3
:2061D7009005D0E0A42EFEE5F03FFF8BF0E0A42FFF8AF0A3E0A42FFF89F0A3E0A42FFF882E
:0C61F700F0A3E0A42F8EF08D838C822298
:20620300AF83E5829005D6F0EFA3F09005D8E4F09005D6E0FEA3E0FF7D009005D4E0FBA395
:20622300E0FC235401FA7037ECCB25E0CB33FC9005D4EBF0ECA3F09005D4E0FBA3E0FCC367
:20624300EE9BEF9C5011ECC313CB13CBFC9005D4EBF0ECA3F080080D9005D8EDF080BB90F2
:2062630005D8E0FF9005D6E0FDA3E0FE9005D4E0FBA3E0FCC3ED9BEE9C400B9005D6EDC398
:206283009BF0EE9CA3F09005D4E0FDA3E0C313CD13CDFE9005D4EDF0EEA3F08F061FEE7030
:0D62A300C39005D6E0FEA3E08E82F58322B5
:2062B000AFF0AE83E5829005DEF0EEA3F0EFA3F09005DCE0FEA3E0FF4E7004900000221ECE
:2062D000BEFF011FEE4F6075C006C0079005DEE0FBA3E0FCA3E0FD8B008C018D02888289AB
:2062F000838AF01266DAF89005D9E0F56FA3E0F570A3E0F571A96FAA70AF7189828A838FCB
:20631000F01266DAF9E8B501028006D007D006802CD007D0060BBB00010C9005DEEBF0ECF9
:20633000A3F0EDA3F0AB6FAC70AD710BBB00010C9005D9EBF0ECA3F0EDA3F080829005DE56
:20635000E0FDA3E0FEA3E0FF8D828E838FF01266DAFD7F009005D9E0FBA3E0FCA3E0FE8B0C
:16637000828C838EF01266DAFB7E00EDC39BFDEF9E8D82F58322BF
:20638600AF83E5829005E3F0EFA3F09005E3E0FEA3E0FF33E433FD6009C3E49EFBE49FFC2D
:2063A60080048E038F049005E1E0FEA3E0FF33E433FA6009C3E49EF8E49FF980048E008F52
:2063C60001900569E8F0E9A3F08B828C83C005C00212595DAE82AF83D002D005EA6D600C2D
:1163E600C3E49EFCE49FFD8C828D83228E828F832261
:2063F700125E0B7900E583B58202800D50031265E5E583C39582126736E5D0C465D020E115
:2064170017EA2DFAEB3EFBEC3FFC50097401126736EC4480FC026596C3EA9DFAEB9EFBEC18
:196437009FFC500FC3E499F9E49AFAE49BFBE49CFCB2D1125F4702659673
:2004AE0078CFE84400600A790075AA00E4F309D8FC781BE84405600C79069000CFE4F0A380
:0404CE00D8FCD9FA83
:206450007901AA82E68F82B5821318E6B5F00E18E6B5830918E68A82B58202790022B48043
